{
  "contractName": "piggyNFT",
  "abi": [
    {
      "inputs": [
        {
          "internalType": "address",
          "name": "game",
          "type": "address"
        }
      ],
      "stateMutability": "nonpayable",
      "type": "constructor"
    },
    {
      "anonymous": false,
      "inputs": [
        {
          "indexed": true,
          "internalType": "address",
          "name": "owner",
          "type": "address"
        },
        {
          "indexed": true,
          "internalType": "address",
          "name": "approved",
          "type": "address"
        },
        {
          "indexed": true,
          "internalType": "uint256",
          "name": "tokenId",
          "type": "uint256"
        }
      ],
      "name": "Approval",
      "type": "event"
    },
    {
      "anonymous": false,
      "inputs": [
        {
          "indexed": true,
          "internalType": "address",
          "name": "owner",
          "type": "address"
        },
        {
          "indexed": true,
          "internalType": "address",
          "name": "operator",
          "type": "address"
        },
        {
          "indexed": false,
          "internalType": "bool",
          "name": "approved",
          "type": "bool"
        }
      ],
      "name": "ApprovalForAll",
      "type": "event"
    },
    {
      "anonymous": false,
      "inputs": [
        {
          "indexed": false,
          "internalType": "address",
          "name": "account",
          "type": "address"
        }
      ],
      "name": "Paused",
      "type": "event"
    },
    {
      "anonymous": false,
      "inputs": [
        {
          "indexed": true,
          "internalType": "bytes32",
          "name": "role",
          "type": "bytes32"
        },
        {
          "indexed": true,
          "internalType": "bytes32",
          "name": "previousAdminRole",
          "type": "bytes32"
        },
        {
          "indexed": true,
          "internalType": "bytes32",
          "name": "newAdminRole",
          "type": "bytes32"
        }
      ],
      "name": "RoleAdminChanged",
      "type": "event"
    },
    {
      "anonymous": false,
      "inputs": [
        {
          "indexed": true,
          "internalType": "bytes32",
          "name": "role",
          "type": "bytes32"
        },
        {
          "indexed": true,
          "internalType": "address",
          "name": "account",
          "type": "address"
        },
        {
          "indexed": true,
          "internalType": "address",
          "name": "sender",
          "type": "address"
        }
      ],
      "name": "RoleGranted",
      "type": "event"
    },
    {
      "anonymous": false,
      "inputs": [
        {
          "indexed": true,
          "internalType": "bytes32",
          "name": "role",
          "type": "bytes32"
        },
        {
          "indexed": true,
          "internalType": "address",
          "name": "account",
          "type": "address"
        },
        {
          "indexed": true,
          "internalType": "address",
          "name": "sender",
          "type": "address"
        }
      ],
      "name": "RoleRevoked",
      "type": "event"
    },
    {
      "anonymous": false,
      "inputs": [
        {
          "indexed": true,
          "internalType": "address",
          "name": "from",
          "type": "address"
        },
        {
          "indexed": true,
          "internalType": "address",
          "name": "to",
          "type": "address"
        },
        {
          "indexed": true,
          "internalType": "uint256",
          "name": "tokenId",
          "type": "uint256"
        }
      ],
      "name": "Transfer",
      "type": "event"
    },
    {
      "anonymous": false,
      "inputs": [
        {
          "indexed": false,
          "internalType": "address",
          "name": "account",
          "type": "address"
        }
      ],
      "name": "Unpaused",
      "type": "event"
    },
    {
      "inputs": [],
      "name": "DEFAULT_ADMIN_ROLE",
      "outputs": [
        {
          "internalType": "bytes32",
          "name": "",
          "type": "bytes32"
        }
      ],
      "stateMutability": "view",
      "type": "function"
    },
    {
      "inputs": [],
      "name": "MINTER_ROLE",
      "outputs": [
        {
          "internalType": "bytes32",
          "name": "",
          "type": "bytes32"
        }
      ],
      "stateMutability": "view",
      "type": "function"
    },
    {
      "inputs": [],
      "name": "PAUSER_ROLE",
      "outputs": [
        {
          "internalType": "bytes32",
          "name": "",
          "type": "bytes32"
        }
      ],
      "stateMutability": "view",
      "type": "function"
    },
    {
      "inputs": [
        {
          "internalType": "address",
          "name": "to",
          "type": "address"
        },
        {
          "internalType": "uint256",
          "name": "tokenId",
          "type": "uint256"
        }
      ],
      "name": "approve",
      "outputs": [],
      "stateMutability": "nonpayable",
      "type": "function"
    },
    {
      "inputs": [
        {
          "internalType": "address",
          "name": "owner",
          "type": "address"
        }
      ],
      "name": "balanceOf",
      "outputs": [
        {
          "internalType": "uint256",
          "name": "",
          "type": "uint256"
        }
      ],
      "stateMutability": "view",
      "type": "function"
    },
    {
      "inputs": [
        {
          "internalType": "uint256",
          "name": "tokenId",
          "type": "uint256"
        }
      ],
      "name": "burn",
      "outputs": [],
      "stateMutability": "nonpayable",
      "type": "function"
    },
    {
      "inputs": [
        {
          "internalType": "uint256",
          "name": "tokenId",
          "type": "uint256"
        }
      ],
      "name": "getApproved",
      "outputs": [
        {
          "internalType": "address",
          "name": "",
          "type": "address"
        }
      ],
      "stateMutability": "view",
      "type": "function"
    },
    {
      "inputs": [
        {
          "internalType": "bytes32",
          "name": "role",
          "type": "bytes32"
        }
      ],
      "name": "getRoleAdmin",
      "outputs": [
        {
          "internalType": "bytes32",
          "name": "",
          "type": "bytes32"
        }
      ],
      "stateMutability": "view",
      "type": "function"
    },
    {
      "inputs": [
        {
          "internalType": "bytes32",
          "name": "role",
          "type": "bytes32"
        },
        {
          "internalType": "uint256",
          "name": "index",
          "type": "uint256"
        }
      ],
      "name": "getRoleMember",
      "outputs": [
        {
          "internalType": "address",
          "name": "",
          "type": "address"
        }
      ],
      "stateMutability": "view",
      "type": "function"
    },
    {
      "inputs": [
        {
          "internalType": "bytes32",
          "name": "role",
          "type": "bytes32"
        }
      ],
      "name": "getRoleMemberCount",
      "outputs": [
        {
          "internalType": "uint256",
          "name": "",
          "type": "uint256"
        }
      ],
      "stateMutability": "view",
      "type": "function"
    },
    {
      "inputs": [
        {
          "internalType": "bytes32",
          "name": "role",
          "type": "bytes32"
        },
        {
          "internalType": "address",
          "name": "account",
          "type": "address"
        }
      ],
      "name": "grantRole",
      "outputs": [],
      "stateMutability": "nonpayable",
      "type": "function"
    },
    {
      "inputs": [
        {
          "internalType": "bytes32",
          "name": "role",
          "type": "bytes32"
        },
        {
          "internalType": "address",
          "name": "account",
          "type": "address"
        }
      ],
      "name": "hasRole",
      "outputs": [
        {
          "internalType": "bool",
          "name": "",
          "type": "bool"
        }
      ],
      "stateMutability": "view",
      "type": "function"
    },
    {
      "inputs": [
        {
          "internalType": "address",
          "name": "owner",
          "type": "address"
        },
        {
          "internalType": "address",
          "name": "operator",
          "type": "address"
        }
      ],
      "name": "isApprovedForAll",
      "outputs": [
        {
          "internalType": "bool",
          "name": "",
          "type": "bool"
        }
      ],
      "stateMutability": "view",
      "type": "function"
    },
    {
      "inputs": [],
      "name": "name",
      "outputs": [
        {
          "internalType": "string",
          "name": "",
          "type": "string"
        }
      ],
      "stateMutability": "view",
      "type": "function"
    },
    {
      "inputs": [
        {
          "internalType": "uint256",
          "name": "tokenId",
          "type": "uint256"
        }
      ],
      "name": "ownerOf",
      "outputs": [
        {
          "internalType": "address",
          "name": "",
          "type": "address"
        }
      ],
      "stateMutability": "view",
      "type": "function"
    },
    {
      "inputs": [],
      "name": "paused",
      "outputs": [
        {
          "internalType": "bool",
          "name": "",
          "type": "bool"
        }
      ],
      "stateMutability": "view",
      "type": "function"
    },
    {
      "inputs": [
        {
          "internalType": "bytes32",
          "name": "role",
          "type": "bytes32"
        },
        {
          "internalType": "address",
          "name": "account",
          "type": "address"
        }
      ],
      "name": "renounceRole",
      "outputs": [],
      "stateMutability": "nonpayable",
      "type": "function"
    },
    {
      "inputs": [
        {
          "internalType": "bytes32",
          "name": "role",
          "type": "bytes32"
        },
        {
          "internalType": "address",
          "name": "account",
          "type": "address"
        }
      ],
      "name": "revokeRole",
      "outputs": [],
      "stateMutability": "nonpayable",
      "type": "function"
    },
    {
      "inputs": [
        {
          "internalType": "address",
          "name": "from",
          "type": "address"
        },
        {
          "internalType": "address",
          "name": "to",
          "type": "address"
        },
        {
          "internalType": "uint256",
          "name": "tokenId",
          "type": "uint256"
        }
      ],
      "name": "safeTransferFrom",
      "outputs": [],
      "stateMutability": "nonpayable",
      "type": "function"
    },
    {
      "inputs": [
        {
          "internalType": "address",
          "name": "from",
          "type": "address"
        },
        {
          "internalType": "address",
          "name": "to",
          "type": "address"
        },
        {
          "internalType": "uint256",
          "name": "tokenId",
          "type": "uint256"
        },
        {
          "internalType": "bytes",
          "name": "_data",
          "type": "bytes"
        }
      ],
      "name": "safeTransferFrom",
      "outputs": [],
      "stateMutability": "nonpayable",
      "type": "function"
    },
    {
      "inputs": [
        {
          "internalType": "address",
          "name": "operator",
          "type": "address"
        },
        {
          "internalType": "bool",
          "name": "approved",
          "type": "bool"
        }
      ],
      "name": "setApprovalForAll",
      "outputs": [],
      "stateMutability": "nonpayable",
      "type": "function"
    },
    {
      "inputs": [],
      "name": "symbol",
      "outputs": [
        {
          "internalType": "string",
          "name": "",
          "type": "string"
        }
      ],
      "stateMutability": "view",
      "type": "function"
    },
    {
      "inputs": [
        {
          "internalType": "uint256",
          "name": "index",
          "type": "uint256"
        }
      ],
      "name": "tokenByIndex",
      "outputs": [
        {
          "internalType": "uint256",
          "name": "",
          "type": "uint256"
        }
      ],
      "stateMutability": "view",
      "type": "function"
    },
    {
      "inputs": [
        {
          "internalType": "address",
          "name": "owner",
          "type": "address"
        },
        {
          "internalType": "uint256",
          "name": "index",
          "type": "uint256"
        }
      ],
      "name": "tokenOfOwnerByIndex",
      "outputs": [
        {
          "internalType": "uint256",
          "name": "",
          "type": "uint256"
        }
      ],
      "stateMutability": "view",
      "type": "function"
    },
    {
      "inputs": [],
      "name": "totalSupply",
      "outputs": [
        {
          "internalType": "uint256",
          "name": "",
          "type": "uint256"
        }
      ],
      "stateMutability": "view",
      "type": "function"
    },
    {
      "inputs": [
        {
          "internalType": "address",
          "name": "from",
          "type": "address"
        },
        {
          "internalType": "address",
          "name": "to",
          "type": "address"
        },
        {
          "internalType": "uint256",
          "name": "tokenId",
          "type": "uint256"
        }
      ],
      "name": "transferFrom",
      "outputs": [],
      "stateMutability": "nonpayable",
      "type": "function"
    },
    {
      "inputs": [
        {
          "internalType": "uint256",
          "name": "id",
          "type": "uint256"
        }
      ],
      "name": "metadataOf",
      "outputs": [
        {
          "internalType": "uint16",
          "name": "",
          "type": "uint16"
        },
        {
          "internalType": "uint8",
          "name": "",
          "type": "uint8"
        }
      ],
      "stateMutability": "view",
      "type": "function"
    },
    {
      "inputs": [
        {
          "internalType": "address",
          "name": "owner",
          "type": "address"
        },
        {
          "internalType": "uint256",
          "name": "id",
          "type": "uint256"
        }
      ],
      "name": "dataOfTokenOfOwnerByIndex",
      "outputs": [
        {
          "internalType": "uint256",
          "name": "",
          "type": "uint256"
        },
        {
          "internalType": "uint16",
          "name": "",
          "type": "uint16"
        },
        {
          "internalType": "uint8",
          "name": "",
          "type": "uint8"
        }
      ],
      "stateMutability": "view",
      "type": "function"
    },
    {
      "inputs": [
        {
          "internalType": "uint16",
          "name": "id",
          "type": "uint16"
        }
      ],
      "name": "totalCardsOf",
      "outputs": [
        {
          "internalType": "uint8",
          "name": "",
          "type": "uint8"
        }
      ],
      "stateMutability": "view",
      "type": "function"
    },
    {
      "inputs": [
        {
          "internalType": "uint16",
          "name": "set",
          "type": "uint16"
        },
        {
          "internalType": "uint8",
          "name": "number",
          "type": "uint8"
        }
      ],
      "name": "addSet",
      "outputs": [],
      "stateMutability": "nonpayable",
      "type": "function"
    },
    {
      "inputs": [
        {
          "internalType": "string",
          "name": "uri",
          "type": "string"
        }
      ],
      "name": "setBaseTokenURI",
      "outputs": [],
      "stateMutability": "nonpayable",
      "type": "function"
    },
    {
      "inputs": [
        {
          "internalType": "uint256",
          "name": "_tokenId",
          "type": "uint256"
        }
      ],
      "name": "tokenURI",
      "outputs": [
        {
          "internalType": "string",
          "name": "",
          "type": "string"
        }
      ],
      "stateMutability": "view",
      "type": "function"
    },
    {
      "inputs": [
        {
          "internalType": "uint256",
          "name": "id",
          "type": "uint256"
        }
      ],
      "name": "forgeBurn",
      "outputs": [],
      "stateMutability": "nonpayable",
      "type": "function"
    },
    {
      "inputs": [
        {
          "internalType": "address",
          "name": "to",
          "type": "address"
        },
        {
          "internalType": "uint16",
          "name": "set",
          "type": "uint16"
        },
        {
          "internalType": "uint8",
          "name": "number",
          "type": "uint8"
        }
      ],
      "name": "mint",
      "outputs": [],
      "stateMutability": "nonpayable",
      "type": "function"
    },
    {
      "inputs": [
        {
          "internalType": "bytes4",
          "name": "interfaceId",
          "type": "bytes4"
        }
      ],
      "name": "supportsInterface",
      "outputs": [
        {
          "internalType": "bool",
          "name": "",
          "type": "bool"
        }
      ],
      "stateMutability": "view",
      "type": "function"
    }
  ],
  "bytecode": "0x60806040523480156200001157600080fd5b506040516200326f3803806200326f833981016040819052620000349162000711565b6040518060400160405280600e81526020016d159bdb1d5b5955d85c9cc813919560921b81525060405180604001604052806002815260200161565760f01b81525081600290805190602001906200008e9291906200066b565b508051620000a49060039060208401906200066b565b5050600c805460ff191690555060408051808201909152600b8082526a1a5c199cce8bcbdd195cdd60aa1b6020909201918252620000e591600e916200066b565b50620000f36000336200016a565b6200010e6000805160206200324f833981519152336200016a565b6200013a7f65d7a28e3265b37a6474929f336521b332c1681b933f6cb9f3376673440d862a336200016a565b620001556000805160206200324f83398151915282620001ad565b6200016360016007620001c4565b50620008f3565b620001818282620002d260201b62000f8a1760201c565b6000828152600160209081526040909120620001a891839062000f98620002e2821b17901c565b505050565b6200018182826200030260201b62000fad1760201c565b620001df6000805160206200324f833981519152336200032c565b620002465760405162461bcd60e51b815260206004820152602c60248201527f5265776172644e46543a206d7573742068617665206d696e74657220726f6c6560448201526b20746f20616464207365747360a01b60648201526084015b60405180910390fd5b61ffff8216600090815260106020526040902054610100900460ff1615620002a65760405162461bcd60e51b815260206004820152601260248201527153657420616c72656164792065786973747360701b60448201526064016200023d565b61ffff9091166000908152601060205260409020805461ffff191660ff90921691909117610100179055565b620002de828262000355565b5050565b6000620002f9836001600160a01b038416620003dd565b90505b92915050565b6000828152602081905260409020600101546200032081336200042f565b620001a8838362000355565b6000918252602082815260408084206001600160a01b0393909316845291905290205460ff1690565b6200036182826200032c565b620002de576000828152602081815260408083206001600160a01b03851684529091529020805460ff19166001179055620003993390565b6001600160a01b0316816001600160a01b0316837f2f8788117e7eff1d82e926ec794901d17c78024a50270940304540a733656f0d60405160405180910390a45050565b60008181526001830160205260408120546200042657508154600181810184556000848152602080822090930184905584548482528286019093526040902091909155620002fc565b506000620002fc565b6200043b82826200032c565b620002de5762000461816001600160a01b03166014620004b260201b62000fca1760201c565b6200047783602062000fca620004b2821b17811c565b6040516020016200048a9291906200073c565b60408051601f198184030181529082905262461bcd60e51b82526200023d91600401620007b5565b60606000620004c383600262000805565b620004d0906002620007ea565b6001600160401b03811115620004ea57620004ea620008dd565b6040519080825280601f01601f19166020018201604052801562000515576020820181803683370190505b509050600360fc1b81600081518110620005335762000533620008c7565b60200101906001600160f81b031916908160001a905350600f60fb1b81600181518110620005655762000565620008c7565b60200101906001600160f81b031916908160001a90535060006200058b84600262000805565b62000598906001620007ea565b90505b60018111156200061a576f181899199a1a9b1b9c1cb0b131b232b360811b85600f1660108110620005d057620005d0620008c7565b1a60f81b828281518110620005e957620005e9620008c7565b60200101906001600160f81b031916908160001a90535060049490941c9362000612816200085a565b90506200059b565b508315620002f95760405162461bcd60e51b815260206004820181905260248201527f537472696e67733a20686578206c656e67746820696e73756666696369656e7460448201526064016200023d565b828054620006799062000874565b90600052602060002090601f0160209004810192826200069d5760008555620006e8565b82601f10620006b857805160ff1916838001178555620006e8565b82800160010185558215620006e8579182015b82811115620006e8578251825591602001919060010190620006cb565b50620006f6929150620006fa565b5090565b5b80821115620006f65760008155600101620006fb565b6000602082840312156200072457600080fd5b81516001600160a01b0381168114620002f957600080fd5b7f416363657373436f6e74726f6c3a206163636f756e74200000000000000000008152600083516200077681601785016020880162000827565b7001034b99036b4b9b9b4b733903937b6329607d1b6017918401918201528351620007a981602884016020880162000827565b01602801949350505050565b6020815260008251806020840152620007d681604085016020870162000827565b601f01601f19169190910160400192915050565b60008219821115620008005762000800620008b1565b500190565b6000816000190483118215151615620008225762000822620008b1565b500290565b60005b83811015620008445781810151838201526020016200082a565b8381111562000854576000848401525b50505050565b6000816200086c576200086c620008b1565b506000190190565b600181811c908216806200088957607f821691505b60208210811415620008ab57634e487b7160e01b600052602260045260246000fd5b50919050565b634e487b7160e01b600052601160045260246000fd5b634e487b7160e01b600052603260045260246000fd5b634e487b7160e01b600052604160045260246000fd5b61294c80620009036000396000f3fe608060405234801561001057600080fd5b50600436106101a15760003560e01c806301ffc9a7146101a657806306fdde03146101ce578063081812fc146101e3578063095ea7b31461020e5780630ef7cc8e1461022357806318160ddd1461026f57806323b872dd14610281578063248a9ca3146102945780632cd08d51146102a75780632f2ff15d146102db5780632f745c59146102ee57806330176e131461030157806336568abe1461031457806342842e0e1461032757806342966c681461033a5780634f6ccce71461034d5780635c975abb146103605780636352211e1461036b5780636c91e0fc1461037e57806370a08231146103b75780639010d07c146103ca57806391d14854146103dd57806395d89b41146103f0578063a217fddf146103f8578063a22cb46514610400578063b88d4fde14610413578063bbfb2ac314610426578063c87b56dd14610439578063ca15c8731461044c578063d53913931461045f578063d547741f14610474578063e63ab1e914610487578063e985e9c5146104ae578063f11c801c146104c1578063f33f5233146104d4575b600080fd5b6101b96101b4366004612341565b6104e7565b60405190151581526020015b60405180910390f35b6101d66104f8565b6040516101c591906125fd565b6101f66101f13660046122e3565b61058a565b6040516001600160a01b0390911681526020016101c5565b61022161021c3660046122b9565b610617565b005b6102536102313660046122e3565b6000908152600f602052604090205461ffff8116916201000090910460ff1690565b6040805161ffff909316835260ff9091166020830152016101c5565b600a545b6040519081526020016101c5565b61022161028f366004612123565b610728565b6102736102a23660046122e3565b61075a565b6102ba6102b53660046122b9565b61076f565b6040805193845261ffff909216602084015260ff16908201526060016101c5565b6102216102e93660046122fc565b6107aa565b6102736102fc3660046122b9565b6107cc565b61022161030f36600461237b565b610862565b6102216103223660046122fc565b6108a2565b610221610335366004612123565b6108c4565b6102216103483660046122e3565b6108df565b61027361035b3660046122e3565b610959565b600c5460ff166101b9565b6101f66103793660046122e3565b6109ec565b6103a561038c3660046123ec565b61ffff1660009081526010602052604090205460ff1690565b60405160ff90911681526020016101c5565b6102736103c53660046120d5565b610a63565b6101f66103d836600461231f565b610aea565b6101b96103eb3660046122fc565b610b09565b6101d6610b32565b610273600081565b61022161040e36600461223a565b610b41565b61022161042136600461215f565b610c02565b6102216104343660046122e3565b610c3a565b6101d66104473660046122e3565b610c6e565b61027361045a3660046122e3565b610cd9565b6102736000805160206128b783398151915281565b6102216104823660046122fc565b610cf0565b6102737f65d7a28e3265b37a6474929f336521b332c1681b933f6cb9f3376673440d862a81565b6101b96104bc3660046120f0565b610cfa565b6102216104cf366004612276565b610d28565b6102216104e2366004612407565b610ecc565b60006104f282611165565b92915050565b606060028054610507906127c8565b80601f0160208091040260200160405190810160405280929190818152602001828054610533906127c8565b80156105805780601f1061055557610100808354040283529160200191610580565b820191906000526020600020905b81548152906001019060200180831161056357829003601f168201915b5050505050905090565b60006105958261118a565b6105fb5760405162461bcd60e51b815260206004820152602c60248201527f4552433732313a20617070726f76656420717565727920666f72206e6f6e657860448201526b34b9ba32b73a103a37b5b2b760a11b60648201526084015b60405180910390fd5b506000908152600660205260409020546001600160a01b031690565b6000610622826109ec565b9050806001600160a01b0316836001600160a01b031614156106905760405162461bcd60e51b815260206004820152602160248201527f4552433732313a20617070726f76616c20746f2063757272656e74206f776e656044820152603960f91b60648201526084016105f2565b336001600160a01b03821614806106ac57506106ac8133610cfa565b6107195760405162461bcd60e51b815260206004820152603860248201527f4552433732313a20617070726f76652063616c6c6572206973206e6f74206f776044820152771b995c881b9bdc88185c1c1c9bdd995908199bdc88185b1b60421b60648201526084016105f2565b61072383836111a7565b505050565b610733335b82611215565b61074f5760405162461bcd60e51b81526004016105f290612662565b6107238383836112df565b60009081526020819052604090206001015490565b60008060008061077f86866107cc565b6000818152600f6020526040902054909761ffff821697506201000090910460ff1695509350505050565b6107b48282610fad565b60008281526001602052604090206107239082610f98565b60006107d783610a63565b82106108395760405162461bcd60e51b815260206004820152602b60248201527f455243373231456e756d657261626c653a206f776e657220696e646578206f7560448201526a74206f6620626f756e647360a81b60648201526084016105f2565b506001600160a01b03919091166000908152600860209081526040808320938352929052205490565b61087a6000805160206128b783398151915233610b09565b6108965760405162461bcd60e51b81526004016105f2906126e9565b610723600e8383611ffd565b6108ac8282611478565b600082815260016020526040902061072390826114f2565b61072383838360405180602001604052806000815250610c02565b6108e83361072d565b61094d5760405162461bcd60e51b815260206004820152603060248201527f4552433732314275726e61626c653a2063616c6c6572206973206e6f74206f7760448201526f1b995c881b9bdc88185c1c1c9bdd995960821b60648201526084016105f2565b61095681611507565b50565b6000610964600a5490565b82106109c75760405162461bcd60e51b815260206004820152602c60248201527f455243373231456e756d657261626c653a20676c6f62616c20696e646578206f60448201526b7574206f6620626f756e647360a01b60648201526084016105f2565b600a82815481106109da576109da612874565b90600052602060002001549050919050565b6000818152600460205260408120546001600160a01b0316806104f25760405162461bcd60e51b815260206004820152602960248201527f4552433732313a206f776e657220717565727920666f72206e6f6e657869737460448201526832b73a103a37b5b2b760b91b60648201526084016105f2565b60006001600160a01b038216610ace5760405162461bcd60e51b815260206004820152602a60248201527f4552433732313a2062616c616e636520717565727920666f7220746865207a65604482015269726f206164647265737360b01b60648201526084016105f2565b506001600160a01b031660009081526005602052604090205490565b6000828152600160205260408120610b02908361159c565b9392505050565b6000918252602082815260408084206001600160a01b0393909316845291905290205460ff1690565b606060038054610507906127c8565b6001600160a01b038216331415610b965760405162461bcd60e51b815260206004820152601960248201527822a9219b99189d1030b8383937bb32903a379031b0b63632b960391b60448201526064016105f2565b3360008181526007602090815260408083206001600160a01b03871680855290835292819020805460ff191686151590811790915590519081529192917f17307eab39ab6107e8899845ad3d59bd9653f200f220920489ca2b5937696c31910160405180910390a35050565b610c0c3383611215565b610c285760405162461bcd60e51b81526004016105f290612662565b610c34848484846115a8565b50505050565b610c526000805160206128b783398151915233610b09565b61094d5760405162461bcd60e51b81526004016105f2906126b3565b6000818152600f6020526040902054606090600e90610c909061ffff166115db565b6000848152600f6020526040902054610cb19062010000900460ff166115db565b604051602001610cc393929190612486565b6040516020818303038152906040529050919050565b60008181526001602052604081206104f290611738565b6108ac8282611742565b6001600160a01b03918216600090815260076020908152604080832093909416825291909152205460ff1690565b610d406000805160206128b783398151915233610b09565b610d5c5760405162461bcd60e51b81526004016105f2906126b3565b61ffff8216600090815260106020526040902054610100900460ff16610dc45760405162461bcd60e51b815260206004820152601d60248201527f5265776172644e46543a2053657420646f6573206e6f7420657869737400000060448201526064016105f2565b61ffff821660009081526010602052604090205460ff9081169082161115610e3c5760405162461bcd60e51b815260206004820152602560248201527f5265776172644e46543a204361726420646f6573206e6f7420657869737420696044820152641b881cd95d60da1b60648201526084016105f2565b610e4e83610e49600d5490565b61175f565b81600f6000610e5c600d5490565b815260200190815260200160002060000160006101000a81548161ffff021916908361ffff16021790555080600f6000610e95600d5490565b815260200190815260200160002060000160026101000a81548160ff021916908360ff160217905550610723600d80546001019055565b610ee46000805160206128b783398151915233610b09565b610f005760405162461bcd60e51b81526004016105f2906126e9565b61ffff8216600090815260106020526040902054610100900460ff1615610f5e5760405162461bcd60e51b815260206004820152601260248201527153657420616c72656164792065786973747360701b60448201526064016105f2565b61ffff9091166000908152601060205260409020805461ffff191660ff90921691909117610100179055565b610f948282611779565b5050565b6000610b02836001600160a01b0384166117fd565b610fb68261075a565b610fc0813361184c565b6107238383611779565b60606000610fd983600261274f565b610fe4906002612723565b6001600160401b03811115610ffb57610ffb61288a565b6040519080825280601f01601f191660200182016040528015611025576020820181803683370190505b509050600360fc1b8160008151811061104057611040612874565b60200101906001600160f81b031916908160001a905350600f60fb1b8160018151811061106f5761106f612874565b60200101906001600160f81b031916908160001a905350600061109384600261274f565b61109e906001612723565b90505b6001811115611116576f181899199a1a9b1b9c1cb0b131b232b360811b85600f16601081106110d2576110d2612874565b1a60f81b8282815181106110e8576110e8612874565b60200101906001600160f81b031916908160001a90535060049490941c9361110f816127b1565b90506110a1565b508315610b025760405162461bcd60e51b815260206004820181905260248201527f537472696e67733a20686578206c656e67746820696e73756666696369656e7460448201526064016105f2565b60006001600160e01b0319821663780e9d6360e01b14806104f257506104f2826118b0565b6000908152600460205260409020546001600160a01b0316151590565b600081815260066020526040902080546001600160a01b0319166001600160a01b03841690811790915581906111dc826109ec565b6001600160a01b03167f8c5be1e5ebec7d5bd14f71427d1e84f3dd0314c0f7b2291e5b200ac8c7c3b92560405160405180910390a45050565b60006112208261118a565b6112815760405162461bcd60e51b815260206004820152602c60248201527f4552433732313a206f70657261746f7220717565727920666f72206e6f6e657860448201526b34b9ba32b73a103a37b5b2b760a11b60648201526084016105f2565b600061128c836109ec565b9050806001600160a01b0316846001600160a01b031614806112c75750836001600160a01b03166112bc8461058a565b6001600160a01b0316145b806112d757506112d78185610cfa565b949350505050565b826001600160a01b03166112f2826109ec565b6001600160a01b03161461135a5760405162461bcd60e51b815260206004820152602960248201527f4552433732313a207472616e73666572206f6620746f6b656e2074686174206960448201526839903737ba1037bbb760b91b60648201526084016105f2565b6001600160a01b0382166113bc5760405162461bcd60e51b8152602060048201526024808201527f4552433732313a207472616e7366657220746f20746865207a65726f206164646044820152637265737360e01b60648201526084016105f2565b6113c78383836118f0565b6113d26000826111a7565b6001600160a01b03831660009081526005602052604081208054600192906113fb90849061276e565b90915550506001600160a01b0382166000908152600560205260408120805460019290611429908490612723565b909155505060008181526004602052604080822080546001600160a01b0319166001600160a01b0386811691821790925591518493918716916000805160206128d783398151915291a4505050565b6001600160a01b03811633146114e85760405162461bcd60e51b815260206004820152602f60248201527f416363657373436f6e74726f6c3a2063616e206f6e6c792072656e6f756e636560448201526e103937b632b9903337b91039b2b63360891b60648201526084016105f2565b610f9482826118fb565b6000610b02836001600160a01b038416611960565b6000611512826109ec565b9050611520816000846118f0565b61152b6000836111a7565b6001600160a01b038116600090815260056020526040812080546001929061155490849061276e565b909155505060008281526004602052604080822080546001600160a01b0319169055518391906001600160a01b038416906000805160206128d7833981519152908390a45050565b6000610b028383611a53565b6115b38484846112df565b6115bf84848484611a7d565b610c345760405162461bcd60e51b81526004016105f290612610565b60408051606480825260a08201909252606091906000908260208201818036833701905050905060005b841561166f576000611618600a8761281e565b9050611625600a8761273b565b9550611632816030612723565b60f81b838361164081612803565b94508151811061165257611652612874565b60200101906001600160f81b031916908160001a90535050611605565b6000816001600160401b038111156116895761168961288a565b6040519080825280601f01601f1916602001820160405280156116b3576020820181803683370190505b50905060005b8281101561172e578360016116ce838661276e565b6116d8919061276e565b815181106116e8576116e8612874565b602001015160f81c60f81b82828151811061170557611705612874565b60200101906001600160f81b031916908160001a9053508061172681612803565b9150506116b9565b5095945050505050565b60006104f2825490565b61174b8261075a565b611755813361184c565b61072383836118fb565b610f94828260405180602001604052806000815250611b8a565b6117838282610b09565b610f94576000828152602081815260408083206001600160a01b03851684529091529020805460ff191660011790556117b93390565b6001600160a01b0316816001600160a01b0316837f2f8788117e7eff1d82e926ec794901d17c78024a50270940304540a733656f0d60405160405180910390a45050565b6000818152600183016020526040812054611844575081546001818101845560008481526020808220909301849055845484825282860190935260409020919091556104f2565b5060006104f2565b6118568282610b09565b610f945761186e816001600160a01b03166014610fca565b611879836020610fca565b60405160200161188a92919061255b565b60408051601f198184030181529082905262461bcd60e51b82526105f2916004016125fd565b60006001600160e01b031982166380ac58cd60e01b14806118e157506001600160e01b03198216635b5e139f60e01b145b806104f257506104f282611bbd565b610723838383611be2565b6119058282610b09565b15610f94576000828152602081815260408083206001600160a01b0385168085529252808320805460ff1916905551339285917ff6391f5c32d9c69d2a47ea670b442974b53935d1edc7fd64eb21e047a839171b9190a45050565b60008181526001830160205260408120548015611a4957600061198460018361276e565b85549091506000906119989060019061276e565b90508181146119fd5760008660000182815481106119b8576119b8612874565b90600052602060002001549050808760000184815481106119db576119db612874565b6000918252602080832090910192909255918252600188019052604090208390555b8554869080611a0e57611a0e61285e565b6001900381819060005260206000200160009055905585600101600086815260200190815260200160002060009055600193505050506104f2565b60009150506104f2565b6000826000018281548110611a6a57611a6a612874565b9060005260206000200154905092915050565b60006001600160a01b0384163b15611b7f57604051630a85bd0160e11b81526001600160a01b0385169063150b7a0290611ac19033908990889088906004016125ca565b602060405180830381600087803b158015611adb57600080fd5b505af1925050508015611b0b575060408051601f3d908101601f19168201909252611b089181019061235e565b60015b611b65573d808015611b39576040519150601f19603f3d011682016040523d82523d6000602084013e611b3e565b606091505b508051611b5d5760405162461bcd60e51b81526004016105f290612610565b805181602001fd5b6001600160e01b031916630a85bd0160e11b1490506112d7565b506001949350505050565b611b948383611c54565b611ba16000848484611a7d565b6107235760405162461bcd60e51b81526004016105f290612610565b60006001600160e01b03198216635a05180f60e01b14806104f257506104f282611d80565b611bed838383611db5565b600c5460ff16156107235760405162461bcd60e51b815260206004820152602b60248201527f4552433732315061757361626c653a20746f6b656e207472616e73666572207760448201526a1a1a5b19481c185d5cd95960aa1b60648201526084016105f2565b6001600160a01b038216611caa5760405162461bcd60e51b815260206004820181905260248201527f4552433732313a206d696e7420746f20746865207a65726f206164647265737360448201526064016105f2565b611cb38161118a565b15611cff5760405162461bcd60e51b815260206004820152601c60248201527b115490cdcc8c4e881d1bdad95b88185b1c9958591e481b5a5b9d195960221b60448201526064016105f2565b611d0b600083836118f0565b6001600160a01b0382166000908152600560205260408120805460019290611d34908490612723565b909155505060008181526004602052604080822080546001600160a01b0319166001600160a01b03861690811790915590518392906000805160206128d7833981519152908290a45050565b60006001600160e01b03198216637965db0b60e01b14806104f257506301ffc9a760e01b6001600160e01b03198316146104f2565b6001600160a01b038316611e1057611e0b81600a80546000838152600b60205260408120829055600182018355919091527fc65a7bb8d6351c1cf70c95a316cc6a92839c986682d98bc35f958f4883f9d2a80155565b611e33565b816001600160a01b0316836001600160a01b031614611e3357611e338382611e6d565b6001600160a01b038216611e4a5761072381611f0a565b826001600160a01b0316826001600160a01b031614610723576107238282611fb9565b60006001611e7a84610a63565b611e84919061276e565b600083815260096020526040902054909150808214611ed7576001600160a01b03841660009081526008602090815260408083208584528252808320548484528184208190558352600990915290208190555b5060009182526009602090815260408084208490556001600160a01b039094168352600881528383209183525290812055565b600a54600090611f1c9060019061276e565b6000838152600b6020526040812054600a8054939450909284908110611f4457611f44612874565b9060005260206000200154905080600a8381548110611f6557611f65612874565b6000918252602080832090910192909255828152600b9091526040808220849055858252812055600a805480611f9d57611f9d61285e565b6001900381819060005260206000200160009055905550505050565b6000611fc483610a63565b6001600160a01b039093166000908152600860209081526040808320868452825280832085905593825260099052919091209190915550565b828054612009906127c8565b90600052602060002090601f01602090048101928261202b5760008555612071565b82601f106120445782800160ff19823516178555612071565b82800160010185558215612071579182015b82811115612071578235825591602001919060010190612056565b5061207d929150612081565b5090565b5b8082111561207d5760008155600101612082565b80356001600160a01b03811681146120ad57600080fd5b919050565b803561ffff811681146120ad57600080fd5b803560ff811681146120ad57600080fd5b6000602082840312156120e757600080fd5b610b0282612096565b6000806040838503121561210357600080fd5b61210c83612096565b915061211a60208401612096565b90509250929050565b60008060006060848603121561213857600080fd5b61214184612096565b925061214f60208501612096565b9150604084013590509250925092565b6000806000806080858703121561217557600080fd5b61217e85612096565b935061218c60208601612096565b92506040850135915060608501356001600160401b03808211156121af57600080fd5b818701915087601f8301126121c357600080fd5b8135818111156121d5576121d561288a565b604051601f8201601f19908116603f011681019083821181831017156121fd576121fd61288a565b816040528281528a602084870101111561221657600080fd5b82602086016020830137600060208483010152809550505050505092959194509250565b6000806040838503121561224d57600080fd5b61225683612096565b91506020830135801515811461226b57600080fd5b809150509250929050565b60008060006060848603121561228b57600080fd5b61229484612096565b92506122a2602085016120b2565b91506122b0604085016120c4565b90509250925092565b600080604083850312156122cc57600080fd5b6122d583612096565b946020939093013593505050565b6000602082840312156122f557600080fd5b5035919050565b6000806040838503121561230f57600080fd5b8235915061211a60208401612096565b6000806040838503121561233257600080fd5b50508035926020909101359150565b60006020828403121561235357600080fd5b8135610b02816128a0565b60006020828403121561237057600080fd5b8151610b02816128a0565b6000806020838503121561238e57600080fd5b82356001600160401b03808211156123a557600080fd5b818501915085601f8301126123b957600080fd5b8135818111156123c857600080fd5b8660208285010111156123da57600080fd5b60209290920196919550909350505050565b6000602082840312156123fe57600080fd5b610b02826120b2565b6000806040838503121561241a57600080fd5b612423836120b2565b915061211a602084016120c4565b60008151808452612449816020860160208601612785565b601f01601f19169290920160200192915050565b6000815161246f818560208601612785565b9290920192915050565b602f60f81b815260010190565b600080855481600182811c9150808316806124a257607f831692505b60208084108214156124c257634e487b7160e01b86526022600452602486fd5b8180156124d657600181146124e757612514565b60ff19861689528489019650612514565b60008c81526020902060005b8681101561250c5781548b8201529085019083016124f3565b505084890196505b50505050505061255161254061253a61253561252f85612479565b8961245d565b612479565b8661245d565b64173539b7b760d91b815260050190565b9695505050505050565b76020b1b1b2b9b9a1b7b73a3937b61d1030b1b1b7bab73a1604d1b81526000835161258d816017850160208801612785565b7001034b99036b4b9b9b4b733903937b6329607d1b60179184019182015283516125be816028840160208801612785565b01602801949350505050565b6001600160a01b038581168252841660208201526040810183905260806060820181905260009061255190830184612431565b602081526000610b026020830184612431565b60208082526032908201527f4552433732313a207472616e7366657220746f206e6f6e20455243373231526560408201527131b2b4bb32b91034b6b83632b6b2b73a32b960711b606082015260800190565b60208082526031908201527f4552433732313a207472616e736665722063616c6c6572206973206e6f74206f6040820152701ddb995c881b9bdc88185c1c1c9bdd9959607a1b606082015260800190565b60208082526028908201526000805160206128f7833981519152604082015267081d1bc81b5a5b9d60c21b606082015260800190565b6020808252602c908201526000805160206128f783398151915260408201526b20746f20616464207365747360a01b606082015260800190565b6000821982111561273657612736612832565b500190565b60008261274a5761274a612848565b500490565b600081600019048311821515161561276957612769612832565b500290565b60008282101561278057612780612832565b500390565b60005b838110156127a0578181015183820152602001612788565b83811115610c345750506000910152565b6000816127c0576127c0612832565b506000190190565b600181811c908216806127dc57607f821691505b602082108114156127fd57634e487b7160e01b600052602260045260246000fd5b50919050565b600060001982141561281757612817612832565b5060010190565b60008261282d5761282d612848565b500690565b634e487b7160e01b600052601160045260246000fd5b634e487b7160e01b600052601260045260246000fd5b634e487b7160e01b600052603160045260246000fd5b634e487b7160e01b600052603260045260246000fd5b634e487b7160e01b600052604160045260246000fd5b6001600160e01b03198116811461095657600080fdfe9f2df0fed2c77648de5860a4cc508cd0818c85b8b8a1ab4ceeef8d981c8956a6ddf252ad1be2c89b69c2b068fc378daa952ba7f163c4a11628f55a4df523b3ef5265776172644e46543a206d7573742068617665206d696e74657220726f6c65a2646970667358221220dfa424c4b3578d407b9340d4b30dfe2f3216986da13b0a8772d96d5c45de55a064736f6c634300080600339f2df0fed2c77648de5860a4cc508cd0818c85b8b8a1ab4ceeef8d981c8956a6",
  "immutableReferences": {},
  "source": "// contracts/NFT.sol\n// SPDX-License-Identifier: MIT\npragma solidity ^0.8.0;\n\nimport \"@openzeppelin/contracts/token/ERC721/presets/ERC721PresetMinterPauserAutoId.sol\";\n\ncontract piggyNFT is\n    Context,\n    AccessControlEnumerable,\n    ERC721Enumerable,\n    ERC721Burnable,\n    ERC721Pausable\n{\n    using Counters for Counters.Counter;\n\n    bytes32 public constant MINTER_ROLE = keccak256(\"MINTER_ROLE\");\n    bytes32 public constant PAUSER_ROLE = keccak256(\"PAUSER_ROLE\");\n\n    Counters.Counter private _tokenIdTracker;\n\n    string private _baseTokenURI;\n\n    struct NFTMetadata {\n        uint16 set;\n        uint8 number;\n    }\n\n    mapping(uint256 => NFTMetadata) metadata;\n\n    struct SetMetadata {\n        uint8 totalCards;\n        bool enabled;\n    }\n    mapping(uint16 => SetMetadata) sets;\n\n    /**\n     * @dev Grants `DEFAULT_ADMIN_ROLE`, `MINTER_ROLE` and `PAUSER_ROLE` to the\n     * account that deploys the contract.\n     *\n     * Token URIs will be autogenerated based on `baseURI` and their token IDs.\n     * See {ERC721-tokenURI}.\n     */\n    constructor(\n        address game\n    ) ERC721(\"VolumeWars NFT\", \"VW\") {\n        _baseTokenURI = \"ipfs://test\";\n\n        _setupRole(DEFAULT_ADMIN_ROLE, _msgSender());\n\n        _setupRole(MINTER_ROLE, _msgSender());\n        _setupRole(PAUSER_ROLE, _msgSender());\n        grantRole(MINTER_ROLE, game);\n        addSet(1, 7); // Note: Remove if redeploying\n    }\n\n    function metadataOf(uint256 id) external view returns (uint16, uint8) {\n        return (metadata[id].set, metadata[id].number);\n    }\n    function dataOfTokenOfOwnerByIndex(address owner, uint256 id) external view returns (uint256, uint16, uint8) {\n        uint256 tokenId = tokenOfOwnerByIndex(owner, id);\n        return (tokenId, metadata[tokenId].set, metadata[tokenId].number);\n    }\n    function totalCardsOf(uint16 id) external view returns (uint8) {\n        return sets[id].totalCards;\n    }\n    function addSet(uint16 set, uint8 number) public {\n        require(hasRole(MINTER_ROLE, _msgSender()), \"RewardNFT: must have minter role to add sets\");\n        require(sets[set].enabled == false, \"Set already exists\");\n        sets[set].totalCards = number;\n        sets[set].enabled = true;\n    }\n    function setBaseTokenURI(string calldata uri) public {\n        require(hasRole(MINTER_ROLE, _msgSender()), \"RewardNFT: must have minter role to add sets\");\n        _baseTokenURI = uri;\n    }\n\n    function tokenURI(uint256 _tokenId) public view override returns (string memory) {\n        return string(abi.encodePacked(_baseTokenURI, \"/\", uintToString(metadata[_tokenId].set), \"/\", uintToString(metadata[_tokenId].number), \".json\"));\n    }\n    function _baseURI() internal view virtual override returns (string memory) {\n        return _baseTokenURI;\n    }\n\n    function forgeBurn(uint256 id) external {\n        require(hasRole(MINTER_ROLE, _msgSender()), \"RewardNFT: must have minter role to mint\");\n        _burn(id);\n    }\n\n    function uintToString(uint v) internal pure returns (string memory) {\n        uint maxlength = 100;\n        bytes memory reversed = new bytes(maxlength);\n        uint i = 0;\n        while (v != 0) {\n            uint remainder = v % 10;\n            v = v / 10;\n            reversed[i++] = bytes1(uint8(48 + remainder));\n        }\n        bytes memory s = new bytes(i); // i + 1 is inefficient\n        for (uint j = 0; j < i; j++) {\n            s[j] = reversed[i - j - 1]; // to avoid the off-by-one error\n        }\n        string memory str = string(s);  // memory isn't implicitly convertible to storage\n        return str;\n    }\n    /**\n     * @dev Creates a new token for `to`. Its token ID will be automatically\n     * assigned (and available on the emitted {IERC721-Transfer} event), and the token\n     * URI autogenerated based on the base URI passed at construction.\n     *\n     * See {ERC721-_mint}.\n     *\n     * Requirements:\n     *\n     * - the caller must have the `MINTER_ROLE`.\n     */\n    function mint(address to, uint16 set, uint8 number) external virtual {\n        require(hasRole(MINTER_ROLE, _msgSender()), \"RewardNFT: must have minter role to mint\");\n        require(sets[set].enabled, \"RewardNFT: Set does not exist\");\n        require(number <= sets[set].totalCards, \"RewardNFT: Card does not exist in set\");\n        // We cannot just use balanceOf to create the new tokenId because tokens\n        // can be burned (destroyed), so we need a separate counter.\n        _safeMint(to, _tokenIdTracker.current());\n        metadata[_tokenIdTracker.current()].set = set;\n        metadata[_tokenIdTracker.current()].number = number;\n        _tokenIdTracker.increment();\n    }\n\n    function _beforeTokenTransfer(\n        address from,\n        address to,\n        uint256 tokenId\n    ) internal virtual override(ERC721, ERC721Enumerable, ERC721Pausable) {\n        super._beforeTokenTransfer(from, to, tokenId);\n    }\n\n    /**\n     * @dev See {IERC165-supportsInterface}.\n     */\n    function supportsInterface(bytes4 interfaceId)\n        public\n        view\n        virtual\n        override(AccessControlEnumerable, ERC721, ERC721Enumerable)\n        returns (bool)\n    {\n        return super.supportsInterface(interfaceId);\n    }\n}\n",
  "sourcePath": "/home/moot/projects/vw/contracts/NFT.sol",
  "compiler": {
    "name": "solc",
    "version": "0.8.6+commit.11564f7e.Emscripten.clang"
  },
  "schemaVersion": "3.4.1",
  "updatedAt": "2021-10-15T17:46:28.948Z",
  "networkType": "ethereum",
  "devdoc": {
    "kind": "dev",
    "methods": {
      "approve(address,uint256)": {
        "details": "See {IERC721-approve}."
      },
      "balanceOf(address)": {
        "details": "See {IERC721-balanceOf}."
      },
      "burn(uint256)": {
        "details": "Burns `tokenId`. See {ERC721-_burn}. Requirements: - The caller must own `tokenId` or be an approved operator."
      },
      "constructor": {
        "details": "Grants `DEFAULT_ADMIN_ROLE`, `MINTER_ROLE` and `PAUSER_ROLE` to the account that deploys the contract. Token URIs will be autogenerated based on `baseURI` and their token IDs. See {ERC721-tokenURI}."
      },
      "getApproved(uint256)": {
        "details": "See {IERC721-getApproved}."
      },
      "getRoleAdmin(bytes32)": {
        "details": "Returns the admin role that controls `role`. See {grantRole} and {revokeRole}. To change a role's admin, use {_setRoleAdmin}."
      },
      "getRoleMember(bytes32,uint256)": {
        "details": "Returns one of the accounts that have `role`. `index` must be a value between 0 and {getRoleMemberCount}, non-inclusive. Role bearers are not sorted in any particular way, and their ordering may change at any point. WARNING: When using {getRoleMember} and {getRoleMemberCount}, make sure you perform all queries on the same block. See the following https://forum.openzeppelin.com/t/iterating-over-elements-on-enumerableset-in-openzeppelin-contracts/2296[forum post] for more information."
      },
      "getRoleMemberCount(bytes32)": {
        "details": "Returns the number of accounts that have `role`. Can be used together with {getRoleMember} to enumerate all bearers of a role."
      },
      "grantRole(bytes32,address)": {
        "details": "Overload {grantRole} to track enumerable memberships"
      },
      "hasRole(bytes32,address)": {
        "details": "Returns `true` if `account` has been granted `role`."
      },
      "isApprovedForAll(address,address)": {
        "details": "See {IERC721-isApprovedForAll}."
      },
      "mint(address,uint16,uint8)": {
        "details": "Creates a new token for `to`. Its token ID will be automatically assigned (and available on the emitted {IERC721-Transfer} event), and the token URI autogenerated based on the base URI passed at construction. See {ERC721-_mint}. Requirements: - the caller must have the `MINTER_ROLE`."
      },
      "name()": {
        "details": "See {IERC721Metadata-name}."
      },
      "ownerOf(uint256)": {
        "details": "See {IERC721-ownerOf}."
      },
      "paused()": {
        "details": "Returns true if the contract is paused, and false otherwise."
      },
      "renounceRole(bytes32,address)": {
        "details": "Overload {renounceRole} to track enumerable memberships"
      },
      "revokeRole(bytes32,address)": {
        "details": "Overload {revokeRole} to track enumerable memberships"
      },
      "safeTransferFrom(address,address,uint256)": {
        "details": "See {IERC721-safeTransferFrom}."
      },
      "safeTransferFrom(address,address,uint256,bytes)": {
        "details": "See {IERC721-safeTransferFrom}."
      },
      "setApprovalForAll(address,bool)": {
        "details": "See {IERC721-setApprovalForAll}."
      },
      "supportsInterface(bytes4)": {
        "details": "See {IERC165-supportsInterface}."
      },
      "symbol()": {
        "details": "See {IERC721Metadata-symbol}."
      },
      "tokenByIndex(uint256)": {
        "details": "See {IERC721Enumerable-tokenByIndex}."
      },
      "tokenOfOwnerByIndex(address,uint256)": {
        "details": "See {IERC721Enumerable-tokenOfOwnerByIndex}."
      },
      "totalSupply()": {
        "details": "See {IERC721Enumerable-totalSupply}."
      },
      "transferFrom(address,address,uint256)": {
        "details": "See {IERC721-transferFrom}."
      }
    },
    "version": 1
  },
  "userdoc": {
    "kind": "user",
    "methods": {},
    "version": 1
  }
}