{
  "contractName": "boosterNFT",
  "abi": [
    {
      "inputs": [],
      "stateMutability": "nonpayable",
      "type": "constructor"
    },
    {
      "anonymous": false,
      "inputs": [
        {
          "indexed": true,
          "internalType": "address",
          "name": "account",
          "type": "address"
        },
        {
          "indexed": true,
          "internalType": "address",
          "name": "operator",
          "type": "address"
        },
        {
          "indexed": false,
          "internalType": "bool",
          "name": "approved",
          "type": "bool"
        }
      ],
      "name": "ApprovalForAll",
      "type": "event"
    },
    {
      "anonymous": false,
      "inputs": [
        {
          "indexed": true,
          "internalType": "address",
          "name": "previousOwner",
          "type": "address"
        },
        {
          "indexed": true,
          "internalType": "address",
          "name": "newOwner",
          "type": "address"
        }
      ],
      "name": "OwnershipTransferred",
      "type": "event"
    },
    {
      "anonymous": false,
      "inputs": [
        {
          "indexed": true,
          "internalType": "address",
          "name": "operator",
          "type": "address"
        },
        {
          "indexed": true,
          "internalType": "address",
          "name": "from",
          "type": "address"
        },
        {
          "indexed": true,
          "internalType": "address",
          "name": "to",
          "type": "address"
        },
        {
          "indexed": false,
          "internalType": "uint256[]",
          "name": "ids",
          "type": "uint256[]"
        },
        {
          "indexed": false,
          "internalType": "uint256[]",
          "name": "values",
          "type": "uint256[]"
        }
      ],
      "name": "TransferBatch",
      "type": "event"
    },
    {
      "anonymous": false,
      "inputs": [
        {
          "indexed": true,
          "internalType": "address",
          "name": "operator",
          "type": "address"
        },
        {
          "indexed": true,
          "internalType": "address",
          "name": "from",
          "type": "address"
        },
        {
          "indexed": true,
          "internalType": "address",
          "name": "to",
          "type": "address"
        },
        {
          "indexed": false,
          "internalType": "uint256",
          "name": "id",
          "type": "uint256"
        },
        {
          "indexed": false,
          "internalType": "uint256",
          "name": "value",
          "type": "uint256"
        }
      ],
      "name": "TransferSingle",
      "type": "event"
    },
    {
      "anonymous": false,
      "inputs": [
        {
          "indexed": false,
          "internalType": "string",
          "name": "value",
          "type": "string"
        },
        {
          "indexed": true,
          "internalType": "uint256",
          "name": "id",
          "type": "uint256"
        }
      ],
      "name": "URI",
      "type": "event"
    },
    {
      "inputs": [],
      "name": "COMMON",
      "outputs": [
        {
          "internalType": "uint256",
          "name": "",
          "type": "uint256"
        }
      ],
      "stateMutability": "view",
      "type": "function",
      "constant": true
    },
    {
      "inputs": [],
      "name": "LEGENDARY",
      "outputs": [
        {
          "internalType": "uint256",
          "name": "",
          "type": "uint256"
        }
      ],
      "stateMutability": "view",
      "type": "function",
      "constant": true
    },
    {
      "inputs": [],
      "name": "RARE",
      "outputs": [
        {
          "internalType": "uint256",
          "name": "",
          "type": "uint256"
        }
      ],
      "stateMutability": "view",
      "type": "function",
      "constant": true
    },
    {
      "inputs": [
        {
          "internalType": "address",
          "name": "account",
          "type": "address"
        },
        {
          "internalType": "uint256",
          "name": "id",
          "type": "uint256"
        }
      ],
      "name": "balanceOf",
      "outputs": [
        {
          "internalType": "uint256",
          "name": "",
          "type": "uint256"
        }
      ],
      "stateMutability": "view",
      "type": "function",
      "constant": true
    },
    {
      "inputs": [
        {
          "internalType": "address[]",
          "name": "accounts",
          "type": "address[]"
        },
        {
          "internalType": "uint256[]",
          "name": "ids",
          "type": "uint256[]"
        }
      ],
      "name": "balanceOfBatch",
      "outputs": [
        {
          "internalType": "uint256[]",
          "name": "",
          "type": "uint256[]"
        }
      ],
      "stateMutability": "view",
      "type": "function",
      "constant": true
    },
    {
      "inputs": [
        {
          "internalType": "address",
          "name": "account",
          "type": "address"
        },
        {
          "internalType": "uint256",
          "name": "id",
          "type": "uint256"
        },
        {
          "internalType": "uint256",
          "name": "value",
          "type": "uint256"
        }
      ],
      "name": "burn",
      "outputs": [],
      "stateMutability": "nonpayable",
      "type": "function"
    },
    {
      "inputs": [
        {
          "internalType": "address",
          "name": "account",
          "type": "address"
        },
        {
          "internalType": "uint256[]",
          "name": "ids",
          "type": "uint256[]"
        },
        {
          "internalType": "uint256[]",
          "name": "values",
          "type": "uint256[]"
        }
      ],
      "name": "burnBatch",
      "outputs": [],
      "stateMutability": "nonpayable",
      "type": "function"
    },
    {
      "inputs": [
        {
          "internalType": "address",
          "name": "account",
          "type": "address"
        },
        {
          "internalType": "address",
          "name": "operator",
          "type": "address"
        }
      ],
      "name": "isApprovedForAll",
      "outputs": [
        {
          "internalType": "bool",
          "name": "",
          "type": "bool"
        }
      ],
      "stateMutability": "view",
      "type": "function",
      "constant": true
    },
    {
      "inputs": [
        {
          "internalType": "address",
          "name": "",
          "type": "address"
        }
      ],
      "name": "isMinter",
      "outputs": [
        {
          "internalType": "bool",
          "name": "",
          "type": "bool"
        }
      ],
      "stateMutability": "view",
      "type": "function",
      "constant": true
    },
    {
      "inputs": [],
      "name": "owner",
      "outputs": [
        {
          "internalType": "address",
          "name": "",
          "type": "address"
        }
      ],
      "stateMutability": "view",
      "type": "function",
      "constant": true
    },
    {
      "inputs": [],
      "name": "renounceOwnership",
      "outputs": [],
      "stateMutability": "nonpayable",
      "type": "function"
    },
    {
      "inputs": [
        {
          "internalType": "address",
          "name": "from",
          "type": "address"
        },
        {
          "internalType": "address",
          "name": "to",
          "type": "address"
        },
        {
          "internalType": "uint256[]",
          "name": "ids",
          "type": "uint256[]"
        },
        {
          "internalType": "uint256[]",
          "name": "amounts",
          "type": "uint256[]"
        },
        {
          "internalType": "bytes",
          "name": "data",
          "type": "bytes"
        }
      ],
      "name": "safeBatchTransferFrom",
      "outputs": [],
      "stateMutability": "nonpayable",
      "type": "function"
    },
    {
      "inputs": [
        {
          "internalType": "address",
          "name": "from",
          "type": "address"
        },
        {
          "internalType": "address",
          "name": "to",
          "type": "address"
        },
        {
          "internalType": "uint256",
          "name": "id",
          "type": "uint256"
        },
        {
          "internalType": "uint256",
          "name": "amount",
          "type": "uint256"
        },
        {
          "internalType": "bytes",
          "name": "data",
          "type": "bytes"
        }
      ],
      "name": "safeTransferFrom",
      "outputs": [],
      "stateMutability": "nonpayable",
      "type": "function"
    },
    {
      "inputs": [
        {
          "internalType": "address",
          "name": "operator",
          "type": "address"
        },
        {
          "internalType": "bool",
          "name": "approved",
          "type": "bool"
        }
      ],
      "name": "setApprovalForAll",
      "outputs": [],
      "stateMutability": "nonpayable",
      "type": "function"
    },
    {
      "inputs": [
        {
          "internalType": "bytes4",
          "name": "interfaceId",
          "type": "bytes4"
        }
      ],
      "name": "supportsInterface",
      "outputs": [
        {
          "internalType": "bool",
          "name": "",
          "type": "bool"
        }
      ],
      "stateMutability": "view",
      "type": "function",
      "constant": true
    },
    {
      "inputs": [
        {
          "internalType": "address",
          "name": "newOwner",
          "type": "address"
        }
      ],
      "name": "transferOwnership",
      "outputs": [],
      "stateMutability": "nonpayable",
      "type": "function"
    },
    {
      "inputs": [
        {
          "internalType": "uint256",
          "name": "",
          "type": "uint256"
        }
      ],
      "name": "uri",
      "outputs": [
        {
          "internalType": "string",
          "name": "",
          "type": "string"
        }
      ],
      "stateMutability": "view",
      "type": "function",
      "constant": true
    },
    {
      "inputs": [
        {
          "internalType": "address",
          "name": "player",
          "type": "address"
        },
        {
          "internalType": "uint256",
          "name": "rewardID",
          "type": "uint256"
        }
      ],
      "name": "mintReward",
      "outputs": [
        {
          "internalType": "bool",
          "name": "",
          "type": "bool"
        }
      ],
      "stateMutability": "nonpayable",
      "type": "function"
    },
    {
      "inputs": [
        {
          "internalType": "address",
          "name": "newMinter",
          "type": "address"
        }
      ],
      "name": "assignBoosterContract",
      "outputs": [],
      "stateMutability": "nonpayable",
      "type": "function"
    },
    {
      "inputs": [
        {
          "internalType": "address",
          "name": "newMinter",
          "type": "address"
        }
      ],
      "name": "delistBoosterContract",
      "outputs": [],
      "stateMutability": "nonpayable",
      "type": "function"
    }
  ],
  "bytecode": "0x60806040523480156200001157600080fd5b506040805160208101909152600081526200002c81620000ad565b506200003833620000c6565b6200005d336000600a604051806020016040528060008152506200011860201b60201c565b62000082336001600a604051806020016040528060008152506200011860201b60201c565b620000a7336002600a604051806020016040528060008152506200011860201b60201c565b62000760565b8051620000c29060029060208401906200047a565b5050565b600380546001600160a01b038381166001600160a01b0319831681179093556040519116919082907f8be0079c531659141344cd1fd0a4f28419497f9722a3daafe3b4186f6b6457e090600090a35050565b6001600160a01b0384166200017e5760405162461bcd60e51b815260206004820152602160248201527f455243313135353a206d696e7420746f20746865207a65726f206164647265736044820152607360f81b60648201526084015b60405180910390fd5b33620001a481600087620001928862000238565b6200019d8862000238565b5050505050565b6000848152602081815260408083206001600160a01b038916845290915281208054859290620001d6908490620005ff565b909155505060408051858152602081018590526001600160a01b0380881692600092918516917fc3d58168c5ae7397731d063d5bbf3d657854427343f4c083240f7aacaa2d0f62910160405180910390a46200019d816000878787876200028e565b604080516001808252818301909252606091600091906020808301908036833701905050905082816000815181106200027557620002756200069e565b602090810291909101015292915050565b505050505050565b620002ad846001600160a01b03166200047460201b62000a3b1760201c565b15620002865760405163f23a6e6160e01b81526001600160a01b0385169063f23a6e6190620002e99089908990889088908890600401620005a3565b602060405180830381600087803b1580156200030457600080fd5b505af192505050801562000337575060408051601f3d908101601f19168201909252620003349181019062000520565b60015b620003f85762000346620006b4565b806308c379a014156200038757506200035e620006d1565b806200036b575062000389565b8060405162461bcd60e51b8152600401620001759190620005ea565b505b60405162461bcd60e51b815260206004820152603460248201527f455243313135353a207472616e7366657220746f206e6f6e204552433131353560448201527f526563656976657220696d706c656d656e746572000000000000000000000000606482015260840162000175565b6001600160e01b0319811663f23a6e6160e01b146200046b5760405162461bcd60e51b815260206004820152602860248201527f455243313135353a204552433131353552656365697665722072656a656374656044820152676420746f6b656e7360c01b606482015260840162000175565b50505050505050565b3b151590565b828054620004889062000626565b90600052602060002090601f016020900481019282620004ac5760008555620004f7565b82601f10620004c757805160ff1916838001178555620004f7565b82800160010185558215620004f7579182015b82811115620004f7578251825591602001919060010190620004da565b506200050592915062000509565b5090565b5b808211156200050557600081556001016200050a565b6000602082840312156200053357600080fd5b81516001600160e01b0319811681146200054c57600080fd5b9392505050565b6000815180845260005b818110156200057b576020818501810151868301820152016200055d565b818111156200058e576000602083870101525b50601f01601f19169290920160200192915050565b6001600160a01b03868116825285166020820152604081018490526060810183905260a060808201819052600090620005df9083018462000553565b979650505050505050565b6020815260006200054c602083018462000553565b600082198211156200062157634e487b7160e01b600052601160045260246000fd5b500190565b600181811c908216806200063b57607f821691505b602082108114156200065d57634e487b7160e01b600052602260045260246000fd5b50919050565b601f8201601f191681016001600160401b03811182821017156200069757634e487b7160e01b600052604160045260246000fd5b6040525050565b634e487b7160e01b600052603260045260246000fd5b600060033d1115620006ce5760046000803e5060005160e01c5b90565b600060443d1015620006e05790565b6040516003193d81016004833e81513d6001600160401b0380831160248401831017156200071057505050505090565b8285019150815181811115620007295750505050505090565b843d8701016020828501011115620007445750505050505090565b620007556020828601018762000663565b509095945050505050565b611d9980620007706000396000f3fe608060405234801561001057600080fd5b50600436106100fb5760003560e01c8062fdd58e1461010057806301ffc9a7146101265780630e89341c146101495780632eb2c2d61461016957806346e6a86c1461017e5780634e1273f4146101865780636b20c454146101a6578063715018a6146101b9578063816171c0146101c15780638da5cb5b146101c95780639a49090e146101e9578063a22cb465146101fc578063a548433f1461020f578063aa271e1a14610222578063b70f159614610245578063e140d1e114610258578063e985e9c514610260578063f242432a1461029c578063f2fde38b146102af578063f5298aca146102c2575b600080fd5b61011361010e366004611611565b6102d5565b6040519081526020015b60405180910390f35b61013961013436600461173e565b61036c565b604051901515815260200161011d565b61015c610157366004611778565b6103be565b60405161011d91906118fd565b61017c610177366004611455565b610452565b005b610113600081565b61019961019436600461166e565b6104e9565b60405161011d91906118bc565b61017c6101b4366004611562565b610612565b61017c61065a565b610113600181565b6101d1610695565b6040516001600160a01b03909116815260200161011d565b6101396101f7366004611611565b6106a4565b61017c61020a3660046115d5565b61074d565b61017c61021d366004611400565b610824565b610139610230366004611400565b60046020526000908152604090205460ff1681565b61017c610253366004611400565b61089a565b610113600281565b61013961026e366004611422565b6001600160a01b03918216600090815260016020908152604080832093909416825291909152205460ff1690565b61017c6102aa3660046114fe565b610913565b61017c6102bd366004611400565b610958565b61017c6102d036600461163b565b6109f8565b60006001600160a01b0383166103465760405162461bcd60e51b815260206004820152602b60248201527f455243313135353a2062616c616e636520717565727920666f7220746865207a60448201526a65726f206164647265737360a81b60648201526084015b60405180910390fd5b506000908152602081815260408083206001600160a01b03949094168352929052205490565b60006001600160e01b03198216636cdb3d1360e11b148061039d57506001600160e01b031982166303a24d0760e21b145b806103b857506301ffc9a760e01b6001600160e01b03198316145b92915050565b6060600280546103cd90611ba4565b80601f01602080910402602001604051908101604052809291908181526020018280546103f990611ba4565b80156104465780601f1061041b57610100808354040283529160200191610446565b820191906000526020600020905b81548152906001019060200180831161042957829003601f168201915b50505050509050919050565b6001600160a01b03851633148061046e575061046e853361026e565b6104d55760405162461bcd60e51b815260206004820152603260248201527f455243313135353a207472616e736665722063616c6c6572206973206e6f74206044820152711bdddb995c881b9bdc88185c1c1c9bdd995960721b606482015260840161033d565b6104e28585858585610a41565b5050505050565b6060815183511461054e5760405162461bcd60e51b815260206004820152602960248201527f455243313135353a206163636f756e747320616e6420696473206c656e677468604482015268040dad2e6dac2e8c6d60bb1b606482015260840161033d565b600083516001600160401b0381111561056957610569611c52565b604051908082528060200260200182016040528015610592578160200160208202803683370190505b50905060005b845181101561060a576105dd8582815181106105b6576105b6611c3c565b60200260200101518583815181106105d0576105d0611c3c565b60200260200101516102d5565b8282815181106105ef576105ef611c3c565b602090810291909101015261060381611c0b565b9050610598565b509392505050565b6001600160a01b03831633148061062e575061062e833361026e565b61064a5760405162461bcd60e51b815260040161033d9061199c565b610655838383610bcb565b505050565b33610663610695565b6001600160a01b0316146106895760405162461bcd60e51b815260040161033d90611aec565b6106936000610d35565b565b6003546001600160a01b031690565b3360009081526004602052604081205460ff16806106d15750336106c6610695565b6001600160a01b0316145b6107285760405162461bcd60e51b815260206004820152602260248201527f2063616c6c6572206973206e6f7420746865206d696e746572206f72206f776e60448201526132b960f11b606482015260840161033d565b6107448383600160405180602001604052806000815250610d87565b50600192915050565b336001600160a01b03831614156107b85760405162461bcd60e51b815260206004820152602960248201527f455243313135353a2073657474696e6720617070726f76616c20737461747573604482015268103337b91039b2b63360b91b606482015260840161033d565b3360008181526001602090815260408083206001600160a01b03871680855290835292819020805460ff191686151590811790915590519081529192917f17307eab39ab6107e8899845ad3d59bd9653f200f220920489ca2b5937696c31910160405180910390a35050565b3361082d610695565b6001600160a01b0316146108535760405162461bcd60e51b815260040161033d90611aec565b6001600160a01b0381166108795760405162461bcd60e51b815260040161033d906119e5565b6001600160a01b03166000908152600460205260409020805460ff19169055565b336108a3610695565b6001600160a01b0316146108c95760405162461bcd60e51b815260040161033d90611aec565b6001600160a01b0381166108ef5760405162461bcd60e51b815260040161033d906119e5565b6001600160a01b03166000908152600460205260409020805460ff19166001179055565b6001600160a01b03851633148061092f575061092f853361026e565b61094b5760405162461bcd60e51b815260040161033d9061199c565b6104e28585858585610e7f565b33610961610695565b6001600160a01b0316146109875760405162461bcd60e51b815260040161033d90611aec565b6001600160a01b0381166109ec5760405162461bcd60e51b815260206004820152602660248201527f4f776e61626c653a206e6577206f776e657220697320746865207a65726f206160448201526564647265737360d01b606482015260840161033d565b6109f581610d35565b50565b6001600160a01b038316331480610a145750610a14833361026e565b610a305760405162461bcd60e51b815260040161033d9061199c565b610655838383610f8a565b3b151590565b8151835114610a625760405162461bcd60e51b815260040161033d90611b21565b6001600160a01b038416610a885760405162461bcd60e51b815260040161033d90611a1a565b3360005b8451811015610b6f576000858281518110610aa957610aa9611c3c565b602002602001015190506000858381518110610ac757610ac7611c3c565b602090810291909101810151600084815280835260408082206001600160a01b038e168352909352919091205490915081811015610b175760405162461bcd60e51b815260040161033d90611aa2565b6000838152602081815260408083206001600160a01b038e8116855292528083208585039055908b16825281208054849290610b54908490611b8c565b9250508190555050505080610b6890611c0b565b9050610a8c565b50846001600160a01b0316866001600160a01b0316826001600160a01b0316600080516020611d248339815191528787604051610bad9291906118cf565b60405180910390a4610bc381878787878761107a565b505050505050565b6001600160a01b038316610bf15760405162461bcd60e51b815260040161033d90611a5f565b8051825114610c125760405162461bcd60e51b815260040161033d90611b21565b604080516020810190915260009081905233905b8351811015610ce8576000848281518110610c4357610c43611c3c565b602002602001015190506000848381518110610c6157610c61611c3c565b602090810291909101810151600084815280835260408082206001600160a01b038c168352909352919091205490915081811015610cb15760405162461bcd60e51b815260040161033d90611958565b6000928352602083815260408085206001600160a01b038b1686529091529092209103905580610ce081611c0b565b915050610c26565b5060006001600160a01b0316846001600160a01b0316826001600160a01b0316600080516020611d248339815191528686604051610d279291906118cf565b60405180910390a450505050565b600380546001600160a01b038381166001600160a01b0319831681179093556040519116919082907f8be0079c531659141344cd1fd0a4f28419497f9722a3daafe3b4186f6b6457e090600090a35050565b6001600160a01b038416610de75760405162461bcd60e51b815260206004820152602160248201527f455243313135353a206d696e7420746f20746865207a65726f206164647265736044820152607360f81b606482015260840161033d565b33610e0181600087610df8886111e5565b6104e2886111e5565b6000848152602081815260408083206001600160a01b038916845290915281208054859290610e31908490611b8c565b909155505060408051858152602081018590526001600160a01b038088169260009291851691600080516020611d44833981519152910160405180910390a46104e281600087878787611230565b6001600160a01b038416610ea55760405162461bcd60e51b815260040161033d90611a1a565b33610eb5818787610df8886111e5565b6000848152602081815260408083206001600160a01b038a16845290915290205483811015610ef65760405162461bcd60e51b815260040161033d90611aa2565b6000858152602081815260408083206001600160a01b038b8116855292528083208785039055908816825281208054869290610f33908490611b8c565b909155505060408051868152602081018690526001600160a01b03808916928a82169291861691600080516020611d44833981519152910160405180910390a4610f81828888888888611230565b50505050505050565b6001600160a01b038316610fb05760405162461bcd60e51b815260040161033d90611a5f565b33610fe081856000610fc1876111e5565b610fca876111e5565b5050604080516020810190915260009052505050565b6000838152602081815260408083206001600160a01b0388168452909152902054828110156110215760405162461bcd60e51b815260040161033d90611958565b6000848152602081815260408083206001600160a01b0389811680865291845282852088870390558251898152938401889052909290861691600080516020611d44833981519152910160405180910390a45050505050565b6001600160a01b0384163b15610bc35760405163bc197c8160e01b81526001600160a01b0385169063bc197c81906110be9089908990889088908890600401611819565b602060405180830381600087803b1580156110d857600080fd5b505af1925050508015611108575060408051601f3d908101601f191682019092526111059181019061175b565b60015b6111b557611114611c68565b806308c379a0141561114e5750611129611c84565b806111345750611150565b8060405162461bcd60e51b815260040161033d91906118fd565b505b60405162461bcd60e51b815260206004820152603460248201527f455243313135353a207472616e7366657220746f206e6f6e20455243313135356044820152732932b1b2b4bb32b91034b6b83632b6b2b73a32b960611b606482015260840161033d565b6001600160e01b0319811663bc197c8160e01b14610f815760405162461bcd60e51b815260040161033d90611910565b6040805160018082528183019092526060916000919060208083019080368337019050509050828160008151811061121f5761121f611c3c565b602090810291909101015292915050565b6001600160a01b0384163b15610bc35760405163f23a6e6160e01b81526001600160a01b0385169063f23a6e61906112749089908990889088908890600401611877565b602060405180830381600087803b15801561128e57600080fd5b505af19250505080156112be575060408051601f3d908101601f191682019092526112bb9181019061175b565b60015b6112ca57611114611c68565b6001600160e01b0319811663f23a6e6160e01b14610f815760405162461bcd60e51b815260040161033d90611910565b80356001600160a01b038116811461131157600080fd5b919050565b600082601f83011261132757600080fd5b8135602061133482611b69565b6040516113418282611bdf565b8381528281019150858301600585901b8701840188101561136157600080fd5b60005b8581101561138057813584529284019290840190600101611364565b5090979650505050505050565b600082601f83011261139e57600080fd5b81356001600160401b038111156113b7576113b7611c52565b6040516113ce601f8301601f191660200182611bdf565b8181528460208386010111156113e357600080fd5b816020850160208301376000918101602001919091529392505050565b60006020828403121561141257600080fd5b61141b826112fa565b9392505050565b6000806040838503121561143557600080fd5b61143e836112fa565b915061144c602084016112fa565b90509250929050565b600080600080600060a0868803121561146d57600080fd5b611476866112fa565b9450611484602087016112fa565b935060408601356001600160401b03808211156114a057600080fd5b6114ac89838a01611316565b945060608801359150808211156114c257600080fd5b6114ce89838a01611316565b935060808801359150808211156114e457600080fd5b506114f18882890161138d565b9150509295509295909350565b600080600080600060a0868803121561151657600080fd5b61151f866112fa565b945061152d602087016112fa565b9350604086013592506060860135915060808601356001600160401b0381111561155657600080fd5b6114f18882890161138d565b60008060006060848603121561157757600080fd5b611580846112fa565b925060208401356001600160401b038082111561159c57600080fd5b6115a887838801611316565b935060408601359150808211156115be57600080fd5b506115cb86828701611316565b9150509250925092565b600080604083850312156115e857600080fd5b6115f1836112fa565b91506020830135801515811461160657600080fd5b809150509250929050565b6000806040838503121561162457600080fd5b61162d836112fa565b946020939093013593505050565b60008060006060848603121561165057600080fd5b611659846112fa565b95602085013595506040909401359392505050565b6000806040838503121561168157600080fd5b82356001600160401b038082111561169857600080fd5b818501915085601f8301126116ac57600080fd5b813560206116b982611b69565b6040516116c68282611bdf565b8381528281019150858301600585901b870184018b10156116e657600080fd5b600096505b84871015611710576116fc816112fa565b8352600196909601959183019183016116eb565b509650508601359250508082111561172757600080fd5b5061173485828601611316565b9150509250929050565b60006020828403121561175057600080fd5b813561141b81611d0d565b60006020828403121561176d57600080fd5b815161141b81611d0d565b60006020828403121561178a57600080fd5b5035919050565b600081518084526020808501945080840160005b838110156117c1578151875295820195908201906001016117a5565b509495945050505050565b6000815180845260005b818110156117f2576020818501810151868301820152016117d6565b81811115611804576000602083870101525b50601f01601f19169290920160200192915050565b6001600160a01b0386811682528516602082015260a06040820181905260009061184590830186611791565b82810360608401526118578186611791565b9050828103608084015261186b81856117cc565b98975050505050505050565b6001600160a01b03868116825285166020820152604081018490526060810183905260a0608082018190526000906118b1908301846117cc565b979650505050505050565b60208152600061141b6020830184611791565b6040815260006118e26040830185611791565b82810360208401526118f48185611791565b95945050505050565b60208152600061141b60208301846117cc565b60208082526028908201527f455243313135353a204552433131353552656365697665722072656a656374656040820152676420746f6b656e7360c01b606082015260800190565b60208082526024908201527f455243313135353a206275726e20616d6f756e7420657863656564732062616c604082015263616e636560e01b606082015260800190565b60208082526029908201527f455243313135353a2063616c6c6572206973206e6f74206f776e6572206e6f7260408201526808185c1c1c9bdd995960ba1b606082015260800190565b6020808252818101527f206e6577206d696e7465722020697320746865207a65726f2061646472657373604082015260600190565b60208082526025908201527f455243313135353a207472616e7366657220746f20746865207a65726f206164604082015264647265737360d81b606082015260800190565b60208082526023908201527f455243313135353a206275726e2066726f6d20746865207a65726f206164647260408201526265737360e81b606082015260800190565b6020808252602a908201527f455243313135353a20696e73756666696369656e742062616c616e636520666f60408201526939103a3930b739b332b960b11b606082015260800190565b6020808252818101527f4f776e61626c653a2063616c6c6572206973206e6f7420746865206f776e6572604082015260600190565b60208082526028908201527f455243313135353a2069647320616e6420616d6f756e7473206c656e677468206040820152670dad2e6dac2e8c6d60c31b606082015260800190565b60006001600160401b03821115611b8257611b82611c52565b5060051b60200190565b60008219821115611b9f57611b9f611c26565b500190565b600181811c90821680611bb857607f821691505b60208210811415611bd957634e487b7160e01b600052602260045260246000fd5b50919050565b601f8201601f191681016001600160401b0381118282101715611c0457611c04611c52565b6040525050565b6000600019821415611c1f57611c1f611c26565b5060010190565b634e487b7160e01b600052601160045260246000fd5b634e487b7160e01b600052603260045260246000fd5b634e487b7160e01b600052604160045260246000fd5b600060033d1115611c815760046000803e5060005160e01c5b90565b600060443d1015611c925790565b6040516003193d81016004833e81513d6001600160401b038083116024840183101715611cc157505050505090565b8285019150815181811115611cd95750505050505090565b843d8701016020828501011115611cf35750505050505090565b611d0260208286010187611bdf565b509095945050505050565b6001600160e01b0319811681146109f557600080fdfe4a39dc06d4c0dbc64b70af90fd698a233a518aa5d07e595d983b8c0526c8f7fbc3d58168c5ae7397731d063d5bbf3d657854427343f4c083240f7aacaa2d0f62a264697066735822122088589664cbeb8c612bf4ec98e63d912400b9614905b486993e4385297809646764736f6c63430008060033",
  "immutableReferences": {},
  "source": "\r\npragma solidity ^0.8.0;\r\n\r\n/**\r\n * @dev Interface of the ERC165 standard, as defined in the\r\n * https://eips.ethereum.org/EIPS/eip-165[EIP].\r\n *\r\n * Implementers can declare support of contract interfaces, which can then be\r\n * queried by others ({ERC165Checker}).\r\n *\r\n * For an implementation, see {ERC165}.\r\n */\r\ninterface IERC165 {\r\n    /**\r\n     * @dev Returns true if this contract implements the interface defined by\r\n     * `interfaceId`. See the corresponding\r\n     * https://eips.ethereum.org/EIPS/eip-165#how-interfaces-are-identified[EIP section]\r\n     * to learn more about how these ids are created.\r\n     *\r\n     * This function call must use less than 30 000 gas.\r\n     */\r\n    function supportsInterface(bytes4 interfaceId) external view returns (bool);\r\n}\r\npragma solidity ^0.8.0;\r\n\r\n/**\r\n * @dev Implementation of the {IERC165} interface.\r\n *\r\n * Contracts that want to implement ERC165 should inherit from this contract and override {supportsInterface} to check\r\n * for the additional interface id that will be supported. For example:\r\n *\r\n * ```solidity\r\n * function supportsInterface(bytes4 interfaceId) public view virtual override returns (bool) {\r\n *     return interfaceId == type(MyInterface).interfaceId || super.supportsInterface(interfaceId);\r\n * }\r\n * ```\r\n *\r\n * Alternatively, {ERC165Storage} provides an easier to use but more expensive implementation.\r\n */\r\nabstract contract ERC165 is IERC165 {\r\n    /**\r\n     * @dev See {IERC165-supportsInterface}.\r\n     */\r\n    function supportsInterface(bytes4 interfaceId) public view virtual override returns (bool) {\r\n        return interfaceId == type(IERC165).interfaceId;\r\n    }\r\n}\r\npragma solidity ^0.8.0;\r\n\r\n\r\n\r\n/**\r\n * @dev _Available since v3.1._\r\n */\r\ninterface IERC1155Receiver is IERC165 {\r\n    /**\r\n        @dev Handles the receipt of a single ERC1155 token type. This function is\r\n        called at the end of a `safeTransferFrom` after the balance has been updated.\r\n        To accept the transfer, this must return\r\n        `bytes4(keccak256(\"onERC1155Received(address,address,uint256,uint256,bytes)\"))`\r\n        (i.e. 0xf23a6e61, or its own function selector).\r\n        @param operator The address which initiated the transfer (i.e. msg.sender)\r\n        @param from The address which previously owned the token\r\n        @param id The ID of the token being transferred\r\n        @param value The amount of tokens being transferred\r\n        @param data Additional data with no specified format\r\n        @return `bytes4(keccak256(\"onERC1155Received(address,address,uint256,uint256,bytes)\"))` if transfer is allowed\r\n    */\r\n    function onERC1155Received(\r\n        address operator,\r\n        address from,\r\n        uint256 id,\r\n        uint256 value,\r\n        bytes calldata data\r\n    ) external returns (bytes4);\r\n\r\n    /**\r\n        @dev Handles the receipt of a multiple ERC1155 token types. This function\r\n        is called at the end of a `safeBatchTransferFrom` after the balances have\r\n        been updated. To accept the transfer(s), this must return\r\n        `bytes4(keccak256(\"onERC1155BatchReceived(address,address,uint256[],uint256[],bytes)\"))`\r\n        (i.e. 0xbc197c81, or its own function selector).\r\n        @param operator The address which initiated the batch transfer (i.e. msg.sender)\r\n        @param from The address which previously owned the token\r\n        @param ids An array containing ids of each token being transferred (order and length must match values array)\r\n        @param values An array containing amounts of each token being transferred (order and length must match ids array)\r\n        @param data Additional data with no specified format\r\n        @return `bytes4(keccak256(\"onERC1155BatchReceived(address,address,uint256[],uint256[],bytes)\"))` if transfer is allowed\r\n    */\r\n    function onERC1155BatchReceived(\r\n        address operator,\r\n        address from,\r\n        uint256[] calldata ids,\r\n        uint256[] calldata values,\r\n        bytes calldata data\r\n    ) external returns (bytes4);\r\n}\r\npragma solidity ^0.8.0;\r\n\r\n\r\n\r\n/**\r\n * @dev Required interface of an ERC1155 compliant contract, as defined in the\r\n * https://eips.ethereum.org/EIPS/eip-1155[EIP].\r\n *\r\n * _Available since v3.1._\r\n */\r\ninterface IERC1155 is IERC165 {\r\n    /**\r\n     * @dev Emitted when `value` tokens of token type `id` are transferred from `from` to `to` by `operator`.\r\n     */\r\n    event TransferSingle(address indexed operator, address indexed from, address indexed to, uint256 id, uint256 value);\r\n\r\n    /**\r\n     * @dev Equivalent to multiple {TransferSingle} events, where `operator`, `from` and `to` are the same for all\r\n     * transfers.\r\n     */\r\n    event TransferBatch(\r\n        address indexed operator,\r\n        address indexed from,\r\n        address indexed to,\r\n        uint256[] ids,\r\n        uint256[] values\r\n    );\r\n\r\n    /**\r\n     * @dev Emitted when `account` grants or revokes permission to `operator` to transfer their tokens, according to\r\n     * `approved`.\r\n     */\r\n    event ApprovalForAll(address indexed account, address indexed operator, bool approved);\r\n\r\n    /**\r\n     * @dev Emitted when the URI for token type `id` changes to `value`, if it is a non-programmatic URI.\r\n     *\r\n     * If an {URI} event was emitted for `id`, the standard\r\n     * https://eips.ethereum.org/EIPS/eip-1155#metadata-extensions[guarantees] that `value` will equal the value\r\n     * returned by {IERC1155MetadataURI-uri}.\r\n     */\r\n    event URI(string value, uint256 indexed id);\r\n\r\n    /**\r\n     * @dev Returns the amount of tokens of token type `id` owned by `account`.\r\n     *\r\n     * Requirements:\r\n     *\r\n     * - `account` cannot be the zero address.\r\n     */\r\n    function balanceOf(address account, uint256 id) external view returns (uint256);\r\n\r\n    /**\r\n     * @dev xref:ROOT:erc1155.adoc#batch-operations[Batched] version of {balanceOf}.\r\n     *\r\n     * Requirements:\r\n     *\r\n     * - `accounts` and `ids` must have the same length.\r\n     */\r\n    function balanceOfBatch(address[] calldata accounts, uint256[] calldata ids)\r\n        external\r\n        view\r\n        returns (uint256[] memory);\r\n\r\n    /**\r\n     * @dev Grants or revokes permission to `operator` to transfer the caller's tokens, according to `approved`,\r\n     *\r\n     * Emits an {ApprovalForAll} event.\r\n     *\r\n     * Requirements:\r\n     *\r\n     * - `operator` cannot be the caller.\r\n     */\r\n    function setApprovalForAll(address operator, bool approved) external;\r\n\r\n    /**\r\n     * @dev Returns true if `operator` is approved to transfer ``account``'s tokens.\r\n     *\r\n     * See {setApprovalForAll}.\r\n     */\r\n    function isApprovedForAll(address account, address operator) external view returns (bool);\r\n\r\n    /**\r\n     * @dev Transfers `amount` tokens of token type `id` from `from` to `to`.\r\n     *\r\n     * Emits a {TransferSingle} event.\r\n     *\r\n     * Requirements:\r\n     *\r\n     * - `to` cannot be the zero address.\r\n     * - If the caller is not `from`, it must be have been approved to spend ``from``'s tokens via {setApprovalForAll}.\r\n     * - `from` must have a balance of tokens of type `id` of at least `amount`.\r\n     * - If `to` refers to a smart contract, it must implement {IERC1155Receiver-onERC1155Received} and return the\r\n     * acceptance magic value.\r\n     */\r\n    function safeTransferFrom(\r\n        address from,\r\n        address to,\r\n        uint256 id,\r\n        uint256 amount,\r\n        bytes calldata data\r\n    ) external;\r\n\r\n    /**\r\n     * @dev xref:ROOT:erc1155.adoc#batch-operations[Batched] version of {safeTransferFrom}.\r\n     *\r\n     * Emits a {TransferBatch} event.\r\n     *\r\n     * Requirements:\r\n     *\r\n     * - `ids` and `amounts` must have the same length.\r\n     * - If `to` refers to a smart contract, it must implement {IERC1155Receiver-onERC1155BatchReceived} and return the\r\n     * acceptance magic value.\r\n     */\r\n    function safeBatchTransferFrom(\r\n        address from,\r\n        address to,\r\n        uint256[] calldata ids,\r\n        uint256[] calldata amounts,\r\n        bytes calldata data\r\n    ) external;\r\n}\r\n\r\n\r\npragma solidity ^0.8.0;\r\n\r\n\r\n/**\r\n * @dev Interface of the optional ERC1155MetadataExtension interface, as defined\r\n * in the https://eips.ethereum.org/EIPS/eip-1155#metadata-extensions[EIP].\r\n *\r\n * _Available since v3.1._\r\n */\r\ninterface IERC1155MetadataURI is IERC1155 {\r\n    /**\r\n     * @dev Returns the URI for token type `id`.\r\n     *\r\n     * If the `\\{id\\}` substring is present in the URI, it must be replaced by\r\n     * clients with the actual token type ID.\r\n     */\r\n    function uri(uint256 id) external view returns (string memory);\r\n}\r\npragma solidity ^0.8.0;\r\n\r\n/**\r\n * @dev Collection of functions related to the address type\r\n */\r\nlibrary Address {\r\n    /**\r\n     * @dev Returns true if `account` is a contract.\r\n     *\r\n     * [IMPORTANT]\r\n     * ====\r\n     * It is unsafe to assume that an address for which this function returns\r\n     * false is an externally-owned account (EOA) and not a contract.\r\n     *\r\n     * Among others, `isContract` will return false for the following\r\n     * types of addresses:\r\n     *\r\n     *  - an externally-owned account\r\n     *  - a contract in construction\r\n     *  - an address where a contract will be created\r\n     *  - an address where a contract lived, but was destroyed\r\n     * ====\r\n     */\r\n    function isContract(address account) internal view returns (bool) {\r\n        // This method relies on extcodesize, which returns 0 for contracts in\r\n        // construction, since the code is only stored at the end of the\r\n        // constructor execution.\r\n\r\n        uint256 size;\r\n        assembly {\r\n            size := extcodesize(account)\r\n        }\r\n        return size > 0;\r\n    }\r\n\r\n    /**\r\n     * @dev Replacement for Solidity's `transfer`: sends `amount` wei to\r\n     * `recipient`, forwarding all available gas and reverting on errors.\r\n     *\r\n     * https://eips.ethereum.org/EIPS/eip-1884[EIP1884] increases the gas cost\r\n     * of certain opcodes, possibly making contracts go over the 2300 gas limit\r\n     * imposed by `transfer`, making them unable to receive funds via\r\n     * `transfer`. {sendValue} removes this limitation.\r\n     *\r\n     * https://diligence.consensys.net/posts/2019/09/stop-using-soliditys-transfer-now/[Learn more].\r\n     *\r\n     * IMPORTANT: because control is transferred to `recipient`, care must be\r\n     * taken to not create reentrancy vulnerabilities. Consider using\r\n     * {ReentrancyGuard} or the\r\n     * https://solidity.readthedocs.io/en/v0.5.11/security-considerations.html#use-the-checks-effects-interactions-pattern[checks-effects-interactions pattern].\r\n     */\r\n    function sendValue(address payable recipient, uint256 amount) internal {\r\n        require(address(this).balance >= amount, \"Address: insufficient balance\");\r\n\r\n        (bool success, ) = recipient.call{value: amount}(\"\");\r\n        require(success, \"Address: unable to send value, recipient may have reverted\");\r\n    }\r\n\r\n    /**\r\n     * @dev Performs a Solidity function call using a low level `call`. A\r\n     * plain `call` is an unsafe replacement for a function call: use this\r\n     * function instead.\r\n     *\r\n     * If `target` reverts with a revert reason, it is bubbled up by this\r\n     * function (like regular Solidity function calls).\r\n     *\r\n     * Returns the raw returned data. To convert to the expected return value,\r\n     * use https://solidity.readthedocs.io/en/latest/units-and-global-variables.html?highlight=abi.decode#abi-encoding-and-decoding-functions[`abi.decode`].\r\n     *\r\n     * Requirements:\r\n     *\r\n     * - `target` must be a contract.\r\n     * - calling `target` with `data` must not revert.\r\n     *\r\n     * _Available since v3.1._\r\n     */\r\n    function functionCall(address target, bytes memory data) internal returns (bytes memory) {\r\n        return functionCall(target, data, \"Address: low-level call failed\");\r\n    }\r\n\r\n    /**\r\n     * @dev Same as {xref-Address-functionCall-address-bytes-}[`functionCall`], but with\r\n     * `errorMessage` as a fallback revert reason when `target` reverts.\r\n     *\r\n     * _Available since v3.1._\r\n     */\r\n    function functionCall(\r\n        address target,\r\n        bytes memory data,\r\n        string memory errorMessage\r\n    ) internal returns (bytes memory) {\r\n        return functionCallWithValue(target, data, 0, errorMessage);\r\n    }\r\n\r\n    /**\r\n     * @dev Same as {xref-Address-functionCall-address-bytes-}[`functionCall`],\r\n     * but also transferring `value` wei to `target`.\r\n     *\r\n     * Requirements:\r\n     *\r\n     * - the calling contract must have an ETH balance of at least `value`.\r\n     * - the called Solidity function must be `payable`.\r\n     *\r\n     * _Available since v3.1._\r\n     */\r\n    function functionCallWithValue(\r\n        address target,\r\n        bytes memory data,\r\n        uint256 value\r\n    ) internal returns (bytes memory) {\r\n        return functionCallWithValue(target, data, value, \"Address: low-level call with value failed\");\r\n    }\r\n\r\n    /**\r\n     * @dev Same as {xref-Address-functionCallWithValue-address-bytes-uint256-}[`functionCallWithValue`], but\r\n     * with `errorMessage` as a fallback revert reason when `target` reverts.\r\n     *\r\n     * _Available since v3.1._\r\n     */\r\n    function functionCallWithValue(\r\n        address target,\r\n        bytes memory data,\r\n        uint256 value,\r\n        string memory errorMessage\r\n    ) internal returns (bytes memory) {\r\n        require(address(this).balance >= value, \"Address: insufficient balance for call\");\r\n        require(isContract(target), \"Address: call to non-contract\");\r\n\r\n        (bool success, bytes memory returndata) = target.call{value: value}(data);\r\n        return _verifyCallResult(success, returndata, errorMessage);\r\n    }\r\n\r\n    /**\r\n     * @dev Same as {xref-Address-functionCall-address-bytes-}[`functionCall`],\r\n     * but performing a static call.\r\n     *\r\n     * _Available since v3.3._\r\n     */\r\n    function functionStaticCall(address target, bytes memory data) internal view returns (bytes memory) {\r\n        return functionStaticCall(target, data, \"Address: low-level static call failed\");\r\n    }\r\n\r\n    /**\r\n     * @dev Same as {xref-Address-functionCall-address-bytes-string-}[`functionCall`],\r\n     * but performing a static call.\r\n     *\r\n     * _Available since v3.3._\r\n     */\r\n    function functionStaticCall(\r\n        address target,\r\n        bytes memory data,\r\n        string memory errorMessage\r\n    ) internal view returns (bytes memory) {\r\n        require(isContract(target), \"Address: static call to non-contract\");\r\n\r\n        (bool success, bytes memory returndata) = target.staticcall(data);\r\n        return _verifyCallResult(success, returndata, errorMessage);\r\n    }\r\n\r\n    /**\r\n     * @dev Same as {xref-Address-functionCall-address-bytes-}[`functionCall`],\r\n     * but performing a delegate call.\r\n     *\r\n     * _Available since v3.4._\r\n     */\r\n    function functionDelegateCall(address target, bytes memory data) internal returns (bytes memory) {\r\n        return functionDelegateCall(target, data, \"Address: low-level delegate call failed\");\r\n    }\r\n\r\n    /**\r\n     * @dev Same as {xref-Address-functionCall-address-bytes-string-}[`functionCall`],\r\n     * but performing a delegate call.\r\n     *\r\n     * _Available since v3.4._\r\n     */\r\n    function functionDelegateCall(\r\n        address target,\r\n        bytes memory data,\r\n        string memory errorMessage\r\n    ) internal returns (bytes memory) {\r\n        require(isContract(target), \"Address: delegate call to non-contract\");\r\n\r\n        (bool success, bytes memory returndata) = target.delegatecall(data);\r\n        return _verifyCallResult(success, returndata, errorMessage);\r\n    }\r\n\r\n    function _verifyCallResult(\r\n        bool success,\r\n        bytes memory returndata,\r\n        string memory errorMessage\r\n    ) private pure returns (bytes memory) {\r\n        if (success) {\r\n            return returndata;\r\n        } else {\r\n            // Look for revert reason and bubble it up if present\r\n            if (returndata.length > 0) {\r\n                // The easiest way to bubble the revert reason is using memory via assembly\r\n\r\n                assembly {\r\n                    let returndata_size := mload(returndata)\r\n                    revert(add(32, returndata), returndata_size)\r\n                }\r\n            } else {\r\n                revert(errorMessage);\r\n            }\r\n        }\r\n    }\r\n}\r\npragma solidity ^0.8.0;\r\n\r\n/*\r\n * @dev Provides information about the current execution context, including the\r\n * sender of the transaction and its data. While these are generally available\r\n * via msg.sender and msg.data, they should not be accessed in such a direct\r\n * manner, since when dealing with meta-transactions the account sending and\r\n * paying for execution may not be the actual sender (as far as an application\r\n * is concerned).\r\n *\r\n * This contract is only required for intermediate, library-like contracts.\r\n */\r\nabstract contract Context {\r\n    function _msgSender() internal view virtual returns (address) {\r\n        return msg.sender;\r\n    }\r\n\r\n    function _msgData() internal view virtual returns (bytes calldata) {\r\n        return msg.data;\r\n    }\r\n}\r\npragma solidity ^0.8.0;\r\n\r\n\r\n\r\n/**\r\n * @dev Implementation of the basic standard multi-token.\r\n * See https://eips.ethereum.org/EIPS/eip-1155\r\n * Originally based on code by Enjin: https://github.com/enjin/erc-1155\r\n *\r\n * _Available since v3.1._\r\n */\r\ncontract ERC1155 is Context, ERC165, IERC1155, IERC1155MetadataURI {\r\n    using Address for address;\r\n\r\n    // Mapping from token ID to account balances\r\n    mapping(uint256 => mapping(address => uint256)) private _balances;\r\n\r\n    // Mapping from account to operator approvals\r\n    mapping(address => mapping(address => bool)) private _operatorApprovals;\r\n\r\n    // Used as the URI for all token types by relying on ID substitution, e.g. https://token-cdn-domain/{id}.json\r\n    string private _uri;\r\n\r\n    /**\r\n     * @dev See {_setURI}.\r\n     */\r\n    constructor(string memory uri_) {\r\n        _setURI(uri_);\r\n    }\r\n\r\n    /**\r\n     * @dev See {IERC165-supportsInterface}.\r\n     */\r\n    function supportsInterface(bytes4 interfaceId) public view virtual override(ERC165, IERC165) returns (bool) {\r\n        return\r\n            interfaceId == type(IERC1155).interfaceId ||\r\n            interfaceId == type(IERC1155MetadataURI).interfaceId ||\r\n            super.supportsInterface(interfaceId);\r\n    }\r\n\r\n    /**\r\n     * @dev See {IERC1155MetadataURI-uri}.\r\n     *\r\n     * This implementation returns the same URI for *all* token types. It relies\r\n     * on the token type ID substitution mechanism\r\n     * https://eips.ethereum.org/EIPS/eip-1155#metadata[defined in the EIP].\r\n     *\r\n     * Clients calling this function must replace the `\\{id\\}` substring with the\r\n     * actual token type ID.\r\n     */\r\n    function uri(uint256) public view virtual override returns (string memory) {\r\n        return _uri;\r\n    }\r\n\r\n    /**\r\n     * @dev See {IERC1155-balanceOf}.\r\n     *\r\n     * Requirements:\r\n     *\r\n     * - `account` cannot be the zero address.\r\n     */\r\n    function balanceOf(address account, uint256 id) public view virtual override returns (uint256) {\r\n        require(account != address(0), \"ERC1155: balance query for the zero address\");\r\n        return _balances[id][account];\r\n    }\r\n\r\n    /**\r\n     * @dev See {IERC1155-balanceOfBatch}.\r\n     *\r\n     * Requirements:\r\n     *\r\n     * - `accounts` and `ids` must have the same length.\r\n     */\r\n    function balanceOfBatch(address[] memory accounts, uint256[] memory ids)\r\n        public\r\n        view\r\n        virtual\r\n        override\r\n        returns (uint256[] memory)\r\n    {\r\n        require(accounts.length == ids.length, \"ERC1155: accounts and ids length mismatch\");\r\n\r\n        uint256[] memory batchBalances = new uint256[](accounts.length);\r\n\r\n        for (uint256 i = 0; i < accounts.length; ++i) {\r\n            batchBalances[i] = balanceOf(accounts[i], ids[i]);\r\n        }\r\n\r\n        return batchBalances;\r\n    }\r\n\r\n    /**\r\n     * @dev See {IERC1155-setApprovalForAll}.\r\n     */\r\n    function setApprovalForAll(address operator, bool approved) public virtual override {\r\n        require(_msgSender() != operator, \"ERC1155: setting approval status for self\");\r\n\r\n        _operatorApprovals[_msgSender()][operator] = approved;\r\n        emit ApprovalForAll(_msgSender(), operator, approved);\r\n    }\r\n\r\n    /**\r\n     * @dev See {IERC1155-isApprovedForAll}.\r\n     */\r\n    function isApprovedForAll(address account, address operator) public view virtual override returns (bool) {\r\n        return _operatorApprovals[account][operator];\r\n    }\r\n\r\n    /**\r\n     * @dev See {IERC1155-safeTransferFrom}.\r\n     */\r\n    function safeTransferFrom(\r\n        address from,\r\n        address to,\r\n        uint256 id,\r\n        uint256 amount,\r\n        bytes memory data\r\n    ) public virtual override {\r\n        require(\r\n            from == _msgSender() || isApprovedForAll(from, _msgSender()),\r\n            \"ERC1155: caller is not owner nor approved\"\r\n        );\r\n        _safeTransferFrom(from, to, id, amount, data);\r\n    }\r\n\r\n    /**\r\n     * @dev See {IERC1155-safeBatchTransferFrom}.\r\n     */\r\n    function safeBatchTransferFrom(\r\n        address from,\r\n        address to,\r\n        uint256[] memory ids,\r\n        uint256[] memory amounts,\r\n        bytes memory data\r\n    ) public virtual override {\r\n        require(\r\n            from == _msgSender() || isApprovedForAll(from, _msgSender()),\r\n            \"ERC1155: transfer caller is not owner nor approved\"\r\n        );\r\n        _safeBatchTransferFrom(from, to, ids, amounts, data);\r\n    }\r\n\r\n    /**\r\n     * @dev Transfers `amount` tokens of token type `id` from `from` to `to`.\r\n     *\r\n     * Emits a {TransferSingle} event.\r\n     *\r\n     * Requirements:\r\n     *\r\n     * - `to` cannot be the zero address.\r\n     * - `from` must have a balance of tokens of type `id` of at least `amount`.\r\n     * - If `to` refers to a smart contract, it must implement {IERC1155Receiver-onERC1155Received} and return the\r\n     * acceptance magic value.\r\n     */\r\n    function _safeTransferFrom(\r\n        address from,\r\n        address to,\r\n        uint256 id,\r\n        uint256 amount,\r\n        bytes memory data\r\n    ) internal virtual {\r\n        require(to != address(0), \"ERC1155: transfer to the zero address\");\r\n\r\n        address operator = _msgSender();\r\n\r\n        _beforeTokenTransfer(operator, from, to, _asSingletonArray(id), _asSingletonArray(amount), data);\r\n\r\n        uint256 fromBalance = _balances[id][from];\r\n        require(fromBalance >= amount, \"ERC1155: insufficient balance for transfer\");\r\n        unchecked {\r\n            _balances[id][from] = fromBalance - amount;\r\n        }\r\n        _balances[id][to] += amount;\r\n\r\n        emit TransferSingle(operator, from, to, id, amount);\r\n\r\n        _doSafeTransferAcceptanceCheck(operator, from, to, id, amount, data);\r\n    }\r\n\r\n    /**\r\n     * @dev xref:ROOT:erc1155.adoc#batch-operations[Batched] version of {_safeTransferFrom}.\r\n     *\r\n     * Emits a {TransferBatch} event.\r\n     *\r\n     * Requirements:\r\n     *\r\n     * - If `to` refers to a smart contract, it must implement {IERC1155Receiver-onERC1155BatchReceived} and return the\r\n     * acceptance magic value.\r\n     */\r\n    function _safeBatchTransferFrom(\r\n        address from,\r\n        address to,\r\n        uint256[] memory ids,\r\n        uint256[] memory amounts,\r\n        bytes memory data\r\n    ) internal virtual {\r\n        require(ids.length == amounts.length, \"ERC1155: ids and amounts length mismatch\");\r\n        require(to != address(0), \"ERC1155: transfer to the zero address\");\r\n\r\n        address operator = _msgSender();\r\n\r\n        _beforeTokenTransfer(operator, from, to, ids, amounts, data);\r\n\r\n        for (uint256 i = 0; i < ids.length; ++i) {\r\n            uint256 id = ids[i];\r\n            uint256 amount = amounts[i];\r\n\r\n            uint256 fromBalance = _balances[id][from];\r\n            require(fromBalance >= amount, \"ERC1155: insufficient balance for transfer\");\r\n            unchecked {\r\n                _balances[id][from] = fromBalance - amount;\r\n            }\r\n            _balances[id][to] += amount;\r\n        }\r\n\r\n        emit TransferBatch(operator, from, to, ids, amounts);\r\n\r\n        _doSafeBatchTransferAcceptanceCheck(operator, from, to, ids, amounts, data);\r\n    }\r\n\r\n    /**\r\n     * @dev Sets a new URI for all token types, by relying on the token type ID\r\n     * substitution mechanism\r\n     * https://eips.ethereum.org/EIPS/eip-1155#metadata[defined in the EIP].\r\n     *\r\n     * By this mechanism, any occurrence of the `\\{id\\}` substring in either the\r\n     * URI or any of the amounts in the JSON file at said URI will be replaced by\r\n     * clients with the token type ID.\r\n     *\r\n     * For example, the `https://token-cdn-domain/\\{id\\}.json` URI would be\r\n     * interpreted by clients as\r\n     * `https://token-cdn-domain/000000000000000000000000000000000000000000000000000000000004cce0.json`\r\n     * for token type ID 0x4cce0.\r\n     *\r\n     * See {uri}.\r\n     *\r\n     * Because these URIs cannot be meaningfully represented by the {URI} event,\r\n     * this function emits no events.\r\n     */\r\n    function _setURI(string memory newuri) internal virtual {\r\n        _uri = newuri;\r\n    }\r\n\r\n    /**\r\n     * @dev Creates `amount` tokens of token type `id`, and assigns them to `account`.\r\n     *\r\n     * Emits a {TransferSingle} event.\r\n     *\r\n     * Requirements:\r\n     *\r\n     * - `account` cannot be the zero address.\r\n     * - If `account` refers to a smart contract, it must implement {IERC1155Receiver-onERC1155Received} and return the\r\n     * acceptance magic value.\r\n     */\r\n    function _mint(\r\n        address account,\r\n        uint256 id,\r\n        uint256 amount,\r\n        bytes memory data\r\n    ) internal virtual {\r\n        require(account != address(0), \"ERC1155: mint to the zero address\");\r\n\r\n        address operator = _msgSender();\r\n\r\n        _beforeTokenTransfer(operator, address(0), account, _asSingletonArray(id), _asSingletonArray(amount), data);\r\n\r\n        _balances[id][account] += amount;\r\n        emit TransferSingle(operator, address(0), account, id, amount);\r\n\r\n        _doSafeTransferAcceptanceCheck(operator, address(0), account, id, amount, data);\r\n    }\r\n\r\n    /**\r\n     * @dev xref:ROOT:erc1155.adoc#batch-operations[Batched] version of {_mint}.\r\n     *\r\n     * Requirements:\r\n     *\r\n     * - `ids` and `amounts` must have the same length.\r\n     * - If `to` refers to a smart contract, it must implement {IERC1155Receiver-onERC1155BatchReceived} and return the\r\n     * acceptance magic value.\r\n     */\r\n    function _mintBatch(\r\n        address to,\r\n        uint256[] memory ids,\r\n        uint256[] memory amounts,\r\n        bytes memory data\r\n    ) internal virtual {\r\n        require(to != address(0), \"ERC1155: mint to the zero address\");\r\n        require(ids.length == amounts.length, \"ERC1155: ids and amounts length mismatch\");\r\n\r\n        address operator = _msgSender();\r\n\r\n        _beforeTokenTransfer(operator, address(0), to, ids, amounts, data);\r\n\r\n        for (uint256 i = 0; i < ids.length; i++) {\r\n            _balances[ids[i]][to] += amounts[i];\r\n        }\r\n\r\n        emit TransferBatch(operator, address(0), to, ids, amounts);\r\n\r\n        _doSafeBatchTransferAcceptanceCheck(operator, address(0), to, ids, amounts, data);\r\n    }\r\n\r\n    /**\r\n     * @dev Destroys `amount` tokens of token type `id` from `account`\r\n     *\r\n     * Requirements:\r\n     *\r\n     * - `account` cannot be the zero address.\r\n     * - `account` must have at least `amount` tokens of token type `id`.\r\n     */\r\n    function _burn(\r\n        address account,\r\n        uint256 id,\r\n        uint256 amount\r\n    ) internal virtual {\r\n        require(account != address(0), \"ERC1155: burn from the zero address\");\r\n\r\n        address operator = _msgSender();\r\n\r\n        _beforeTokenTransfer(operator, account, address(0), _asSingletonArray(id), _asSingletonArray(amount), \"\");\r\n\r\n        uint256 accountBalance = _balances[id][account];\r\n        require(accountBalance >= amount, \"ERC1155: burn amount exceeds balance\");\r\n        unchecked {\r\n            _balances[id][account] = accountBalance - amount;\r\n        }\r\n\r\n        emit TransferSingle(operator, account, address(0), id, amount);\r\n    }\r\n\r\n    /**\r\n     * @dev xref:ROOT:erc1155.adoc#batch-operations[Batched] version of {_burn}.\r\n     *\r\n     * Requirements:\r\n     *\r\n     * - `ids` and `amounts` must have the same length.\r\n     */\r\n    function _burnBatch(\r\n        address account,\r\n        uint256[] memory ids,\r\n        uint256[] memory amounts\r\n    ) internal virtual {\r\n        require(account != address(0), \"ERC1155: burn from the zero address\");\r\n        require(ids.length == amounts.length, \"ERC1155: ids and amounts length mismatch\");\r\n\r\n        address operator = _msgSender();\r\n\r\n        _beforeTokenTransfer(operator, account, address(0), ids, amounts, \"\");\r\n\r\n        for (uint256 i = 0; i < ids.length; i++) {\r\n            uint256 id = ids[i];\r\n            uint256 amount = amounts[i];\r\n\r\n            uint256 accountBalance = _balances[id][account];\r\n            require(accountBalance >= amount, \"ERC1155: burn amount exceeds balance\");\r\n            unchecked {\r\n                _balances[id][account] = accountBalance - amount;\r\n            }\r\n        }\r\n\r\n        emit TransferBatch(operator, account, address(0), ids, amounts);\r\n    }\r\n\r\n    /**\r\n     * @dev Hook that is called before any token transfer. This includes minting\r\n     * and burning, as well as batched variants.\r\n     *\r\n     * The same hook is called on both single and batched variants. For single\r\n     * transfers, the length of the `id` and `amount` arrays will be 1.\r\n     *\r\n     * Calling conditions (for each `id` and `amount` pair):\r\n     *\r\n     * - When `from` and `to` are both non-zero, `amount` of ``from``'s tokens\r\n     * of token type `id` will be  transferred to `to`.\r\n     * - When `from` is zero, `amount` tokens of token type `id` will be minted\r\n     * for `to`.\r\n     * - when `to` is zero, `amount` of ``from``'s tokens of token type `id`\r\n     * will be burned.\r\n     * - `from` and `to` are never both zero.\r\n     * - `ids` and `amounts` have the same, non-zero length.\r\n     *\r\n     * To learn more about hooks, head to xref:ROOT:extending-contracts.adoc#using-hooks[Using Hooks].\r\n     */\r\n    function _beforeTokenTransfer(\r\n        address operator,\r\n        address from,\r\n        address to,\r\n        uint256[] memory ids,\r\n        uint256[] memory amounts,\r\n        bytes memory data\r\n    ) internal virtual {}\r\n\r\n    function _doSafeTransferAcceptanceCheck(\r\n        address operator,\r\n        address from,\r\n        address to,\r\n        uint256 id,\r\n        uint256 amount,\r\n        bytes memory data\r\n    ) private {\r\n        if (to.isContract()) {\r\n            try IERC1155Receiver(to).onERC1155Received(operator, from, id, amount, data) returns (bytes4 response) {\r\n                if (response != IERC1155Receiver(to).onERC1155Received.selector) {\r\n                    revert(\"ERC1155: ERC1155Receiver rejected tokens\");\r\n                }\r\n            } catch Error(string memory reason) {\r\n                revert(reason);\r\n            } catch {\r\n                revert(\"ERC1155: transfer to non ERC1155Receiver implementer\");\r\n            }\r\n        }\r\n    }\r\n\r\n    function _doSafeBatchTransferAcceptanceCheck(\r\n        address operator,\r\n        address from,\r\n        address to,\r\n        uint256[] memory ids,\r\n        uint256[] memory amounts,\r\n        bytes memory data\r\n    ) private {\r\n        if (to.isContract()) {\r\n            try IERC1155Receiver(to).onERC1155BatchReceived(operator, from, ids, amounts, data) returns (\r\n                bytes4 response\r\n            ) {\r\n                if (response != IERC1155Receiver(to).onERC1155BatchReceived.selector) {\r\n                    revert(\"ERC1155: ERC1155Receiver rejected tokens\");\r\n                }\r\n            } catch Error(string memory reason) {\r\n                revert(reason);\r\n            } catch {\r\n                revert(\"ERC1155: transfer to non ERC1155Receiver implementer\");\r\n            }\r\n        }\r\n    }\r\n\r\n    function _asSingletonArray(uint256 element) private pure returns (uint256[] memory) {\r\n        uint256[] memory array = new uint256[](1);\r\n        array[0] = element;\r\n\r\n        return array;\r\n    }\r\n}\r\npragma solidity ^0.8.0;\r\n\r\n\r\n\r\n/**\r\n * @dev Extension of {ERC1155} that allows token holders to destroy both their\r\n * own tokens and those that they have been approved to use.\r\n *\r\n * _Available since v3.1._\r\n */\r\nabstract contract ERC1155Burnable is ERC1155 {\r\n    \r\n    function burn(\r\n        address account,\r\n        uint256 id,\r\n        uint256 value\r\n    ) public virtual {\r\n        require(\r\n            account == _msgSender() || isApprovedForAll(account, _msgSender()),\r\n            \"ERC1155: caller is not owner nor approved\"\r\n        );\r\n\r\n        _burn(account, id, value);\r\n    }\r\n\r\n    function burnBatch(\r\n        address account,\r\n        uint256[] memory ids,\r\n        uint256[] memory values\r\n    ) public virtual {\r\n        require(\r\n            account == _msgSender() || isApprovedForAll(account, _msgSender()),\r\n            \"ERC1155: caller is not owner nor approved\"\r\n        );\r\n\r\n        _burnBatch(account, ids, values);\r\n    }\r\n}\r\npragma solidity ^0.8.0;\r\n\r\n\r\n/**\r\n * @dev Contract module which provides a basic access control mechanism, where\r\n * there is an account (an owner) that can be granted exclusive access to\r\n * specific functions.\r\n *\r\n * By default, the owner account will be the one that deploys the contract. This\r\n * can later be changed with {transferOwnership}.\r\n *\r\n * This module is used through inheritance. It will make available the modifier\r\n * `onlyOwner`, which can be applied to your functions to restrict their use to\r\n * the owner.\r\n */\r\nabstract contract Ownable is Context {\r\n    address private _owner;\r\n\r\n    event OwnershipTransferred(address indexed previousOwner, address indexed newOwner);\r\n\r\n    /**\r\n     * @dev Initializes the contract setting the deployer as the initial owner.\r\n     */\r\n    constructor() {\r\n        _setOwner(_msgSender());\r\n    }\r\n\r\n    /**\r\n     * @dev Returns the address of the current owner.\r\n     */\r\n    function owner() public view virtual returns (address) {\r\n        return _owner;\r\n    }\r\n\r\n    /**\r\n     * @dev Throws if called by any account other than the owner.\r\n     */\r\n    modifier onlyOwner() {\r\n        require(owner() == _msgSender(), \"Ownable: caller is not the owner\");\r\n        _;\r\n    }\r\n\r\n    /**\r\n     * @dev Leaves the contract without owner. It will not be possible to call\r\n     * `onlyOwner` functions anymore. Can only be called by the current owner.\r\n     *\r\n     * NOTE: Renouncing ownership will leave the contract without an owner,\r\n     * thereby removing any functionality that is only available to the owner.\r\n     */\r\n    function renounceOwnership() public virtual onlyOwner {\r\n        _setOwner(address(0));\r\n    }\r\n\r\n    /**\r\n     * @dev Transfers ownership of the contract to a new account (`newOwner`).\r\n     * Can only be called by the current owner.\r\n     */\r\n    function transferOwnership(address newOwner) public virtual onlyOwner {\r\n        require(newOwner != address(0), \"Ownable: new owner is the zero address\");\r\n        _setOwner(newOwner);\r\n    }\r\n\r\n    function _setOwner(address newOwner) private {\r\n        address oldOwner = _owner;\r\n        _owner = newOwner;\r\n        emit OwnershipTransferred(oldOwner, newOwner);\r\n    }\r\n}\r\n\r\n\r\n// SPDX-License-Identifier: MIT\r\npragma solidity ^0.8.2;\r\n\r\ncontract boosterNFT is ERC1155Burnable , Ownable{\r\n    uint256 public constant COMMON = 0;\r\n    uint256 public constant RARE = 1;\r\n    uint256 public constant LEGENDARY = 2;\r\n    \r\n      mapping(address => bool) public isMinter;\r\n\r\n    constructor() public ERC1155(\"\") {\r\n         \r\n         _mint(msg.sender, COMMON, 10, \"\");\r\n         _mint(msg.sender, RARE, 10, \"\");\r\n         _mint(msg.sender, LEGENDARY, 10, \"\");\r\n    }\r\n    modifier onlyMinter() {\r\n        require( isMinter[_msgSender()] || owner() == _msgSender(), \" caller is not the minter or owner\");\r\n        _;\r\n    }\r\n    \r\n    function mintReward(address player , uint256 rewardID ) public  onlyMinter returns(bool){\r\n        \r\n      _mint(player, rewardID, 1, \"\");   \r\n      return true;\r\n    }\r\n    /**\r\n     * @dev add  booster contract which has the minter role  of the contract \r\n     * Can only be called by the owner.\r\n     */\r\n    function assignBoosterContract(address newMinter) public  onlyOwner {\r\n        require(newMinter != address(0), \" new minter  is the zero address\");\r\n         isMinter[newMinter] = true;\r\n    }\r\n     function delistBoosterContract(address newMinter) public  onlyOwner {\r\n        require(newMinter != address(0), \" new minter  is the zero address\");\r\n         isMinter[newMinter] = false;\r\n    }\r\n    \r\n    \r\n}",
  "sourcePath": "/home/moot/projects/vw/contracts/rewardNFT.sol",
  "compiler": {
    "name": "solc",
    "version": "0.8.6+commit.11564f7e.Emscripten.clang"
  },
  "schemaVersion": "3.4.1",
  "updatedAt": "2021-07-28T03:17:46.749Z",
  "networkType": "ethereum",
  "devdoc": {
    "kind": "dev",
    "methods": {
      "assignBoosterContract(address)": {
        "details": "add  booster contract which has the minter role  of the contract  Can only be called by the owner."
      },
      "balanceOf(address,uint256)": {
        "details": "See {IERC1155-balanceOf}. Requirements: - `account` cannot be the zero address."
      },
      "balanceOfBatch(address[],uint256[])": {
        "details": "See {IERC1155-balanceOfBatch}. Requirements: - `accounts` and `ids` must have the same length."
      },
      "isApprovedForAll(address,address)": {
        "details": "See {IERC1155-isApprovedForAll}."
      },
      "owner()": {
        "details": "Returns the address of the current owner."
      },
      "renounceOwnership()": {
        "details": "Leaves the contract without owner. It will not be possible to call `onlyOwner` functions anymore. Can only be called by the current owner. NOTE: Renouncing ownership will leave the contract without an owner, thereby removing any functionality that is only available to the owner."
      },
      "safeBatchTransferFrom(address,address,uint256[],uint256[],bytes)": {
        "details": "See {IERC1155-safeBatchTransferFrom}."
      },
      "safeTransferFrom(address,address,uint256,uint256,bytes)": {
        "details": "See {IERC1155-safeTransferFrom}."
      },
      "setApprovalForAll(address,bool)": {
        "details": "See {IERC1155-setApprovalForAll}."
      },
      "supportsInterface(bytes4)": {
        "details": "See {IERC165-supportsInterface}."
      },
      "transferOwnership(address)": {
        "details": "Transfers ownership of the contract to a new account (`newOwner`). Can only be called by the current owner."
      },
      "uri(uint256)": {
        "details": "See {IERC1155MetadataURI-uri}. This implementation returns the same URI for *all* token types. It relies on the token type ID substitution mechanism https://eips.ethereum.org/EIPS/eip-1155#metadata[defined in the EIP]. Clients calling this function must replace the `\\{id\\}` substring with the actual token type ID."
      }
    },
    "version": 1
  },
  "userdoc": {
    "kind": "user",
    "methods": {},
    "version": 1
  }
}