{
  "contractName": "ComplexStorage",
  "abi": [
    {
      "inputs": [],
      "stateMutability": "nonpayable",
      "type": "constructor"
    },
    {
      "inputs": [],
      "name": "constuint",
      "outputs": [
        {
          "internalType": "uint256",
          "name": "",
          "type": "uint256"
        }
      ],
      "stateMutability": "view",
      "type": "function"
    },
    {
      "inputs": [
        {
          "internalType": "uint256",
          "name": "",
          "type": "uint256"
        }
      ],
      "name": "deviceDataArray",
      "outputs": [
        {
          "internalType": "string",
          "name": "deviceBrand",
          "type": "string"
        },
        {
          "internalType": "string",
          "name": "deviceYear",
          "type": "string"
        },
        {
          "internalType": "string",
          "name": "batteryWearLevel",
          "type": "string"
        }
      ],
      "stateMutability": "view",
      "type": "function"
    },
    {
      "inputs": [],
      "name": "investmentsDeadlineTimeStamp",
      "outputs": [
        {
          "internalType": "uint32",
          "name": "",
          "type": "uint32"
        }
      ],
      "stateMutability": "view",
      "type": "function"
    },
    {
      "inputs": [],
      "name": "investmentsLimit",
      "outputs": [
        {
          "internalType": "uint128",
          "name": "",
          "type": "uint128"
        }
      ],
      "stateMutability": "view",
      "type": "function"
    },
    {
      "inputs": [],
      "name": "singleDD",
      "outputs": [
        {
          "internalType": "string",
          "name": "deviceBrand",
          "type": "string"
        },
        {
          "internalType": "string",
          "name": "deviceYear",
          "type": "string"
        },
        {
          "internalType": "string",
          "name": "batteryWearLevel",
          "type": "string"
        }
      ],
      "stateMutability": "view",
      "type": "function"
    },
    {
      "inputs": [],
      "name": "storeduint1",
      "outputs": [
        {
          "internalType": "uint256",
          "name": "",
          "type": "uint256"
        }
      ],
      "stateMutability": "view",
      "type": "function"
    },
    {
      "inputs": [],
      "name": "string1",
      "outputs": [
        {
          "internalType": "bytes16",
          "name": "",
          "type": "bytes16"
        }
      ],
      "stateMutability": "view",
      "type": "function"
    },
    {
      "inputs": [],
      "name": "string2",
      "outputs": [
        {
          "internalType": "bytes32",
          "name": "",
          "type": "bytes32"
        }
      ],
      "stateMutability": "view",
      "type": "function"
    },
    {
      "inputs": [],
      "name": "string3",
      "outputs": [
        {
          "internalType": "string",
          "name": "",
          "type": "string"
        }
      ],
      "stateMutability": "view",
      "type": "function"
    },
    {
      "inputs": [
        {
          "internalType": "uint256",
          "name": "",
          "type": "uint256"
        }
      ],
      "name": "uintarray",
      "outputs": [
        {
          "internalType": "uint256",
          "name": "",
          "type": "uint256"
        }
      ],
      "stateMutability": "view",
      "type": "function"
    }
  ],
  "bytecode": "0x600f6000556001805461429f6001600160a01b0319909116600160801b4263ffffffff160217179055600280546001600160801b0319166f74657374310000000000000000000000179055673a32b9ba1899199b60c11b60035560c0604052601560808190527f6c65747320737472696e6720736f6d657468696e67000000000000000000000060a09081526200009a916004919062000556565b50348015620000a857600080fd5b5060587fafef6be2b419f4d69d56fe34788202bf06650015554457a2470181981bcce7ef5560637fb01ced36af2255129ceb004046ab791f2c883dd74d458026d7b81c7aaff3566b556040805160a081018252600b606082019081526a19195d9a58d9509c985b9960aa1b6080830152815281518083018352600a8152693232bb34b1b2acb2b0b960b11b602082810191909152828101919091528251808401845260098152681dd9585c93195d995b60ba1b818301529282019290925273bccc714d56bc0da0fd33d96d2a87b680dd6d0df660008190526006835281518051919373aee905fdd3ed851e48d22059575b9f4245a82b0493927f720c187f2880b2567f9fccc279625ea13024b8b82a6f73e26d9ca6d82ede1cc592620001d392849291019062000556565b506020828101518051620001ee926001850192019062000556565b50604082015180516200020c91600284019160209091019062000556565b50506040805160a081018252600c606082019081526b3232bb34b1b2a13930b7321960a11b6080830152815281518083018352600b81526a3232bb34b1b2acb2b0b91960a91b6020828101919091528083019190915282518084018452600a8152693bb2b0b92632bb32b61960b11b81830152828401526001600160a01b03851660009081526006825292909220815180519294509092620002b49284929091019062000556565b506020828101518051620002cf926001850192019062000556565b5060408201518051620002ed91600284019160209091019062000556565b50506040805160a081018252600c606082019081526b6465766963654272616e643360a01b6080830152815281518083018352600b81526a646576696365596561723360a81b6020828101919091528083019190915282518084018452600a815269776561724c6576656c3360b01b818301529282019290925280518051919350600992620003829284929091019062000556565b5060208281015180516200039d926001850192019062000556565b5060408201518051620003bb91600284019160209091019062000556565b50506007805460018181018355611f407fa66cc928b5edb82af9bd49922954155ab7b0942694bea4ce44661d9a8736c68892830155825480820190935561232892909101919091556001600160a01b03841660009081526006602052604081206008805493840181559091528054909250600390910260008051602062000c20833981519152019081908390620004529062000680565b6200045f929190620005e5565b506001820181600101908054620004769062000680565b62000483929190620005e5565b5060028201816002019080546200049a9062000680565b620004a7929190620005e5565b5050506001600160a01b03811660009081526006602052604081206008805460018101825592528054909160030260008051602062000c20833981519152019081908390620004f69062000680565b62000503929190620005e5565b5060018201816001019080546200051a9062000680565b62000527929190620005e5565b5060028201816002019080546200053e9062000680565b6200054b929190620005e5565b5050505050620006bd565b828054620005649062000680565b90600052602060002090601f016020900481019282620005885760008555620005d3565b82601f10620005a357805160ff1916838001178555620005d3565b82800160010185558215620005d3579182015b82811115620005d3578251825591602001919060010190620005b6565b50620005e192915062000669565b5090565b828054620005f39062000680565b90600052602060002090601f016020900481019282620006175760008555620005d3565b82601f106200062a5780548555620005d3565b82800160010185558215620005d357600052602060002091601f016020900482015b82811115620005d35782548255916001019190600101906200064c565b5b80821115620005e157600081556001016200066a565b600181811c908216806200069557607f821691505b60208210811415620006b757634e487b7160e01b600052602260045260246000fd5b50919050565b61055380620006cd6000396000f3fe608060405234801561001057600080fd5b506004361061008e5760003560e01c80630ca0aa791461009357806311f9c74d146100af57806328a20b5e146100b85780636c0c1bcf146100cf57806384eeda56146100e257806392755860146100f557806397ba784f1461010a578063a7b2cfca14610112578063df4fddf514610138578063eec65f2914610164575b600080fd5b61009c60035481565b6040519081526020015b60405180910390f35b61009c60005481565b6100c061018f565b6040516100a69392919061049f565b61009c6100dd36600461041f565b61033d565b6100c06100f036600461041f565b61035e565b6100fd610391565b6040516100a69190610485565b61009c601081565b60025461011f9060801b81565b6040516001600160801b031990911681526020016100a6565b60015461014f90600160801b900463ffffffff1681565b60405163ffffffff90911681526020016100a6565b600154610177906001600160801b031681565b6040516001600160801b0390911681526020016100a6565b60098054819061019e906104e2565b80601f01602080910402602001604051908101604052809291908181526020018280546101ca906104e2565b80156102175780601f106101ec57610100808354040283529160200191610217565b820191906000526020600020905b8154815290600101906020018083116101fa57829003601f168201915b50505050509080600101805461022c906104e2565b80601f0160208091040260200160405190810160405280929190818152602001828054610258906104e2565b80156102a55780601f1061027a576101008083540402835291602001916102a5565b820191906000526020600020905b81548152906001019060200180831161028857829003601f168201915b5050505050908060020180546102ba906104e2565b80601f01602080910402602001604051908101604052809291908181526020018280546102e6906104e2565b80156103335780601f1061030857610100808354040283529160200191610333565b820191906000526020600020905b81548152906001019060200180831161031657829003601f168201915b5050505050905083565b6007818154811061034d57600080fd5b600091825260209091200154905081565b6008818154811061036e57600080fd5b906000526020600020906003020160009150905080600001805461019e906104e2565b6004805461039e906104e2565b80601f01602080910402602001604051908101604052809291908181526020018280546103ca906104e2565b80156104175780601f106103ec57610100808354040283529160200191610417565b820191906000526020600020905b8154815290600101906020018083116103fa57829003601f168201915b505050505081565b60006020828403121561043157600080fd5b5035919050565b6000815180845260005b8181101561045e57602081850181015186830182015201610442565b81811115610470576000602083870101525b50601f01601f19169290920160200192915050565b6020815260006104986020830184610438565b9392505050565b6060815260006104b26060830186610438565b82810360208401526104c48186610438565b905082810360408401526104d88185610438565b9695505050505050565b600181811c908216806104f657607f821691505b6020821081141561051757634e487b7160e01b600052602260045260246000fd5b5091905056fea2646970667358221220db51e1fe5baaa202ddfdc1f00641dbc5d718add3bee72955e861cc258b21e5f764736f6c63430008060033f3f7a9fe364faab93b216da50a3214154f22a0a2b415b23a84c8169e8b636ee3",
  "immutableReferences": {},
  "source": "// SPDX-License-Identifier: MIT\npragma solidity >=0.4.21;\n\ncontract ComplexStorage {\n    uint public storeduint1 = 15;\n    uint public constant constuint = 16;\n    uint128 public investmentsLimit = 17055;\n    uint32 public investmentsDeadlineTimeStamp = uint32(block.timestamp);\n\n    bytes16 public string1 = \"test1\";\n    bytes32 public string2 = \"test1236\";\n    string public string3 = \"lets string something\";\n\n    mapping (address => uint) uints1;\n    mapping (address => DeviceData) structs1;\n\n    uint[] public uintarray;\n    DeviceData[] public deviceDataArray;\n    DeviceData public singleDD;\n\n    struct DeviceData {\n        string deviceBrand;\n        string deviceYear;\n        string batteryWearLevel;\n    }\n\n    constructor() public {\n        address address1 = 0xbCcc714d56bc0da0fd33d96d2a87b680dD6D0DF6;\n        address address2 = 0xaee905FdD3ED851e48d22059575b9F4245A82B04;\n\n        uints1[address1] = 88;\n        uints1[address2] = 99;\n\n        structs1[address1] = DeviceData(\"deviceBrand\", \"deviceYear\", \"wearLevel\");\n        structs1[address2] = DeviceData(\"deviceBrand2\", \"deviceYear2\", \"wearLevel2\");\n        singleDD = DeviceData(\"deviceBrand3\", \"deviceYear3\", \"wearLevel3\");\n\n        uintarray.push(8000);\n        uintarray.push(9000);\n\n        deviceDataArray.push(structs1[address1]);\n        deviceDataArray.push(structs1[address2]);\n    }\n}\n",
  "sourcePath": "/home/moot/projects/vw/contracts/ComplexStorage.sol",
  "compiler": {
    "name": "solc",
    "version": "0.8.6+commit.11564f7e.Emscripten.clang"
  },
  "schemaVersion": "3.4.1",
  "updatedAt": "2021-07-14T17:18:53.141Z",
  "devdoc": {
    "kind": "dev",
    "methods": {},
    "version": 1
  },
  "userdoc": {
    "kind": "user",
    "methods": {},
    "version": 1
  }
}