{
  "contractName": "piggyNFT",
  "abi": [
    {
      "inputs": [
        {
          "internalType": "address",
          "name": "game",
          "type": "address"
        }
      ],
      "stateMutability": "nonpayable",
      "type": "constructor"
    },
    {
      "anonymous": false,
      "inputs": [
        {
          "indexed": true,
          "internalType": "address",
          "name": "owner",
          "type": "address"
        },
        {
          "indexed": true,
          "internalType": "address",
          "name": "approved",
          "type": "address"
        },
        {
          "indexed": true,
          "internalType": "uint256",
          "name": "tokenId",
          "type": "uint256"
        }
      ],
      "name": "Approval",
      "type": "event"
    },
    {
      "anonymous": false,
      "inputs": [
        {
          "indexed": true,
          "internalType": "address",
          "name": "owner",
          "type": "address"
        },
        {
          "indexed": true,
          "internalType": "address",
          "name": "operator",
          "type": "address"
        },
        {
          "indexed": false,
          "internalType": "bool",
          "name": "approved",
          "type": "bool"
        }
      ],
      "name": "ApprovalForAll",
      "type": "event"
    },
    {
      "anonymous": false,
      "inputs": [
        {
          "indexed": false,
          "internalType": "address",
          "name": "account",
          "type": "address"
        }
      ],
      "name": "Paused",
      "type": "event"
    },
    {
      "anonymous": false,
      "inputs": [
        {
          "indexed": true,
          "internalType": "bytes32",
          "name": "role",
          "type": "bytes32"
        },
        {
          "indexed": true,
          "internalType": "bytes32",
          "name": "previousAdminRole",
          "type": "bytes32"
        },
        {
          "indexed": true,
          "internalType": "bytes32",
          "name": "newAdminRole",
          "type": "bytes32"
        }
      ],
      "name": "RoleAdminChanged",
      "type": "event"
    },
    {
      "anonymous": false,
      "inputs": [
        {
          "indexed": true,
          "internalType": "bytes32",
          "name": "role",
          "type": "bytes32"
        },
        {
          "indexed": true,
          "internalType": "address",
          "name": "account",
          "type": "address"
        },
        {
          "indexed": true,
          "internalType": "address",
          "name": "sender",
          "type": "address"
        }
      ],
      "name": "RoleGranted",
      "type": "event"
    },
    {
      "anonymous": false,
      "inputs": [
        {
          "indexed": true,
          "internalType": "bytes32",
          "name": "role",
          "type": "bytes32"
        },
        {
          "indexed": true,
          "internalType": "address",
          "name": "account",
          "type": "address"
        },
        {
          "indexed": true,
          "internalType": "address",
          "name": "sender",
          "type": "address"
        }
      ],
      "name": "RoleRevoked",
      "type": "event"
    },
    {
      "anonymous": false,
      "inputs": [
        {
          "indexed": true,
          "internalType": "address",
          "name": "from",
          "type": "address"
        },
        {
          "indexed": true,
          "internalType": "address",
          "name": "to",
          "type": "address"
        },
        {
          "indexed": true,
          "internalType": "uint256",
          "name": "tokenId",
          "type": "uint256"
        }
      ],
      "name": "Transfer",
      "type": "event"
    },
    {
      "anonymous": false,
      "inputs": [
        {
          "indexed": false,
          "internalType": "address",
          "name": "account",
          "type": "address"
        }
      ],
      "name": "Unpaused",
      "type": "event"
    },
    {
      "inputs": [],
      "name": "DEFAULT_ADMIN_ROLE",
      "outputs": [
        {
          "internalType": "bytes32",
          "name": "",
          "type": "bytes32"
        }
      ],
      "stateMutability": "view",
      "type": "function",
      "constant": true
    },
    {
      "inputs": [],
      "name": "MINTER_ROLE",
      "outputs": [
        {
          "internalType": "bytes32",
          "name": "",
          "type": "bytes32"
        }
      ],
      "stateMutability": "view",
      "type": "function",
      "constant": true
    },
    {
      "inputs": [],
      "name": "PAUSER_ROLE",
      "outputs": [
        {
          "internalType": "bytes32",
          "name": "",
          "type": "bytes32"
        }
      ],
      "stateMutability": "view",
      "type": "function",
      "constant": true
    },
    {
      "inputs": [
        {
          "internalType": "address",
          "name": "to",
          "type": "address"
        },
        {
          "internalType": "uint256",
          "name": "tokenId",
          "type": "uint256"
        }
      ],
      "name": "approve",
      "outputs": [],
      "stateMutability": "nonpayable",
      "type": "function"
    },
    {
      "inputs": [
        {
          "internalType": "address",
          "name": "owner",
          "type": "address"
        }
      ],
      "name": "balanceOf",
      "outputs": [
        {
          "internalType": "uint256",
          "name": "",
          "type": "uint256"
        }
      ],
      "stateMutability": "view",
      "type": "function",
      "constant": true
    },
    {
      "inputs": [
        {
          "internalType": "uint256",
          "name": "tokenId",
          "type": "uint256"
        }
      ],
      "name": "burn",
      "outputs": [],
      "stateMutability": "nonpayable",
      "type": "function"
    },
    {
      "inputs": [
        {
          "internalType": "uint256",
          "name": "tokenId",
          "type": "uint256"
        }
      ],
      "name": "getApproved",
      "outputs": [
        {
          "internalType": "address",
          "name": "",
          "type": "address"
        }
      ],
      "stateMutability": "view",
      "type": "function",
      "constant": true
    },
    {
      "inputs": [
        {
          "internalType": "bytes32",
          "name": "role",
          "type": "bytes32"
        }
      ],
      "name": "getRoleAdmin",
      "outputs": [
        {
          "internalType": "bytes32",
          "name": "",
          "type": "bytes32"
        }
      ],
      "stateMutability": "view",
      "type": "function",
      "constant": true
    },
    {
      "inputs": [
        {
          "internalType": "bytes32",
          "name": "role",
          "type": "bytes32"
        },
        {
          "internalType": "uint256",
          "name": "index",
          "type": "uint256"
        }
      ],
      "name": "getRoleMember",
      "outputs": [
        {
          "internalType": "address",
          "name": "",
          "type": "address"
        }
      ],
      "stateMutability": "view",
      "type": "function",
      "constant": true
    },
    {
      "inputs": [
        {
          "internalType": "bytes32",
          "name": "role",
          "type": "bytes32"
        }
      ],
      "name": "getRoleMemberCount",
      "outputs": [
        {
          "internalType": "uint256",
          "name": "",
          "type": "uint256"
        }
      ],
      "stateMutability": "view",
      "type": "function",
      "constant": true
    },
    {
      "inputs": [
        {
          "internalType": "bytes32",
          "name": "role",
          "type": "bytes32"
        },
        {
          "internalType": "address",
          "name": "account",
          "type": "address"
        }
      ],
      "name": "grantRole",
      "outputs": [],
      "stateMutability": "nonpayable",
      "type": "function"
    },
    {
      "inputs": [
        {
          "internalType": "bytes32",
          "name": "role",
          "type": "bytes32"
        },
        {
          "internalType": "address",
          "name": "account",
          "type": "address"
        }
      ],
      "name": "hasRole",
      "outputs": [
        {
          "internalType": "bool",
          "name": "",
          "type": "bool"
        }
      ],
      "stateMutability": "view",
      "type": "function",
      "constant": true
    },
    {
      "inputs": [
        {
          "internalType": "address",
          "name": "owner",
          "type": "address"
        },
        {
          "internalType": "address",
          "name": "operator",
          "type": "address"
        }
      ],
      "name": "isApprovedForAll",
      "outputs": [
        {
          "internalType": "bool",
          "name": "",
          "type": "bool"
        }
      ],
      "stateMutability": "view",
      "type": "function",
      "constant": true
    },
    {
      "inputs": [],
      "name": "name",
      "outputs": [
        {
          "internalType": "string",
          "name": "",
          "type": "string"
        }
      ],
      "stateMutability": "view",
      "type": "function",
      "constant": true
    },
    {
      "inputs": [
        {
          "internalType": "uint256",
          "name": "tokenId",
          "type": "uint256"
        }
      ],
      "name": "ownerOf",
      "outputs": [
        {
          "internalType": "address",
          "name": "",
          "type": "address"
        }
      ],
      "stateMutability": "view",
      "type": "function",
      "constant": true
    },
    {
      "inputs": [],
      "name": "paused",
      "outputs": [
        {
          "internalType": "bool",
          "name": "",
          "type": "bool"
        }
      ],
      "stateMutability": "view",
      "type": "function",
      "constant": true
    },
    {
      "inputs": [
        {
          "internalType": "bytes32",
          "name": "role",
          "type": "bytes32"
        },
        {
          "internalType": "address",
          "name": "account",
          "type": "address"
        }
      ],
      "name": "renounceRole",
      "outputs": [],
      "stateMutability": "nonpayable",
      "type": "function"
    },
    {
      "inputs": [
        {
          "internalType": "bytes32",
          "name": "role",
          "type": "bytes32"
        },
        {
          "internalType": "address",
          "name": "account",
          "type": "address"
        }
      ],
      "name": "revokeRole",
      "outputs": [],
      "stateMutability": "nonpayable",
      "type": "function"
    },
    {
      "inputs": [
        {
          "internalType": "address",
          "name": "from",
          "type": "address"
        },
        {
          "internalType": "address",
          "name": "to",
          "type": "address"
        },
        {
          "internalType": "uint256",
          "name": "tokenId",
          "type": "uint256"
        }
      ],
      "name": "safeTransferFrom",
      "outputs": [],
      "stateMutability": "nonpayable",
      "type": "function"
    },
    {
      "inputs": [
        {
          "internalType": "address",
          "name": "from",
          "type": "address"
        },
        {
          "internalType": "address",
          "name": "to",
          "type": "address"
        },
        {
          "internalType": "uint256",
          "name": "tokenId",
          "type": "uint256"
        },
        {
          "internalType": "bytes",
          "name": "_data",
          "type": "bytes"
        }
      ],
      "name": "safeTransferFrom",
      "outputs": [],
      "stateMutability": "nonpayable",
      "type": "function"
    },
    {
      "inputs": [
        {
          "internalType": "address",
          "name": "operator",
          "type": "address"
        },
        {
          "internalType": "bool",
          "name": "approved",
          "type": "bool"
        }
      ],
      "name": "setApprovalForAll",
      "outputs": [],
      "stateMutability": "nonpayable",
      "type": "function"
    },
    {
      "inputs": [],
      "name": "symbol",
      "outputs": [
        {
          "internalType": "string",
          "name": "",
          "type": "string"
        }
      ],
      "stateMutability": "view",
      "type": "function",
      "constant": true
    },
    {
      "inputs": [
        {
          "internalType": "uint256",
          "name": "index",
          "type": "uint256"
        }
      ],
      "name": "tokenByIndex",
      "outputs": [
        {
          "internalType": "uint256",
          "name": "",
          "type": "uint256"
        }
      ],
      "stateMutability": "view",
      "type": "function",
      "constant": true
    },
    {
      "inputs": [
        {
          "internalType": "address",
          "name": "owner",
          "type": "address"
        },
        {
          "internalType": "uint256",
          "name": "index",
          "type": "uint256"
        }
      ],
      "name": "tokenOfOwnerByIndex",
      "outputs": [
        {
          "internalType": "uint256",
          "name": "",
          "type": "uint256"
        }
      ],
      "stateMutability": "view",
      "type": "function",
      "constant": true
    },
    {
      "inputs": [],
      "name": "totalSupply",
      "outputs": [
        {
          "internalType": "uint256",
          "name": "",
          "type": "uint256"
        }
      ],
      "stateMutability": "view",
      "type": "function",
      "constant": true
    },
    {
      "inputs": [
        {
          "internalType": "address",
          "name": "from",
          "type": "address"
        },
        {
          "internalType": "address",
          "name": "to",
          "type": "address"
        },
        {
          "internalType": "uint256",
          "name": "tokenId",
          "type": "uint256"
        }
      ],
      "name": "transferFrom",
      "outputs": [],
      "stateMutability": "nonpayable",
      "type": "function"
    },
    {
      "inputs": [
        {
          "internalType": "uint256",
          "name": "id",
          "type": "uint256"
        }
      ],
      "name": "metadataOf",
      "outputs": [
        {
          "internalType": "uint16",
          "name": "",
          "type": "uint16"
        },
        {
          "internalType": "uint8",
          "name": "",
          "type": "uint8"
        }
      ],
      "stateMutability": "view",
      "type": "function",
      "constant": true
    },
    {
      "inputs": [
        {
          "internalType": "address",
          "name": "owner",
          "type": "address"
        },
        {
          "internalType": "uint256",
          "name": "id",
          "type": "uint256"
        }
      ],
      "name": "dataOfTokenOfOwnerByIndex",
      "outputs": [
        {
          "internalType": "uint256",
          "name": "",
          "type": "uint256"
        },
        {
          "internalType": "uint16",
          "name": "",
          "type": "uint16"
        },
        {
          "internalType": "uint8",
          "name": "",
          "type": "uint8"
        }
      ],
      "stateMutability": "view",
      "type": "function",
      "constant": true
    },
    {
      "inputs": [
        {
          "internalType": "uint16",
          "name": "id",
          "type": "uint16"
        }
      ],
      "name": "totalCardsOf",
      "outputs": [
        {
          "internalType": "uint8",
          "name": "",
          "type": "uint8"
        }
      ],
      "stateMutability": "view",
      "type": "function",
      "constant": true
    },
    {
      "inputs": [
        {
          "internalType": "uint16",
          "name": "set",
          "type": "uint16"
        },
        {
          "internalType": "uint8",
          "name": "number",
          "type": "uint8"
        }
      ],
      "name": "addSet",
      "outputs": [],
      "stateMutability": "nonpayable",
      "type": "function"
    },
    {
      "inputs": [
        {
          "internalType": "uint16",
          "name": "set",
          "type": "uint16"
        },
        {
          "internalType": "uint8",
          "name": "number",
          "type": "uint8"
        },
        {
          "internalType": "string",
          "name": "uri",
          "type": "string"
        }
      ],
      "name": "setMetadataURI",
      "outputs": [],
      "stateMutability": "nonpayable",
      "type": "function"
    },
    {
      "inputs": [
        {
          "internalType": "string",
          "name": "uri",
          "type": "string"
        }
      ],
      "name": "setBaseTokenURI",
      "outputs": [],
      "stateMutability": "nonpayable",
      "type": "function"
    },
    {
      "inputs": [
        {
          "internalType": "uint256",
          "name": "_tokenId",
          "type": "uint256"
        }
      ],
      "name": "tokenURI",
      "outputs": [
        {
          "internalType": "string",
          "name": "",
          "type": "string"
        }
      ],
      "stateMutability": "view",
      "type": "function",
      "constant": true
    },
    {
      "inputs": [
        {
          "internalType": "uint256",
          "name": "id",
          "type": "uint256"
        }
      ],
      "name": "forgeBurn",
      "outputs": [],
      "stateMutability": "nonpayable",
      "type": "function"
    },
    {
      "inputs": [
        {
          "internalType": "address",
          "name": "to",
          "type": "address"
        },
        {
          "internalType": "uint16",
          "name": "set",
          "type": "uint16"
        },
        {
          "internalType": "uint8",
          "name": "number",
          "type": "uint8"
        }
      ],
      "name": "mint",
      "outputs": [],
      "stateMutability": "nonpayable",
      "type": "function"
    },
    {
      "inputs": [
        {
          "internalType": "bytes4",
          "name": "interfaceId",
          "type": "bytes4"
        }
      ],
      "name": "supportsInterface",
      "outputs": [
        {
          "internalType": "bool",
          "name": "",
          "type": "bool"
        }
      ],
      "stateMutability": "view",
      "type": "function",
      "constant": true
    }
  ],
  "bytecode": "0x60806040523480156200001157600080fd5b5060405162003078380380620030788339810160408190526200003491620005f5565b6040518060400160405280600e81526020016d159bdb1d5b5955d85c9cc813919560921b81525060405180604001604052806002815260200161565760f01b81525081600290805190602001906200008e9291906200054f565b508051620000a49060039060208401906200054f565b5050600c805460ff191690555060408051808201909152600780825266697066733a2f2f60c81b6020909201918252620000e191600e916200054f565b50620000ef60003362000158565b6200010a600080516020620030588339815191523362000158565b620001367f65d7a28e3265b37a6474929f336521b332c1681b933f6cb9f3376673440d862a3362000158565b6200015160008051602062003058833981519152826200019b565b50620007d7565b6200016f8282620001b260201b620010321760201c565b60008281526001602090815260409091206200019691839062001040620001c2821b17901c565b505050565b6200016f8282620001e260201b620010551760201c565b620001be828262000207565b5050565b6000620001d9836001600160a01b0384166200028f565b90505b92915050565b600082815260208190526040902060010154620002008133620002e1565b6200019683835b6200021382826200036d565b620001be576000828152602081815260408083206001600160a01b03851684529091529020805460ff191660011790556200024b3390565b6001600160a01b0316816001600160a01b0316837f2f8788117e7eff1d82e926ec794901d17c78024a50270940304540a733656f0d60405160405180910390a45050565b6000818152600183016020526040812054620002d857508154600181810184556000848152602080822090930184905584548482528286019093526040902091909155620001dc565b506000620001dc565b620002ed82826200036d565b620001be5762000313816001600160a01b031660146200039660201b620010721760201c565b620003298360206200107262000396821b17811c565b6040516020016200033c92919062000620565b60408051601f198184030181529082905262461bcd60e51b8252620003649160040162000699565b60405180910390fd5b6000918252602082815260408084206001600160a01b0393909316845291905290205460ff1690565b60606000620003a7836002620006e9565b620003b4906002620006ce565b6001600160401b03811115620003ce57620003ce620007c1565b6040519080825280601f01601f191660200182016040528015620003f9576020820181803683370190505b509050600360fc1b81600081518110620004175762000417620007ab565b60200101906001600160f81b031916908160001a905350600f60fb1b81600181518110620004495762000449620007ab565b60200101906001600160f81b031916908160001a90535060006200046f846002620006e9565b6200047c906001620006ce565b90505b6001811115620004fe576f181899199a1a9b1b9c1cb0b131b232b360811b85600f1660108110620004b457620004b4620007ab565b1a60f81b828281518110620004cd57620004cd620007ab565b60200101906001600160f81b031916908160001a90535060049490941c93620004f6816200073e565b90506200047f565b508315620001d95760405162461bcd60e51b815260206004820181905260248201527f537472696e67733a20686578206c656e67746820696e73756666696369656e74604482015260640162000364565b8280546200055d9062000758565b90600052602060002090601f016020900481019282620005815760008555620005cc565b82601f106200059c57805160ff1916838001178555620005cc565b82800160010185558215620005cc579182015b82811115620005cc578251825591602001919060010190620005af565b50620005da929150620005de565b5090565b5b80821115620005da5760008155600101620005df565b6000602082840312156200060857600080fd5b81516001600160a01b0381168114620001d957600080fd5b7f416363657373436f6e74726f6c3a206163636f756e74200000000000000000008152600083516200065a8160178501602088016200070b565b7001034b99036b4b9b9b4b733903937b6329607d1b60179184019182015283516200068d8160288401602088016200070b565b01602801949350505050565b6020815260008251806020840152620006ba8160408501602087016200070b565b601f01601f19169190910160400192915050565b60008219821115620006e457620006e462000795565b500190565b600081600019048311821515161562000706576200070662000795565b500290565b60005b83811015620007285781810151838201526020016200070e565b8381111562000738576000848401525b50505050565b60008162000750576200075062000795565b506000190190565b600181811c908216806200076d57607f821691505b602082108114156200078f57634e487b7160e01b600052602260045260246000fd5b50919050565b634e487b7160e01b600052601160045260246000fd5b634e487b7160e01b600052603260045260246000fd5b634e487b7160e01b600052604160045260246000fd5b61287180620007e76000396000f3fe608060405234801561001057600080fd5b50600436106101ac5760003560e01c806301ffc9a7146101b157806306fdde03146101d9578063081812fc146101ee578063095ea7b3146102195780630ef7cc8e1461022e57806318160ddd1461027a57806323b872dd1461028c578063248a9ca31461029f5780632cd08d51146102b25780632f2ff15d146102e65780632f745c59146102f957806330176e131461030c57806336568abe1461031f57806342842e0e1461033257806342966c68146103455780634f6ccce7146103585780635c975abb1461036b5780636352211e146103765780636c91e0fc146103895780636ccf949e146103c257806370a08231146103d55780639010d07c146103e857806391d14854146103fb57806395d89b411461040e578063a217fddf14610416578063a22cb4651461041e578063b88d4fde14610431578063bbfb2ac314610444578063c87b56dd14610457578063ca15c8731461046a578063d53913931461047d578063d547741f14610492578063e63ab1e9146104a5578063e985e9c5146104cc578063f11c801c146104df578063f33f5233146104f2575b600080fd5b6101c46101bf3660046122d4565b610505565b60405190151581526020015b60405180910390f35b6101e1610516565b6040516101d0919061257b565b6102016101fc366004612276565b6105a8565b6040516001600160a01b0390911681526020016101d0565b61022c61022736600461224c565b610635565b005b61025e61023c366004612276565b6000908152600f602052604090205461ffff8116916201000090910460ff1690565b6040805161ffff909316835260ff9091166020830152016101d0565b600a545b6040519081526020016101d0565b61022c61029a3660046120b6565b610746565b61027e6102ad366004612276565b610778565b6102c56102c036600461224c565b61078d565b6040805193845261ffff909216602084015260ff16908201526060016101d0565b61022c6102f436600461228f565b6107c8565b61027e61030736600461224c565b6107ea565b61022c61031a36600461230e565b610880565b61022c61032d36600461228f565b6108c0565b61022c6103403660046120b6565b6108e2565b61022c610353366004612276565b6108fd565b61027e610366366004612276565b610977565b600c5460ff166101c4565b610201610384366004612276565b610a0a565b6103b061039736600461234f565b61ffff1660009081526011602052604090205460ff1690565b60405160ff90911681526020016101d0565b61022c6103d0366004612394565b610a81565b61027e6103e3366004612068565b610b1c565b6102016103f63660046122b2565b610ba3565b6101c461040936600461228f565b610bc2565b6101e1610beb565b61027e600081565b61022c61042c3660046121cd565b610bfa565b61022c61043f3660046120f2565b610cbb565b61022c610452366004612276565b610cf3565b6101e1610465366004612276565b610d27565b61027e610478366004612276565b610d81565b61027e6000805160206127dc83398151915281565b61022c6104a036600461228f565b610d98565b61027e7f65d7a28e3265b37a6474929f336521b332c1681b933f6cb9f3376673440d862a81565b6101c46104da366004612083565b610da2565b61022c6104ed366004612209565b610dd0565b61022c61050036600461236a565b610f74565b60006105108261120d565b92915050565b60606002805461052590612732565b80601f016020809104026020016040519081016040528092919081815260200182805461055190612732565b801561059e5780601f106105735761010080835404028352916020019161059e565b820191906000526020600020905b81548152906001019060200180831161058157829003601f168201915b5050505050905090565b60006105b382611232565b6106195760405162461bcd60e51b815260206004820152602c60248201527f4552433732313a20617070726f76656420717565727920666f72206e6f6e657860448201526b34b9ba32b73a103a37b5b2b760a11b60648201526084015b60405180910390fd5b506000908152600660205260409020546001600160a01b031690565b600061064082610a0a565b9050806001600160a01b0316836001600160a01b031614156106ae5760405162461bcd60e51b815260206004820152602160248201527f4552433732313a20617070726f76616c20746f2063757272656e74206f776e656044820152603960f91b6064820152608401610610565b336001600160a01b03821614806106ca57506106ca8133610da2565b6107375760405162461bcd60e51b815260206004820152603860248201527f4552433732313a20617070726f76652063616c6c6572206973206e6f74206f776044820152771b995c881b9bdc88185c1c1c9bdd995908199bdc88185b1b60421b6064820152608401610610565b610741838361124f565b505050565b610751335b826112bd565b61076d5760405162461bcd60e51b8152600401610610906125e0565b610741838383611387565b60009081526020819052604090206001015490565b60008060008061079d86866107ea565b6000818152600f6020526040902054909761ffff821697506201000090910460ff1695509350505050565b6107d28282611055565b60008281526001602052604090206107419082611040565b60006107f583610b1c565b82106108575760405162461bcd60e51b815260206004820152602b60248201527f455243373231456e756d657261626c653a206f776e657220696e646578206f7560448201526a74206f6620626f756e647360a81b6064820152608401610610565b506001600160a01b03919091166000908152600860209081526040808320938352929052205490565b6108986000805160206127dc83398151915233610bc2565b6108b45760405162461bcd60e51b815260040161061090612667565b610741600e8383611f48565b6108ca8282611520565b6000828152600160205260409020610741908261159a565b61074183838360405180602001604052806000815250610cbb565b6109063361074b565b61096b5760405162461bcd60e51b815260206004820152603060248201527f4552433732314275726e61626c653a2063616c6c6572206973206e6f74206f7760448201526f1b995c881b9bdc88185c1c1c9bdd995960821b6064820152608401610610565b610974816115af565b50565b6000610982600a5490565b82106109e55760405162461bcd60e51b815260206004820152602c60248201527f455243373231456e756d657261626c653a20676c6f62616c20696e646578206f60448201526b7574206f6620626f756e647360a01b6064820152608401610610565b600a82815481106109f8576109f8612799565b90600052602060002001549050919050565b6000818152600460205260408120546001600160a01b0316806105105760405162461bcd60e51b815260206004820152602960248201527f4552433732313a206f776e657220717565727920666f72206e6f6e657869737460448201526832b73a103a37b5b2b760b91b6064820152608401610610565b610a996000805160206127dc83398151915233610bc2565b610ae95760405162461bcd60e51b815260206004820152602d602482015260008051602061281c83398151915260448201526c20746f2065646974207365747360981b6064820152608401610610565b61ffff8416600090815260106020908152604080832060ff871684529091529020610b15908383611f48565b5050505050565b60006001600160a01b038216610b875760405162461bcd60e51b815260206004820152602a60248201527f4552433732313a2062616c616e636520717565727920666f7220746865207a65604482015269726f206164647265737360b01b6064820152608401610610565b506001600160a01b031660009081526005602052604090205490565b6000828152600160205260408120610bbb9083611644565b9392505050565b6000918252602082815260408084206001600160a01b0393909316845291905290205460ff1690565b60606003805461052590612732565b6001600160a01b038216331415610c4f5760405162461bcd60e51b815260206004820152601960248201527822a9219b99189d1030b8383937bb32903a379031b0b63632b960391b6044820152606401610610565b3360008181526007602090815260408083206001600160a01b03871680855290835292819020805460ff191686151590811790915590519081529192917f17307eab39ab6107e8899845ad3d59bd9653f200f220920489ca2b5937696c31910160405180910390a35050565b610cc533836112bd565b610ce15760405162461bcd60e51b8152600401610610906125e0565b610ced84848484611650565b50505050565b610d0b6000805160206127dc83398151915233610bc2565b61096b5760405162461bcd60e51b815260040161061090612631565b6000818152600f602090815260408083205461ffff81168452601083528184206201000090910460ff1684528252918290209151606092610d6b92600e92016124ba565b6040516020818303038152906040529050919050565b600081815260016020526040812061051090611683565b6108ca828261168d565b6001600160a01b03918216600090815260076020908152604080832093909416825291909152205460ff1690565b610de86000805160206127dc83398151915233610bc2565b610e045760405162461bcd60e51b815260040161061090612631565b61ffff8216600090815260116020526040902054610100900460ff16610e6c5760405162461bcd60e51b815260206004820152601d60248201527f5265776172644e46543a2053657420646f6573206e6f742065786973740000006044820152606401610610565b61ffff821660009081526011602052604090205460ff9081169082161115610ee45760405162461bcd60e51b815260206004820152602560248201527f5265776172644e46543a204361726420646f6573206e6f7420657869737420696044820152641b881cd95d60da1b6064820152608401610610565b610ef683610ef1600d5490565b6116aa565b81600f6000610f04600d5490565b815260200190815260200160002060000160006101000a81548161ffff021916908361ffff16021790555080600f6000610f3d600d5490565b815260200190815260200160002060000160026101000a81548160ff021916908360ff160217905550610741600d80546001019055565b610f8c6000805160206127dc83398151915233610bc2565b610fa85760405162461bcd60e51b815260040161061090612667565b61ffff8216600090815260116020526040902054610100900460ff16156110065760405162461bcd60e51b815260206004820152601260248201527153657420616c72656164792065786973747360701b6044820152606401610610565b61ffff9091166000908152601160205260409020805461ffff191660ff90921691909117610100179055565b61103c82826116c4565b5050565b6000610bbb836001600160a01b038416611748565b61105e82610778565b6110688133611797565b61074183836116c4565b606060006110818360026126b9565b61108c9060026126a1565b6001600160401b038111156110a3576110a36127af565b6040519080825280601f01601f1916602001820160405280156110cd576020820181803683370190505b509050600360fc1b816000815181106110e8576110e8612799565b60200101906001600160f81b031916908160001a905350600f60fb1b8160018151811061111757611117612799565b60200101906001600160f81b031916908160001a905350600061113b8460026126b9565b6111469060016126a1565b90505b60018111156111be576f181899199a1a9b1b9c1cb0b131b232b360811b85600f166010811061117a5761117a612799565b1a60f81b82828151811061119057611190612799565b60200101906001600160f81b031916908160001a90535060049490941c936111b78161271b565b9050611149565b508315610bbb5760405162461bcd60e51b815260206004820181905260248201527f537472696e67733a20686578206c656e67746820696e73756666696369656e746044820152606401610610565b60006001600160e01b0319821663780e9d6360e01b14806105105750610510826117fb565b6000908152600460205260409020546001600160a01b0316151590565b600081815260066020526040902080546001600160a01b0319166001600160a01b038416908117909155819061128482610a0a565b6001600160a01b03167f8c5be1e5ebec7d5bd14f71427d1e84f3dd0314c0f7b2291e5b200ac8c7c3b92560405160405180910390a45050565b60006112c882611232565b6113295760405162461bcd60e51b815260206004820152602c60248201527f4552433732313a206f70657261746f7220717565727920666f72206e6f6e657860448201526b34b9ba32b73a103a37b5b2b760a11b6064820152608401610610565b600061133483610a0a565b9050806001600160a01b0316846001600160a01b0316148061136f5750836001600160a01b0316611364846105a8565b6001600160a01b0316145b8061137f575061137f8185610da2565b949350505050565b826001600160a01b031661139a82610a0a565b6001600160a01b0316146114025760405162461bcd60e51b815260206004820152602960248201527f4552433732313a207472616e73666572206f6620746f6b656e2074686174206960448201526839903737ba1037bbb760b91b6064820152608401610610565b6001600160a01b0382166114645760405162461bcd60e51b8152602060048201526024808201527f4552433732313a207472616e7366657220746f20746865207a65726f206164646044820152637265737360e01b6064820152608401610610565b61146f83838361183b565b61147a60008261124f565b6001600160a01b03831660009081526005602052604081208054600192906114a39084906126d8565b90915550506001600160a01b03821660009081526005602052604081208054600192906114d19084906126a1565b909155505060008181526004602052604080822080546001600160a01b0319166001600160a01b0386811691821790925591518493918716916000805160206127fc83398151915291a4505050565b6001600160a01b03811633146115905760405162461bcd60e51b815260206004820152602f60248201527f416363657373436f6e74726f6c3a2063616e206f6e6c792072656e6f756e636560448201526e103937b632b9903337b91039b2b63360891b6064820152608401610610565b61103c8282611846565b6000610bbb836001600160a01b0384166118ab565b60006115ba82610a0a565b90506115c88160008461183b565b6115d360008361124f565b6001600160a01b03811660009081526005602052604081208054600192906115fc9084906126d8565b909155505060008281526004602052604080822080546001600160a01b0319169055518391906001600160a01b038416906000805160206127fc833981519152908390a45050565b6000610bbb838361199e565b61165b848484611387565b611667848484846119c8565b610ced5760405162461bcd60e51b81526004016106109061258e565b6000610510825490565b61169682610778565b6116a08133611797565b6107418383611846565b61103c828260405180602001604052806000815250611ad5565b6116ce8282610bc2565b61103c576000828152602081815260408083206001600160a01b03851684529091529020805460ff191660011790556117043390565b6001600160a01b0316816001600160a01b0316837f2f8788117e7eff1d82e926ec794901d17c78024a50270940304540a733656f0d60405160405180910390a45050565b600081815260018301602052604081205461178f57508154600181810184556000848152602080822090930184905584548482528286019093526040902091909155610510565b506000610510565b6117a18282610bc2565b61103c576117b9816001600160a01b03166014611072565b6117c4836020611072565b6040516020016117d59291906124cf565b60408051601f198184030181529082905262461bcd60e51b82526106109160040161257b565b60006001600160e01b031982166380ac58cd60e01b148061182c57506001600160e01b03198216635b5e139f60e01b145b80610510575061051082611b08565b610741838383611b2d565b6118508282610bc2565b1561103c576000828152602081815260408083206001600160a01b0385168085529252808320805460ff1916905551339285917ff6391f5c32d9c69d2a47ea670b442974b53935d1edc7fd64eb21e047a839171b9190a45050565b600081815260018301602052604081205480156119945760006118cf6001836126d8565b85549091506000906118e3906001906126d8565b905081811461194857600086600001828154811061190357611903612799565b906000526020600020015490508087600001848154811061192657611926612799565b6000918252602080832090910192909255918252600188019052604090208390555b855486908061195957611959612783565b600190038181906000526020600020016000905590558560010160008681526020019081526020016000206000905560019350505050610510565b6000915050610510565b60008260000182815481106119b5576119b5612799565b9060005260206000200154905092915050565b60006001600160a01b0384163b15611aca57604051630a85bd0160e11b81526001600160a01b0385169063150b7a0290611a0c90339089908890889060040161253e565b602060405180830381600087803b158015611a2657600080fd5b505af1925050508015611a56575060408051601f3d908101601f19168201909252611a53918101906122f1565b60015b611ab0573d808015611a84576040519150601f19603f3d011682016040523d82523d6000602084013e611a89565b606091505b508051611aa85760405162461bcd60e51b81526004016106109061258e565b805181602001fd5b6001600160e01b031916630a85bd0160e11b14905061137f565b506001949350505050565b611adf8383611b9f565b611aec60008484846119c8565b6107415760405162461bcd60e51b81526004016106109061258e565b60006001600160e01b03198216635a05180f60e01b1480610510575061051082611ccb565b611b38838383611d00565b600c5460ff16156107415760405162461bcd60e51b815260206004820152602b60248201527f4552433732315061757361626c653a20746f6b656e207472616e73666572207760448201526a1a1a5b19481c185d5cd95960aa1b6064820152608401610610565b6001600160a01b038216611bf55760405162461bcd60e51b815260206004820181905260248201527f4552433732313a206d696e7420746f20746865207a65726f20616464726573736044820152606401610610565b611bfe81611232565b15611c4a5760405162461bcd60e51b815260206004820152601c60248201527b115490cdcc8c4e881d1bdad95b88185b1c9958591e481b5a5b9d195960221b6044820152606401610610565b611c566000838361183b565b6001600160a01b0382166000908152600560205260408120805460019290611c7f9084906126a1565b909155505060008181526004602052604080822080546001600160a01b0319166001600160a01b03861690811790915590518392906000805160206127fc833981519152908290a45050565b60006001600160e01b03198216637965db0b60e01b148061051057506301ffc9a760e01b6001600160e01b0319831614610510565b6001600160a01b038316611d5b57611d5681600a80546000838152600b60205260408120829055600182018355919091527fc65a7bb8d6351c1cf70c95a316cc6a92839c986682d98bc35f958f4883f9d2a80155565b611d7e565b816001600160a01b0316836001600160a01b031614611d7e57611d7e8382611db8565b6001600160a01b038216611d955761074181611e55565b826001600160a01b0316826001600160a01b031614610741576107418282611f04565b60006001611dc584610b1c565b611dcf91906126d8565b600083815260096020526040902054909150808214611e22576001600160a01b03841660009081526008602090815260408083208584528252808320548484528184208190558352600990915290208190555b5060009182526009602090815260408084208490556001600160a01b039094168352600881528383209183525290812055565b600a54600090611e67906001906126d8565b6000838152600b6020526040812054600a8054939450909284908110611e8f57611e8f612799565b9060005260206000200154905080600a8381548110611eb057611eb0612799565b6000918252602080832090910192909255828152600b9091526040808220849055858252812055600a805480611ee857611ee8612783565b6001900381819060005260206000200160009055905550505050565b6000611f0f83610b1c565b6001600160a01b039093166000908152600860209081526040808320868452825280832085905593825260099052919091209190915550565b828054611f5490612732565b90600052602060002090601f016020900481019282611f765760008555611fbc565b82601f10611f8f5782800160ff19823516178555611fbc565b82800160010185558215611fbc579182015b82811115611fbc578235825591602001919060010190611fa1565b50611fc8929150611fcc565b5090565b5b80821115611fc85760008155600101611fcd565b80356001600160a01b0381168114611ff857600080fd5b919050565b60008083601f84011261200f57600080fd5b5081356001600160401b0381111561202657600080fd5b60208301915083602082850101111561203e57600080fd5b9250929050565b803561ffff81168114611ff857600080fd5b803560ff81168114611ff857600080fd5b60006020828403121561207a57600080fd5b610bbb82611fe1565b6000806040838503121561209657600080fd5b61209f83611fe1565b91506120ad60208401611fe1565b90509250929050565b6000806000606084860312156120cb57600080fd5b6120d484611fe1565b92506120e260208501611fe1565b9150604084013590509250925092565b6000806000806080858703121561210857600080fd5b61211185611fe1565b935061211f60208601611fe1565b92506040850135915060608501356001600160401b038082111561214257600080fd5b818701915087601f83011261215657600080fd5b813581811115612168576121686127af565b604051601f8201601f19908116603f01168101908382118183101715612190576121906127af565b816040528281528a60208487010111156121a957600080fd5b82602086016020830137600060208483010152809550505050505092959194509250565b600080604083850312156121e057600080fd5b6121e983611fe1565b9150602083013580151581146121fe57600080fd5b809150509250929050565b60008060006060848603121561221e57600080fd5b61222784611fe1565b925061223560208501612045565b915061224360408501612057565b90509250925092565b6000806040838503121561225f57600080fd5b61226883611fe1565b946020939093013593505050565b60006020828403121561228857600080fd5b5035919050565b600080604083850312156122a257600080fd5b823591506120ad60208401611fe1565b600080604083850312156122c557600080fd5b50508035926020909101359150565b6000602082840312156122e657600080fd5b8135610bbb816127c5565b60006020828403121561230357600080fd5b8151610bbb816127c5565b6000806020838503121561232157600080fd5b82356001600160401b0381111561233757600080fd5b61234385828601611ffd565b90969095509350505050565b60006020828403121561236157600080fd5b610bbb82612045565b6000806040838503121561237d57600080fd5b61238683612045565b91506120ad60208401612057565b600080600080606085870312156123aa57600080fd5b6123b385612045565b93506123c160208601612057565b925060408501356001600160401b038111156123dc57600080fd5b6123e887828801611ffd565b95989497509550505050565b6000815180845261240c8160208601602086016126ef565b601f01601f19169290920160200192915050565b8054600090600181811c908083168061243a57607f831692505b602080841082141561245c57634e487b7160e01b600052602260045260246000fd5b8180156124705760018114612481576124ae565b60ff198616895284890196506124ae565b60008881526020902060005b868110156124a65781548b82015290850190830161248d565b505084890196505b50505050505092915050565b600061137f6124c98386612420565b84612420565b76020b1b1b2b9b9a1b7b73a3937b61d1030b1b1b7bab73a1604d1b8152600083516125018160178501602088016126ef565b7001034b99036b4b9b9b4b733903937b6329607d1b60179184019182015283516125328160288401602088016126ef565b01602801949350505050565b6001600160a01b0385811682528416602082015260408101839052608060608201819052600090612571908301846123f4565b9695505050505050565b602081526000610bbb60208301846123f4565b60208082526032908201527f4552433732313a207472616e7366657220746f206e6f6e20455243373231526560408201527131b2b4bb32b91034b6b83632b6b2b73a32b960711b606082015260800190565b60208082526031908201527f4552433732313a207472616e736665722063616c6c6572206973206e6f74206f6040820152701ddb995c881b9bdc88185c1c1c9bdd9959607a1b606082015260800190565b602080825260289082015260008051602061281c833981519152604082015267081d1bc81b5a5b9d60c21b606082015260800190565b6020808252602c9082015260008051602061281c83398151915260408201526b20746f20616464207365747360a01b606082015260800190565b600082198211156126b4576126b461276d565b500190565b60008160001904831182151516156126d3576126d361276d565b500290565b6000828210156126ea576126ea61276d565b500390565b60005b8381101561270a5781810151838201526020016126f2565b83811115610ced5750506000910152565b60008161272a5761272a61276d565b506000190190565b600181811c9082168061274657607f821691505b6020821081141561276757634e487b7160e01b600052602260045260246000fd5b50919050565b634e487b7160e01b600052601160045260246000fd5b634e487b7160e01b600052603160045260246000fd5b634e487b7160e01b600052603260045260246000fd5b634e487b7160e01b600052604160045260246000fd5b6001600160e01b03198116811461097457600080fdfe9f2df0fed2c77648de5860a4cc508cd0818c85b8b8a1ab4ceeef8d981c8956a6ddf252ad1be2c89b69c2b068fc378daa952ba7f163c4a11628f55a4df523b3ef5265776172644e46543a206d7573742068617665206d696e74657220726f6c65a26469706673582212200977753185df1fab50d3a195103e60dd01eb55519ac8e190585aa1f423fcbace64736f6c634300080600339f2df0fed2c77648de5860a4cc508cd0818c85b8b8a1ab4ceeef8d981c8956a6",
  "immutableReferences": {},
  "source": "// contracts/NFT.sol\n// SPDX-License-Identifier: MIT\npragma solidity ^0.8.0;\n\nimport \"@openzeppelin/contracts/token/ERC721/presets/ERC721PresetMinterPauserAutoId.sol\";\n\ncontract piggyNFT is\n    Context,\n    AccessControlEnumerable,\n    ERC721Enumerable,\n    ERC721Burnable,\n    ERC721Pausable\n{\n    using Counters for Counters.Counter;\n\n    bytes32 public constant MINTER_ROLE = keccak256(\"MINTER_ROLE\");\n    bytes32 public constant PAUSER_ROLE = keccak256(\"PAUSER_ROLE\");\n\n    Counters.Counter private _tokenIdTracker;\n\n    string private _baseTokenURI;\n\n    struct NFTMetadata {\n        uint16 set;\n        uint8 number;\n    }\n\n    mapping(uint256 => NFTMetadata) metadata;\n\n    struct SetMetadata {\n        uint8 totalCards;\n        bool enabled;\n    }\n    mapping(uint16 => mapping(uint8 => string)) setURIs;\n    mapping(uint16 => SetMetadata) sets;\n\n    /**\n     * @dev Grants `DEFAULT_ADMIN_ROLE`, `MINTER_ROLE` and `PAUSER_ROLE` to the\n     * account that deploys the contract.\n     *\n     * Token URIs will be autogenerated based on `baseURI` and their token IDs.\n     * See {ERC721-tokenURI}.\n     */\n    constructor(\n        address game\n    ) ERC721(\"VolumeWars NFT\", \"VW\") {\n        _baseTokenURI = \"ipfs://\";\n\n        _setupRole(DEFAULT_ADMIN_ROLE, _msgSender());\n\n        _setupRole(MINTER_ROLE, _msgSender());\n        _setupRole(PAUSER_ROLE, _msgSender());\n        grantRole(MINTER_ROLE, game);\n    }\n\n    function metadataOf(uint256 id) external view returns (uint16, uint8) {\n        return (metadata[id].set, metadata[id].number);\n    }\n    function dataOfTokenOfOwnerByIndex(address owner, uint256 id) external view returns (uint256, uint16, uint8) {\n        uint256 tokenId = tokenOfOwnerByIndex(owner, id);\n        return (tokenId, metadata[tokenId].set, metadata[tokenId].number);\n    }\n    function totalCardsOf(uint16 id) external view returns (uint8) {\n        return sets[id].totalCards;\n    }\n    function addSet(uint16 set, uint8 number) external {\n        require(hasRole(MINTER_ROLE, _msgSender()), \"RewardNFT: must have minter role to add sets\");\n        require(sets[set].enabled == false, \"Set already exists\");\n        sets[set].totalCards = number;\n        sets[set].enabled = true;\n    }\n\n    function setMetadataURI(uint16 set, uint8 number, string calldata uri) public {\n        require(hasRole(MINTER_ROLE, _msgSender()), \"RewardNFT: must have minter role to edit sets\");\n        // We do not check if the set exists, because we want to set metadata in advance of sets being created.\n        setURIs[set][number] = uri;\n    }\n    function setBaseTokenURI(string calldata uri) public {\n        require(hasRole(MINTER_ROLE, _msgSender()), \"RewardNFT: must have minter role to add sets\");\n        _baseTokenURI = uri;\n    }\n\n    function tokenURI(uint256 _tokenId) public view override returns (string memory) {\n\n        return string(abi.encodePacked(_baseTokenURI, \n        \n        setURIs[metadata[_tokenId].set][metadata[_tokenId].number]));\n    }\n    function _baseURI() internal view virtual override returns (string memory) {\n        return _baseTokenURI;\n    }\n\n    function forgeBurn(uint256 id) external {\n        require(hasRole(MINTER_ROLE, _msgSender()), \"RewardNFT: must have minter role to mint\");\n        _burn(id);\n    }\n    /**\n     * @dev Creates a new token for `to`. Its token ID will be automatically\n     * assigned (and available on the emitted {IERC721-Transfer} event), and the token\n     * URI autogenerated based on the base URI passed at construction.\n     *\n     * See {ERC721-_mint}.\n     *\n     * Requirements:\n     *\n     * - the caller must have the `MINTER_ROLE`.\n     */\n    function mint(address to, uint16 set, uint8 number) external virtual {\n        require(hasRole(MINTER_ROLE, _msgSender()), \"RewardNFT: must have minter role to mint\");\n        require(sets[set].enabled, \"RewardNFT: Set does not exist\");\n        require(number <= sets[set].totalCards, \"RewardNFT: Card does not exist in set\");\n        // We cannot just use balanceOf to create the new tokenId because tokens\n        // can be burned (destroyed), so we need a separate counter.\n        _safeMint(to, _tokenIdTracker.current());\n        metadata[_tokenIdTracker.current()].set = set;\n        metadata[_tokenIdTracker.current()].number = number;\n        _tokenIdTracker.increment();\n    }\n\n    function _beforeTokenTransfer(\n        address from,\n        address to,\n        uint256 tokenId\n    ) internal virtual override(ERC721, ERC721Enumerable, ERC721Pausable) {\n        super._beforeTokenTransfer(from, to, tokenId);\n    }\n\n    /**\n     * @dev See {IERC165-supportsInterface}.\n     */\n    function supportsInterface(bytes4 interfaceId)\n        public\n        view\n        virtual\n        override(AccessControlEnumerable, ERC721, ERC721Enumerable)\n        returns (bool)\n    {\n        return super.supportsInterface(interfaceId);\n    }\n}\n",
  "sourcePath": "/home/moot/projects/vw/contracts/NFT.sol",
  "compiler": {
    "name": "solc",
    "version": "0.8.6+commit.11564f7e.Emscripten.clang"
  },
  "schemaVersion": "3.4.1",
  "updatedAt": "2021-10-07T23:40:27.890Z",
  "networkType": "ethereum",
  "devdoc": {
    "kind": "dev",
    "methods": {
      "approve(address,uint256)": {
        "details": "See {IERC721-approve}."
      },
      "balanceOf(address)": {
        "details": "See {IERC721-balanceOf}."
      },
      "burn(uint256)": {
        "details": "Burns `tokenId`. See {ERC721-_burn}. Requirements: - The caller must own `tokenId` or be an approved operator."
      },
      "constructor": {
        "details": "Grants `DEFAULT_ADMIN_ROLE`, `MINTER_ROLE` and `PAUSER_ROLE` to the account that deploys the contract. Token URIs will be autogenerated based on `baseURI` and their token IDs. See {ERC721-tokenURI}."
      },
      "getApproved(uint256)": {
        "details": "See {IERC721-getApproved}."
      },
      "getRoleAdmin(bytes32)": {
        "details": "Returns the admin role that controls `role`. See {grantRole} and {revokeRole}. To change a role's admin, use {_setRoleAdmin}."
      },
      "getRoleMember(bytes32,uint256)": {
        "details": "Returns one of the accounts that have `role`. `index` must be a value between 0 and {getRoleMemberCount}, non-inclusive. Role bearers are not sorted in any particular way, and their ordering may change at any point. WARNING: When using {getRoleMember} and {getRoleMemberCount}, make sure you perform all queries on the same block. See the following https://forum.openzeppelin.com/t/iterating-over-elements-on-enumerableset-in-openzeppelin-contracts/2296[forum post] for more information."
      },
      "getRoleMemberCount(bytes32)": {
        "details": "Returns the number of accounts that have `role`. Can be used together with {getRoleMember} to enumerate all bearers of a role."
      },
      "grantRole(bytes32,address)": {
        "details": "Overload {grantRole} to track enumerable memberships"
      },
      "hasRole(bytes32,address)": {
        "details": "Returns `true` if `account` has been granted `role`."
      },
      "isApprovedForAll(address,address)": {
        "details": "See {IERC721-isApprovedForAll}."
      },
      "mint(address,uint16,uint8)": {
        "details": "Creates a new token for `to`. Its token ID will be automatically assigned (and available on the emitted {IERC721-Transfer} event), and the token URI autogenerated based on the base URI passed at construction. See {ERC721-_mint}. Requirements: - the caller must have the `MINTER_ROLE`."
      },
      "name()": {
        "details": "See {IERC721Metadata-name}."
      },
      "ownerOf(uint256)": {
        "details": "See {IERC721-ownerOf}."
      },
      "paused()": {
        "details": "Returns true if the contract is paused, and false otherwise."
      },
      "renounceRole(bytes32,address)": {
        "details": "Overload {renounceRole} to track enumerable memberships"
      },
      "revokeRole(bytes32,address)": {
        "details": "Overload {revokeRole} to track enumerable memberships"
      },
      "safeTransferFrom(address,address,uint256)": {
        "details": "See {IERC721-safeTransferFrom}."
      },
      "safeTransferFrom(address,address,uint256,bytes)": {
        "details": "See {IERC721-safeTransferFrom}."
      },
      "setApprovalForAll(address,bool)": {
        "details": "See {IERC721-setApprovalForAll}."
      },
      "supportsInterface(bytes4)": {
        "details": "See {IERC165-supportsInterface}."
      },
      "symbol()": {
        "details": "See {IERC721Metadata-symbol}."
      },
      "tokenByIndex(uint256)": {
        "details": "See {IERC721Enumerable-tokenByIndex}."
      },
      "tokenOfOwnerByIndex(address,uint256)": {
        "details": "See {IERC721Enumerable-tokenOfOwnerByIndex}."
      },
      "totalSupply()": {
        "details": "See {IERC721Enumerable-totalSupply}."
      },
      "transferFrom(address,address,uint256)": {
        "details": "See {IERC721-transferFrom}."
      }
    },
    "version": 1
  },
  "userdoc": {
    "kind": "user",
    "methods": {},
    "version": 1
  }
}