{
  "contractName": "piggyNFT",
  "abi": [
    {
      "inputs": [
        {
          "internalType": "address",
          "name": "game",
          "type": "address"
        }
      ],
      "stateMutability": "nonpayable",
      "type": "constructor"
    },
    {
      "anonymous": false,
      "inputs": [
        {
          "indexed": true,
          "internalType": "address",
          "name": "owner",
          "type": "address"
        },
        {
          "indexed": true,
          "internalType": "address",
          "name": "approved",
          "type": "address"
        },
        {
          "indexed": true,
          "internalType": "uint256",
          "name": "tokenId",
          "type": "uint256"
        }
      ],
      "name": "Approval",
      "type": "event"
    },
    {
      "anonymous": false,
      "inputs": [
        {
          "indexed": true,
          "internalType": "address",
          "name": "owner",
          "type": "address"
        },
        {
          "indexed": true,
          "internalType": "address",
          "name": "operator",
          "type": "address"
        },
        {
          "indexed": false,
          "internalType": "bool",
          "name": "approved",
          "type": "bool"
        }
      ],
      "name": "ApprovalForAll",
      "type": "event"
    },
    {
      "anonymous": false,
      "inputs": [
        {
          "indexed": false,
          "internalType": "address",
          "name": "account",
          "type": "address"
        }
      ],
      "name": "Paused",
      "type": "event"
    },
    {
      "anonymous": false,
      "inputs": [
        {
          "indexed": true,
          "internalType": "bytes32",
          "name": "role",
          "type": "bytes32"
        },
        {
          "indexed": true,
          "internalType": "bytes32",
          "name": "previousAdminRole",
          "type": "bytes32"
        },
        {
          "indexed": true,
          "internalType": "bytes32",
          "name": "newAdminRole",
          "type": "bytes32"
        }
      ],
      "name": "RoleAdminChanged",
      "type": "event"
    },
    {
      "anonymous": false,
      "inputs": [
        {
          "indexed": true,
          "internalType": "bytes32",
          "name": "role",
          "type": "bytes32"
        },
        {
          "indexed": true,
          "internalType": "address",
          "name": "account",
          "type": "address"
        },
        {
          "indexed": true,
          "internalType": "address",
          "name": "sender",
          "type": "address"
        }
      ],
      "name": "RoleGranted",
      "type": "event"
    },
    {
      "anonymous": false,
      "inputs": [
        {
          "indexed": true,
          "internalType": "bytes32",
          "name": "role",
          "type": "bytes32"
        },
        {
          "indexed": true,
          "internalType": "address",
          "name": "account",
          "type": "address"
        },
        {
          "indexed": true,
          "internalType": "address",
          "name": "sender",
          "type": "address"
        }
      ],
      "name": "RoleRevoked",
      "type": "event"
    },
    {
      "anonymous": false,
      "inputs": [
        {
          "indexed": true,
          "internalType": "address",
          "name": "from",
          "type": "address"
        },
        {
          "indexed": true,
          "internalType": "address",
          "name": "to",
          "type": "address"
        },
        {
          "indexed": true,
          "internalType": "uint256",
          "name": "tokenId",
          "type": "uint256"
        }
      ],
      "name": "Transfer",
      "type": "event"
    },
    {
      "anonymous": false,
      "inputs": [
        {
          "indexed": false,
          "internalType": "address",
          "name": "account",
          "type": "address"
        }
      ],
      "name": "Unpaused",
      "type": "event"
    },
    {
      "inputs": [],
      "name": "DEFAULT_ADMIN_ROLE",
      "outputs": [
        {
          "internalType": "bytes32",
          "name": "",
          "type": "bytes32"
        }
      ],
      "stateMutability": "view",
      "type": "function",
      "constant": true
    },
    {
      "inputs": [],
      "name": "MINTER_ROLE",
      "outputs": [
        {
          "internalType": "bytes32",
          "name": "",
          "type": "bytes32"
        }
      ],
      "stateMutability": "view",
      "type": "function",
      "constant": true
    },
    {
      "inputs": [],
      "name": "PAUSER_ROLE",
      "outputs": [
        {
          "internalType": "bytes32",
          "name": "",
          "type": "bytes32"
        }
      ],
      "stateMutability": "view",
      "type": "function",
      "constant": true
    },
    {
      "inputs": [
        {
          "internalType": "address",
          "name": "to",
          "type": "address"
        },
        {
          "internalType": "uint256",
          "name": "tokenId",
          "type": "uint256"
        }
      ],
      "name": "approve",
      "outputs": [],
      "stateMutability": "nonpayable",
      "type": "function"
    },
    {
      "inputs": [
        {
          "internalType": "address",
          "name": "owner",
          "type": "address"
        }
      ],
      "name": "balanceOf",
      "outputs": [
        {
          "internalType": "uint256",
          "name": "",
          "type": "uint256"
        }
      ],
      "stateMutability": "view",
      "type": "function",
      "constant": true
    },
    {
      "inputs": [
        {
          "internalType": "uint256",
          "name": "tokenId",
          "type": "uint256"
        }
      ],
      "name": "burn",
      "outputs": [],
      "stateMutability": "nonpayable",
      "type": "function"
    },
    {
      "inputs": [
        {
          "internalType": "uint256",
          "name": "tokenId",
          "type": "uint256"
        }
      ],
      "name": "getApproved",
      "outputs": [
        {
          "internalType": "address",
          "name": "",
          "type": "address"
        }
      ],
      "stateMutability": "view",
      "type": "function",
      "constant": true
    },
    {
      "inputs": [
        {
          "internalType": "bytes32",
          "name": "role",
          "type": "bytes32"
        }
      ],
      "name": "getRoleAdmin",
      "outputs": [
        {
          "internalType": "bytes32",
          "name": "",
          "type": "bytes32"
        }
      ],
      "stateMutability": "view",
      "type": "function",
      "constant": true
    },
    {
      "inputs": [
        {
          "internalType": "bytes32",
          "name": "role",
          "type": "bytes32"
        },
        {
          "internalType": "uint256",
          "name": "index",
          "type": "uint256"
        }
      ],
      "name": "getRoleMember",
      "outputs": [
        {
          "internalType": "address",
          "name": "",
          "type": "address"
        }
      ],
      "stateMutability": "view",
      "type": "function",
      "constant": true
    },
    {
      "inputs": [
        {
          "internalType": "bytes32",
          "name": "role",
          "type": "bytes32"
        }
      ],
      "name": "getRoleMemberCount",
      "outputs": [
        {
          "internalType": "uint256",
          "name": "",
          "type": "uint256"
        }
      ],
      "stateMutability": "view",
      "type": "function",
      "constant": true
    },
    {
      "inputs": [
        {
          "internalType": "bytes32",
          "name": "role",
          "type": "bytes32"
        },
        {
          "internalType": "address",
          "name": "account",
          "type": "address"
        }
      ],
      "name": "grantRole",
      "outputs": [],
      "stateMutability": "nonpayable",
      "type": "function"
    },
    {
      "inputs": [
        {
          "internalType": "bytes32",
          "name": "role",
          "type": "bytes32"
        },
        {
          "internalType": "address",
          "name": "account",
          "type": "address"
        }
      ],
      "name": "hasRole",
      "outputs": [
        {
          "internalType": "bool",
          "name": "",
          "type": "bool"
        }
      ],
      "stateMutability": "view",
      "type": "function",
      "constant": true
    },
    {
      "inputs": [
        {
          "internalType": "address",
          "name": "owner",
          "type": "address"
        },
        {
          "internalType": "address",
          "name": "operator",
          "type": "address"
        }
      ],
      "name": "isApprovedForAll",
      "outputs": [
        {
          "internalType": "bool",
          "name": "",
          "type": "bool"
        }
      ],
      "stateMutability": "view",
      "type": "function",
      "constant": true
    },
    {
      "inputs": [],
      "name": "name",
      "outputs": [
        {
          "internalType": "string",
          "name": "",
          "type": "string"
        }
      ],
      "stateMutability": "view",
      "type": "function",
      "constant": true
    },
    {
      "inputs": [
        {
          "internalType": "uint256",
          "name": "tokenId",
          "type": "uint256"
        }
      ],
      "name": "ownerOf",
      "outputs": [
        {
          "internalType": "address",
          "name": "",
          "type": "address"
        }
      ],
      "stateMutability": "view",
      "type": "function",
      "constant": true
    },
    {
      "inputs": [],
      "name": "paused",
      "outputs": [
        {
          "internalType": "bool",
          "name": "",
          "type": "bool"
        }
      ],
      "stateMutability": "view",
      "type": "function",
      "constant": true
    },
    {
      "inputs": [
        {
          "internalType": "bytes32",
          "name": "role",
          "type": "bytes32"
        },
        {
          "internalType": "address",
          "name": "account",
          "type": "address"
        }
      ],
      "name": "renounceRole",
      "outputs": [],
      "stateMutability": "nonpayable",
      "type": "function"
    },
    {
      "inputs": [
        {
          "internalType": "bytes32",
          "name": "role",
          "type": "bytes32"
        },
        {
          "internalType": "address",
          "name": "account",
          "type": "address"
        }
      ],
      "name": "revokeRole",
      "outputs": [],
      "stateMutability": "nonpayable",
      "type": "function"
    },
    {
      "inputs": [
        {
          "internalType": "address",
          "name": "from",
          "type": "address"
        },
        {
          "internalType": "address",
          "name": "to",
          "type": "address"
        },
        {
          "internalType": "uint256",
          "name": "tokenId",
          "type": "uint256"
        }
      ],
      "name": "safeTransferFrom",
      "outputs": [],
      "stateMutability": "nonpayable",
      "type": "function"
    },
    {
      "inputs": [
        {
          "internalType": "address",
          "name": "from",
          "type": "address"
        },
        {
          "internalType": "address",
          "name": "to",
          "type": "address"
        },
        {
          "internalType": "uint256",
          "name": "tokenId",
          "type": "uint256"
        },
        {
          "internalType": "bytes",
          "name": "_data",
          "type": "bytes"
        }
      ],
      "name": "safeTransferFrom",
      "outputs": [],
      "stateMutability": "nonpayable",
      "type": "function"
    },
    {
      "inputs": [
        {
          "internalType": "address",
          "name": "operator",
          "type": "address"
        },
        {
          "internalType": "bool",
          "name": "approved",
          "type": "bool"
        }
      ],
      "name": "setApprovalForAll",
      "outputs": [],
      "stateMutability": "nonpayable",
      "type": "function"
    },
    {
      "inputs": [],
      "name": "symbol",
      "outputs": [
        {
          "internalType": "string",
          "name": "",
          "type": "string"
        }
      ],
      "stateMutability": "view",
      "type": "function",
      "constant": true
    },
    {
      "inputs": [
        {
          "internalType": "uint256",
          "name": "index",
          "type": "uint256"
        }
      ],
      "name": "tokenByIndex",
      "outputs": [
        {
          "internalType": "uint256",
          "name": "",
          "type": "uint256"
        }
      ],
      "stateMutability": "view",
      "type": "function",
      "constant": true
    },
    {
      "inputs": [
        {
          "internalType": "address",
          "name": "owner",
          "type": "address"
        },
        {
          "internalType": "uint256",
          "name": "index",
          "type": "uint256"
        }
      ],
      "name": "tokenOfOwnerByIndex",
      "outputs": [
        {
          "internalType": "uint256",
          "name": "",
          "type": "uint256"
        }
      ],
      "stateMutability": "view",
      "type": "function",
      "constant": true
    },
    {
      "inputs": [
        {
          "internalType": "uint256",
          "name": "tokenId",
          "type": "uint256"
        }
      ],
      "name": "tokenURI",
      "outputs": [
        {
          "internalType": "string",
          "name": "",
          "type": "string"
        }
      ],
      "stateMutability": "view",
      "type": "function",
      "constant": true
    },
    {
      "inputs": [],
      "name": "totalSupply",
      "outputs": [
        {
          "internalType": "uint256",
          "name": "",
          "type": "uint256"
        }
      ],
      "stateMutability": "view",
      "type": "function",
      "constant": true
    },
    {
      "inputs": [
        {
          "internalType": "address",
          "name": "from",
          "type": "address"
        },
        {
          "internalType": "address",
          "name": "to",
          "type": "address"
        },
        {
          "internalType": "uint256",
          "name": "tokenId",
          "type": "uint256"
        }
      ],
      "name": "transferFrom",
      "outputs": [],
      "stateMutability": "nonpayable",
      "type": "function"
    },
    {
      "inputs": [
        {
          "internalType": "uint256",
          "name": "id",
          "type": "uint256"
        }
      ],
      "name": "metadataOf",
      "outputs": [
        {
          "internalType": "uint16",
          "name": "",
          "type": "uint16"
        },
        {
          "internalType": "uint8",
          "name": "",
          "type": "uint8"
        }
      ],
      "stateMutability": "view",
      "type": "function",
      "constant": true
    },
    {
      "inputs": [
        {
          "internalType": "address",
          "name": "owner",
          "type": "address"
        },
        {
          "internalType": "uint256",
          "name": "id",
          "type": "uint256"
        }
      ],
      "name": "dataOfTokenOfOwnerByIndex",
      "outputs": [
        {
          "internalType": "uint256",
          "name": "",
          "type": "uint256"
        },
        {
          "internalType": "uint16",
          "name": "",
          "type": "uint16"
        },
        {
          "internalType": "uint8",
          "name": "",
          "type": "uint8"
        }
      ],
      "stateMutability": "view",
      "type": "function",
      "constant": true
    },
    {
      "inputs": [
        {
          "internalType": "uint16",
          "name": "id",
          "type": "uint16"
        }
      ],
      "name": "totalCardsOf",
      "outputs": [
        {
          "internalType": "uint8",
          "name": "",
          "type": "uint8"
        }
      ],
      "stateMutability": "view",
      "type": "function",
      "constant": true
    },
    {
      "inputs": [
        {
          "internalType": "uint16",
          "name": "set",
          "type": "uint16"
        },
        {
          "internalType": "uint8",
          "name": "number",
          "type": "uint8"
        }
      ],
      "name": "addSet",
      "outputs": [],
      "stateMutability": "nonpayable",
      "type": "function"
    },
    {
      "inputs": [
        {
          "internalType": "uint256",
          "name": "id",
          "type": "uint256"
        }
      ],
      "name": "forgeBurn",
      "outputs": [],
      "stateMutability": "nonpayable",
      "type": "function"
    },
    {
      "inputs": [
        {
          "internalType": "address",
          "name": "to",
          "type": "address"
        },
        {
          "internalType": "uint16",
          "name": "set",
          "type": "uint16"
        },
        {
          "internalType": "uint8",
          "name": "number",
          "type": "uint8"
        }
      ],
      "name": "mint",
      "outputs": [],
      "stateMutability": "nonpayable",
      "type": "function"
    },
    {
      "inputs": [],
      "name": "pause",
      "outputs": [],
      "stateMutability": "nonpayable",
      "type": "function"
    },
    {
      "inputs": [],
      "name": "unpause",
      "outputs": [],
      "stateMutability": "nonpayable",
      "type": "function"
    },
    {
      "inputs": [
        {
          "internalType": "bytes4",
          "name": "interfaceId",
          "type": "bytes4"
        }
      ],
      "name": "supportsInterface",
      "outputs": [
        {
          "internalType": "bool",
          "name": "",
          "type": "bool"
        }
      ],
      "stateMutability": "view",
      "type": "function",
      "constant": true
    }
  ],
  "bytecode": "0x60806040523480156200001157600080fd5b50604051620030c7380380620030c78339810160408190526200003491620005f9565b6040518060400160405280600e81526020016d159bdb1d5b5955d85c9cc813919560921b81525060405180604001604052806002815260200161565760f01b81525081600290805190602001906200008e92919062000553565b508051620000a490600390602084019062000553565b5050600c805460ff191690555060408051808201909152600b8082526a766f6c756d65776172732d60a81b6020909201918252620000e591600e9162000553565b50620000f36000336200015c565b6200010e600080516020620030a7833981519152336200015c565b6200013a7f65d7a28e3265b37a6474929f336521b332c1681b933f6cb9f3376673440d862a336200015c565b62000155600080516020620030a7833981519152826200019f565b50620007db565b620001738282620001b660201b620010451760201c565b60008281526001602090815260409091206200019a91839062001053620001c6821b17901c565b505050565b620001738282620001e660201b620010681760201c565b620001c282826200020b565b5050565b6000620001dd836001600160a01b03841662000293565b90505b92915050565b600082815260208190526040902060010154620002048133620002e5565b6200019a83835b62000217828262000371565b620001c2576000828152602081815260408083206001600160a01b03851684529091529020805460ff191660011790556200024f3390565b6001600160a01b0316816001600160a01b0316837f2f8788117e7eff1d82e926ec794901d17c78024a50270940304540a733656f0d60405160405180910390a45050565b6000818152600183016020526040812054620002dc57508154600181810184556000848152602080822090930184905584548482528286019093526040902091909155620001e0565b506000620001e0565b620002f1828262000371565b620001c25762000317816001600160a01b031660146200039a60201b620010851760201c565b6200032d836020620010856200039a821b17811c565b6040516020016200034092919062000624565b60408051601f198184030181529082905262461bcd60e51b825262000368916004016200069d565b60405180910390fd5b6000918252602082815260408084206001600160a01b0393909316845291905290205460ff1690565b60606000620003ab836002620006ed565b620003b8906002620006d2565b6001600160401b03811115620003d257620003d2620007c5565b6040519080825280601f01601f191660200182016040528015620003fd576020820181803683370190505b509050600360fc1b816000815181106200041b576200041b620007af565b60200101906001600160f81b031916908160001a905350600f60fb1b816001815181106200044d576200044d620007af565b60200101906001600160f81b031916908160001a905350600062000473846002620006ed565b62000480906001620006d2565b90505b600181111562000502576f181899199a1a9b1b9c1cb0b131b232b360811b85600f1660108110620004b857620004b8620007af565b1a60f81b828281518110620004d157620004d1620007af565b60200101906001600160f81b031916908160001a90535060049490941c93620004fa8162000742565b905062000483565b508315620001dd5760405162461bcd60e51b815260206004820181905260248201527f537472696e67733a20686578206c656e67746820696e73756666696369656e74604482015260640162000368565b82805462000561906200075c565b90600052602060002090601f016020900481019282620005855760008555620005d0565b82601f10620005a057805160ff1916838001178555620005d0565b82800160010185558215620005d0579182015b82811115620005d0578251825591602001919060010190620005b3565b50620005de929150620005e2565b5090565b5b80821115620005de5760008155600101620005e3565b6000602082840312156200060c57600080fd5b81516001600160a01b0381168114620001dd57600080fd5b7f416363657373436f6e74726f6c3a206163636f756e74200000000000000000008152600083516200065e8160178501602088016200070f565b7001034b99036b4b9b9b4b733903937b6329607d1b6017918401918201528351620006918160288401602088016200070f565b01602801949350505050565b6020815260008251806020840152620006be8160408501602087016200070f565b601f01601f19169190910160400192915050565b60008219821115620006e857620006e862000799565b500190565b60008160001904831182151516156200070a576200070a62000799565b500290565b60005b838110156200072c57818101518382015260200162000712565b838111156200073c576000848401525b50505050565b60008162000754576200075462000799565b506000190190565b600181811c908216806200077157607f821691505b602082108114156200079357634e487b7160e01b600052602260045260246000fd5b50919050565b634e487b7160e01b600052601160045260246000fd5b634e487b7160e01b600052603260045260246000fd5b634e487b7160e01b600052604160045260246000fd5b6128bc80620007eb6000396000f3fe608060405234801561001057600080fd5b50600436106101ac5760003560e01c806301ffc9a7146101b157806306fdde03146101d9578063081812fc146101ee578063095ea7b31461020e5780630ef7cc8e1461022357806318160ddd1461026f57806323b872dd14610281578063248a9ca3146102945780632cd08d51146102a75780632f2ff15d146102db5780632f745c59146102ee57806336568abe146103015780633f4ba83a1461031457806342842e0e1461031c57806342966c681461032f5780634f6ccce7146103425780635c975abb146103555780636352211e146103605780636c91e0fc1461037357806370a08231146103ac5780638456cb59146103bf5780639010d07c146103c757806391d14854146103da57806395d89b41146103ed578063a217fddf146103f5578063a22cb465146103fd578063b88d4fde14610410578063bbfb2ac314610423578063c87b56dd14610436578063ca15c87314610449578063d53913931461045c578063d547741f14610471578063e63ab1e914610484578063e985e9c514610499578063f11c801c146104ac578063f33f5233146104bf575b600080fd5b6101c46101bf3660046123cd565b6104d2565b60405190151581526020015b60405180910390f35b6101e16104e3565b6040516101d09190612567565b6102016101fc36600461236f565b610575565b6040516101d09190612516565b61022161021c366004612345565b610602565b005b61025361023136600461236f565b6000908152600f602052604090205461ffff8116916201000090910460ff1690565b6040805161ffff909316835260ff9091166020830152016101d0565b600a545b6040519081526020016101d0565b61022161028f3660046121af565b610713565b6102736102a236600461236f565b610745565b6102ba6102b5366004612345565b61075a565b6040805193845261ffff909216602084015260ff16908201526060016101d0565b6102216102e9366004612388565b610795565b6102736102fc366004612345565b6107b7565b61022161030f366004612388565b61084d565b61022161086f565b61022161032a3660046121af565b6108df565b61022161033d36600461236f565b6108fa565b61027361035036600461236f565b610974565b600c5460ff166101c4565b61020161036e36600461236f565b610a07565b61039a610381366004612407565b61ffff1660009081526010602052604090205460ff1690565b60405160ff90911681526020016101d0565b6102736103ba366004612161565b610a7e565b610221610b05565b6102016103d53660046123ab565b610b71565b6101c46103e8366004612388565b610b90565b6101e1610bb9565b610273600081565b61022161040b3660046122c6565b610bc8565b61022161041e3660046121eb565b610c89565b61022161043136600461236f565b610cc1565b6101e161044436600461236f565b610cf5565b61027361045736600461236f565b610dbf565b61027360008051602061280783398151915281565b61022161047f366004612388565b610dd6565b6102736000805160206127e783398151915281565b6101c46104a736600461217c565b610de0565b6102216104ba366004612302565b610e0e565b6102216104cd366004612422565b610fb2565b60006104dd82611220565b92915050565b6060600280546104f2906126f8565b80601f016020809104026020016040519081016040528092919081815260200182805461051e906126f8565b801561056b5780601f106105405761010080835404028352916020019161056b565b820191906000526020600020905b81548152906001019060200180831161054e57829003601f168201915b5050505050905090565b600061058082611245565b6105e65760405162461bcd60e51b815260206004820152602c60248201527f4552433732313a20617070726f76656420717565727920666f72206e6f6e657860448201526b34b9ba32b73a103a37b5b2b760a11b60648201526084015b60405180910390fd5b506000908152600660205260409020546001600160a01b031690565b600061060d82610a07565b9050806001600160a01b0316836001600160a01b0316141561067b5760405162461bcd60e51b815260206004820152602160248201527f4552433732313a20617070726f76616c20746f2063757272656e74206f776e656044820152603960f91b60648201526084016105dd565b336001600160a01b038216148061069757506106978133610de0565b6107045760405162461bcd60e51b815260206004820152603860248201527f4552433732313a20617070726f76652063616c6c6572206973206e6f74206f776044820152771b995c881b9bdc88185c1c1c9bdd995908199bdc88185b1b60421b60648201526084016105dd565b61070e8383611262565b505050565b61071e335b826112d0565b61073a5760405162461bcd60e51b81526004016105dd906125cc565b61070e83838361139a565b60009081526020819052604090206001015490565b60008060008061076a86866107b7565b6000818152600f6020526040902054909761ffff821697506201000090910460ff1695509350505050565b61079f8282611068565b600082815260016020526040902061070e9082611053565b60006107c283610a7e565b82106108245760405162461bcd60e51b815260206004820152602b60248201527f455243373231456e756d657261626c653a206f776e657220696e646578206f7560448201526a74206f6620626f756e647360a81b60648201526084016105dd565b506001600160a01b03919091166000908152600860209081526040808320938352929052205490565b6108578282611533565b600082815260016020526040902061070e90826115ad565b6108876000805160206127e783398151915233610b90565b6108d55760405162461bcd60e51b815260206004820152602b602482015260008051602061286783398151915260448201526a20746f20756e706175736560a81b60648201526084016105dd565b6108dd6115c2565b565b61070e83838360405180602001604052806000815250610c89565b61090333610718565b6109685760405162461bcd60e51b815260206004820152603060248201527f4552433732314275726e61626c653a2063616c6c6572206973206e6f74206f7760448201526f1b995c881b9bdc88185c1c1c9bdd995960821b60648201526084016105dd565b6109718161164f565b50565b600061097f600a5490565b82106109e25760405162461bcd60e51b815260206004820152602c60248201527f455243373231456e756d657261626c653a20676c6f62616c20696e646578206f60448201526b7574206f6620626f756e647360a01b60648201526084016105dd565b600a82815481106109f5576109f56127a4565b90600052602060002001549050919050565b6000818152600460205260408120546001600160a01b0316806104dd5760405162461bcd60e51b815260206004820152602960248201527f4552433732313a206f776e657220717565727920666f72206e6f6e657869737460448201526832b73a103a37b5b2b760b91b60648201526084016105dd565b60006001600160a01b038216610ae95760405162461bcd60e51b815260206004820152602a60248201527f4552433732313a2062616c616e636520717565727920666f7220746865207a65604482015269726f206164647265737360b01b60648201526084016105dd565b506001600160a01b031660009081526005602052604090205490565b610b1d6000805160206127e783398151915233610b90565b610b695760405162461bcd60e51b8152602060048201526029602482015260008051602061286783398151915260448201526820746f20706175736560b81b60648201526084016105dd565b6108dd6116e4565b6000828152600160205260408120610b89908361175f565b9392505050565b6000918252602082815260408084206001600160a01b0393909316845291905290205460ff1690565b6060600380546104f2906126f8565b6001600160a01b038216331415610c1d5760405162461bcd60e51b815260206004820152601960248201527822a9219b99189d1030b8383937bb32903a379031b0b63632b960391b60448201526064016105dd565b3360008181526007602090815260408083206001600160a01b03871680855290835292819020805460ff191686151590811790915590519081529192917f17307eab39ab6107e8899845ad3d59bd9653f200f220920489ca2b5937696c31910160405180910390a35050565b610c9333836112d0565b610caf5760405162461bcd60e51b81526004016105dd906125cc565b610cbb8484848461176b565b50505050565b610cd960008051602061280783398151915233610b90565b6109685760405162461bcd60e51b81526004016105dd9061261d565b6060610d0082611245565b610d645760405162461bcd60e51b815260206004820152602f60248201527f4552433732314d657461646174613a2055524920717565727920666f72206e6f60448201526e3732bc34b9ba32b73a103a37b5b2b760891b60648201526084016105dd565b6000610d6e61179e565b90506000815111610d8e5760405180602001604052806000815250610b89565b80610d98846117ad565b604051602001610da9929190612478565b6040516020818303038152906040529392505050565b60008181526001602052604081206104dd906118aa565b61085782826118b4565b6001600160a01b03918216600090815260076020908152604080832093909416825291909152205460ff1690565b610e2660008051602061280783398151915233610b90565b610e425760405162461bcd60e51b81526004016105dd9061261d565b61ffff8216600090815260106020526040902054610100900460ff16610eaa5760405162461bcd60e51b815260206004820152601d60248201527f5265776172644e46543a2053657420646f6573206e6f7420657869737400000060448201526064016105dd565b61ffff821660009081526010602052604090205460ff9081169082161115610f225760405162461bcd60e51b815260206004820152602560248201527f5265776172644e46543a204361726420646f6573206e6f7420657869737420696044820152641b881cd95d60da1b60648201526084016105dd565b610f3483610f2f600d5490565b6118d1565b81600f6000610f42600d5490565b815260200190815260200160002060000160006101000a81548161ffff021916908361ffff16021790555080600f6000610f7b600d5490565b815260200190815260200160002060000160026101000a81548160ff021916908360ff16021790555061070e600d80546001019055565b610fca60008051602061280783398151915233610b90565b6110195760405162461bcd60e51b815260206004820152602c602482015260008051602061284783398151915260448201526b20746f20616464207365747360a01b60648201526084016105dd565b61ffff9091166000908152601060205260409020805461ffff191660ff90921691909117610100179055565b61104f82826119fd565b5050565b6000610b89836001600160a01b038416611a81565b61107182610745565b61107b8133611ad0565b61070e83836119fd565b6060600061109483600261267f565b61109f906002612653565b6001600160401b038111156110b6576110b66127ba565b6040519080825280601f01601f1916602001820160405280156110e0576020820181803683370190505b509050600360fc1b816000815181106110fb576110fb6127a4565b60200101906001600160f81b031916908160001a905350600f60fb1b8160018151811061112a5761112a6127a4565b60200101906001600160f81b031916908160001a905350600061114e84600261267f565b611159906001612653565b90505b60018111156111d1576f181899199a1a9b1b9c1cb0b131b232b360811b85600f166010811061118d5761118d6127a4565b1a60f81b8282815181106111a3576111a36127a4565b60200101906001600160f81b031916908160001a90535060049490941c936111ca816126e1565b905061115c565b508315610b895760405162461bcd60e51b815260206004820181905260248201527f537472696e67733a20686578206c656e67746820696e73756666696369656e7460448201526064016105dd565b60006001600160e01b0319821663780e9d6360e01b14806104dd57506104dd82611b34565b6000908152600460205260409020546001600160a01b0316151590565b600081815260066020526040902080546001600160a01b0319166001600160a01b038416908117909155819061129782610a07565b6001600160a01b03167f8c5be1e5ebec7d5bd14f71427d1e84f3dd0314c0f7b2291e5b200ac8c7c3b92560405160405180910390a45050565b60006112db82611245565b61133c5760405162461bcd60e51b815260206004820152602c60248201527f4552433732313a206f70657261746f7220717565727920666f72206e6f6e657860448201526b34b9ba32b73a103a37b5b2b760a11b60648201526084016105dd565b600061134783610a07565b9050806001600160a01b0316846001600160a01b031614806113825750836001600160a01b031661137784610575565b6001600160a01b0316145b8061139257506113928185610de0565b949350505050565b826001600160a01b03166113ad82610a07565b6001600160a01b0316146114155760405162461bcd60e51b815260206004820152602960248201527f4552433732313a207472616e73666572206f6620746f6b656e2074686174206960448201526839903737ba1037bbb760b91b60648201526084016105dd565b6001600160a01b0382166114775760405162461bcd60e51b8152602060048201526024808201527f4552433732313a207472616e7366657220746f20746865207a65726f206164646044820152637265737360e01b60648201526084016105dd565b611482838383611b74565b61148d600082611262565b6001600160a01b03831660009081526005602052604081208054600192906114b690849061269e565b90915550506001600160a01b03821660009081526005602052604081208054600192906114e4908490612653565b909155505060008181526004602052604080822080546001600160a01b0319166001600160a01b03868116918217909255915184939187169160008051602061282783398151915291a4505050565b6001600160a01b03811633146115a35760405162461bcd60e51b815260206004820152602f60248201527f416363657373436f6e74726f6c3a2063616e206f6e6c792072656e6f756e636560448201526e103937b632b9903337b91039b2b63360891b60648201526084016105dd565b61104f8282611b7f565b6000610b89836001600160a01b038416611be4565b600c5460ff1661160b5760405162461bcd60e51b815260206004820152601460248201527314185d5cd8589b194e881b9bdd081c185d5cd95960621b60448201526064016105dd565b600c805460ff191690557f5db9ee0a495bf2e6ff9c91a7834c1ba4fdd244a5e8aa4e537bd38aeae4b073aa335b6040516116459190612516565b60405180910390a1565b600061165a82610a07565b905061166881600084611b74565b611673600083611262565b6001600160a01b038116600090815260056020526040812080546001929061169c90849061269e565b909155505060008281526004602052604080822080546001600160a01b0319169055518391906001600160a01b03841690600080516020612827833981519152908390a45050565b600c5460ff161561172a5760405162461bcd60e51b815260206004820152601060248201526f14185d5cd8589b194e881c185d5cd95960821b60448201526064016105dd565b600c805460ff191660011790557f62e78cea01bee320cd4e420270b5ea74000d11b0c9f74754ebdbfc544b05a2586116383390565b6000610b898383611cd7565b61177684848461139a565b61178284848484611d01565b610cbb5760405162461bcd60e51b81526004016105dd9061257a565b6060600e80546104f2906126f8565b6060816117d15750506040805180820190915260018152600360fc1b602082015290565b8160005b81156117fb57806117e581612733565b91506117f49050600a8361266b565b91506117d5565b6000816001600160401b03811115611815576118156127ba565b6040519080825280601f01601f19166020018201604052801561183f576020820181803683370190505b5090505b84156113925761185460018361269e565b9150611861600a8661274e565b61186c906030612653565b60f81b818381518110611881576118816127a4565b60200101906001600160f81b031916908160001a9053506118a3600a8661266b565b9450611843565b60006104dd825490565b6118bd82610745565b6118c78133611ad0565b61070e8383611b7f565b6001600160a01b0382166119275760405162461bcd60e51b815260206004820181905260248201527f4552433732313a206d696e7420746f20746865207a65726f206164647265737360448201526064016105dd565b61193081611245565b1561197c5760405162461bcd60e51b815260206004820152601c60248201527b115490cdcc8c4e881d1bdad95b88185b1c9958591e481b5a5b9d195960221b60448201526064016105dd565b61198860008383611b74565b6001600160a01b03821660009081526005602052604081208054600192906119b1908490612653565b909155505060008181526004602052604080822080546001600160a01b0319166001600160a01b0386169081179091559051839290600080516020612827833981519152908290a45050565b611a078282610b90565b61104f576000828152602081815260408083206001600160a01b03851684529091529020805460ff19166001179055611a3d3390565b6001600160a01b0316816001600160a01b0316837f2f8788117e7eff1d82e926ec794901d17c78024a50270940304540a733656f0d60405160405180910390a45050565b6000818152600183016020526040812054611ac8575081546001818101845560008481526020808220909301849055845484825282860190935260409020919091556104dd565b5060006104dd565b611ada8282610b90565b61104f57611af2816001600160a01b03166014611085565b611afd836020611085565b604051602001611b0e9291906124a7565b60408051601f198184030181529082905262461bcd60e51b82526105dd91600401612567565b60006001600160e01b031982166380ac58cd60e01b1480611b6557506001600160e01b03198216635b5e139f60e01b145b806104dd57506104dd82611e0e565b61070e838383611e33565b611b898282610b90565b1561104f576000828152602081815260408083206001600160a01b0385168085529252808320805460ff1916905551339285917ff6391f5c32d9c69d2a47ea670b442974b53935d1edc7fd64eb21e047a839171b9190a45050565b60008181526001830160205260408120548015611ccd576000611c0860018361269e565b8554909150600090611c1c9060019061269e565b9050818114611c81576000866000018281548110611c3c57611c3c6127a4565b9060005260206000200154905080876000018481548110611c5f57611c5f6127a4565b6000918252602080832090910192909255918252600188019052604090208390555b8554869080611c9257611c9261278e565b6001900381819060005260206000200160009055905585600101600086815260200190815260200160002060009055600193505050506104dd565b60009150506104dd565b6000826000018281548110611cee57611cee6127a4565b9060005260206000200154905092915050565b60006001600160a01b0384163b15611e0357604051630a85bd0160e11b81526001600160a01b0385169063150b7a0290611d4590339089908890889060040161252a565b602060405180830381600087803b158015611d5f57600080fd5b505af1925050508015611d8f575060408051601f3d908101601f19168201909252611d8c918101906123ea565b60015b611de9573d808015611dbd576040519150601f19603f3d011682016040523d82523d6000602084013e611dc2565b606091505b508051611de15760405162461bcd60e51b81526004016105dd9061257a565b805181602001fd5b6001600160e01b031916630a85bd0160e11b149050611392565b506001949350505050565b60006001600160e01b03198216635a05180f60e01b14806104dd57506104dd82611ea5565b611e3e838383611eda565b600c5460ff161561070e5760405162461bcd60e51b815260206004820152602b60248201527f4552433732315061757361626c653a20746f6b656e207472616e73666572207760448201526a1a1a5b19481c185d5cd95960aa1b60648201526084016105dd565b60006001600160e01b03198216637965db0b60e01b14806104dd57506301ffc9a760e01b6001600160e01b03198316146104dd565b6001600160a01b038316611f3557611f3081600a80546000838152600b60205260408120829055600182018355919091527fc65a7bb8d6351c1cf70c95a316cc6a92839c986682d98bc35f958f4883f9d2a80155565b611f58565b816001600160a01b0316836001600160a01b031614611f5857611f588382611f92565b6001600160a01b038216611f6f5761070e8161202f565b826001600160a01b0316826001600160a01b03161461070e5761070e82826120de565b60006001611f9f84610a7e565b611fa9919061269e565b600083815260096020526040902054909150808214611ffc576001600160a01b03841660009081526008602090815260408083208584528252808320548484528184208190558352600990915290208190555b5060009182526009602090815260408084208490556001600160a01b039094168352600881528383209183525290812055565b600a546000906120419060019061269e565b6000838152600b6020526040812054600a8054939450909284908110612069576120696127a4565b9060005260206000200154905080600a838154811061208a5761208a6127a4565b6000918252602080832090910192909255828152600b9091526040808220849055858252812055600a8054806120c2576120c261278e565b6001900381819060005260206000200160009055905550505050565b60006120e983610a7e565b6001600160a01b039093166000908152600860209081526040808320868452825280832085905593825260099052919091209190915550565b80356001600160a01b038116811461213957600080fd5b919050565b803561ffff8116811461213957600080fd5b803560ff8116811461213957600080fd5b60006020828403121561217357600080fd5b610b8982612122565b6000806040838503121561218f57600080fd5b61219883612122565b91506121a660208401612122565b90509250929050565b6000806000606084860312156121c457600080fd5b6121cd84612122565b92506121db60208501612122565b9150604084013590509250925092565b6000806000806080858703121561220157600080fd5b61220a85612122565b935061221860208601612122565b92506040850135915060608501356001600160401b038082111561223b57600080fd5b818701915087601f83011261224f57600080fd5b813581811115612261576122616127ba565b604051601f8201601f19908116603f01168101908382118183101715612289576122896127ba565b816040528281528a60208487010111156122a257600080fd5b82602086016020830137600060208483010152809550505050505092959194509250565b600080604083850312156122d957600080fd5b6122e283612122565b9150602083013580151581146122f757600080fd5b809150509250929050565b60008060006060848603121561231757600080fd5b61232084612122565b925061232e6020850161213e565b915061233c60408501612150565b90509250925092565b6000806040838503121561235857600080fd5b61236183612122565b946020939093013593505050565b60006020828403121561238157600080fd5b5035919050565b6000806040838503121561239b57600080fd5b823591506121a660208401612122565b600080604083850312156123be57600080fd5b50508035926020909101359150565b6000602082840312156123df57600080fd5b8135610b89816127d0565b6000602082840312156123fc57600080fd5b8151610b89816127d0565b60006020828403121561241957600080fd5b610b898261213e565b6000806040838503121561243557600080fd5b61243e8361213e565b91506121a660208401612150565b600081518084526124648160208601602086016126b5565b601f01601f19169290920160200192915050565b6000835161248a8184602088016126b5565b83519083019061249e8183602088016126b5565b01949350505050565b76020b1b1b2b9b9a1b7b73a3937b61d1030b1b1b7bab73a1604d1b8152600083516124d98160178501602088016126b5565b7001034b99036b4b9b9b4b733903937b6329607d1b601791840191820152835161250a8160288401602088016126b5565b01602801949350505050565b6001600160a01b0391909116815260200190565b6001600160a01b038581168252841660208201526040810183905260806060820181905260009061255d9083018461244c565b9695505050505050565b602081526000610b89602083018461244c565b60208082526032908201527f4552433732313a207472616e7366657220746f206e6f6e20455243373231526560408201527131b2b4bb32b91034b6b83632b6b2b73a32b960711b606082015260800190565b60208082526031908201527f4552433732313a207472616e736665722063616c6c6572206973206e6f74206f6040820152701ddb995c881b9bdc88185c1c1c9bdd9959607a1b606082015260800190565b6020808252602890820152600080516020612847833981519152604082015267081d1bc81b5a5b9d60c21b606082015260800190565b6000821982111561266657612666612762565b500190565b60008261267a5761267a612778565b500490565b600081600019048311821515161561269957612699612762565b500290565b6000828210156126b0576126b0612762565b500390565b60005b838110156126d05781810151838201526020016126b8565b83811115610cbb5750506000910152565b6000816126f0576126f0612762565b506000190190565b600181811c9082168061270c57607f821691505b6020821081141561272d57634e487b7160e01b600052602260045260246000fd5b50919050565b600060001982141561274757612747612762565b5060010190565b60008261275d5761275d612778565b500690565b634e487b7160e01b600052601160045260246000fd5b634e487b7160e01b600052601260045260246000fd5b634e487b7160e01b600052603160045260246000fd5b634e487b7160e01b600052603260045260246000fd5b634e487b7160e01b600052604160045260246000fd5b6001600160e01b03198116811461097157600080fdfe65d7a28e3265b37a6474929f336521b332c1681b933f6cb9f3376673440d862a9f2df0fed2c77648de5860a4cc508cd0818c85b8b8a1ab4ceeef8d981c8956a6ddf252ad1be2c89b69c2b068fc378daa952ba7f163c4a11628f55a4df523b3ef5265776172644e46543a206d7573742068617665206d696e74657220726f6c655265776172644e46543a206d75737420686176652070617573657220726f6c65a264697066735822122067f8c95d6b42af0027173b8427995245488024f3b1aa1b97cd4d19ce374d95c964736f6c634300080600339f2df0fed2c77648de5860a4cc508cd0818c85b8b8a1ab4ceeef8d981c8956a6",
  "immutableReferences": {},
  "source": "// contracts/NFT.sol\n// SPDX-License-Identifier: MIT\npragma solidity ^0.8.0;\n\nimport \"@openzeppelin/contracts/token/ERC721/presets/ERC721PresetMinterPauserAutoId.sol\";\n\ncontract piggyNFT is\n    Context,\n    AccessControlEnumerable,\n    ERC721Enumerable,\n    ERC721Burnable,\n    ERC721Pausable\n{\n    using Counters for Counters.Counter;\n\n    bytes32 public constant MINTER_ROLE = keccak256(\"MINTER_ROLE\");\n    bytes32 public constant PAUSER_ROLE = keccak256(\"PAUSER_ROLE\");\n\n    Counters.Counter private _tokenIdTracker;\n\n    string private _baseTokenURI;\n\n    struct NFTMetadata {\n        uint16 set;\n        uint8 number;\n    }\n\n    mapping(uint256 => NFTMetadata) metadata;\n\n    struct SetMetadata {\n        uint8 totalCards;\n        bool enabled;\n    }\n\n    mapping(uint16 => SetMetadata) sets;\n\n    /**\n     * @dev Grants `DEFAULT_ADMIN_ROLE`, `MINTER_ROLE` and `PAUSER_ROLE` to the\n     * account that deploys the contract.\n     *\n     * Token URIs will be autogenerated based on `baseURI` and their token IDs.\n     * See {ERC721-tokenURI}.\n     */\n    constructor(\n        address game\n    ) ERC721(\"VolumeWars NFT\", \"VW\") {\n        _baseTokenURI = \"volumewars-\";\n\n        _setupRole(DEFAULT_ADMIN_ROLE, _msgSender());\n\n        _setupRole(MINTER_ROLE, _msgSender());\n        _setupRole(PAUSER_ROLE, _msgSender());\n        grantRole(MINTER_ROLE, game);\n    }\n\n    function metadataOf(uint256 id) public view returns (uint16, uint8) {\n        return (metadata[id].set, metadata[id].number);\n    }\n    function dataOfTokenOfOwnerByIndex(address owner, uint256 id) public view returns (uint256, uint16, uint8) {\n        uint256 tokenId = tokenOfOwnerByIndex(owner, id);\n        return (tokenId, metadata[tokenId].set, metadata[tokenId].number);\n    }\n    function totalCardsOf(uint16 id) public view returns (uint8) {\n        return sets[id].totalCards;\n    }\n    function addSet(uint16 set, uint8 number) public {\n        require(hasRole(MINTER_ROLE, _msgSender()), \"RewardNFT: must have minter role to add sets\");\n        sets[set].totalCards = number;\n        sets[set].enabled = true;\n    }\n\n    function _baseURI() internal view virtual override returns (string memory) {\n        return _baseTokenURI;\n    }\n\n    function forgeBurn(uint256 id) public {\n        require(hasRole(MINTER_ROLE, _msgSender()), \"RewardNFT: must have minter role to mint\");\n        _burn(id);\n    }\n    /**\n     * @dev Creates a new token for `to`. Its token ID will be automatically\n     * assigned (and available on the emitted {IERC721-Transfer} event), and the token\n     * URI autogenerated based on the base URI passed at construction.\n     *\n     * See {ERC721-_mint}.\n     *\n     * Requirements:\n     *\n     * - the caller must have the `MINTER_ROLE`.\n     */\n    function mint(address to, uint16 set, uint8 number) public virtual {\n        require(hasRole(MINTER_ROLE, _msgSender()), \"RewardNFT: must have minter role to mint\");\n        require(sets[set].enabled, \"RewardNFT: Set does not exist\");\n        require(number <= sets[set].totalCards, \"RewardNFT: Card does not exist in set\");\n        // We cannot just use balanceOf to create the new tokenId because tokens\n        // can be burned (destroyed), so we need a separate counter.\n        _mint(to, _tokenIdTracker.current());\n        metadata[_tokenIdTracker.current()].set = set;\n        metadata[_tokenIdTracker.current()].number = number;\n        _tokenIdTracker.increment();\n    }\n\n    /**\n     * @dev Pauses all token transfers.\n     *\n     * See {ERC721Pausable} and {Pausable-_pause}.\n     *\n     * Requirements:\n     *\n     * - the caller must have the `PAUSER_ROLE`.\n     */\n    function pause() public virtual {\n        require(hasRole(PAUSER_ROLE, _msgSender()), \"RewardNFT: must have pauser role to pause\");\n        _pause();\n    }\n\n    /**\n     * @dev Unpauses all token transfers.\n     *\n     * See {ERC721Pausable} and {Pausable-_unpause}.\n     *\n     * Requirements:\n     *\n     * - the caller must have the `PAUSER_ROLE`.\n     */\n    function unpause() public virtual {\n        require(hasRole(PAUSER_ROLE, _msgSender()), \"RewardNFT: must have pauser role to unpause\");\n        _unpause();\n    }\n\n    function _beforeTokenTransfer(\n        address from,\n        address to,\n        uint256 tokenId\n    ) internal virtual override(ERC721, ERC721Enumerable, ERC721Pausable) {\n        super._beforeTokenTransfer(from, to, tokenId);\n    }\n\n    /**\n     * @dev See {IERC165-supportsInterface}.\n     */\n    function supportsInterface(bytes4 interfaceId)\n        public\n        view\n        virtual\n        override(AccessControlEnumerable, ERC721, ERC721Enumerable)\n        returns (bool)\n    {\n        return super.supportsInterface(interfaceId);\n    }\n}\n",
  "sourcePath": "/home/moot/projects/vw/contracts/NFT.sol",
  "compiler": {
    "name": "solc",
    "version": "0.8.6+commit.11564f7e.Emscripten.clang"
  },
  "schemaVersion": "3.4.1",
  "updatedAt": "2021-08-08T03:26:36.627Z",
  "networkType": "ethereum",
  "devdoc": {
    "kind": "dev",
    "methods": {
      "approve(address,uint256)": {
        "details": "See {IERC721-approve}."
      },
      "balanceOf(address)": {
        "details": "See {IERC721-balanceOf}."
      },
      "burn(uint256)": {
        "details": "Burns `tokenId`. See {ERC721-_burn}. Requirements: - The caller must own `tokenId` or be an approved operator."
      },
      "constructor": {
        "details": "Grants `DEFAULT_ADMIN_ROLE`, `MINTER_ROLE` and `PAUSER_ROLE` to the account that deploys the contract. Token URIs will be autogenerated based on `baseURI` and their token IDs. See {ERC721-tokenURI}."
      },
      "getApproved(uint256)": {
        "details": "See {IERC721-getApproved}."
      },
      "getRoleAdmin(bytes32)": {
        "details": "Returns the admin role that controls `role`. See {grantRole} and {revokeRole}. To change a role's admin, use {_setRoleAdmin}."
      },
      "getRoleMember(bytes32,uint256)": {
        "details": "Returns one of the accounts that have `role`. `index` must be a value between 0 and {getRoleMemberCount}, non-inclusive. Role bearers are not sorted in any particular way, and their ordering may change at any point. WARNING: When using {getRoleMember} and {getRoleMemberCount}, make sure you perform all queries on the same block. See the following https://forum.openzeppelin.com/t/iterating-over-elements-on-enumerableset-in-openzeppelin-contracts/2296[forum post] for more information."
      },
      "getRoleMemberCount(bytes32)": {
        "details": "Returns the number of accounts that have `role`. Can be used together with {getRoleMember} to enumerate all bearers of a role."
      },
      "grantRole(bytes32,address)": {
        "details": "Overload {grantRole} to track enumerable memberships"
      },
      "hasRole(bytes32,address)": {
        "details": "Returns `true` if `account` has been granted `role`."
      },
      "isApprovedForAll(address,address)": {
        "details": "See {IERC721-isApprovedForAll}."
      },
      "mint(address,uint16,uint8)": {
        "details": "Creates a new token for `to`. Its token ID will be automatically assigned (and available on the emitted {IERC721-Transfer} event), and the token URI autogenerated based on the base URI passed at construction. See {ERC721-_mint}. Requirements: - the caller must have the `MINTER_ROLE`."
      },
      "name()": {
        "details": "See {IERC721Metadata-name}."
      },
      "ownerOf(uint256)": {
        "details": "See {IERC721-ownerOf}."
      },
      "pause()": {
        "details": "Pauses all token transfers. See {ERC721Pausable} and {Pausable-_pause}. Requirements: - the caller must have the `PAUSER_ROLE`."
      },
      "paused()": {
        "details": "Returns true if the contract is paused, and false otherwise."
      },
      "renounceRole(bytes32,address)": {
        "details": "Overload {renounceRole} to track enumerable memberships"
      },
      "revokeRole(bytes32,address)": {
        "details": "Overload {revokeRole} to track enumerable memberships"
      },
      "safeTransferFrom(address,address,uint256)": {
        "details": "See {IERC721-safeTransferFrom}."
      },
      "safeTransferFrom(address,address,uint256,bytes)": {
        "details": "See {IERC721-safeTransferFrom}."
      },
      "setApprovalForAll(address,bool)": {
        "details": "See {IERC721-setApprovalForAll}."
      },
      "supportsInterface(bytes4)": {
        "details": "See {IERC165-supportsInterface}."
      },
      "symbol()": {
        "details": "See {IERC721Metadata-symbol}."
      },
      "tokenByIndex(uint256)": {
        "details": "See {IERC721Enumerable-tokenByIndex}."
      },
      "tokenOfOwnerByIndex(address,uint256)": {
        "details": "See {IERC721Enumerable-tokenOfOwnerByIndex}."
      },
      "tokenURI(uint256)": {
        "details": "See {IERC721Metadata-tokenURI}."
      },
      "totalSupply()": {
        "details": "See {IERC721Enumerable-totalSupply}."
      },
      "transferFrom(address,address,uint256)": {
        "details": "See {IERC721-transferFrom}."
      },
      "unpause()": {
        "details": "Unpauses all token transfers. See {ERC721Pausable} and {Pausable-_unpause}. Requirements: - the caller must have the `PAUSER_ROLE`."
      }
    },
    "version": 1
  },
  "userdoc": {
    "kind": "user",
    "methods": {},
    "version": 1
  }
}