{
  "contractName": "piggyGame",
  "abi": [
    {
      "anonymous": false,
      "inputs": [
        {
          "indexed": true,
          "internalType": "address",
          "name": "player",
          "type": "address"
        },
        {
          "indexed": true,
          "internalType": "address",
          "name": "team",
          "type": "address"
        },
        {
          "indexed": false,
          "internalType": "uint256",
          "name": "amount",
          "type": "uint256"
        }
      ],
      "name": "Attack",
      "type": "event"
    },
    {
      "anonymous": false,
      "inputs": [
        {
          "indexed": true,
          "internalType": "address",
          "name": "player",
          "type": "address"
        },
        {
          "indexed": false,
          "internalType": "uint8",
          "name": "nonce",
          "type": "uint8"
        }
      ],
      "name": "BoosterPackOpened",
      "type": "event"
    },
    {
      "anonymous": false,
      "inputs": [
        {
          "indexed": true,
          "internalType": "address",
          "name": "player",
          "type": "address"
        },
        {
          "indexed": true,
          "internalType": "uint256",
          "name": "season",
          "type": "uint256"
        },
        {
          "indexed": true,
          "internalType": "address",
          "name": "team",
          "type": "address"
        }
      ],
      "name": "JoinedGame",
      "type": "event"
    },
    {
      "anonymous": false,
      "inputs": [
        {
          "indexed": true,
          "internalType": "address",
          "name": "player",
          "type": "address"
        },
        {
          "indexed": true,
          "internalType": "uint16",
          "name": "set",
          "type": "uint16"
        }
      ],
      "name": "LegendaryForged",
      "type": "event"
    },
    {
      "anonymous": false,
      "inputs": [
        {
          "indexed": true,
          "internalType": "uint16",
          "name": "rewardSeason",
          "type": "uint16"
        },
        {
          "indexed": true,
          "internalType": "uint16",
          "name": "currentSeason",
          "type": "uint16"
        },
        {
          "indexed": true,
          "internalType": "uint256",
          "name": "NFT",
          "type": "uint256"
        },
        {
          "indexed": false,
          "internalType": "uint16",
          "name": "NFTSet",
          "type": "uint16"
        }
      ],
      "name": "LegendaryRewardClaimed",
      "type": "event"
    },
    {
      "anonymous": false,
      "inputs": [
        {
          "indexed": true,
          "internalType": "address",
          "name": "player",
          "type": "address"
        },
        {
          "indexed": true,
          "internalType": "uint16",
          "name": "set",
          "type": "uint16"
        },
        {
          "indexed": true,
          "internalType": "uint8",
          "name": "number",
          "type": "uint8"
        },
        {
          "indexed": false,
          "internalType": "bool",
          "name": "rare",
          "type": "bool"
        }
      ],
      "name": "NFTAwarded",
      "type": "event"
    },
    {
      "anonymous": false,
      "inputs": [
        {
          "indexed": true,
          "internalType": "address",
          "name": "previousOwner",
          "type": "address"
        },
        {
          "indexed": true,
          "internalType": "address",
          "name": "newOwner",
          "type": "address"
        }
      ],
      "name": "OwnershipTransferred",
      "type": "event"
    },
    {
      "anonymous": false,
      "inputs": [
        {
          "indexed": true,
          "internalType": "uint16",
          "name": "poolSeason",
          "type": "uint16"
        },
        {
          "indexed": true,
          "internalType": "uint16",
          "name": "currentSeason",
          "type": "uint16"
        },
        {
          "indexed": false,
          "internalType": "uint256",
          "name": "amount",
          "type": "uint256"
        }
      ],
      "name": "PoolClosedAndFundsTransferred",
      "type": "event"
    },
    {
      "anonymous": false,
      "inputs": [
        {
          "indexed": true,
          "internalType": "uint16",
          "name": "season",
          "type": "uint16"
        },
        {
          "indexed": false,
          "internalType": "uint256",
          "name": "totalClaims",
          "type": "uint256"
        },
        {
          "indexed": false,
          "internalType": "uint256",
          "name": "initialBalance",
          "type": "uint256"
        },
        {
          "indexed": false,
          "internalType": "uint256",
          "name": "rewardPerNFT",
          "type": "uint256"
        }
      ],
      "name": "PoolOpened",
      "type": "event"
    },
    {
      "anonymous": false,
      "inputs": [
        {
          "indexed": true,
          "internalType": "address",
          "name": "owner",
          "type": "address"
        },
        {
          "indexed": false,
          "internalType": "uint256",
          "name": "grade2",
          "type": "uint256"
        },
        {
          "indexed": false,
          "internalType": "uint256",
          "name": "grade3",
          "type": "uint256"
        },
        {
          "indexed": false,
          "internalType": "uint256",
          "name": "grade4",
          "type": "uint256"
        }
      ],
      "name": "RareChanceSet",
      "type": "event"
    },
    {
      "anonymous": false,
      "inputs": [
        {
          "indexed": true,
          "internalType": "address",
          "name": "requester",
          "type": "address"
        },
        {
          "indexed": false,
          "internalType": "uint256",
          "name": "randomness",
          "type": "uint256"
        }
      ],
      "name": "ReceivedBoosterPack",
      "type": "event"
    },
    {
      "anonymous": false,
      "inputs": [
        {
          "indexed": true,
          "internalType": "address",
          "name": "owner",
          "type": "address"
        },
        {
          "indexed": true,
          "internalType": "uint32",
          "name": "season",
          "type": "uint32"
        },
        {
          "indexed": true,
          "internalType": "address",
          "name": "winner",
          "type": "address"
        }
      ],
      "name": "SeasonClose",
      "type": "event"
    },
    {
      "anonymous": false,
      "inputs": [
        {
          "indexed": true,
          "internalType": "address",
          "name": "owner",
          "type": "address"
        },
        {
          "indexed": true,
          "internalType": "uint32",
          "name": "season",
          "type": "uint32"
        }
      ],
      "name": "SeasonOpen",
      "type": "event"
    },
    {
      "anonymous": false,
      "inputs": [
        {
          "indexed": true,
          "internalType": "address",
          "name": "owner",
          "type": "address"
        },
        {
          "indexed": true,
          "internalType": "address",
          "name": "team",
          "type": "address"
        }
      ],
      "name": "TeamAdded",
      "type": "event"
    },
    {
      "anonymous": false,
      "inputs": [
        {
          "indexed": true,
          "internalType": "address",
          "name": "owner",
          "type": "address"
        },
        {
          "indexed": false,
          "internalType": "uint256",
          "name": "grade1",
          "type": "uint256"
        },
        {
          "indexed": false,
          "internalType": "uint256",
          "name": "grade2",
          "type": "uint256"
        },
        {
          "indexed": false,
          "internalType": "uint256",
          "name": "grade3",
          "type": "uint256"
        },
        {
          "indexed": false,
          "internalType": "uint256",
          "name": "grade4",
          "type": "uint256"
        }
      ],
      "name": "ThresholdsSet",
      "type": "event"
    },
    {
      "inputs": [
        {
          "internalType": "uint256",
          "name": "",
          "type": "uint256"
        }
      ],
      "name": "activeTeams",
      "outputs": [
        {
          "internalType": "address",
          "name": "",
          "type": "address"
        }
      ],
      "stateMutability": "view",
      "type": "function",
      "constant": true
    },
    {
      "inputs": [
        {
          "internalType": "address",
          "name": "",
          "type": "address"
        }
      ],
      "name": "balances",
      "outputs": [
        {
          "internalType": "uint256",
          "name": "",
          "type": "uint256"
        }
      ],
      "stateMutability": "view",
      "type": "function",
      "constant": true
    },
    {
      "inputs": [
        {
          "internalType": "uint8",
          "name": "",
          "type": "uint8"
        }
      ],
      "name": "createdCards",
      "outputs": [
        {
          "internalType": "uint256",
          "name": "",
          "type": "uint256"
        }
      ],
      "stateMutability": "view",
      "type": "function",
      "constant": true
    },
    {
      "inputs": [],
      "name": "devPool",
      "outputs": [
        {
          "internalType": "uint256",
          "name": "",
          "type": "uint256"
        }
      ],
      "stateMutability": "view",
      "type": "function",
      "constant": true
    },
    {
      "inputs": [],
      "name": "feeDestination",
      "outputs": [
        {
          "internalType": "address",
          "name": "",
          "type": "address"
        }
      ],
      "stateMutability": "view",
      "type": "function",
      "constant": true
    },
    {
      "inputs": [],
      "name": "open",
      "outputs": [
        {
          "internalType": "bool",
          "name": "",
          "type": "bool"
        }
      ],
      "stateMutability": "view",
      "type": "function",
      "constant": true
    },
    {
      "inputs": [],
      "name": "owner",
      "outputs": [
        {
          "internalType": "address",
          "name": "",
          "type": "address"
        }
      ],
      "stateMutability": "view",
      "type": "function",
      "constant": true
    },
    {
      "inputs": [],
      "name": "pancakeSwapRouter",
      "outputs": [
        {
          "internalType": "contract IUniswapV2Router02",
          "name": "",
          "type": "address"
        }
      ],
      "stateMutability": "view",
      "type": "function",
      "constant": true
    },
    {
      "inputs": [
        {
          "internalType": "address",
          "name": "",
          "type": "address"
        }
      ],
      "name": "players",
      "outputs": [
        {
          "internalType": "uint256",
          "name": "gamesPlayed",
          "type": "uint256"
        },
        {
          "internalType": "uint16",
          "name": "season",
          "type": "uint16"
        },
        {
          "internalType": "address",
          "name": "team",
          "type": "address"
        },
        {
          "internalType": "uint32",
          "name": "winsBeforeJoin",
          "type": "uint32"
        },
        {
          "internalType": "uint256",
          "name": "experience",
          "type": "uint256"
        },
        {
          "internalType": "uint256",
          "name": "numBoosterPacks",
          "type": "uint256"
        }
      ],
      "stateMutability": "view",
      "type": "function",
      "constant": true
    },
    {
      "inputs": [],
      "name": "rareChance",
      "outputs": [
        {
          "internalType": "uint8",
          "name": "grade2",
          "type": "uint8"
        },
        {
          "internalType": "uint8",
          "name": "grade3",
          "type": "uint8"
        },
        {
          "internalType": "uint8",
          "name": "grade4",
          "type": "uint8"
        }
      ],
      "stateMutability": "view",
      "type": "function",
      "constant": true
    },
    {
      "inputs": [
        {
          "internalType": "bytes32",
          "name": "requestId",
          "type": "bytes32"
        },
        {
          "internalType": "uint256",
          "name": "randomness",
          "type": "uint256"
        }
      ],
      "name": "rawFulfillRandomness",
      "outputs": [],
      "stateMutability": "nonpayable",
      "type": "function"
    },
    {
      "inputs": [],
      "name": "redeemFee",
      "outputs": [
        {
          "internalType": "uint256",
          "name": "",
          "type": "uint256"
        }
      ],
      "stateMutability": "view",
      "type": "function",
      "constant": true
    },
    {
      "inputs": [],
      "name": "renounceOwnership",
      "outputs": [],
      "stateMutability": "nonpayable",
      "type": "function"
    },
    {
      "inputs": [],
      "name": "rewardNFT",
      "outputs": [
        {
          "internalType": "contract IRewardNFT",
          "name": "",
          "type": "address"
        }
      ],
      "stateMutability": "view",
      "type": "function",
      "constant": true
    },
    {
      "inputs": [
        {
          "internalType": "uint16",
          "name": "",
          "type": "uint16"
        }
      ],
      "name": "rewardPools",
      "outputs": [
        {
          "internalType": "uint256",
          "name": "balance",
          "type": "uint256"
        },
        {
          "internalType": "uint256",
          "name": "remainingClaims",
          "type": "uint256"
        },
        {
          "internalType": "uint256",
          "name": "rewardPerNFT",
          "type": "uint256"
        },
        {
          "internalType": "bool",
          "name": "open",
          "type": "bool"
        }
      ],
      "stateMutability": "view",
      "type": "function",
      "constant": true
    },
    {
      "inputs": [],
      "name": "season",
      "outputs": [
        {
          "internalType": "uint16",
          "name": "",
          "type": "uint16"
        }
      ],
      "stateMutability": "view",
      "type": "function",
      "constant": true
    },
    {
      "inputs": [
        {
          "internalType": "address",
          "name": "",
          "type": "address"
        }
      ],
      "name": "teams",
      "outputs": [
        {
          "internalType": "bool",
          "name": "enabled",
          "type": "bool"
        },
        {
          "internalType": "uint32",
          "name": "wins",
          "type": "uint32"
        },
        {
          "internalType": "uint256",
          "name": "damagePoints",
          "type": "uint256"
        }
      ],
      "stateMutability": "view",
      "type": "function",
      "constant": true
    },
    {
      "inputs": [
        {
          "internalType": "address",
          "name": "newOwner",
          "type": "address"
        }
      ],
      "name": "transferOwnership",
      "outputs": [],
      "stateMutability": "nonpayable",
      "type": "function"
    },
    {
      "stateMutability": "payable",
      "type": "receive",
      "payable": true
    },
    {
      "inputs": [
        {
          "internalType": "address",
          "name": "_piggyToken",
          "type": "address"
        },
        {
          "internalType": "address",
          "name": "_secondToken",
          "type": "address"
        },
        {
          "internalType": "address",
          "name": "_router",
          "type": "address"
        },
        {
          "internalType": "address",
          "name": "_coordinator",
          "type": "address"
        },
        {
          "internalType": "address",
          "name": "_linkToken",
          "type": "address"
        },
        {
          "internalType": "bytes32",
          "name": "_hash",
          "type": "bytes32"
        },
        {
          "internalType": "uint256",
          "name": "_fee",
          "type": "uint256"
        }
      ],
      "name": "initialize",
      "outputs": [],
      "stateMutability": "nonpayable",
      "type": "function"
    },
    {
      "inputs": [],
      "name": "getRedeemFee",
      "outputs": [
        {
          "internalType": "uint256",
          "name": "",
          "type": "uint256"
        }
      ],
      "stateMutability": "view",
      "type": "function",
      "constant": true
    },
    {
      "inputs": [],
      "name": "isGameOpen",
      "outputs": [
        {
          "internalType": "bool",
          "name": "",
          "type": "bool"
        }
      ],
      "stateMutability": "view",
      "type": "function",
      "constant": true
    },
    {
      "inputs": [],
      "name": "currentSeason",
      "outputs": [
        {
          "internalType": "uint16",
          "name": "",
          "type": "uint16"
        }
      ],
      "stateMutability": "view",
      "type": "function",
      "constant": true
    },
    {
      "inputs": [
        {
          "internalType": "address",
          "name": "_player",
          "type": "address"
        }
      ],
      "name": "boosterPackBalanceOf",
      "outputs": [
        {
          "internalType": "uint256",
          "name": "",
          "type": "uint256"
        }
      ],
      "stateMutability": "view",
      "type": "function",
      "constant": true
    },
    {
      "inputs": [
        {
          "internalType": "address",
          "name": "_player",
          "type": "address"
        }
      ],
      "name": "totalExperienceOf",
      "outputs": [
        {
          "internalType": "uint256",
          "name": "",
          "type": "uint256"
        }
      ],
      "stateMutability": "view",
      "type": "function",
      "constant": true
    },
    {
      "inputs": [
        {
          "internalType": "address",
          "name": "_player",
          "type": "address"
        }
      ],
      "name": "teamOf",
      "outputs": [
        {
          "internalType": "address",
          "name": "",
          "type": "address"
        }
      ],
      "stateMutability": "view",
      "type": "function",
      "constant": true
    },
    {
      "inputs": [],
      "name": "getThresholds",
      "outputs": [
        {
          "internalType": "uint256",
          "name": "",
          "type": "uint256"
        },
        {
          "internalType": "uint256",
          "name": "",
          "type": "uint256"
        },
        {
          "internalType": "uint256",
          "name": "",
          "type": "uint256"
        },
        {
          "internalType": "uint256",
          "name": "",
          "type": "uint256"
        }
      ],
      "stateMutability": "view",
      "type": "function",
      "constant": true
    },
    {
      "inputs": [],
      "name": "getRareChances",
      "outputs": [
        {
          "internalType": "uint8",
          "name": "",
          "type": "uint8"
        },
        {
          "internalType": "uint8",
          "name": "",
          "type": "uint8"
        },
        {
          "internalType": "uint8",
          "name": "",
          "type": "uint8"
        }
      ],
      "stateMutability": "view",
      "type": "function",
      "constant": true
    },
    {
      "inputs": [
        {
          "internalType": "address",
          "name": "teamId",
          "type": "address"
        }
      ],
      "name": "teamDamageOf",
      "outputs": [
        {
          "internalType": "uint256",
          "name": "",
          "type": "uint256"
        }
      ],
      "stateMutability": "view",
      "type": "function",
      "constant": true
    },
    {
      "inputs": [
        {
          "internalType": "address",
          "name": "teamId",
          "type": "address"
        }
      ],
      "name": "teamWinsOf",
      "outputs": [
        {
          "internalType": "uint32",
          "name": "",
          "type": "uint32"
        }
      ],
      "stateMutability": "view",
      "type": "function",
      "constant": true
    },
    {
      "inputs": [],
      "name": "getActiveTeams",
      "outputs": [
        {
          "internalType": "address[]",
          "name": "",
          "type": "address[]"
        }
      ],
      "stateMutability": "view",
      "type": "function",
      "constant": true
    },
    {
      "inputs": [
        {
          "internalType": "address",
          "name": "_player",
          "type": "address"
        }
      ],
      "name": "playerWins",
      "outputs": [
        {
          "internalType": "uint32",
          "name": "",
          "type": "uint32"
        }
      ],
      "stateMutability": "view",
      "type": "function",
      "constant": true
    },
    {
      "inputs": [
        {
          "internalType": "address",
          "name": "teamAddress",
          "type": "address"
        }
      ],
      "name": "tokenInfo",
      "outputs": [
        {
          "internalType": "uint8",
          "name": "",
          "type": "uint8"
        },
        {
          "internalType": "string",
          "name": "",
          "type": "string"
        },
        {
          "internalType": "string",
          "name": "",
          "type": "string"
        }
      ],
      "stateMutability": "view",
      "type": "function",
      "constant": true
    },
    {
      "inputs": [
        {
          "internalType": "address",
          "name": "player",
          "type": "address"
        }
      ],
      "name": "tokenBalanceOf",
      "outputs": [
        {
          "internalType": "uint256",
          "name": "",
          "type": "uint256"
        }
      ],
      "stateMutability": "view",
      "type": "function",
      "constant": true
    },
    {
      "inputs": [
        {
          "internalType": "address",
          "name": "player",
          "type": "address"
        }
      ],
      "name": "unclaimedBoosterPacksOf",
      "outputs": [
        {
          "internalType": "uint256",
          "name": "",
          "type": "uint256"
        }
      ],
      "stateMutability": "view",
      "type": "function",
      "constant": true
    },
    {
      "inputs": [
        {
          "internalType": "uint256",
          "name": "nftId",
          "type": "uint256"
        },
        {
          "internalType": "uint16",
          "name": "poolId",
          "type": "uint16"
        }
      ],
      "name": "isNFTRedeemable",
      "outputs": [
        {
          "internalType": "bool",
          "name": "",
          "type": "bool"
        }
      ],
      "stateMutability": "view",
      "type": "function",
      "constant": true
    },
    {
      "inputs": [
        {
          "internalType": "bool",
          "name": "isOpen",
          "type": "bool"
        }
      ],
      "name": "setOpen",
      "outputs": [],
      "stateMutability": "nonpayable",
      "type": "function"
    },
    {
      "inputs": [
        {
          "internalType": "uint16",
          "name": "_season",
          "type": "uint16"
        }
      ],
      "name": "setSeason",
      "outputs": [],
      "stateMutability": "nonpayable",
      "type": "function"
    },
    {
      "inputs": [],
      "name": "openSeason",
      "outputs": [],
      "stateMutability": "nonpayable",
      "type": "function"
    },
    {
      "inputs": [],
      "name": "closeSeason",
      "outputs": [],
      "stateMutability": "nonpayable",
      "type": "function"
    },
    {
      "inputs": [
        {
          "internalType": "address",
          "name": "teamTokenAddress",
          "type": "address"
        }
      ],
      "name": "addTeam",
      "outputs": [],
      "stateMutability": "nonpayable",
      "type": "function"
    },
    {
      "inputs": [
        {
          "internalType": "address payable",
          "name": "_to",
          "type": "address"
        }
      ],
      "name": "withdrawAllDevETH",
      "outputs": [],
      "stateMutability": "nonpayable",
      "type": "function"
    },
    {
      "inputs": [
        {
          "internalType": "address",
          "name": "newFeeDestination",
          "type": "address"
        }
      ],
      "name": "changeFeeDestination",
      "outputs": [],
      "stateMutability": "nonpayable",
      "type": "function"
    },
    {
      "inputs": [
        {
          "internalType": "address payable",
          "name": "_to",
          "type": "address"
        },
        {
          "internalType": "uint256",
          "name": "amount",
          "type": "uint256"
        }
      ],
      "name": "withdrawLink",
      "outputs": [],
      "stateMutability": "nonpayable",
      "type": "function"
    },
    {
      "inputs": [
        {
          "internalType": "uint256",
          "name": "newRedeemFee",
          "type": "uint256"
        }
      ],
      "name": "setFeesAndJoinReq",
      "outputs": [],
      "stateMutability": "nonpayable",
      "type": "function"
    },
    {
      "inputs": [
        {
          "internalType": "address",
          "name": "teamAddress",
          "type": "address"
        },
        {
          "internalType": "bool",
          "name": "enabled",
          "type": "bool"
        }
      ],
      "name": "setTeamEnabled",
      "outputs": [],
      "stateMutability": "nonpayable",
      "type": "function"
    },
    {
      "inputs": [
        {
          "internalType": "address",
          "name": "_router",
          "type": "address"
        }
      ],
      "name": "updatePancakeSwapRouter",
      "outputs": [],
      "stateMutability": "nonpayable",
      "type": "function"
    },
    {
      "inputs": [
        {
          "internalType": "contract IRewardNFT",
          "name": "_rewardNFTAddress",
          "type": "address"
        }
      ],
      "name": "updateNFTAddress",
      "outputs": [],
      "stateMutability": "nonpayable",
      "type": "function"
    },
    {
      "inputs": [
        {
          "internalType": "address",
          "name": "teamTokenAddress",
          "type": "address"
        }
      ],
      "name": "join",
      "outputs": [],
      "stateMutability": "nonpayable",
      "type": "function"
    },
    {
      "inputs": [
        {
          "internalType": "address",
          "name": "team",
          "type": "address"
        }
      ],
      "name": "attack",
      "outputs": [],
      "stateMutability": "payable",
      "type": "function",
      "payable": true
    },
    {
      "inputs": [],
      "name": "claimBoosterPacks",
      "outputs": [],
      "stateMutability": "payable",
      "type": "function",
      "payable": true
    },
    {
      "inputs": [],
      "name": "unpackBoosterPack",
      "outputs": [],
      "stateMutability": "nonpayable",
      "type": "function"
    },
    {
      "inputs": [
        {
          "internalType": "uint256",
          "name": "seed",
          "type": "uint256"
        },
        {
          "internalType": "uint8",
          "name": "nonce",
          "type": "uint8"
        },
        {
          "internalType": "uint8",
          "name": "grade",
          "type": "uint8"
        },
        {
          "internalType": "uint8",
          "name": "grade2RareChance",
          "type": "uint8"
        },
        {
          "internalType": "uint8",
          "name": "grade3RareChance",
          "type": "uint8"
        },
        {
          "internalType": "uint8",
          "name": "grade4RareChance",
          "type": "uint8"
        }
      ],
      "name": "getNumRewards",
      "outputs": [
        {
          "internalType": "uint8",
          "name": "",
          "type": "uint8"
        },
        {
          "internalType": "bool",
          "name": "",
          "type": "bool"
        }
      ],
      "stateMutability": "pure",
      "type": "function",
      "constant": true
    },
    {
      "inputs": [
        {
          "internalType": "uint256[]",
          "name": "ids",
          "type": "uint256[]"
        }
      ],
      "name": "forgeLegendary",
      "outputs": [],
      "stateMutability": "nonpayable",
      "type": "function"
    },
    {
      "inputs": [
        {
          "internalType": "uint256",
          "name": "nftId",
          "type": "uint256"
        },
        {
          "internalType": "uint16",
          "name": "rewardSeason",
          "type": "uint16"
        }
      ],
      "name": "claimLegendaryReward",
      "outputs": [],
      "stateMutability": "nonpayable",
      "type": "function"
    },
    {
      "inputs": [
        {
          "internalType": "uint16",
          "name": "from",
          "type": "uint16"
        }
      ],
      "name": "transferPoolFunds",
      "outputs": [],
      "stateMutability": "nonpayable",
      "type": "function"
    },
    {
      "inputs": [
        {
          "internalType": "uint256",
          "name": "grade1",
          "type": "uint256"
        },
        {
          "internalType": "uint256",
          "name": "grade2",
          "type": "uint256"
        },
        {
          "internalType": "uint256",
          "name": "grade3",
          "type": "uint256"
        },
        {
          "internalType": "uint256",
          "name": "grade4",
          "type": "uint256"
        }
      ],
      "name": "setThresholds",
      "outputs": [],
      "stateMutability": "nonpayable",
      "type": "function"
    },
    {
      "inputs": [
        {
          "internalType": "uint8",
          "name": "grade2",
          "type": "uint8"
        },
        {
          "internalType": "uint8",
          "name": "grade3",
          "type": "uint8"
        },
        {
          "internalType": "uint8",
          "name": "grade4",
          "type": "uint8"
        }
      ],
      "name": "setRareChance",
      "outputs": [],
      "stateMutability": "nonpayable",
      "type": "function"
    }
  ],
  "bytecode": "0x608060405234801561001057600080fd5b50614995806100206000396000f3fe60806040526004361061028a5760003560e01c806305195cfa14610296578063104c1188146102ee5780631dc3035e146103105780631ddfd609146103305780631e18cb8914610350578063245589951461037057806327e235e31461039d57806328ffe6c8146103d85780632b1335e2146103f85780632e6f520e1461040d57806332bed7661461041557806339dc37ff146104355780633f61db15146104555780634dce54051461048e57806352902d1b146104f557806354b7faae1461054b5780636fdca5e01461056b5780637032d1111461058b578063715018a6146105c45780637d230cd0146105d9578063839d22b914610606578063874b79911461062657806387e4be4c1461064657806389be0665146106665780638b31fb891461069f5780638da5cb5b146106bf57806394985ddd146106d4578063965fa21e146106f45780639c3977b51461070a578063a382da0c14610733578063a5e1287f1461076f578063a8c737b0146107a8578063b3f72662146107ca578063b463a75c1461080c578063b5838a271461082c578063b7194d7c14610842578063bbc673951461085a578063bcb396211461086f578063be58a6d21461089c578063c1cff403146108bc578063c360d55d146108f5578063c458324014610915578063c50b0fb01461097c578063c6d98f1a1461099c578063c8ea4dd6146109b1578063d018db3e146109d1578063de53fcd5146109e4578063de5a5de414610a04578063e047bf7914610a2f578063e2eb41ff14610a4f578063e42c08f214610af8578063e638f2d314610b18578063f2fde38b14610b2d578063f5dab71114610b4d578063f691771f14610b7c578063f8d0218a14610b9c578063fcfff16f14610bbc57600080fd5b3661029157005b600080fd5b3480156102a257600080fd5b506102d96102b1366004614293565b61ffff166000908152606f6020908152604080832093835260049093019052205460ff161590565b60405190151581526020015b60405180910390f35b3480156102fa57600080fd5b5061030e610309366004613fdd565b610bd6565b005b34801561031c57600080fd5b5061030e61032b366004614060565b610d22565b34801561033c57600080fd5b5061030e61034b366004613f77565b610d7c565b34801561035c57600080fd5b5061030e61036b366004613f77565b610dcd565b34801561037c57600080fd5b50606954610390906001600160a01b031681565b6040516102e59190614458565b3480156103a957600080fd5b506103ca6103b8366004613f77565b606e6020526000908152604090205481565b6040519081526020016102e5565b3480156103e457600080fd5b5061030e6103f3366004613f77565b610e06565b34801561040457600080fd5b5061030e610f02565b61030e61113a565b34801561042157600080fd5b5061030e610430366004614215565b6112cb565b34801561044157600080fd5b5061030e610450366004614261565b611318565b34801561046157600080fd5b506104756104703660046142ea565b61134c565b6040805160ff90931683529015156020830152016102e5565b34801561049a57600080fd5b506104d36104a9366004614215565b606f6020526000908152604090208054600182015460028301546003909301549192909160ff1684565b60408051948552602085019390935291830152151560608201526080016102e5565b34801561050157600080fd5b50610536610510366004613f77565b6001600160a01b03166000908152606c6020526040902054610100900463ffffffff1690565b60405163ffffffff90911681526020016102e5565b34801561055757600080fd5b5061030e610566366004613fb1565b6114f2565b34801561057757600080fd5b5061030e61058636600461410d565b6115a7565b34801561059757600080fd5b506103ca6105a6366004613f77565b6001600160a01b03166000908152606c602052604090206001015490565b3480156105d057600080fd5b5061030e6115e9565b3480156105e557600080fd5b506103ca6105f4366004614363565b60756020526000908152604090205481565b34801561061257600080fd5b5061030e6106213660046142b8565b611624565b34801561063257600080fd5b50610390610641366004614261565b6116cb565b34801561065257600080fd5b5061030e610661366004613f77565b6116f5565b34801561067257600080fd5b506103ca610681366004613f77565b6001600160a01b03166000908152606b602052604090206004015490565b3480156106ab57600080fd5b506105366106ba366004613f77565b611746565b3480156106cb57600080fd5b5061039061182b565b3480156106e057600080fd5b5061030e6106ef366004614147565b61183a565b34801561070057600080fd5b506103ca607a5481565b34801561071657600080fd5b506070546071546072546073546040516102e5949392919061464b565b34801561073f57600080fd5b506074546107609060ff808216916101008104821691620100009091041683565b6040516102e59392919061469e565b34801561077b57600080fd5b506103ca61078a366004613f77565b6001600160a01b03166000908152606b602052604090206002015490565b3480156107b457600080fd5b506107bd6118a2565b6040516102e591906144c4565b3480156107d657600080fd5b506103906107e5366004613f77565b6001600160a01b039081166000908152606b60205260409020600101546201000090041690565b34801561081857600080fd5b5061030e610827366004613f77565b611904565b34801561083857600080fd5b506103ca60795481565b34801561084e57600080fd5b5060765460ff166102d9565b34801561086657600080fd5b5061030e6119c0565b34801561087b57600080fd5b50607654610100900461ffff165b60405161ffff90911681526020016102e5565b3480156108a857600080fd5b5061030e6108b7366004614293565b611bfc565b3480156108c857600080fd5b506103ca6108d7366004613f77565b6001600160a01b03166000908152606b602052604090206005015490565b34801561090157600080fd5b5061030e61091036600461439d565b612040565b34801561092157600080fd5b5061095a610930366004613f77565b606c602052600090815260409020805460019091015460ff821691610100900463ffffffff169083565b60408051931515845263ffffffff9092166020840152908201526060016102e5565b34801561098857600080fd5b5060765461088990610100900461ffff1681565b3480156109a857600080fd5b50607a546103ca565b3480156109bd57600080fd5b50606854610390906001600160a01b031681565b61030e6109df366004613f77565b6120fe565b3480156109f057600080fd5b50607b54610390906001600160a01b031681565b348015610a1057600080fd5b5060745460ff8082169161010081048216916201000090910416610760565b348015610a3b57600080fd5b5061030e610a4a366004614215565b61262a565b348015610a5b57600080fd5b50610ab4610a6a366004613f77565b606b602052600090815260409020805460018201546002830154600490930154919261ffff8216926201000083046001600160a01b031692600160b01b900463ffffffff16919086565b6040805196875261ffff90951660208701526001600160a01b039093169385019390935263ffffffff166060840152608083019190915260a082015260c0016102e5565b348015610b0457600080fd5b506103ca610b13366004613f77565b61284b565b348015610b2457600080fd5b5061030e6128ed565b348015610b3957600080fd5b5061030e610b48366004613f77565b612a4e565b348015610b5957600080fd5b50610b6d610b68366004613f77565b612aee565b6040516102e593929190614666565b348015610b8857600080fd5b5061030e610b97366004614099565b612c5b565b348015610ba857600080fd5b5061030e610bb7366004613f77565b61318d565b348015610bc857600080fd5b506076546102d99060ff1681565b600054610100900460ff1680610bef575060005460ff16155b610c145760405162461bcd60e51b8152600401610c0b90614552565b60405180910390fd5b600054610100900460ff16158015610c36576000805461ffff19166101011790555b606680546001600160a01b038088166001600160a01b0319928316179092556065805487841690831617905560778590556078849055606980549289169282169290921790915560408051606081018252603c8152600a602082015260059101526074805462050a3c62ffffff19909116179055607b805490911633179055610cbd613222565b662386f26fc10000607a81905550610cf4660aa87bee538000662386f26fc1000066d529ae9e8600006701aa535d3d0c0000611624565b610cfd88611904565b610d0687611904565b8015610d18576000805461ff00191690555b5050505050505050565b33610d2b61182b565b6001600160a01b031614610d515760405162461bcd60e51b8152600401610c0b906145a0565b6001600160a01b03919091166000908152606c60205260409020805460ff1916911515919091179055565b33610d8561182b565b6001600160a01b031614610dab5760405162461bcd60e51b8152600401610c0b906145a0565b606980546001600160a01b0319166001600160a01b0392909216919091179055565b607b546001600160a01b03163314610de457600080fd5b607b80546001600160a01b0319166001600160a01b0392909216919091179055565b60765460ff16610e285760405162461bcd60e51b8152600401610c0b906145d5565b336000908152606b60205260409020600101546201000090046001600160a01b031615610e5457600080fd5b6001600160a01b0381166000908152606c602052604090205460ff161515600114610e915760405162461bcd60e51b8152600401610c0b9061452c565b336000818152606b6020526040808220600101805462010000600160b01b031916620100006001600160a01b038716908102919091179091556076549151909361010090920461ffff16927fe83b539b767033405f784ec7eb9a1b70168e0da4dfc464092b8e5a5696e735e791a450565b60765460ff16610f245760405162461bcd60e51b8152600401610c0b9061450c565b336000908152606b602052604090206003015480610f545760405162461bcd60e51b8152600401610c0b906145fa565b336000908152606b60205260408120600301610f71600184614751565b81548110610f8157610f81614891565b6000918252602080832090910154808352606a909152604082206002810154600190910154919350915b818110156110a0576000848152606a60205260408120600101805483908110610fd657610fd6614891565b60009182526020808320908204015460745460ff601f9093166101000a90910482169350829161104291889187918791611013916001911661478d565b60745461102a90600190610100900460ff1661478d565b6074546104709060019062010000900460ff1661478d565b9150915061105282828887613296565b60405160ff8516815233907f7ed0dc05139e5474783af49f644d4d8c5a0a0907d48d78aa1fd1d0229f27aeb09060200160405180910390a25050508080611098906147dc565b915050610fab565b50336000908152606b602052604090206003018054806110c2576110c261487b565b600082815260208082208301600019908101839055909201909255338252606b90526040812060040180548392906110fb908490614751565b90915550506000838152606a6020526040812080546001600160a81b03191681559061112a6001830182613e42565b6002820160009055505050505050565b60765460ff1661115c5760405162461bcd60e51b8152600401610c0b9061450c565b336000908152606b602052604090206005015461118b5760405162461bcd60e51b8152600401610c0b906145fa565b607a5434146111cb5760405162461bcd60e51b815260206004820152600c60248201526b119959481c995c5d5a5c995960a21b6044820152606401610c0b565b346111d760028261473d565b607960008282546111e891906146e1565b909155506111f9905060028261473d565b6112039082614751565b607654610100900461ffff166000908152606f60205260408120805492935083929091906112329084906146e1565b9091555060009050611242613516565b6000818152606a6020818152604080842080546001600160a81b0319163360ff60a01b1981169190911782558552606b8352908420938590529190526005909101805492935061129792600190920191613e67565b506040805160008082526020808301808552338352606b90915292902090516112c69260059092019190613ec5565b505050565b336112d461182b565b6001600160a01b0316146112fa5760405162461bcd60e51b8152600401610c0b906145a0565b6076805461ffff9092166101000262ffff0019909216919091179055565b3361132161182b565b6001600160a01b0316146113475760405162461bcd60e51b8152600401610c0b906145a0565b607a55565b60008060008660ff161161138f5760405162461bcd60e51b815260206004820152600a602482015269472e20746f6f206c6f7760b01b6044820152606401610c0b565b60048660ff1611156113d15760405162461bcd60e51b815260206004820152600b60248201526a08e5c40e8dede40d0d2ced60ab1b6044820152606401610c0b565b8560ff1660011415611401576113e9600289896135eb565b60ff166113fc57506001905060006114e7565b6114e0565b8560ff166002141561144f576114188589896135eb565b60ff1661142b57506000905060016114e7565b611436600188614718565b9650611444600189896135eb565b6000915091506114e7565b8560ff1660031415611492576114668489896135eb565b60ff1661147957506000905060016114e7565b611484600188614718565b9650611444600289896135eb565b8560ff16600414156114e0576114a98389896135eb565b60ff166114bc57506000905060016114e7565b6114c7600188614718565b96506114d5600289896135eb565b611444906001614718565b5060009050805b965096945050505050565b336114fb61182b565b6001600160a01b0316146115215760405162461bcd60e51b8152600401610c0b906145a0565b60655460405163a9059cbb60e01b81526001600160a01b038481166004830152602482018490529091169063a9059cbb90604401602060405180830381600087803b15801561156f57600080fd5b505af1158015611583573d6000803e3d6000fd5b505050506040513d601f19601f820116820180604052508101906112c6919061412a565b336115b061182b565b6001600160a01b0316146115d65760405162461bcd60e51b8152600401610c0b906145a0565b6076805460ff1916911515919091179055565b336115f261182b565b6001600160a01b0316146116185760405162461bcd60e51b8152600401610c0b906145a0565b6116226000613647565b565b3361162d61182b565b6001600160a01b0316146116535760405162461bcd60e51b8152600401610c0b906145a0565b604080516080810182528581526020810185905280820184905260600182905260708590556071849055607283905560738290555133907fbec35960c6b3caa7ac07f7d546d3f533515d5876c65ea78d0eb8bbf164efd335906116bd90879087908790879061464b565b60405180910390a250505050565b606d81815481106116db57600080fd5b6000918252602090912001546001600160a01b0316905081565b336116fe61182b565b6001600160a01b0316146117245760405162461bcd60e51b8152600401610c0b906145a0565b606880546001600160a01b0319166001600160a01b0392909216919091179055565b6001600160a01b038082166000908152606b6020908152604080832060010154620100008104909416808452606c9092528220549192909163ffffffff600160b01b909204821691610100909104168111156117f45760405162461bcd60e51b815260206004820152602760248201527f57696e73206265666f7265206a6f696e20686967686572207468616e20746f74604482015266616c2077696e7360c81b6064820152608401610c0b565b6001600160a01b0382166000908152606c6020526040902054611823908290610100900463ffffffff16614768565b949350505050565b6033546001600160a01b031690565b6066546001600160a01b031633146118945760405162461bcd60e51b815260206004820152601f60248201527f4f6e6c7920565246436f6f7264696e61746f722063616e2066756c66696c6c006044820152606401610c0b565b61189e8282613699565b5050565b6060606d8054806020026020016040519081016040528092919081815260200182805480156118fa57602002820191906000526020600020905b81546001600160a01b031681526001909101906020018083116118dc575b5050505050905090565b3361190d61182b565b6001600160a01b0316146119335760405162461bcd60e51b8152600401610c0b906145a0565b6001600160a01b0381166000818152606c6020526040808220805460ff19166001908117909155606d8054918201815583527f5006b838207c6a9ae9b84d68f467dd4bb5c305fbfb6b04eab8faaabeec1e18d80180546001600160a01b031916841790555133917f8c6a4d93cd98d810dc65d5c855cfda2cb150208fa89c6001d1786176a702736291a350565b336119c961182b565b6001600160a01b0316146119ef5760405162461bcd60e51b8152600401610c0b906145a0565b6076805460ff19169055606d8054600091606c918391908290611a1457611a14614891565b60009182526020808320909101546001600160a01b03168352820192909252604001812060010154606d8054919350908290611a5257611a52614891565b60009182526020822001546001600160a01b031691505b606d5463ffffffff82161015611b58576000606c6000606d8463ffffffff1681548110611a9857611a98614891565b60009182526020808320909101546001600160a01b03168352820192909252604001902060010154905083811015611afe57809350606d8263ffffffff1681548110611ae657611ae6614891565b6000918252602090912001546001600160a01b031692505b6000606c6000606d8563ffffffff1681548110611b1d57611b1d614891565b60009182526020808320909101546001600160a01b031683528201929092526040019020600101555080611b50816147f7565b915050611a69565b506001600160a01b0381166000908152606c602052604090208054600191908290611b8f908290610100900463ffffffff166146f9565b92506101000a81548163ffffffff021916908363ffffffff160217905550611bb561378a565b6076546040516001600160a01b03831691610100900461ffff169033907fbfa5b12e504ec61f87abd002142d0d737d66876a305e09d32d81223eecfb3f3f90600090a45050565b61ffff81166000908152606f602052604090206003015460ff161515600114611c595760405162461bcd60e51b815260206004820152600f60248201526e21b630b4b6b9903737ba1037b832b760891b6044820152606401610c0b565b6068546040516331a9108f60e11b81526004810184905233916001600160a01b031690636352211e9060240160206040518083038186803b158015611c9d57600080fd5b505afa158015611cb1573d6000803e3d6000fd5b505050506040513d601f19601f82011682018060405250810190611cd59190613f94565b6001600160a01b031614611cfb5760405162461bcd60e51b8152600401610c0b90614624565b60685460405163077be64760e11b81526004810184905260009182916001600160a01b0390911690630ef7cc8e906024016040805180830381600087803b158015611d4557600080fd5b505af1158015611d59573d6000803e3d6000fd5b505050506040513d601f19601f82011682018060405250810190611d7d9190614232565b915091508060ff16600014611dc45760405162461bcd60e51b815260206004820152600d60248201526c4e6f74204c6567656e6461727960981b6044820152606401610c0b565b8261ffff168261ffff161115611e1c5760405162461bcd60e51b815260206004820152601f60248201527f4e465420536561736f6e206e6f74203c3d2072657761726420736561736f6e006044820152606401610c0b565b61ffff83166000908152606f6020908152604080832087845260040190915290205460ff1615611e875760405162461bcd60e51b815260206004820152601660248201527527232a1031b630b4b6b2b2103337b91039b2b0b9b7b760511b6044820152606401610c0b565b61ffff83166000818152606f60208181526040808420898552600481018352908420805460ff1916600190811790915594909352528101541015611efe5760405162461bcd60e51b815260206004820152600e60248201526d139bc818db185a5b5cc81b19599d60921b6044820152606401610c0b565b61ffff83166000908152606f6020526040902080546002909101541115611f535760405162461bcd60e51b8152602060048201526009602482015268125b9cdbdb1d995b9d60ba1b6044820152606401610c0b565b61ffff83166000908152606f602052604081206001908101805491929091611f7c908490614751565b909155505061ffff83166000908152606f6020526040812060028101548154909290611fa9908490614751565b909155505061ffff83166000908152606f6020526040808220600201549051339282156108fc02929190818181858888f19350505050158015611ff0573d6000803e3d6000fd5b5060765460405161ffff848116825286926101009004811691908616907f2c9ba61a4a5d00774e03497dacf15651bc91097df77de9623b8f80b80c5fd5a89060200160405180910390a450505050565b3361204961182b565b6001600160a01b03161461206f5760405162461bcd60e51b8152600401610c0b906145a0565b6040805160608101825260ff858116808352858216602084018190529185169284018390526074805461ffff19169091176101009092029190911762ff00001916620100009092029190911790555133907f4ae22a5b9d78e2b0d3fb8eea9f5f2694f34cf97e80c1344298cbbb5ec02e58df906120f19086908690869061469e565b60405180910390a2505050565b60765460ff166121205760405162461bcd60e51b8152600401610c0b906145d5565b607654610100900461ffff166121635760405162461bcd60e51b81526020600482015260086024820152670536561736f6e20360c41b6044820152606401610c0b565b6000341161219c5760405162461bcd60e51b815260206004820152600660248201526527379021272160d11b6044820152606401610c0b565b336000908152606b60205260409020600101546001600160a01b03828116620100009092041614156122005760405162461bcd60e51b815260206004820152600d60248201526c467269656e646c79204669726560981b6044820152606401610c0b565b336000908152606b60205260409020600101546201000090046001600160a01b031661225e5760405162461bcd60e51b815260206004820152600d60248201526c4e6f74206f6e2061207465616d60981b6044820152606401610c0b565b6001600160a01b0381166000908152606c602052604090205460ff166122965760405162461bcd60e51b8152600401610c0b9061452c565b336000908152606b60209081526040808320600101546201000090046001600160a01b03168352606c90915290205460ff166123085760405162461bcd60e51b815260206004820152601160248201527013dddb881519585b48191a5cd8589b1959607a1b6044820152606401610c0b565b34600061231660028361473d565b905061232360028361473d565b61232d9083614751565b915061233a60028261473d565b6079600082825461234b91906146e1565b9091555061235c905060028261473d565b6123669082614751565b607654610100900461ffff166000908152606f60205260408120805492935083929091906123959084906146e1565b9091555050336000908152606b60205260408120600101546201000090046001600160a01b0316906123c78447614751565b90506000826001600160a01b03166370a08231306040518263ffffffff1660e01b81526004016123f79190614458565b60206040518083038186803b15801561240f57600080fd5b505afa158015612423573d6000803e3d6000fd5b505050506040513d601f19601f82011682018060405250810190612447919061427a565b905061245285613a33565b6040516370a0823160e01b81526000906001600160a01b038516906370a0823190612481903090600401614458565b60206040518083038186803b15801561249957600080fd5b505afa1580156124ad573d6000803e3d6000fd5b505050506040513d601f19601f820116820180604052508101906124d1919061427a565b905081811161250e5760405162461bcd60e51b81526020600482015260096024820152684e6f20546f6b656e7360b81b6044820152606401610c0b565b47831461255c5760405162461bcd60e51b815260206004820152601c60248201527b10dbdb9d1c9858dd081155120810985b185b98d94818da185b99d95960221b6044820152606401610c0b565b61256534613bae565b336000908152606b602052604081208054600192906125859084906146e1565b9091555050336000908152606b6020526040812060020180543492906125ac9084906146e1565b90915550506001600160a01b0387166000908152606c6020526040812060010180543492906125dc9084906146e1565b90915550506040513481526001600160a01b0388169033907f07fc6d85ef6db5c911f925dd0be5e0b6139a4d732479327729330fcf4ab15e2d9060200160405180910390a350505050505050565b3361263361182b565b6001600160a01b0316146126595760405162461bcd60e51b8152600401610c0b906145a0565b61ffff81166000908152606f602052604090206003015460ff1615156001146126b55760405162461bcd60e51b815260206004820152600e60248201526d119c9bdb481a5cc818db1bdcd95960921b6044820152606401610c0b565b60765460ff1615156001146126fc5760405162461bcd60e51b815260206004820152600d60248201526c14d9585cdbdb8818db1bdcd959609a1b6044820152606401610c0b565b60765461ffff808316610100909204161161274b5760405162461bcd60e51b815260206004820152600f60248201526e141bdbdb081a5cc818dd5c9c995b9d608a1b6044820152606401610c0b565b61ffff81166000908152606f602052604090205461279a5760405162461bcd60e51b815260206004820152600c60248201526b506f6f6c206973207a65726f60a01b6044820152606401610c0b565b61ffff8181166000818152606f602090815260409182902060038101805460ff19169055607654905492519283526101009004909316927f470bf024bfeff9dede1e3a2415f62532c5799737ecaaec5437733e59ac217b48910160405180910390a361ffff8082166000908152606f60205260408082205460765461010090049093168252812080549091906128319084906146e1565b909155505061ffff166000908152606f6020526040812055565b6001600160a01b038082166000908152606b60205260408082206001015490516370a0823160e01b8152919262010000909104169081906370a0823190612896908690600401614458565b60206040518083038186803b1580156128ae57600080fd5b505afa1580156128c2573d6000803e3d6000fd5b505050506040513d601f19601f820116820180604052508101906128e6919061427a565b9392505050565b336128f661182b565b6001600160a01b03161461291c5760405162461bcd60e51b8152600401610c0b906145a0565b60765460ff161561295d5760405162461bcd60e51b815260206004820152600b60248201526a29b2b0b9b7b71027b832b760a91b6044820152606401610c0b565b6001607660018282829054906101000a900461ffff1661297d91906146bb565b825461ffff91821661010093840a90810290830219909116179092556076805460ff19166001179081905560685460405163f33f523360e01b8152929091049092166004820152600760248201526001600160a01b03909116915063f33f523390604401600060405180830381600087803b1580156129fb57600080fd5b505af1158015612a0f573d6000803e3d6000fd5b505060765460405161010090910461ffff1692503391507f5a50928cc9965b99c403a9f54c05589bf0acb2208356788f730a70d05df5253e90600090a3565b33612a5761182b565b6001600160a01b031614612a7d5760405162461bcd60e51b8152600401610c0b906145a0565b6001600160a01b038116612ae25760405162461bcd60e51b815260206004820152602660248201527f4f776e61626c653a206e6577206f776e657220697320746865207a65726f206160448201526564647265737360d01b6064820152608401610c0b565b612aeb81613647565b50565b6000606080836001600160a01b031663313ce5676040518163ffffffff1660e01b815260040160206040518083038186803b158015612b2c57600080fd5b505afa158015612b40573d6000803e3d6000fd5b505050506040513d601f19601f82011682018060405250810190612b649190614380565b846001600160a01b03166395d89b416040518163ffffffff1660e01b815260040160006040518083038186803b158015612b9d57600080fd5b505afa158015612bb1573d6000803e3d6000fd5b505050506040513d6000823e601f3d908101601f19168201604052612bd99190810190614169565b856001600160a01b03166306fdde036040518163ffffffff1660e01b815260040160006040518083038186803b158015612c1257600080fd5b505afa158015612c26573d6000803e3d6000fd5b505050506040513d6000823e601f3d908101601f19168201604052612c4e9190810190614169565b9250925092509193909250565b60685460009081906001600160a01b0316630ef7cc8e85858481612c8157612c81614891565b905060200201356040518263ffffffff1660e01b8152600401612ca691815260200190565b6040805180830381600087803b158015612cbf57600080fd5b505af1158015612cd3573d6000803e3d6000fd5b505050506040513d601f19601f82011682018060405250810190612cf79190614232565b915091508060ff16600114612d405760405162461bcd60e51b815260206004820152600f60248201526e4669727374206361726420213d203160881b6044820152606401610c0b565b606854604051631b24783f60e21b815261ffff841660048201526000916001600160a01b031690636c91e0fc90602401602060405180830381600087803b158015612d8a57600080fd5b505af1158015612d9e573d6000803e3d6000fd5b505050506040513d601f19601f82011682018060405250810190612dc29190614380565b905060ff81168414612e095760405162461bcd60e51b815260206004820152601060248201526f57726f6e67206e206f6620636172647360801b6044820152606401610c0b565b60005b8160ff168160ff1610156130ab5760685433906001600160a01b0316636352211e888860ff8616818110612e4257612e42614891565b905060200201356040518263ffffffff1660e01b8152600401612e6791815260200190565b60206040518083038186803b158015612e7f57600080fd5b505afa158015612e93573d6000803e3d6000fd5b505050506040513d601f19601f82011682018060405250810190612eb79190613f94565b6001600160a01b031614612edd5760405162461bcd60e51b8152600401610c0b90614624565b60685460009081906001600160a01b0316630ef7cc8e898960ff8716818110612f0857612f08614891565b905060200201356040518263ffffffff1660e01b8152600401612f2d91815260200190565b6040805180830381600087803b158015612f4657600080fd5b505af1158015612f5a573d6000803e3d6000fd5b505050506040513d601f19601f82011682018060405250810190612f7e9190614232565b915091508561ffff168261ffff1614612fc55760405162461bcd60e51b815260206004820152600960248201526815dc9bdb99c81cd95d60ba1b6044820152606401610c0b565b612fd0836001614718565b60ff168160ff16146130195760405162461bcd60e51b81526020600482015260126024820152712bb937b73390373ab6b132b917b7b93232b960711b6044820152606401610c0b565b6068546001600160a01b031663bbfb2ac3898960ff871681811061303f5761303f614891565b905060200201356040518263ffffffff1660e01b815260040161306491815260200190565b600060405180830381600087803b15801561307e57600080fd5b505af1158015613092573d6000803e3d6000fd5b50505050505080806130a39061481b565b915050612e0c565b50606854604051633c47200760e21b81526001600160a01b039091169063f11c801c906130e1903390879060009060040161446c565b600060405180830381600087803b1580156130fb57600080fd5b505af115801561310f573d6000803e3d6000fd5b5050600080805260756020527ff9e3fbf150b7a0077118526f473c53cb4734f166167e2c6213e3567dd390b4ad8054600194509092506131509084906146e1565b909155505060405161ffff84169033907f054d4834ab43b4965f47bab5adcf41a1afde5d2fb732d0cb6de1b2a1fd48492090600090a35050505050565b6000607954116131ca5760405162461bcd60e51b81526020600482015260086024820152674e6f2066756e647360c01b6044820152606401610c0b565b607b546001600160a01b031633146131e157600080fd5b6079805460009182905560405190916001600160a01b0384169183156108fc0291849190818181858888f193505050501580156112c6573d6000803e3d6000fd5b600054610100900460ff168061323b575060005460ff16155b6132575760405162461bcd60e51b8152600401610c0b90614552565b600054610100900460ff16158015613279576000805461ffff19166101011790555b61328233613647565b8015612aeb576000805461ff001916905550565b60006132a3826040614718565b905060038560ff1611156132ec5760405162461bcd60e51b815260206004820152601060248201526f546f6f206d616e7920636f6d6d6f6e7360801b6044820152606401610c0b565b83156133f1576132fd600182614718565b9050600061330d600285846135eb565b613318906005614718565b606854607654604051633c47200760e21b81529293506001600160a01b039091169163f11c801c9161335a913391610100900461ffff1690869060040161446c565b600060405180830381600087803b15801561337457600080fd5b505af1158015613388573d6000803e3d6000fd5b5050505060ff811660009081526075602052604081208054600192906133af9084906146e1565b90915550506076546040516001815260ff831691610100900461ffff169033906000805160206149008339815191529060200160405180910390a45050613510565b60005b8560ff168160ff16101561350d5761340d600183614718565b9150600061341d600386856135eb565b613428906001614718565b606854607654604051633c47200760e21b81529293506001600160a01b039091169163f11c801c9161346a913391610100900461ffff1690869060040161446c565b600060405180830381600087803b15801561348457600080fd5b505af1158015613498573d6000803e3d6000fd5b5050505060ff811660009081526075602052604081208054600192906134bf9084906146e1565b90915550506076546040516000815260ff831691610100900461ffff169033906000805160206149008339815191529060200160405180910390a450806135058161481b565b9150506133f4565b50505b50505050565b6078546065546040516370a0823160e01b8152600092916001600160a01b0316906370a082319061354b903090600401614458565b60206040518083038186803b15801561356357600080fd5b505afa158015613577573d6000803e3d6000fd5b505050506040513d601f19601f8201168201806040525081019061359b919061427a565b10156135d85760405162461bcd60e51b815260206004820152600c60248201526b496e737566662e204c494e4b60a01b6044820152606401610c0b565b6135e6607754607854613cf8565b905090565b60006135f8846001614718565b60ff16838360405160200161362492919091825260f81b6001600160f81b031916602082015260210190565b6040516020818303038152906040528051906020012060001c611823919061483b565b603380546001600160a01b038381166001600160a01b0319831681179093556040519116919082907f8be0079c531659141344cd1fd0a4f28419497f9722a3daafe3b4186f6b6457e090600090a35050565b6000828152606a6020526040902054600160a01b900460ff16156136bb575050565b6000828152606a602090815260408083208054600160a01b60ff60a01b198216178255600282018690556001600160a01b039081168552606b8452828520600301805460018181018355918752948620909401879055928101549054909216835282206004018054919290916137329084906146e1565b90915550506000828152606a60209081526040918290205491518381526001600160a01b03909216917f7c60319fddbd1105e15717e9f58f46e138c9be12e09518444fbf504acf192c32910160405180910390a25050565b607654610100900461ffff166000908152606f602052604090206003015460ff16156137e75760405162461bcd60e51b815260206004820152600c60248201526b2837b7b61034b99037b832b760a11b6044820152606401610c0b565b607654610100900461ffff166000908152606f60205260409020544710156138495760405162461bcd60e51b815260206004820152601560248201527424b739bab3331710333ab73239903a379037b832b760591b6044820152606401610c0b565b607654610100900461ffff166000908152606f602052604090205461389d5760405162461bcd60e51b815260206004820152600a6024820152694e6f2062616c616e636560b01b6044820152606401610c0b565b60765461ffff610100909104166000908152606f602090815260408220600301805460ff19166001179055607590527fbf2b27a7a1410f04f950972b0ded6b16425657bcade07b1d8115d04fade73ce654600690915260008051602061492083398151915254811115613926575060066000526075602052600080516020614920833981519152545b6007600052607560205260008051602061494083398151915254811115613963575060076000526075602052600080516020614940833981519152545b8061396c575060015b6076805461ffff6101009182900481166000908152606f602052604080822060019081018790559454939093049091168152209081015490546139af919061473d565b6076805461ffff6101009182900481166000908152606f602090815260408083206002908101979097559454939093049091168082529083902060018101548154919095015484519586529285015291830152907f537587524103180ad6547d634cc0995076e10eddb48d6a2ef8d6f2f657368e1e9060600160405180910390a250565b6040805160028082526060820183526000926020830190803683375050606954604080516315ab88c960e31b815290519394506001600160a01b039091169263ad5c464892506004808301926020929190829003018186803b158015613a9857600080fd5b505afa158015613aac573d6000803e3d6000fd5b505050506040513d601f19601f82011682018060405250810190613ad09190613f94565b81600081518110613ae357613ae3614891565b6001600160a01b03928316602091820292909201810191909152336000908152606b90915260409020600190810154835162010000909104909216918391908110613b3057613b30614891565b6001600160a01b03928316602091820292909201015260695460405163b6f9de9560e01b815291169063b6f9de95908490613b7890600090869061dead9042906004016144d7565b6000604051808303818588803b158015613b9157600080fd5b505af1158015613ba5573d6000803e3d6000fd5b50505050505050565b607054811015613bbb5750565b607154811015613c0657336000908152606b60209081526040822060050180546001810182559083529181902090820401805460ff601f9093166101000a9283021916909117905550565b607254811015613c575750336000908152606b60209081526040822060050180546001810182559083529181902090820401805460ff601f9093166101000a92830219166002909202919091179055565b607354811015613ca85750336000908152606b60209081526040822060050180546001810182559083529181902090820401805460ff601f9093166101000a92830219166003909202919091179055565b6073548110612aeb5750336000908152606b60209081526040822060050180546001810182559083529181902090820401805460ff601f9093166101000a92830219166004909202919091179055565b606554606654604080516020810186905260008183018190528251808303840181526060830193849052630200057560e51b909352936001600160a01b0390811693634000aea093613d54939290911691879190606401614494565b602060405180830381600087803b158015613d6e57600080fd5b505af1158015613d82573d6000803e3d6000fd5b505050506040513d601f19601f82011682018060405250810190613da6919061412a565b50600083815260676020818152604080842054815180840189905280830186905230606082015260808082018390528351808303909101815260a090910190925281519183019190912093879052919052613e029060016146e1565b6000858152606760205260409020556118238482604080516020808201949094528082019290925280518083038201815260609092019052805191012090565b50805460008255601f016020900490600052602060002090810190612aeb9190613f62565b82805482825590600052602060002090601f01602090048101928215613eb557600052602060002091601f016020900482015b82811115613eb5578254825591600101919060010190613e9a565b50613ec1929150613f62565b5090565b82805482825590600052602060002090601f01602090048101928215613eb55791602002820160005b83821115613f2c57835183826101000a81548160ff021916908360ff1602179055509260200192600101602081600001049283019260010302613eee565b8015613f595782816101000a81549060ff0219169055600101602081600001049283019260010302613f2c565b5050613ec19291505b5b80821115613ec15760008155600101613f63565b600060208284031215613f8957600080fd5b81356128e6816148bd565b600060208284031215613fa657600080fd5b81516128e6816148bd565b60008060408385031215613fc457600080fd5b8235613fcf816148bd565b946020939093013593505050565b600080600080600080600060e0888a031215613ff857600080fd5b8735614003816148bd565b96506020880135614013816148bd565b95506040880135614023816148bd565b94506060880135614033816148bd565b93506080880135614043816148bd565b9699959850939692959460a0840135945060c09093013592915050565b6000806040838503121561407357600080fd5b823561407e816148bd565b9150602083013561408e816148d2565b809150509250929050565b600080602083850312156140ac57600080fd5b82356001600160401b03808211156140c357600080fd5b818501915085601f8301126140d757600080fd5b8135818111156140e657600080fd5b8660208260051b85010111156140fb57600080fd5b60209290920196919550909350505050565b60006020828403121561411f57600080fd5b81356128e6816148d2565b60006020828403121561413c57600080fd5b81516128e6816148d2565b6000806040838503121561415a57600080fd5b50508035926020909101359150565b60006020828403121561417b57600080fd5b81516001600160401b038082111561419257600080fd5b818401915084601f8301126141a657600080fd5b8151818111156141b8576141b86148a7565b604051601f8201601f19908116603f011681019083821181831017156141e0576141e06148a7565b816040528281528760208487010111156141f957600080fd5b61420a8360208301602088016147b0565b979650505050505050565b60006020828403121561422757600080fd5b81356128e6816148e0565b6000806040838503121561424557600080fd5b8251614250816148e0565b602084015190925061408e816148f0565b60006020828403121561427357600080fd5b5035919050565b60006020828403121561428c57600080fd5b5051919050565b600080604083850312156142a657600080fd5b82359150602083013561408e816148e0565b600080600080608085870312156142ce57600080fd5b5050823594602084013594506040840135936060013592509050565b60008060008060008060c0878903121561430357600080fd5b863595506020870135614315816148f0565b94506040870135614325816148f0565b93506060870135614335816148f0565b92506080870135614345816148f0565b915060a0870135614355816148f0565b809150509295509295509295565b60006020828403121561437557600080fd5b81356128e6816148f0565b60006020828403121561439257600080fd5b81516128e6816148f0565b6000806000606084860312156143b257600080fd5b83356143bd816148f0565b925060208401356143cd816148f0565b915060408401356143dd816148f0565b809150509250925092565b600081518084526020808501945080840160005b838110156144215781516001600160a01b0316875295820195908201906001016143fc565b509495945050505050565b600081518084526144448160208601602086016147b0565b601f01601f19169290920160200192915050565b6001600160a01b0391909116815260200190565b6001600160a01b0393909316835261ffff91909116602083015260ff16604082015260600190565b60018060a01b03841681528260208201526060604082015260006144bb606083018461442c565b95945050505050565b6020815260006128e660208301846143e8565b8481526080602082015260006144f060808301866143e8565b6001600160a01b03949094166040830152506060015292915050565b60208082526006908201526510db1bdcd95960d21b604082015260600190565b6020808252600c908201526b1519585b481a5b9d985b1a5960a21b604082015260600190565b6020808252602e908201527f496e697469616c697a61626c653a20636f6e747261637420697320616c72656160408201526d191e481a5b9a5d1a585b1a5e995960921b606082015260800190565b6020808252818101527f4f776e61626c653a2063616c6c6572206973206e6f7420746865206f776e6572604082015260600190565b6020808252600b908201526a11d85b594818db1bdcd95960aa1b604082015260600190565b60208082526010908201526f4e6f20626f6f73746572207061636b7360801b604082015260600190565b6020808252600d908201526c2737ba1027232a1037bbb732b960991b604082015260600190565b93845260208401929092526040830152606082015260800190565b60ff84168152606060208201526000614682606083018561442c565b8281036040840152614694818561442c565b9695505050505050565b60ff93841681529183166020830152909116604082015260600190565b600061ffff8083168185168083038211156146d8576146d861484f565b01949350505050565b600082198211156146f4576146f461484f565b500190565b600063ffffffff8083168185168083038211156146d8576146d861484f565b600060ff821660ff84168060ff038211156147355761473561484f565b019392505050565b60008261474c5761474c614865565b500490565b6000828210156147635761476361484f565b500390565b600063ffffffff838116908316818110156147855761478561484f565b039392505050565b600060ff821660ff8416808210156147a7576147a761484f565b90039392505050565b60005b838110156147cb5781810151838201526020016147b3565b838111156135105750506000910152565b60006000198214156147f0576147f061484f565b5060010190565b600063ffffffff808316818114156148115761481161484f565b6001019392505050565b600060ff821660ff8114156148325761483261484f565b60010192915050565b60008261484a5761484a614865565b500690565b634e487b7160e01b600052601160045260246000fd5b634e487b7160e01b600052601260045260246000fd5b634e487b7160e01b600052603160045260246000fd5b634e487b7160e01b600052603260045260246000fd5b634e487b7160e01b600052604160045260246000fd5b6001600160a01b0381168114612aeb57600080fd5b8015158114612aeb57600080fd5b61ffff81168114612aeb57600080fd5b60ff81168114612aeb57600080fdfeae2aeeb4e80ee6199a75aa22a8a5023976e2e0e225f2eb79c0e81a3bca20ef41d5783722f315d20f31f46ea3c1e62a4b3da99fe6b1075a929a84c008f14abafbf2c34ea9d1353585c4bcc3064ed6c7a52d276785b6826504e37502c3d335287ca264697066735822122035c7a92065dc5ec921df17093ab41e25546827757e9b7e6a0994e4bd056a43e964736f6c63430008060033",
  "immutableReferences": {},
  "source": "// SPDX-License-Identifier: MIT\r\npragma solidity ^0.8.0;\r\n\r\nimport \"@uniswap/v2-periphery/contracts/interfaces/IUniswapV2Router02.sol\";\r\nimport \"@openzeppelin/contracts/token/ERC721/IERC721.sol\";\r\nimport \"@openzeppelin/contracts-upgradeable/access/OwnableUpgradeable.sol\";\r\n\r\nimport \"./IBEP20.sol\";\r\nimport \"./ProxySafeVRFConsumerBase.sol\";\r\n\r\n// import \"./ProxySafeOwnable.sol\";\r\n\r\ninterface IRewardNFT is IERC721 {\r\n    function mint(address to, uint16 set, uint8 number) external;\r\n    function metadataOf(uint256 id) external returns (uint16, uint8);\r\n    function totalCardsOf(uint16 id) external returns (uint8);\r\n    function forgeBurn(uint256 id) external;\r\n    function addSet(uint16 set, uint8 number) external;\r\n}\r\n\r\ncontract piggyGame is OwnableUpgradeable, ProxySafeVRFConsumerBase  {\r\n    // using Address for address;\r\n\r\n    // Reward NFT address\r\n    IRewardNFT public rewardNFT;\r\n    \r\n    // The swap router, modifiable.\r\n    IUniswapV2Router02 public pancakeSwapRouter;\r\n\r\n    // Chainlink randomness requests\r\n    struct ChainlinkRequest {\r\n        address requester;\r\n        bool fulfilled;\r\n        uint8[] grades;\r\n        uint256 seed;\r\n    }\r\n\r\n    mapping(bytes32 => ChainlinkRequest) requests;\r\n\r\n    struct BoosterPack {\r\n        uint256 seed;\r\n        uint8[] grades;\r\n    }\r\n\r\n    struct Player {\r\n        uint256 gamesPlayed;\r\n        uint16 season;\r\n        address team;\r\n        uint32 winsBeforeJoin;\r\n        uint256 experience;\r\n        bytes32[] boosterPacks;\r\n        uint256 numBoosterPacks;\r\n        uint8[] unclaimedPacks;\r\n    }\r\n    // Players\r\n    mapping(address => Player) public players;\r\n\r\n    struct Team {\r\n        bool enabled;\r\n        uint32 wins;\r\n        uint256 damagePoints;\r\n    }\r\n\r\n    // Teams\r\n    mapping(address => Team) public teams;\r\n\r\n    address[] public activeTeams;\r\n\r\n    // User Balance (unused)\r\n    mapping(address => uint256) public balances;\r\n\r\n    struct RewardPool {\r\n        uint256 balance; // BNB Balance\r\n        uint256 remainingClaims; // claims not yet made\r\n        uint256 rewardPerNFT; // How much each NFT gets\r\n        bool open; // Whether it can be withdrawn from\r\n        mapping(uint256 => bool) nftsClaimed; // ID of NFTs that have already claimed this prize\r\n    }\r\n    // Reward pools (season -> pools)\r\n    mapping (uint16 => RewardPool) public rewardPools;\r\n    \r\n    // Thresholds for different booster pack grades\r\n    struct Thresholds {\r\n        uint256 grade1;\r\n        uint256 grade2;\r\n        uint256 grade3;\r\n        uint256 grade4;\r\n    }\r\n\r\n    Thresholds rewardThresholds;\r\n    \r\n    struct RareChance {\r\n        uint8 grade2;\r\n        uint8 grade3;\r\n        uint8 grade4;\r\n    }\r\n    RareChance public rareChance;\r\n\r\n    mapping (uint8 => uint256) public createdCards; // Counter for each card number created\r\n    \r\n    bool public open;\r\n\r\n    uint16 public season;\r\n    \r\n    // Chainlink\r\n    bytes32 internal keyHash;\r\n    uint256 internal fee;\r\n\r\n    // Dev rewards\r\n    uint256 public devPool;\r\n\r\n    uint256 public redeemFee;\r\n\r\n    address public feeDestination;\r\n\r\n    function initialize(address _piggyToken, address _secondToken, address _router, address _coordinator, address _linkToken, bytes32 _hash, uint256 _fee) external initializer {\r\n\r\n        vrfCoordinator = _coordinator;\r\n        LINK = LinkTokenInterface(_linkToken);\r\n\r\n        keyHash = _hash;\r\n        fee = _fee;\r\n        pancakeSwapRouter = IUniswapV2Router02(_router);\r\n\r\n        rareChance = RareChance({\r\n            grade2: 60, // 1 in 30 Chance\r\n            grade3: 10, // 1 in 10 Chance\r\n            grade4: 5   // 1 in 5 Chance\r\n        });\r\n\r\n        feeDestination = msg.sender;\r\n        OwnableUpgradeable.__Ownable_init_unchained();\r\n        redeemFee = 10000000000000000;\r\n        // Loss target: 0.003, 0.01, 0.06, 0.12 BNB\r\n        setThresholds(3 * 10**15, 1*10**16, 6*10**16, 12*10**16);\r\n        addTeam(_piggyToken);\r\n\r\n        addTeam(_secondToken);\r\n    }\r\n\r\n    event SeasonClose(address indexed owner, uint32 indexed season, address indexed winner);\r\n    event SeasonOpen(address indexed owner, uint32 indexed season);\r\n    event TeamAdded(address indexed owner, address indexed team);\r\n    event JoinedGame(address indexed player, uint256 indexed season, address indexed team);\r\n    event Attack(address indexed player, address indexed team, uint256 amount);\r\n    event ReceivedBoosterPack(address indexed requester, uint256 randomness);\r\n    event BoosterPackOpened(address indexed player, uint8 nonce);\r\n    event NFTAwarded(address indexed player, uint16 indexed set, uint8 indexed number, bool rare);\r\n    event LegendaryForged(address indexed player, uint16 indexed set);\r\n    event ThresholdsSet(address indexed owner, uint256 grade1, uint256 grade2, uint256 grade3, uint256 grade4);\r\n    event RareChanceSet(address indexed owner, uint256 grade2, uint256 grade3, uint256 grade4);\r\n    event PoolOpened(uint16 indexed season, uint256 totalClaims, uint256 initialBalance, uint256 rewardPerNFT);\r\n    event LegendaryRewardClaimed(uint16 indexed rewardSeason, uint16 indexed currentSeason, uint256 indexed NFT, uint16 NFTSet);\r\n    event PoolClosedAndFundsTransferred(uint16 indexed poolSeason, uint16 indexed currentSeason, uint256 amount);\r\n\r\n    // To receive BNB from pancakeSwapRouter when swapping\r\n    receive() external payable {}\r\n\r\n    function getRedeemFee() external view returns (uint256) {\r\n        return redeemFee;\r\n    }\r\n    function isGameOpen() external view returns (bool) {\r\n        return open;\r\n    }\r\n    function currentSeason() external view returns (uint16) {\r\n        return season;\r\n    }\r\n    function boosterPackBalanceOf(address _player) external view returns(uint256){\r\n        return players[_player].numBoosterPacks;\r\n    }\r\n    function totalExperienceOf(address _player) external view returns(uint256){\r\n        return players[_player].experience;\r\n    }\r\n    function teamOf(address _player) external view returns(address){\r\n        return players[_player].team;\r\n    }\r\n    function getThresholds() external view returns(uint256, uint256, uint256, uint256) {\r\n        return (rewardThresholds.grade1, rewardThresholds.grade2, rewardThresholds.grade3, rewardThresholds.grade4);\r\n    }\r\n    function getRareChances() external view returns(uint8, uint8, uint8) {\r\n        return (rareChance.grade2, rareChance.grade3, rareChance.grade4);\r\n    }\r\n    function teamDamageOf(address teamId) external view returns(uint256) {\r\n        return teams[teamId].damagePoints;\r\n    }\r\n    function teamWinsOf(address teamId) external view returns(uint32) {\r\n        return teams[teamId].wins;\r\n    }\r\n    function getActiveTeams() external view returns(address[] memory) {\r\n        return activeTeams;\r\n    }\r\n    function playerWins(address _player) external view returns(uint32){\r\n        address team = players[_player].team;\r\n        uint32 winsBeforeJoin = players[_player].winsBeforeJoin;\r\n        require(teams[team].wins >= winsBeforeJoin, \"Wins before join higher than total wins\");\r\n        return teams[team].wins - winsBeforeJoin;\r\n    }\r\n    function tokenInfo(address teamAddress) external view returns (uint8, string memory, string memory) {\r\n        return (IBEP20(teamAddress).decimals(), IBEP20(teamAddress).symbol(), IBEP20(teamAddress).name());\r\n    }\r\n\r\n    function tokenBalanceOf(address player) external view returns (uint256) {\r\n        address teamAddress = players[player].team;\r\n        return IBEP20(teamAddress).balanceOf(player);\r\n    }\r\n    function unclaimedBoosterPacksOf(address player) external view returns (uint256) {\r\n        return players[player].unclaimedPacks.length;\r\n    }\r\n\r\n    function isNFTRedeemable(uint256 nftId, uint16 poolId) external view returns (bool) {\r\n        return rewardPools[poolId].nftsClaimed[nftId] == false;\r\n    }\r\n    function setOpen(bool isOpen) external onlyOwner {\r\n        open = isOpen;\r\n    }\r\n    function setSeason(uint16 _season) external onlyOwner {\r\n        season = _season;\r\n    }\r\n    function openSeason() external onlyOwner {\r\n        require(open == false, \"Season Open\");\r\n        season += 1;\r\n        open = true;\r\n        rewardNFT.addSet(season, 7);\r\n        emit SeasonOpen(msg.sender, season);\r\n    }\r\n    function closeSeason() external onlyOwner {\r\n        open = false;\r\n        uint256 lowestDamagePoints = teams[activeTeams[0]].damagePoints;\r\n        address winningTeam = activeTeams[0];\r\n        for (uint32 i = 0; i < activeTeams.length; i++) {\r\n            uint256 teamDamagePoints = teams[activeTeams[i]].damagePoints;\r\n            if (teamDamagePoints < lowestDamagePoints){\r\n                lowestDamagePoints = teamDamagePoints;\r\n                winningTeam = activeTeams[i];\r\n            }\r\n            teams[activeTeams[i]].damagePoints = 0;\r\n        }\r\n        teams[winningTeam].wins += 1;\r\n        openPool();\r\n        emit SeasonClose(msg.sender, season, winningTeam);\r\n    }\r\n\r\n    function addTeam(address teamTokenAddress) public onlyOwner {\r\n        teams[teamTokenAddress].enabled = true;\r\n        activeTeams.push(teamTokenAddress);\r\n        emit TeamAdded(msg.sender, teamTokenAddress);\r\n    }\r\n    function withdrawAllDevETH(address payable _to) external {\r\n        require(devPool > 0, \"No funds\");\r\n        require(msg.sender == feeDestination);\r\n        uint256 withdrawAmount = devPool;\r\n        devPool = 0;\r\n        _to.transfer(withdrawAmount);\r\n    }\r\n    function changeFeeDestination(address newFeeDestination) external {\r\n        require(msg.sender == feeDestination);\r\n        feeDestination = newFeeDestination;\r\n    }\r\n    function withdrawLink(address payable _to, uint256 amount) external onlyOwner {\r\n        LINK.transfer(_to, amount);\r\n    }\r\n    function setFeesAndJoinReq(uint256 newRedeemFee) external onlyOwner {\r\n        redeemFee = newRedeemFee;\r\n    }\r\n    function setTeamEnabled(address teamAddress, bool enabled) external onlyOwner {\r\n        teams[teamAddress].enabled = enabled;\r\n    }\r\n    /**\r\n     * @dev Update the swap router.\r\n     * Can only be called by the current operator.\r\n     */\r\n    function updatePancakeSwapRouter(address _router) external onlyOwner {\r\n        pancakeSwapRouter = IUniswapV2Router02(_router);\r\n    }\r\n    function updateNFTAddress(IRewardNFT _rewardNFTAddress) external onlyOwner {\r\n        rewardNFT = _rewardNFTAddress;\r\n    }\r\n\r\n    function join(address teamTokenAddress) external {\r\n        require(open, \"Game closed\");\r\n        require(players[msg.sender].team == address(0));\r\n        require(teams[teamTokenAddress].enabled == true, \"Team invalid\");\r\n        players[msg.sender].team = teamTokenAddress;\r\n        emit JoinedGame(msg.sender, season, teamTokenAddress);\r\n    }\r\n\r\n    function attack(address team) external payable {\r\n        require(open, \"Game closed\");\r\n        require(season > 0, \"Season 0\");\r\n        require(msg.value > 0, \"No BNB\");\r\n        require(players[msg.sender].team != team, \"Friendly Fire\");\r\n        require(players[msg.sender].team != address(0), \"Not on a team\");\r\n        require(teams[team].enabled, \"Team invalid\");\r\n        require(teams[players[msg.sender].team].enabled, \"Own Team disabled\");\r\n        \r\n        // Taking fees\r\n\r\n        uint256 userDeposit = msg.value; // msg.value: the total deposit\r\n\r\n        uint256 feeTaken = userDeposit/2; // fee: the part taken as a fee, 50%\r\n        userDeposit -= userDeposit/2; // userDeposit: the part used for the attack\r\n\r\n        devPool += feeTaken/2; // Half of the fee goes to the devs\r\n        feeTaken -= feeTaken/2;\r\n\r\n        rewardPools[season].balance += feeTaken; // Half of the fee goes to the rewards pool\r\n\r\n        // Attack\r\n\r\n        // The team's corresponding token\r\n        IBEP20 teamToken = IBEP20(players[msg.sender].team);\r\n        uint256 initialETHBalance = address(this).balance - userDeposit;\r\n        uint256 initialTokenBalance = teamToken.balanceOf(address(this));\r\n        swapEthForTokensAndBurn(userDeposit); // Buy tokens for ETH\r\n        uint256 finalTokenBalance = teamToken.balanceOf(address(this));\r\n        require(finalTokenBalance > initialTokenBalance, \"No Tokens\");\r\n        require(initialETHBalance == address(this).balance, \"Contract ETH Balance changed\");\r\n\r\n        requestReward(msg.value);\r\n        players[msg.sender].gamesPlayed += 1;\r\n        players[msg.sender].experience += msg.value;\r\n        teams[team].damagePoints += msg.value;\r\n        emit Attack(\r\n        msg.sender, \r\n        team,\r\n        msg.value);\r\n    }\r\n\r\n    function getRandomNumber() private returns (bytes32 requestId) {\r\n        require(LINK.balanceOf(address(this)) >= fee, \"Insuff. LINK\");\r\n        return requestRandomness(keyHash, fee);\r\n    }\r\n\r\n    function requestReward(uint256 amount) private {\r\n        if (amount < rewardThresholds.grade1) {\r\n            return;\r\n        }\r\n        if (amount < rewardThresholds.grade2) {\r\n            players[msg.sender].unclaimedPacks.push(1);\r\n        } else if (amount < rewardThresholds.grade3) {\r\n            players[msg.sender].unclaimedPacks.push(2);\r\n        } else if (amount < rewardThresholds.grade4) {\r\n            players[msg.sender].unclaimedPacks.push(3);\r\n        } else if (amount >= rewardThresholds.grade4) {\r\n            players[msg.sender].unclaimedPacks.push(4);\r\n        }\r\n    }\r\n\r\n    function fulfillRandomness(bytes32 requestId, uint256 randomness) internal override {\r\n        if (requests[requestId].fulfilled) {\r\n            return;\r\n        }\r\n        requests[requestId].fulfilled = true;\r\n        requests[requestId].seed = randomness;\r\n        players[requests[requestId].requester].boosterPacks.push(requestId);\r\n        players[requests[requestId].requester].numBoosterPacks += requests[requestId].grades.length;\r\n        emit ReceivedBoosterPack(requests[requestId].requester, randomness);\r\n    }\r\n    function claimBoosterPacks() external payable {\r\n        require(open, \"Closed\");\r\n        require(players[msg.sender].unclaimedPacks.length > 0, \"No booster packs\");\r\n        require(msg.value == redeemFee, \"Fee required\");\r\n        uint256 userDeposit = msg.value;\r\n        devPool += userDeposit/2;\r\n        userDeposit -= userDeposit/2;\r\n        rewardPools[season].balance += userDeposit;\r\n        bytes32 requestId = getRandomNumber();\r\n        requests[requestId].requester = msg.sender;\r\n        requests[requestId].fulfilled = false;\r\n        requests[requestId].grades = players[msg.sender].unclaimedPacks;\r\n        // Reset player unclaimed packs\r\n        players[msg.sender].unclaimedPacks = new uint8[](0);\r\n    }\r\n    function unpackBoosterPack() external {\r\n        require(open, \"Closed\");\r\n        uint numPacks = players[msg.sender].boosterPacks.length;\r\n        require(numPacks > 0, \"No booster packs\");\r\n        bytes32 requestId = players[msg.sender].boosterPacks[numPacks-1];\r\n        uint256 seed = requests[requestId].seed;\r\n\r\n        uint256 numGrades = requests[requestId].grades.length;\r\n        for (uint256 i = 0; i < numGrades; i++) {\r\n            uint8 grade = requests[requestId].grades[i];\r\n            (uint8 numCommon, bool getRare) = getNumRewards(seed, uint8(i), grade, rareChance.grade2-1, rareChance.grade3-1, rareChance.grade4-1);\r\n            assignNFTs(numCommon, getRare, seed, uint8(i));\r\n            emit BoosterPackOpened(msg.sender, uint8(i));\r\n        }\r\n        players[msg.sender].boosterPacks.pop();\r\n        players[msg.sender].numBoosterPacks -= numGrades;\r\n        delete requests[requestId];\r\n    }\r\n\r\n    function getNumRewards(uint256 seed, uint8 nonce, uint8 grade, uint8 grade2RareChance, uint8 grade3RareChance, uint8 grade4RareChance) public pure returns(uint8, bool) { // Common, Rare\r\n        require(grade > 0, \"G. too low\");\r\n        require(grade <= 4, \"G. too high\");\r\n        if (grade == 1) { // Grade 1: 1 in 3 chance of Common NFT, No Rare\r\n            // Common, 1 in 3 chance\r\n            if (getRandomInt(2, seed, nonce) == 0) {\r\n                return (1, false);\r\n            }\r\n        } else if (grade == 2) { // Grade 2: 0 to 1 Common NFTs, 1 in grade2RareChance Chance of Rare\r\n            // Rare\r\n            if (getRandomInt(grade2RareChance, seed, nonce) == 0) {\r\n                return (0, true);\r\n            }\r\n            nonce +=1;\r\n            // Common\r\n            return (getRandomInt(1, seed, nonce), false);\r\n        } else if (grade == 3) { // Grade 2: 0 to 2 Common NFTs, 1 in grade3RareChance Chance of Rare\r\n            // Rare\r\n            if (getRandomInt(grade3RareChance, seed, nonce) == 0) {\r\n                return (0, true);\r\n            }\r\n            nonce +=1;\r\n            // Common\r\n            return (getRandomInt(2, seed, nonce), false);\r\n\r\n        } else if (grade == 4) { // Grade 2: 1 to 3 Common NFTs, 1 in grade4RareChance Chance of Rare\r\n            // Rare\r\n            if (getRandomInt(grade4RareChance, seed, nonce) == 0) {\r\n                return (0, true);\r\n            }\r\n            nonce +=1;\r\n            // Common\r\n            return (getRandomInt(2, seed, nonce) + 1, false);\r\n        }\r\n        return (0, false);\r\n    }\r\n\r\n    function assignNFTs(uint8 numCommon, bool getRare, uint256 seed, uint8 nonceIncrement) private {\r\n        uint8 nonce = 64 + nonceIncrement;\r\n        require(numCommon <= 3, \"Too many commons\");\r\n        if (getRare) {\r\n            nonce +=1;\r\n            // Mint Rare NFT\r\n            uint8 number = getRandomInt(2, seed, nonce) + 5; // 0-2 + 5 = 5-7\r\n            rewardNFT.mint(msg.sender, season, number);\r\n            createdCards[number] += 1;\r\n            emit NFTAwarded(msg.sender, season, number, true);\r\n            return;\r\n        }\r\n        for (uint8 i = 0 ; i < numCommon; i++) {\r\n            nonce += 1;\r\n            // Mint Common NFT\r\n            uint8 number = getRandomInt(3, seed, nonce) + 1; // 0-3 + 1 = 1-4\r\n            rewardNFT.mint(msg.sender, season, number);\r\n            createdCards[number] += 1;\r\n            emit NFTAwarded(msg.sender, season, number, false);\r\n        }\r\n    }\r\n\r\n    function getRandomInt(uint8 max, uint256 seed, uint8 nonce) pure private returns(uint8) {\r\n        return uint8(uint256(keccak256(abi.encodePacked(seed, nonce))) % (max+1));\r\n    }\r\n\r\n    function forgeLegendary(uint256[] calldata ids) external {\r\n        (uint16 cardSet, uint8 _number) = rewardNFT.metadataOf(ids[0]);\r\n        require(_number == 1, \"First card != 1\");\r\n        uint8 totalCards = rewardNFT.totalCardsOf(cardSet);\r\n        require(totalCards == ids.length, \"Wrong n of cards\");\r\n\r\n        for (uint8 i = 0 ; i < totalCards; i++) {\r\n            require(rewardNFT.ownerOf(ids[i]) == msg.sender, \"Not NFT owner\");\r\n            (uint16 set, uint8 number) = rewardNFT.metadataOf(ids[i]);\r\n            require(set == cardSet, \"Wrong set\");\r\n            require(number == (i+1), \"Wrong number/order\"); // Cards are from 1 to totalCards, i is from 0 to totalCards - 1\r\n            rewardNFT.forgeBurn(ids[i]); // Burn NFT\r\n        }\r\n        rewardNFT.mint(msg.sender, cardSet, 0); // Card 0 of set is Legendary\r\n        createdCards[0] += 1;\r\n        emit LegendaryForged(msg.sender, cardSet);\r\n    }\r\n\r\n    function openPool() private {\r\n        require(rewardPools[season].open == false, \"Pool is open\");\r\n        require(address(this).balance >= rewardPools[season].balance, \"Insuff. funds to open\");\r\n        require(rewardPools[season].balance > 0, \"No balance\");\r\n        rewardPools[season].open = true;\r\n        // The rare that has been issued in the smallest number\r\n        uint256 rarestRare = createdCards[5];\r\n        if (createdCards[6] < rarestRare) {\r\n            rarestRare = createdCards[6];\r\n        }\r\n        if (createdCards[7] < rarestRare) {\r\n            rarestRare = createdCards[7];\r\n        }\r\n        if (rarestRare == 0) { // No rares have been issued\r\n            rarestRare = 1;\r\n        }\r\n        // the number of rarest rare issued is the max number of legendaries possible\r\n        rewardPools[season].remainingClaims = rarestRare;\r\n        // Get BNB per claim\r\n        rewardPools[season].rewardPerNFT = rewardPools[season].balance / rewardPools[season].remainingClaims;\r\n        emit PoolOpened(season, rewardPools[season].remainingClaims, rewardPools[season].balance, rewardPools[season].rewardPerNFT);\r\n    }\r\n\r\n    function claimLegendaryReward(uint256 nftId, uint16 rewardSeason) external {\r\n        require(rewardPools[rewardSeason].open == true, \"Claims not open\");\r\n        require(rewardNFT.ownerOf(nftId) == msg.sender, \"Not NFT owner\");\r\n        (uint16 cardSet, uint8 num) = rewardNFT.metadataOf(nftId);\r\n        require(num == 0, \"Not Legendary\");\r\n        require(cardSet <= rewardSeason, \"NFT Season not <= reward season\");\r\n        require(rewardPools[rewardSeason].nftsClaimed[nftId] == false, \"NFT claimed for season\");\r\n        rewardPools[rewardSeason].nftsClaimed[nftId] = true; // Reward claimed for this NFT\r\n\r\n        require(rewardPools[rewardSeason].remainingClaims >= 1, \"No claims left\");\r\n        require(rewardPools[rewardSeason].rewardPerNFT <= rewardPools[rewardSeason].balance, \"Insolvent\");\r\n        rewardPools[rewardSeason].remainingClaims -= 1;\r\n        rewardPools[rewardSeason].balance -= rewardPools[rewardSeason].rewardPerNFT;\r\n        payable(msg.sender).transfer(rewardPools[rewardSeason].rewardPerNFT);\r\n        emit LegendaryRewardClaimed(rewardSeason, season, nftId, cardSet);\r\n    }\r\n\r\n    function transferPoolFunds(uint16 from) external onlyOwner {\r\n        require(rewardPools[from].open == true, \"From is closed\");\r\n        require(open == true, \"Season closed\");\r\n        require(season > from, \"Pool is current\");\r\n        require(rewardPools[from].balance > 0, \"Pool is zero\");\r\n        rewardPools[from].open = false;\r\n        emit PoolClosedAndFundsTransferred(from, season, rewardPools[from].balance);\r\n        rewardPools[season].balance += rewardPools[from].balance;\r\n        rewardPools[from].balance = 0;\r\n    }\r\n    \r\n    function setThresholds(uint256 grade1, uint256 grade2, uint256 grade3, uint256 grade4) public onlyOwner {\r\n        rewardThresholds = Thresholds({\r\n            grade1: grade1, \r\n            grade2: grade2,\r\n            grade3: grade3,\r\n            grade4: grade4\r\n        });\r\n        emit ThresholdsSet(msg.sender, grade1, grade2, grade3, grade4);\r\n    }\r\n\r\n    function setRareChance(uint8 grade2, uint8 grade3, uint8 grade4) external onlyOwner {\r\n        rareChance = RareChance({\r\n            grade2: grade2,\r\n            grade3: grade3,\r\n            grade4: grade4\r\n        });\r\n        emit RareChanceSet(msg.sender, grade2, grade3, grade4);\r\n    }\r\n    \r\n    // @dev Swap tokens for eth\r\n    function swapEthForTokensAndBurn(uint256 EthAmount ) private {\r\n        // generate the testSwap pair path of token -> weth\r\n        address[] memory path = new address[](2);\r\n        path[0] = pancakeSwapRouter.WETH();\r\n        path[1] = players[msg.sender].team;\r\n\r\n        // make the swap\r\n        pancakeSwapRouter.swapExactETHForTokensSupportingFeeOnTransferTokens{value: EthAmount}(\r\n           0 ,// get anything we can\r\n            path,\r\n            address(0x000000000000000000000000000000000000dEaD),\r\n            block.timestamp\r\n        );\r\n    }\r\n\r\n    // function mintNFT(address to, uint16 set, uint8 number) external onlyOwner {\r\n    //     rewardNFT.mint(to, set, number);\r\n    //     createdCards[number] += 1;\r\n    // }\r\n}",
  "sourcePath": "C:\\Users\\moot\\projects\\VolumeWars\\contracts\\piggyGame.sol",
  "compiler": {
    "name": "solc",
    "version": "0.8.6+commit.11564f7e.Emscripten.clang"
  },
  "schemaVersion": "3.4.3",
  "updatedAt": "2021-12-16T11:34:00.183Z",
  "networkType": "ethereum",
  "devdoc": {
    "kind": "dev",
    "methods": {
      "owner()": {
        "details": "Returns the address of the current owner."
      },
      "renounceOwnership()": {
        "details": "Leaves the contract without owner. It will not be possible to call `onlyOwner` functions anymore. Can only be called by the current owner. NOTE: Renouncing ownership will leave the contract without an owner, thereby removing any functionality that is only available to the owner."
      },
      "transferOwnership(address)": {
        "details": "Transfers ownership of the contract to a new account (`newOwner`). Can only be called by the current owner."
      },
      "updatePancakeSwapRouter(address)": {
        "details": "Update the swap router. Can only be called by the current operator."
      }
    },
    "version": 1
  },
  "userdoc": {
    "kind": "user",
    "methods": {},
    "version": 1
  }
}