{
  "contractName": "piggyNFT",
  "abi": [
    {
      "inputs": [
        {
          "internalType": "address",
          "name": "game",
          "type": "address"
        }
      ],
      "stateMutability": "nonpayable",
      "type": "constructor"
    },
    {
      "anonymous": false,
      "inputs": [
        {
          "indexed": true,
          "internalType": "address",
          "name": "owner",
          "type": "address"
        },
        {
          "indexed": true,
          "internalType": "address",
          "name": "approved",
          "type": "address"
        },
        {
          "indexed": true,
          "internalType": "uint256",
          "name": "tokenId",
          "type": "uint256"
        }
      ],
      "name": "Approval",
      "type": "event"
    },
    {
      "anonymous": false,
      "inputs": [
        {
          "indexed": true,
          "internalType": "address",
          "name": "owner",
          "type": "address"
        },
        {
          "indexed": true,
          "internalType": "address",
          "name": "operator",
          "type": "address"
        },
        {
          "indexed": false,
          "internalType": "bool",
          "name": "approved",
          "type": "bool"
        }
      ],
      "name": "ApprovalForAll",
      "type": "event"
    },
    {
      "anonymous": false,
      "inputs": [
        {
          "indexed": false,
          "internalType": "address",
          "name": "account",
          "type": "address"
        }
      ],
      "name": "Paused",
      "type": "event"
    },
    {
      "anonymous": false,
      "inputs": [
        {
          "indexed": true,
          "internalType": "bytes32",
          "name": "role",
          "type": "bytes32"
        },
        {
          "indexed": true,
          "internalType": "bytes32",
          "name": "previousAdminRole",
          "type": "bytes32"
        },
        {
          "indexed": true,
          "internalType": "bytes32",
          "name": "newAdminRole",
          "type": "bytes32"
        }
      ],
      "name": "RoleAdminChanged",
      "type": "event"
    },
    {
      "anonymous": false,
      "inputs": [
        {
          "indexed": true,
          "internalType": "bytes32",
          "name": "role",
          "type": "bytes32"
        },
        {
          "indexed": true,
          "internalType": "address",
          "name": "account",
          "type": "address"
        },
        {
          "indexed": true,
          "internalType": "address",
          "name": "sender",
          "type": "address"
        }
      ],
      "name": "RoleGranted",
      "type": "event"
    },
    {
      "anonymous": false,
      "inputs": [
        {
          "indexed": true,
          "internalType": "bytes32",
          "name": "role",
          "type": "bytes32"
        },
        {
          "indexed": true,
          "internalType": "address",
          "name": "account",
          "type": "address"
        },
        {
          "indexed": true,
          "internalType": "address",
          "name": "sender",
          "type": "address"
        }
      ],
      "name": "RoleRevoked",
      "type": "event"
    },
    {
      "anonymous": false,
      "inputs": [
        {
          "indexed": true,
          "internalType": "address",
          "name": "from",
          "type": "address"
        },
        {
          "indexed": true,
          "internalType": "address",
          "name": "to",
          "type": "address"
        },
        {
          "indexed": true,
          "internalType": "uint256",
          "name": "tokenId",
          "type": "uint256"
        }
      ],
      "name": "Transfer",
      "type": "event"
    },
    {
      "anonymous": false,
      "inputs": [
        {
          "indexed": false,
          "internalType": "address",
          "name": "account",
          "type": "address"
        }
      ],
      "name": "Unpaused",
      "type": "event"
    },
    {
      "inputs": [],
      "name": "DEFAULT_ADMIN_ROLE",
      "outputs": [
        {
          "internalType": "bytes32",
          "name": "",
          "type": "bytes32"
        }
      ],
      "stateMutability": "view",
      "type": "function",
      "constant": true
    },
    {
      "inputs": [],
      "name": "MINTER_ROLE",
      "outputs": [
        {
          "internalType": "bytes32",
          "name": "",
          "type": "bytes32"
        }
      ],
      "stateMutability": "view",
      "type": "function",
      "constant": true
    },
    {
      "inputs": [],
      "name": "PAUSER_ROLE",
      "outputs": [
        {
          "internalType": "bytes32",
          "name": "",
          "type": "bytes32"
        }
      ],
      "stateMutability": "view",
      "type": "function",
      "constant": true
    },
    {
      "inputs": [
        {
          "internalType": "address",
          "name": "to",
          "type": "address"
        },
        {
          "internalType": "uint256",
          "name": "tokenId",
          "type": "uint256"
        }
      ],
      "name": "approve",
      "outputs": [],
      "stateMutability": "nonpayable",
      "type": "function"
    },
    {
      "inputs": [
        {
          "internalType": "address",
          "name": "owner",
          "type": "address"
        }
      ],
      "name": "balanceOf",
      "outputs": [
        {
          "internalType": "uint256",
          "name": "",
          "type": "uint256"
        }
      ],
      "stateMutability": "view",
      "type": "function",
      "constant": true
    },
    {
      "inputs": [
        {
          "internalType": "uint256",
          "name": "tokenId",
          "type": "uint256"
        }
      ],
      "name": "burn",
      "outputs": [],
      "stateMutability": "nonpayable",
      "type": "function"
    },
    {
      "inputs": [
        {
          "internalType": "uint256",
          "name": "tokenId",
          "type": "uint256"
        }
      ],
      "name": "getApproved",
      "outputs": [
        {
          "internalType": "address",
          "name": "",
          "type": "address"
        }
      ],
      "stateMutability": "view",
      "type": "function",
      "constant": true
    },
    {
      "inputs": [
        {
          "internalType": "bytes32",
          "name": "role",
          "type": "bytes32"
        }
      ],
      "name": "getRoleAdmin",
      "outputs": [
        {
          "internalType": "bytes32",
          "name": "",
          "type": "bytes32"
        }
      ],
      "stateMutability": "view",
      "type": "function",
      "constant": true
    },
    {
      "inputs": [
        {
          "internalType": "bytes32",
          "name": "role",
          "type": "bytes32"
        },
        {
          "internalType": "uint256",
          "name": "index",
          "type": "uint256"
        }
      ],
      "name": "getRoleMember",
      "outputs": [
        {
          "internalType": "address",
          "name": "",
          "type": "address"
        }
      ],
      "stateMutability": "view",
      "type": "function",
      "constant": true
    },
    {
      "inputs": [
        {
          "internalType": "bytes32",
          "name": "role",
          "type": "bytes32"
        }
      ],
      "name": "getRoleMemberCount",
      "outputs": [
        {
          "internalType": "uint256",
          "name": "",
          "type": "uint256"
        }
      ],
      "stateMutability": "view",
      "type": "function",
      "constant": true
    },
    {
      "inputs": [
        {
          "internalType": "bytes32",
          "name": "role",
          "type": "bytes32"
        },
        {
          "internalType": "address",
          "name": "account",
          "type": "address"
        }
      ],
      "name": "grantRole",
      "outputs": [],
      "stateMutability": "nonpayable",
      "type": "function"
    },
    {
      "inputs": [
        {
          "internalType": "bytes32",
          "name": "role",
          "type": "bytes32"
        },
        {
          "internalType": "address",
          "name": "account",
          "type": "address"
        }
      ],
      "name": "hasRole",
      "outputs": [
        {
          "internalType": "bool",
          "name": "",
          "type": "bool"
        }
      ],
      "stateMutability": "view",
      "type": "function",
      "constant": true
    },
    {
      "inputs": [
        {
          "internalType": "address",
          "name": "owner",
          "type": "address"
        },
        {
          "internalType": "address",
          "name": "operator",
          "type": "address"
        }
      ],
      "name": "isApprovedForAll",
      "outputs": [
        {
          "internalType": "bool",
          "name": "",
          "type": "bool"
        }
      ],
      "stateMutability": "view",
      "type": "function",
      "constant": true
    },
    {
      "inputs": [],
      "name": "name",
      "outputs": [
        {
          "internalType": "string",
          "name": "",
          "type": "string"
        }
      ],
      "stateMutability": "view",
      "type": "function",
      "constant": true
    },
    {
      "inputs": [
        {
          "internalType": "uint256",
          "name": "tokenId",
          "type": "uint256"
        }
      ],
      "name": "ownerOf",
      "outputs": [
        {
          "internalType": "address",
          "name": "",
          "type": "address"
        }
      ],
      "stateMutability": "view",
      "type": "function",
      "constant": true
    },
    {
      "inputs": [],
      "name": "paused",
      "outputs": [
        {
          "internalType": "bool",
          "name": "",
          "type": "bool"
        }
      ],
      "stateMutability": "view",
      "type": "function",
      "constant": true
    },
    {
      "inputs": [
        {
          "internalType": "bytes32",
          "name": "role",
          "type": "bytes32"
        },
        {
          "internalType": "address",
          "name": "account",
          "type": "address"
        }
      ],
      "name": "renounceRole",
      "outputs": [],
      "stateMutability": "nonpayable",
      "type": "function"
    },
    {
      "inputs": [
        {
          "internalType": "bytes32",
          "name": "role",
          "type": "bytes32"
        },
        {
          "internalType": "address",
          "name": "account",
          "type": "address"
        }
      ],
      "name": "revokeRole",
      "outputs": [],
      "stateMutability": "nonpayable",
      "type": "function"
    },
    {
      "inputs": [
        {
          "internalType": "address",
          "name": "from",
          "type": "address"
        },
        {
          "internalType": "address",
          "name": "to",
          "type": "address"
        },
        {
          "internalType": "uint256",
          "name": "tokenId",
          "type": "uint256"
        }
      ],
      "name": "safeTransferFrom",
      "outputs": [],
      "stateMutability": "nonpayable",
      "type": "function"
    },
    {
      "inputs": [
        {
          "internalType": "address",
          "name": "from",
          "type": "address"
        },
        {
          "internalType": "address",
          "name": "to",
          "type": "address"
        },
        {
          "internalType": "uint256",
          "name": "tokenId",
          "type": "uint256"
        },
        {
          "internalType": "bytes",
          "name": "_data",
          "type": "bytes"
        }
      ],
      "name": "safeTransferFrom",
      "outputs": [],
      "stateMutability": "nonpayable",
      "type": "function"
    },
    {
      "inputs": [
        {
          "internalType": "address",
          "name": "operator",
          "type": "address"
        },
        {
          "internalType": "bool",
          "name": "approved",
          "type": "bool"
        }
      ],
      "name": "setApprovalForAll",
      "outputs": [],
      "stateMutability": "nonpayable",
      "type": "function"
    },
    {
      "inputs": [],
      "name": "symbol",
      "outputs": [
        {
          "internalType": "string",
          "name": "",
          "type": "string"
        }
      ],
      "stateMutability": "view",
      "type": "function",
      "constant": true
    },
    {
      "inputs": [
        {
          "internalType": "uint256",
          "name": "index",
          "type": "uint256"
        }
      ],
      "name": "tokenByIndex",
      "outputs": [
        {
          "internalType": "uint256",
          "name": "",
          "type": "uint256"
        }
      ],
      "stateMutability": "view",
      "type": "function",
      "constant": true
    },
    {
      "inputs": [
        {
          "internalType": "address",
          "name": "owner",
          "type": "address"
        },
        {
          "internalType": "uint256",
          "name": "index",
          "type": "uint256"
        }
      ],
      "name": "tokenOfOwnerByIndex",
      "outputs": [
        {
          "internalType": "uint256",
          "name": "",
          "type": "uint256"
        }
      ],
      "stateMutability": "view",
      "type": "function",
      "constant": true
    },
    {
      "inputs": [],
      "name": "totalSupply",
      "outputs": [
        {
          "internalType": "uint256",
          "name": "",
          "type": "uint256"
        }
      ],
      "stateMutability": "view",
      "type": "function",
      "constant": true
    },
    {
      "inputs": [
        {
          "internalType": "address",
          "name": "from",
          "type": "address"
        },
        {
          "internalType": "address",
          "name": "to",
          "type": "address"
        },
        {
          "internalType": "uint256",
          "name": "tokenId",
          "type": "uint256"
        }
      ],
      "name": "transferFrom",
      "outputs": [],
      "stateMutability": "nonpayable",
      "type": "function"
    },
    {
      "inputs": [
        {
          "internalType": "uint256",
          "name": "id",
          "type": "uint256"
        }
      ],
      "name": "metadataOf",
      "outputs": [
        {
          "internalType": "uint16",
          "name": "",
          "type": "uint16"
        },
        {
          "internalType": "uint8",
          "name": "",
          "type": "uint8"
        }
      ],
      "stateMutability": "view",
      "type": "function",
      "constant": true
    },
    {
      "inputs": [
        {
          "internalType": "address",
          "name": "owner",
          "type": "address"
        },
        {
          "internalType": "uint256",
          "name": "id",
          "type": "uint256"
        }
      ],
      "name": "dataOfTokenOfOwnerByIndex",
      "outputs": [
        {
          "internalType": "uint256",
          "name": "",
          "type": "uint256"
        },
        {
          "internalType": "uint16",
          "name": "",
          "type": "uint16"
        },
        {
          "internalType": "uint8",
          "name": "",
          "type": "uint8"
        }
      ],
      "stateMutability": "view",
      "type": "function",
      "constant": true
    },
    {
      "inputs": [
        {
          "internalType": "uint16",
          "name": "id",
          "type": "uint16"
        }
      ],
      "name": "totalCardsOf",
      "outputs": [
        {
          "internalType": "uint8",
          "name": "",
          "type": "uint8"
        }
      ],
      "stateMutability": "view",
      "type": "function",
      "constant": true
    },
    {
      "inputs": [
        {
          "internalType": "uint16",
          "name": "set",
          "type": "uint16"
        },
        {
          "internalType": "uint8",
          "name": "number",
          "type": "uint8"
        }
      ],
      "name": "addSet",
      "outputs": [],
      "stateMutability": "nonpayable",
      "type": "function"
    },
    {
      "inputs": [
        {
          "internalType": "string",
          "name": "uri",
          "type": "string"
        }
      ],
      "name": "setBaseTokenURI",
      "outputs": [],
      "stateMutability": "nonpayable",
      "type": "function"
    },
    {
      "inputs": [
        {
          "internalType": "uint256",
          "name": "_tokenId",
          "type": "uint256"
        }
      ],
      "name": "tokenURI",
      "outputs": [
        {
          "internalType": "string",
          "name": "",
          "type": "string"
        }
      ],
      "stateMutability": "view",
      "type": "function",
      "constant": true
    },
    {
      "inputs": [
        {
          "internalType": "uint256",
          "name": "id",
          "type": "uint256"
        }
      ],
      "name": "forgeBurn",
      "outputs": [],
      "stateMutability": "nonpayable",
      "type": "function"
    },
    {
      "inputs": [
        {
          "internalType": "address",
          "name": "to",
          "type": "address"
        },
        {
          "internalType": "uint16",
          "name": "set",
          "type": "uint16"
        },
        {
          "internalType": "uint8",
          "name": "number",
          "type": "uint8"
        }
      ],
      "name": "mint",
      "outputs": [],
      "stateMutability": "nonpayable",
      "type": "function"
    },
    {
      "inputs": [
        {
          "internalType": "bytes4",
          "name": "interfaceId",
          "type": "bytes4"
        }
      ],
      "name": "supportsInterface",
      "outputs": [
        {
          "internalType": "bool",
          "name": "",
          "type": "bool"
        }
      ],
      "stateMutability": "view",
      "type": "function",
      "constant": true
    }
  ],
  "bytecode": "0x60806040523480156200001157600080fd5b5060405162002f9038038062002f908339810160408190526200003491620005f5565b6040518060400160405280600e81526020016d159bdb1d5b5955d85c9cc813919560921b81525060405180604001604052806002815260200161565760f01b81525081600290805190602001906200008e9291906200054f565b508051620000a49060039060208401906200054f565b5050600c805460ff191690555060408051808201909152600780825266697066733a2f2f60c81b6020909201918252620000e191600e916200054f565b50620000ef60003362000158565b6200010a60008051602062002f708339815191523362000158565b620001367f65d7a28e3265b37a6474929f336521b332c1681b933f6cb9f3376673440d862a3362000158565b6200015160008051602062002f70833981519152826200019b565b50620007d7565b6200016f8282620001b260201b62000f6a1760201c565b60008281526001602090815260409091206200019691839062000f78620001c2821b17901c565b505050565b6200016f8282620001e260201b62000f8d1760201c565b620001be828262000207565b5050565b6000620001d9836001600160a01b0384166200028f565b90505b92915050565b600082815260208190526040902060010154620002008133620002e1565b6200019683835b6200021382826200036d565b620001be576000828152602081815260408083206001600160a01b03851684529091529020805460ff191660011790556200024b3390565b6001600160a01b0316816001600160a01b0316837f2f8788117e7eff1d82e926ec794901d17c78024a50270940304540a733656f0d60405160405180910390a45050565b6000818152600183016020526040812054620002d857508154600181810184556000848152602080822090930184905584548482528286019093526040902091909155620001dc565b506000620001dc565b620002ed82826200036d565b620001be5762000313816001600160a01b031660146200039660201b62000faa1760201c565b6200032983602062000faa62000396821b17811c565b6040516020016200033c92919062000620565b60408051601f198184030181529082905262461bcd60e51b8252620003649160040162000699565b60405180910390fd5b6000918252602082815260408084206001600160a01b0393909316845291905290205460ff1690565b60606000620003a7836002620006e9565b620003b4906002620006ce565b6001600160401b03811115620003ce57620003ce620007c1565b6040519080825280601f01601f191660200182016040528015620003f9576020820181803683370190505b509050600360fc1b81600081518110620004175762000417620007ab565b60200101906001600160f81b031916908160001a905350600f60fb1b81600181518110620004495762000449620007ab565b60200101906001600160f81b031916908160001a90535060006200046f846002620006e9565b6200047c906001620006ce565b90505b6001811115620004fe576f181899199a1a9b1b9c1cb0b131b232b360811b85600f1660108110620004b457620004b4620007ab565b1a60f81b828281518110620004cd57620004cd620007ab565b60200101906001600160f81b031916908160001a90535060049490941c93620004f6816200073e565b90506200047f565b508315620001d95760405162461bcd60e51b815260206004820181905260248201527f537472696e67733a20686578206c656e67746820696e73756666696369656e74604482015260640162000364565b8280546200055d9062000758565b90600052602060002090601f016020900481019282620005815760008555620005cc565b82601f106200059c57805160ff1916838001178555620005cc565b82800160010185558215620005cc579182015b82811115620005cc578251825591602001919060010190620005af565b50620005da929150620005de565b5090565b5b80821115620005da5760008155600101620005df565b6000602082840312156200060857600080fd5b81516001600160a01b0381168114620001d957600080fd5b7f416363657373436f6e74726f6c3a206163636f756e74200000000000000000008152600083516200065a8160178501602088016200070b565b7001034b99036b4b9b9b4b733903937b6329607d1b60179184019182015283516200068d8160288401602088016200070b565b01602801949350505050565b6020815260008251806020840152620006ba8160408501602087016200070b565b601f01601f19169190910160400192915050565b60008219821115620006e457620006e462000795565b500190565b600081600019048311821515161562000706576200070662000795565b500290565b60005b83811015620007285781810151838201526020016200070e565b8381111562000738576000848401525b50505050565b60008162000750576200075062000795565b506000190190565b600181811c908216806200076d57607f821691505b602082108114156200078f57634e487b7160e01b600052602260045260246000fd5b50919050565b634e487b7160e01b600052601160045260246000fd5b634e487b7160e01b600052603260045260246000fd5b634e487b7160e01b600052604160045260246000fd5b61278980620007e76000396000f3fe608060405234801561001057600080fd5b50600436106101a15760003560e01c806301ffc9a7146101a657806306fdde03146101ce578063081812fc146101e3578063095ea7b31461020e5780630ef7cc8e1461022357806318160ddd1461026f57806323b872dd14610281578063248a9ca3146102945780632cd08d51146102a75780632f2ff15d146102db5780632f745c59146102ee57806330176e131461030157806336568abe1461031457806342842e0e1461032757806342966c681461033a5780634f6ccce71461034d5780635c975abb146103605780636352211e1461036b5780636c91e0fc1461037e57806370a08231146103b75780639010d07c146103ca57806391d14854146103dd57806395d89b41146103f0578063a217fddf146103f8578063a22cb46514610400578063b88d4fde14610413578063bbfb2ac314610426578063c87b56dd14610439578063ca15c8731461044c578063d53913931461045f578063d547741f14610474578063e63ab1e914610487578063e985e9c5146104ae578063f11c801c146104c1578063f33f5233146104d4575b600080fd5b6101b96101b43660046121c4565b6104e7565b60405190151581526020015b60405180910390f35b6101d66104f8565b6040516101c59190612493565b6101f66101f1366004612166565b61058a565b6040516001600160a01b0390911681526020016101c5565b61022161021c36600461213c565b610617565b005b610253610231366004612166565b6000908152600f602052604090205461ffff8116916201000090910460ff1690565b6040805161ffff909316835260ff9091166020830152016101c5565b600a545b6040519081526020016101c5565b61022161028f366004611fa6565b610728565b6102736102a2366004612166565b61075a565b6102ba6102b536600461213c565b61076f565b6040805193845261ffff909216602084015260ff16908201526060016101c5565b6102216102e936600461217f565b6107aa565b6102736102fc36600461213c565b6107cc565b61022161030f3660046121fe565b610862565b61022161032236600461217f565b6108a2565b610221610335366004611fa6565b6108c4565b610221610348366004612166565b6108df565b61027361035b366004612166565b610959565b600c5460ff166101b9565b6101f6610379366004612166565b6109ec565b6103a561038c36600461226f565b61ffff1660009081526010602052604090205460ff1690565b60405160ff90911681526020016101c5565b6102736103c5366004611f58565b610a63565b6101f66103d83660046121a2565b610aea565b6101b96103eb36600461217f565b610b09565b6101d6610b32565b610273600081565b61022161040e3660046120bd565b610b41565b610221610421366004611fe2565b610c02565b610221610434366004612166565b610c3a565b6101d6610447366004612166565b610c6e565b61027361045a366004612166565b610cb9565b6102736000805160206126f483398151915281565b61022161048236600461217f565b610cd0565b6102737f65d7a28e3265b37a6474929f336521b332c1681b933f6cb9f3376673440d862a81565b6101b96104bc366004611f73565b610cda565b6102216104cf3660046120f9565b610d08565b6102216104e236600461228a565b610eac565b60006104f282611145565b92915050565b6060600280546105079061264a565b80601f01602080910402602001604051908101604052809291908181526020018280546105339061264a565b80156105805780601f1061055557610100808354040283529160200191610580565b820191906000526020600020905b81548152906001019060200180831161056357829003601f168201915b5050505050905090565b60006105958261116a565b6105fb5760405162461bcd60e51b815260206004820152602c60248201527f4552433732313a20617070726f76656420717565727920666f72206e6f6e657860448201526b34b9ba32b73a103a37b5b2b760a11b60648201526084015b60405180910390fd5b506000908152600660205260409020546001600160a01b031690565b6000610622826109ec565b9050806001600160a01b0316836001600160a01b031614156106905760405162461bcd60e51b815260206004820152602160248201527f4552433732313a20617070726f76616c20746f2063757272656e74206f776e656044820152603960f91b60648201526084016105f2565b336001600160a01b03821614806106ac57506106ac8133610cda565b6107195760405162461bcd60e51b815260206004820152603860248201527f4552433732313a20617070726f76652063616c6c6572206973206e6f74206f776044820152771b995c881b9bdc88185c1c1c9bdd995908199bdc88185b1b60421b60648201526084016105f2565b6107238383611187565b505050565b610733335b826111f5565b61074f5760405162461bcd60e51b81526004016105f2906124f8565b6107238383836112bf565b60009081526020819052604090206001015490565b60008060008061077f86866107cc565b6000818152600f6020526040902054909761ffff821697506201000090910460ff1695509350505050565b6107b48282610f8d565b60008281526001602052604090206107239082610f78565b60006107d783610a63565b82106108395760405162461bcd60e51b815260206004820152602b60248201527f455243373231456e756d657261626c653a206f776e657220696e646578206f7560448201526a74206f6620626f756e647360a81b60648201526084016105f2565b506001600160a01b03919091166000908152600860209081526040808320938352929052205490565b61087a6000805160206126f483398151915233610b09565b6108965760405162461bcd60e51b81526004016105f29061257f565b610723600e8383611e80565b6108ac8282611458565b600082815260016020526040902061072390826114d2565b61072383838360405180602001604052806000815250610c02565b6108e83361072d565b61094d5760405162461bcd60e51b815260206004820152603060248201527f4552433732314275726e61626c653a2063616c6c6572206973206e6f74206f7760448201526f1b995c881b9bdc88185c1c1c9bdd995960821b60648201526084016105f2565b610956816114e7565b50565b6000610964600a5490565b82106109c75760405162461bcd60e51b815260206004820152602c60248201527f455243373231456e756d657261626c653a20676c6f62616c20696e646578206f60448201526b7574206f6620626f756e647360a01b60648201526084016105f2565b600a82815481106109da576109da6126b1565b90600052602060002001549050919050565b6000818152600460205260408120546001600160a01b0316806104f25760405162461bcd60e51b815260206004820152602960248201527f4552433732313a206f776e657220717565727920666f72206e6f6e657869737460448201526832b73a103a37b5b2b760b91b60648201526084016105f2565b60006001600160a01b038216610ace5760405162461bcd60e51b815260206004820152602a60248201527f4552433732313a2062616c616e636520717565727920666f7220746865207a65604482015269726f206164647265737360b01b60648201526084016105f2565b506001600160a01b031660009081526005602052604090205490565b6000828152600160205260408120610b02908361157c565b9392505050565b6000918252602082815260408084206001600160a01b0393909316845291905290205460ff1690565b6060600380546105079061264a565b6001600160a01b038216331415610b965760405162461bcd60e51b815260206004820152601960248201527822a9219b99189d1030b8383937bb32903a379031b0b63632b960391b60448201526064016105f2565b3360008181526007602090815260408083206001600160a01b03871680855290835292819020805460ff191686151590811790915590519081529192917f17307eab39ab6107e8899845ad3d59bd9653f200f220920489ca2b5937696c31910160405180910390a35050565b610c0c33836111f5565b610c285760405162461bcd60e51b81526004016105f2906124f8565b610c3484848484611588565b50505050565b610c526000805160206126f483398151915233610b09565b61094d5760405162461bcd60e51b81526004016105f290612549565b6000818152600f6020908152604091829020549151606092610ca392600e9261ffff83169262010000900460ff1691016122ed565b6040516020818303038152906040529050919050565b60008181526001602052604081206104f2906115bb565b6108ac82826115c5565b6001600160a01b03918216600090815260076020908152604080832093909416825291909152205460ff1690565b610d206000805160206126f483398151915233610b09565b610d3c5760405162461bcd60e51b81526004016105f290612549565b61ffff8216600090815260106020526040902054610100900460ff16610da45760405162461bcd60e51b815260206004820152601d60248201527f5265776172644e46543a2053657420646f6573206e6f7420657869737400000060448201526064016105f2565b61ffff821660009081526010602052604090205460ff9081169082161115610e1c5760405162461bcd60e51b815260206004820152602560248201527f5265776172644e46543a204361726420646f6573206e6f7420657869737420696044820152641b881cd95d60da1b60648201526084016105f2565b610e2e83610e29600d5490565b6115e2565b81600f6000610e3c600d5490565b815260200190815260200160002060000160006101000a81548161ffff021916908361ffff16021790555080600f6000610e75600d5490565b815260200190815260200160002060000160026101000a81548160ff021916908360ff160217905550610723600d80546001019055565b610ec46000805160206126f483398151915233610b09565b610ee05760405162461bcd60e51b81526004016105f29061257f565b61ffff8216600090815260106020526040902054610100900460ff1615610f3e5760405162461bcd60e51b815260206004820152601260248201527153657420616c72656164792065786973747360701b60448201526064016105f2565b61ffff9091166000908152601060205260409020805461ffff191660ff90921691909117610100179055565b610f7482826115fc565b5050565b6000610b02836001600160a01b038416611680565b610f968261075a565b610fa081336116cf565b61072383836115fc565b60606000610fb98360026125d1565b610fc49060026125b9565b6001600160401b03811115610fdb57610fdb6126c7565b6040519080825280601f01601f191660200182016040528015611005576020820181803683370190505b509050600360fc1b81600081518110611020576110206126b1565b60200101906001600160f81b031916908160001a905350600f60fb1b8160018151811061104f5761104f6126b1565b60200101906001600160f81b031916908160001a90535060006110738460026125d1565b61107e9060016125b9565b90505b60018111156110f6576f181899199a1a9b1b9c1cb0b131b232b360811b85600f16601081106110b2576110b26126b1565b1a60f81b8282815181106110c8576110c86126b1565b60200101906001600160f81b031916908160001a90535060049490941c936110ef81612633565b9050611081565b508315610b025760405162461bcd60e51b815260206004820181905260248201527f537472696e67733a20686578206c656e67746820696e73756666696369656e7460448201526064016105f2565b60006001600160e01b0319821663780e9d6360e01b14806104f257506104f282611733565b6000908152600460205260409020546001600160a01b0316151590565b600081815260066020526040902080546001600160a01b0319166001600160a01b03841690811790915581906111bc826109ec565b6001600160a01b03167f8c5be1e5ebec7d5bd14f71427d1e84f3dd0314c0f7b2291e5b200ac8c7c3b92560405160405180910390a45050565b60006112008261116a565b6112615760405162461bcd60e51b815260206004820152602c60248201527f4552433732313a206f70657261746f7220717565727920666f72206e6f6e657860448201526b34b9ba32b73a103a37b5b2b760a11b60648201526084016105f2565b600061126c836109ec565b9050806001600160a01b0316846001600160a01b031614806112a75750836001600160a01b031661129c8461058a565b6001600160a01b0316145b806112b757506112b78185610cda565b949350505050565b826001600160a01b03166112d2826109ec565b6001600160a01b03161461133a5760405162461bcd60e51b815260206004820152602960248201527f4552433732313a207472616e73666572206f6620746f6b656e2074686174206960448201526839903737ba1037bbb760b91b60648201526084016105f2565b6001600160a01b03821661139c5760405162461bcd60e51b8152602060048201526024808201527f4552433732313a207472616e7366657220746f20746865207a65726f206164646044820152637265737360e01b60648201526084016105f2565b6113a7838383611773565b6113b2600082611187565b6001600160a01b03831660009081526005602052604081208054600192906113db9084906125f0565b90915550506001600160a01b03821660009081526005602052604081208054600192906114099084906125b9565b909155505060008181526004602052604080822080546001600160a01b0319166001600160a01b03868116918217909255915184939187169160008051602061271483398151915291a4505050565b6001600160a01b03811633146114c85760405162461bcd60e51b815260206004820152602f60248201527f416363657373436f6e74726f6c3a2063616e206f6e6c792072656e6f756e636560448201526e103937b632b9903337b91039b2b63360891b60648201526084016105f2565b610f74828261177e565b6000610b02836001600160a01b0384166117e3565b60006114f2826109ec565b905061150081600084611773565b61150b600083611187565b6001600160a01b03811660009081526005602052604081208054600192906115349084906125f0565b909155505060008281526004602052604080822080546001600160a01b0319169055518391906001600160a01b03841690600080516020612714833981519152908390a45050565b6000610b0283836118d6565b6115938484846112bf565b61159f84848484611900565b610c345760405162461bcd60e51b81526004016105f2906124a6565b60006104f2825490565b6115ce8261075a565b6115d881336116cf565b610723838361177e565b610f74828260405180602001604052806000815250611a0d565b6116068282610b09565b610f74576000828152602081815260408083206001600160a01b03851684529091529020805460ff1916600117905561163c3390565b6001600160a01b0316816001600160a01b0316837f2f8788117e7eff1d82e926ec794901d17c78024a50270940304540a733656f0d60405160405180910390a45050565b60008181526001830160205260408120546116c7575081546001818101845560008481526020808220909301849055845484825282860190935260409020919091556104f2565b5060006104f2565b6116d98282610b09565b610f74576116f1816001600160a01b03166014610faa565b6116fc836020610faa565b60405160200161170d9291906123e7565b60408051601f198184030181529082905262461bcd60e51b82526105f291600401612493565b60006001600160e01b031982166380ac58cd60e01b148061176457506001600160e01b03198216635b5e139f60e01b145b806104f257506104f282611a40565b610723838383611a65565b6117888282610b09565b15610f74576000828152602081815260408083206001600160a01b0385168085529252808320805460ff1916905551339285917ff6391f5c32d9c69d2a47ea670b442974b53935d1edc7fd64eb21e047a839171b9190a45050565b600081815260018301602052604081205480156118cc5760006118076001836125f0565b855490915060009061181b906001906125f0565b905081811461188057600086600001828154811061183b5761183b6126b1565b906000526020600020015490508087600001848154811061185e5761185e6126b1565b6000918252602080832090910192909255918252600188019052604090208390555b85548690806118915761189161269b565b6001900381819060005260206000200160009055905585600101600086815260200190815260200160002060009055600193505050506104f2565b60009150506104f2565b60008260000182815481106118ed576118ed6126b1565b9060005260206000200154905092915050565b60006001600160a01b0384163b15611a0257604051630a85bd0160e11b81526001600160a01b0385169063150b7a0290611944903390899088908890600401612456565b602060405180830381600087803b15801561195e57600080fd5b505af192505050801561198e575060408051601f3d908101601f1916820190925261198b918101906121e1565b60015b6119e8573d8080156119bc576040519150601f19603f3d011682016040523d82523d6000602084013e6119c1565b606091505b5080516119e05760405162461bcd60e51b81526004016105f2906124a6565b805181602001fd5b6001600160e01b031916630a85bd0160e11b1490506112b7565b506001949350505050565b611a178383611ad7565b611a246000848484611900565b6107235760405162461bcd60e51b81526004016105f2906124a6565b60006001600160e01b03198216635a05180f60e01b14806104f257506104f282611c03565b611a70838383611c38565b600c5460ff16156107235760405162461bcd60e51b815260206004820152602b60248201527f4552433732315061757361626c653a20746f6b656e207472616e73666572207760448201526a1a1a5b19481c185d5cd95960aa1b60648201526084016105f2565b6001600160a01b038216611b2d5760405162461bcd60e51b815260206004820181905260248201527f4552433732313a206d696e7420746f20746865207a65726f206164647265737360448201526064016105f2565b611b368161116a565b15611b825760405162461bcd60e51b815260206004820152601c60248201527b115490cdcc8c4e881d1bdad95b88185b1c9958591e481b5a5b9d195960221b60448201526064016105f2565b611b8e60008383611773565b6001600160a01b0382166000908152600560205260408120805460019290611bb79084906125b9565b909155505060008181526004602052604080822080546001600160a01b0319166001600160a01b0386169081179091559051839290600080516020612714833981519152908290a45050565b60006001600160e01b03198216637965db0b60e01b14806104f257506301ffc9a760e01b6001600160e01b03198316146104f2565b6001600160a01b038316611c9357611c8e81600a80546000838152600b60205260408120829055600182018355919091527fc65a7bb8d6351c1cf70c95a316cc6a92839c986682d98bc35f958f4883f9d2a80155565b611cb6565b816001600160a01b0316836001600160a01b031614611cb657611cb68382611cf0565b6001600160a01b038216611ccd5761072381611d8d565b826001600160a01b0316826001600160a01b031614610723576107238282611e3c565b60006001611cfd84610a63565b611d0791906125f0565b600083815260096020526040902054909150808214611d5a576001600160a01b03841660009081526008602090815260408083208584528252808320548484528184208190558352600990915290208190555b5060009182526009602090815260408084208490556001600160a01b039094168352600881528383209183525290812055565b600a54600090611d9f906001906125f0565b6000838152600b6020526040812054600a8054939450909284908110611dc757611dc76126b1565b9060005260206000200154905080600a8381548110611de857611de86126b1565b6000918252602080832090910192909255828152600b9091526040808220849055858252812055600a805480611e2057611e2061269b565b6001900381819060005260206000200160009055905550505050565b6000611e4783610a63565b6001600160a01b039093166000908152600860209081526040808320868452825280832085905593825260099052919091209190915550565b828054611e8c9061264a565b90600052602060002090601f016020900481019282611eae5760008555611ef4565b82601f10611ec75782800160ff19823516178555611ef4565b82800160010185558215611ef4579182015b82811115611ef4578235825591602001919060010190611ed9565b50611f00929150611f04565b5090565b5b80821115611f005760008155600101611f05565b80356001600160a01b0381168114611f3057600080fd5b919050565b803561ffff81168114611f3057600080fd5b803560ff81168114611f3057600080fd5b600060208284031215611f6a57600080fd5b610b0282611f19565b60008060408385031215611f8657600080fd5b611f8f83611f19565b9150611f9d60208401611f19565b90509250929050565b600080600060608486031215611fbb57600080fd5b611fc484611f19565b9250611fd260208501611f19565b9150604084013590509250925092565b60008060008060808587031215611ff857600080fd5b61200185611f19565b935061200f60208601611f19565b92506040850135915060608501356001600160401b038082111561203257600080fd5b818701915087601f83011261204657600080fd5b813581811115612058576120586126c7565b604051601f8201601f19908116603f01168101908382118183101715612080576120806126c7565b816040528281528a602084870101111561209957600080fd5b82602086016020830137600060208483010152809550505050505092959194509250565b600080604083850312156120d057600080fd5b6120d983611f19565b9150602083013580151581146120ee57600080fd5b809150509250929050565b60008060006060848603121561210e57600080fd5b61211784611f19565b925061212560208501611f35565b915061213360408501611f47565b90509250925092565b6000806040838503121561214f57600080fd5b61215883611f19565b946020939093013593505050565b60006020828403121561217857600080fd5b5035919050565b6000806040838503121561219257600080fd5b82359150611f9d60208401611f19565b600080604083850312156121b557600080fd5b50508035926020909101359150565b6000602082840312156121d657600080fd5b8135610b02816126dd565b6000602082840312156121f357600080fd5b8151610b02816126dd565b6000806020838503121561221157600080fd5b82356001600160401b038082111561222857600080fd5b818501915085601f83011261223c57600080fd5b81358181111561224b57600080fd5b86602082850101111561225d57600080fd5b60209290920196919550909350505050565b60006020828403121561228157600080fd5b610b0282611f35565b6000806040838503121561229d57600080fd5b6122a683611f35565b9150611f9d60208401611f47565b600081518084526122cc816020860160208601612607565b601f01601f19169290920160200192915050565b602f60f81b815260010190565b600080855481600182811c91508083168061230957607f831692505b602080841082141561232957634e487b7160e01b86526022600452602486fd5b81801561233d576001811461234e5761237b565b60ff1986168952848901965061237b565b60008c81526020902060005b868110156123735781548b82015290850190830161235a565b505084890196505b505050612387846122e0565b935061239f848960f01b6001600160f01b0319169052565b6123ab600285016122e0565b93506123c3848860f81b6001600160f81b0319169052565b6123da81850164173539b7b760d91b815260050190565b9998505050505050505050565b76020b1b1b2b9b9a1b7b73a3937b61d1030b1b1b7bab73a1604d1b815260008351612419816017850160208801612607565b7001034b99036b4b9b9b4b733903937b6329607d1b601791840191820152835161244a816028840160208801612607565b01602801949350505050565b6001600160a01b0385811682528416602082015260408101839052608060608201819052600090612489908301846122b4565b9695505050505050565b602081526000610b0260208301846122b4565b60208082526032908201527f4552433732313a207472616e7366657220746f206e6f6e20455243373231526560408201527131b2b4bb32b91034b6b83632b6b2b73a32b960711b606082015260800190565b60208082526031908201527f4552433732313a207472616e736665722063616c6c6572206973206e6f74206f6040820152701ddb995c881b9bdc88185c1c1c9bdd9959607a1b606082015260800190565b6020808252602890820152600080516020612734833981519152604082015267081d1bc81b5a5b9d60c21b606082015260800190565b6020808252602c9082015260008051602061273483398151915260408201526b20746f20616464207365747360a01b606082015260800190565b600082198211156125cc576125cc612685565b500190565b60008160001904831182151516156125eb576125eb612685565b500290565b60008282101561260257612602612685565b500390565b60005b8381101561262257818101518382015260200161260a565b83811115610c345750506000910152565b60008161264257612642612685565b506000190190565b600181811c9082168061265e57607f821691505b6020821081141561267f57634e487b7160e01b600052602260045260246000fd5b50919050565b634e487b7160e01b600052601160045260246000fd5b634e487b7160e01b600052603160045260246000fd5b634e487b7160e01b600052603260045260246000fd5b634e487b7160e01b600052604160045260246000fd5b6001600160e01b03198116811461095657600080fdfe9f2df0fed2c77648de5860a4cc508cd0818c85b8b8a1ab4ceeef8d981c8956a6ddf252ad1be2c89b69c2b068fc378daa952ba7f163c4a11628f55a4df523b3ef5265776172644e46543a206d7573742068617665206d696e74657220726f6c65a26469706673582212208fa2ce7818453245e5164c5e8b39d191bd99a1a8807dbf3a838295e953ad60a364736f6c634300080600339f2df0fed2c77648de5860a4cc508cd0818c85b8b8a1ab4ceeef8d981c8956a6",
  "immutableReferences": {},
  "source": "// contracts/NFT.sol\n// SPDX-License-Identifier: MIT\npragma solidity ^0.8.0;\n\nimport \"@openzeppelin/contracts/token/ERC721/presets/ERC721PresetMinterPauserAutoId.sol\";\n\ncontract piggyNFT is\n    Context,\n    AccessControlEnumerable,\n    ERC721Enumerable,\n    ERC721Burnable,\n    ERC721Pausable\n{\n    using Counters for Counters.Counter;\n\n    bytes32 public constant MINTER_ROLE = keccak256(\"MINTER_ROLE\");\n    bytes32 public constant PAUSER_ROLE = keccak256(\"PAUSER_ROLE\");\n\n    Counters.Counter private _tokenIdTracker;\n\n    string private _baseTokenURI;\n\n    struct NFTMetadata {\n        uint16 set;\n        uint8 number;\n    }\n\n    mapping(uint256 => NFTMetadata) metadata;\n\n    struct SetMetadata {\n        uint8 totalCards;\n        bool enabled;\n    }\n    mapping(uint16 => SetMetadata) sets;\n\n    /**\n     * @dev Grants `DEFAULT_ADMIN_ROLE`, `MINTER_ROLE` and `PAUSER_ROLE` to the\n     * account that deploys the contract.\n     *\n     * Token URIs will be autogenerated based on `baseURI` and their token IDs.\n     * See {ERC721-tokenURI}.\n     */\n    constructor(\n        address game\n    ) ERC721(\"VolumeWars NFT\", \"VW\") {\n        _baseTokenURI = \"ipfs://\";\n\n        _setupRole(DEFAULT_ADMIN_ROLE, _msgSender());\n\n        _setupRole(MINTER_ROLE, _msgSender());\n        _setupRole(PAUSER_ROLE, _msgSender());\n        grantRole(MINTER_ROLE, game);\n    }\n\n    function metadataOf(uint256 id) external view returns (uint16, uint8) {\n        return (metadata[id].set, metadata[id].number);\n    }\n    function dataOfTokenOfOwnerByIndex(address owner, uint256 id) external view returns (uint256, uint16, uint8) {\n        uint256 tokenId = tokenOfOwnerByIndex(owner, id);\n        return (tokenId, metadata[tokenId].set, metadata[tokenId].number);\n    }\n    function totalCardsOf(uint16 id) external view returns (uint8) {\n        return sets[id].totalCards;\n    }\n    function addSet(uint16 set, uint8 number) external {\n        require(hasRole(MINTER_ROLE, _msgSender()), \"RewardNFT: must have minter role to add sets\");\n        require(sets[set].enabled == false, \"Set already exists\");\n        sets[set].totalCards = number;\n        sets[set].enabled = true;\n    }\n    function setBaseTokenURI(string calldata uri) public {\n        require(hasRole(MINTER_ROLE, _msgSender()), \"RewardNFT: must have minter role to add sets\");\n        _baseTokenURI = uri;\n    }\n\n    function tokenURI(uint256 _tokenId) public view override returns (string memory) {\n        return string(abi.encodePacked(_baseTokenURI, \"/\", metadata[_tokenId].set, \"/\", metadata[_tokenId].number, \".json\"));\n    }\n    function _baseURI() internal view virtual override returns (string memory) {\n        return _baseTokenURI;\n    }\n\n    function forgeBurn(uint256 id) external {\n        require(hasRole(MINTER_ROLE, _msgSender()), \"RewardNFT: must have minter role to mint\");\n        _burn(id);\n    }\n    /**\n     * @dev Creates a new token for `to`. Its token ID will be automatically\n     * assigned (and available on the emitted {IERC721-Transfer} event), and the token\n     * URI autogenerated based on the base URI passed at construction.\n     *\n     * See {ERC721-_mint}.\n     *\n     * Requirements:\n     *\n     * - the caller must have the `MINTER_ROLE`.\n     */\n    function mint(address to, uint16 set, uint8 number) external virtual {\n        require(hasRole(MINTER_ROLE, _msgSender()), \"RewardNFT: must have minter role to mint\");\n        require(sets[set].enabled, \"RewardNFT: Set does not exist\");\n        require(number <= sets[set].totalCards, \"RewardNFT: Card does not exist in set\");\n        // We cannot just use balanceOf to create the new tokenId because tokens\n        // can be burned (destroyed), so we need a separate counter.\n        _safeMint(to, _tokenIdTracker.current());\n        metadata[_tokenIdTracker.current()].set = set;\n        metadata[_tokenIdTracker.current()].number = number;\n        _tokenIdTracker.increment();\n    }\n\n    function _beforeTokenTransfer(\n        address from,\n        address to,\n        uint256 tokenId\n    ) internal virtual override(ERC721, ERC721Enumerable, ERC721Pausable) {\n        super._beforeTokenTransfer(from, to, tokenId);\n    }\n\n    /**\n     * @dev See {IERC165-supportsInterface}.\n     */\n    function supportsInterface(bytes4 interfaceId)\n        public\n        view\n        virtual\n        override(AccessControlEnumerable, ERC721, ERC721Enumerable)\n        returns (bool)\n    {\n        return super.supportsInterface(interfaceId);\n    }\n}\n",
  "sourcePath": "/home/moot/projects/vw/contracts/NFT.sol",
  "compiler": {
    "name": "solc",
    "version": "0.8.6+commit.11564f7e.Emscripten.clang"
  },
  "schemaVersion": "3.4.1",
  "updatedAt": "2021-10-08T19:23:02.075Z",
  "networkType": "ethereum",
  "devdoc": {
    "kind": "dev",
    "methods": {
      "approve(address,uint256)": {
        "details": "See {IERC721-approve}."
      },
      "balanceOf(address)": {
        "details": "See {IERC721-balanceOf}."
      },
      "burn(uint256)": {
        "details": "Burns `tokenId`. See {ERC721-_burn}. Requirements: - The caller must own `tokenId` or be an approved operator."
      },
      "constructor": {
        "details": "Grants `DEFAULT_ADMIN_ROLE`, `MINTER_ROLE` and `PAUSER_ROLE` to the account that deploys the contract. Token URIs will be autogenerated based on `baseURI` and their token IDs. See {ERC721-tokenURI}."
      },
      "getApproved(uint256)": {
        "details": "See {IERC721-getApproved}."
      },
      "getRoleAdmin(bytes32)": {
        "details": "Returns the admin role that controls `role`. See {grantRole} and {revokeRole}. To change a role's admin, use {_setRoleAdmin}."
      },
      "getRoleMember(bytes32,uint256)": {
        "details": "Returns one of the accounts that have `role`. `index` must be a value between 0 and {getRoleMemberCount}, non-inclusive. Role bearers are not sorted in any particular way, and their ordering may change at any point. WARNING: When using {getRoleMember} and {getRoleMemberCount}, make sure you perform all queries on the same block. See the following https://forum.openzeppelin.com/t/iterating-over-elements-on-enumerableset-in-openzeppelin-contracts/2296[forum post] for more information."
      },
      "getRoleMemberCount(bytes32)": {
        "details": "Returns the number of accounts that have `role`. Can be used together with {getRoleMember} to enumerate all bearers of a role."
      },
      "grantRole(bytes32,address)": {
        "details": "Overload {grantRole} to track enumerable memberships"
      },
      "hasRole(bytes32,address)": {
        "details": "Returns `true` if `account` has been granted `role`."
      },
      "isApprovedForAll(address,address)": {
        "details": "See {IERC721-isApprovedForAll}."
      },
      "mint(address,uint16,uint8)": {
        "details": "Creates a new token for `to`. Its token ID will be automatically assigned (and available on the emitted {IERC721-Transfer} event), and the token URI autogenerated based on the base URI passed at construction. See {ERC721-_mint}. Requirements: - the caller must have the `MINTER_ROLE`."
      },
      "name()": {
        "details": "See {IERC721Metadata-name}."
      },
      "ownerOf(uint256)": {
        "details": "See {IERC721-ownerOf}."
      },
      "paused()": {
        "details": "Returns true if the contract is paused, and false otherwise."
      },
      "renounceRole(bytes32,address)": {
        "details": "Overload {renounceRole} to track enumerable memberships"
      },
      "revokeRole(bytes32,address)": {
        "details": "Overload {revokeRole} to track enumerable memberships"
      },
      "safeTransferFrom(address,address,uint256)": {
        "details": "See {IERC721-safeTransferFrom}."
      },
      "safeTransferFrom(address,address,uint256,bytes)": {
        "details": "See {IERC721-safeTransferFrom}."
      },
      "setApprovalForAll(address,bool)": {
        "details": "See {IERC721-setApprovalForAll}."
      },
      "supportsInterface(bytes4)": {
        "details": "See {IERC165-supportsInterface}."
      },
      "symbol()": {
        "details": "See {IERC721Metadata-symbol}."
      },
      "tokenByIndex(uint256)": {
        "details": "See {IERC721Enumerable-tokenByIndex}."
      },
      "tokenOfOwnerByIndex(address,uint256)": {
        "details": "See {IERC721Enumerable-tokenOfOwnerByIndex}."
      },
      "totalSupply()": {
        "details": "See {IERC721Enumerable-totalSupply}."
      },
      "transferFrom(address,address,uint256)": {
        "details": "See {IERC721-transferFrom}."
      }
    },
    "version": 1
  },
  "userdoc": {
    "kind": "user",
    "methods": {},
    "version": 1
  }
}