{
  "contractName": "piggyGame",
  "abi": [
    {
      "inputs": [
        {
          "internalType": "contract IBEP20",
          "name": "_piggyToken",
          "type": "address"
        },
        {
          "internalType": "address",
          "name": "_router",
          "type": "address"
        },
        {
          "internalType": "address",
          "name": "_coordinator",
          "type": "address"
        },
        {
          "internalType": "address",
          "name": "_linkToken",
          "type": "address"
        },
        {
          "internalType": "bytes32",
          "name": "_hash",
          "type": "bytes32"
        },
        {
          "internalType": "uint256",
          "name": "_fee",
          "type": "uint256"
        }
      ],
      "stateMutability": "nonpayable",
      "type": "constructor"
    },
    {
      "anonymous": false,
      "inputs": [
        {
          "indexed": true,
          "internalType": "address",
          "name": "player",
          "type": "address"
        },
        {
          "indexed": true,
          "internalType": "uint32",
          "name": "team",
          "type": "uint32"
        },
        {
          "indexed": false,
          "internalType": "uint256",
          "name": "amount",
          "type": "uint256"
        },
        {
          "indexed": false,
          "internalType": "uint256",
          "name": "ethAmount",
          "type": "uint256"
        },
        {
          "indexed": false,
          "internalType": "uint256",
          "name": "tokensReturned",
          "type": "uint256"
        },
        {
          "indexed": false,
          "internalType": "uint256",
          "name": "BalanceChange",
          "type": "uint256"
        }
      ],
      "name": "Attack",
      "type": "event"
    },
    {
      "anonymous": false,
      "inputs": [
        {
          "indexed": true,
          "internalType": "address",
          "name": "player",
          "type": "address"
        },
        {
          "indexed": true,
          "internalType": "uint8",
          "name": "grade",
          "type": "uint8"
        },
        {
          "indexed": false,
          "internalType": "uint256",
          "name": "seed",
          "type": "uint256"
        }
      ],
      "name": "BoosterPackOpened",
      "type": "event"
    },
    {
      "anonymous": false,
      "inputs": [
        {
          "indexed": true,
          "internalType": "address",
          "name": "player",
          "type": "address"
        },
        {
          "indexed": false,
          "internalType": "uint256",
          "name": "amount",
          "type": "uint256"
        }
      ],
      "name": "Deposit",
      "type": "event"
    },
    {
      "anonymous": false,
      "inputs": [
        {
          "indexed": true,
          "internalType": "address",
          "name": "player",
          "type": "address"
        },
        {
          "indexed": true,
          "internalType": "uint256",
          "name": "season",
          "type": "uint256"
        }
      ],
      "name": "JoinedGame",
      "type": "event"
    },
    {
      "anonymous": false,
      "inputs": [
        {
          "indexed": true,
          "internalType": "address",
          "name": "player",
          "type": "address"
        },
        {
          "indexed": true,
          "internalType": "uint16",
          "name": "set",
          "type": "uint16"
        }
      ],
      "name": "LegendaryForged",
      "type": "event"
    },
    {
      "anonymous": false,
      "inputs": [
        {
          "indexed": true,
          "internalType": "address",
          "name": "player",
          "type": "address"
        },
        {
          "indexed": true,
          "internalType": "uint16",
          "name": "set",
          "type": "uint16"
        },
        {
          "indexed": true,
          "internalType": "uint8",
          "name": "number",
          "type": "uint8"
        },
        {
          "indexed": false,
          "internalType": "bool",
          "name": "rare",
          "type": "bool"
        }
      ],
      "name": "NFTAwarded",
      "type": "event"
    },
    {
      "anonymous": false,
      "inputs": [
        {
          "indexed": true,
          "internalType": "address",
          "name": "owner",
          "type": "address"
        },
        {
          "indexed": true,
          "internalType": "address",
          "name": "to",
          "type": "address"
        },
        {
          "indexed": false,
          "internalType": "uint256",
          "name": "amount",
          "type": "uint256"
        }
      ],
      "name": "OwnerWithdrawal",
      "type": "event"
    },
    {
      "anonymous": false,
      "inputs": [
        {
          "indexed": true,
          "internalType": "address",
          "name": "previousOwner",
          "type": "address"
        },
        {
          "indexed": true,
          "internalType": "address",
          "name": "newOwner",
          "type": "address"
        }
      ],
      "name": "OwnershipTransferred",
      "type": "event"
    },
    {
      "anonymous": false,
      "inputs": [
        {
          "indexed": true,
          "internalType": "address",
          "name": "requester",
          "type": "address"
        },
        {
          "indexed": true,
          "internalType": "uint8",
          "name": "rtype",
          "type": "uint8"
        },
        {
          "indexed": false,
          "internalType": "bytes32",
          "name": "id",
          "type": "bytes32"
        },
        {
          "indexed": false,
          "internalType": "uint256",
          "name": "randomness",
          "type": "uint256"
        }
      ],
      "name": "RandomNumberFulfilled",
      "type": "event"
    },
    {
      "anonymous": false,
      "inputs": [
        {
          "indexed": true,
          "internalType": "address",
          "name": "requester",
          "type": "address"
        },
        {
          "indexed": false,
          "internalType": "bytes32",
          "name": "id",
          "type": "bytes32"
        }
      ],
      "name": "RandomNumberRequest",
      "type": "event"
    },
    {
      "anonymous": false,
      "inputs": [
        {
          "indexed": true,
          "internalType": "address",
          "name": "owner",
          "type": "address"
        },
        {
          "indexed": false,
          "internalType": "uint256",
          "name": "grade2",
          "type": "uint256"
        },
        {
          "indexed": false,
          "internalType": "uint256",
          "name": "grade3",
          "type": "uint256"
        },
        {
          "indexed": false,
          "internalType": "uint256",
          "name": "grade4",
          "type": "uint256"
        }
      ],
      "name": "RareChanceSet",
      "type": "event"
    },
    {
      "anonymous": false,
      "inputs": [
        {
          "indexed": true,
          "internalType": "address",
          "name": "requester",
          "type": "address"
        },
        {
          "indexed": true,
          "internalType": "uint8",
          "name": "grade",
          "type": "uint8"
        },
        {
          "indexed": false,
          "internalType": "uint256",
          "name": "randomness",
          "type": "uint256"
        }
      ],
      "name": "ReceivedBoosterBack",
      "type": "event"
    },
    {
      "anonymous": false,
      "inputs": [
        {
          "indexed": true,
          "internalType": "address",
          "name": "owner",
          "type": "address"
        },
        {
          "indexed": true,
          "internalType": "uint32",
          "name": "season",
          "type": "uint32"
        },
        {
          "indexed": true,
          "internalType": "uint32",
          "name": "winner",
          "type": "uint32"
        }
      ],
      "name": "SeasonClose",
      "type": "event"
    },
    {
      "anonymous": false,
      "inputs": [
        {
          "indexed": true,
          "internalType": "address",
          "name": "owner",
          "type": "address"
        },
        {
          "indexed": true,
          "internalType": "uint32",
          "name": "season",
          "type": "uint32"
        }
      ],
      "name": "SeasonOpen",
      "type": "event"
    },
    {
      "anonymous": false,
      "inputs": [
        {
          "indexed": true,
          "internalType": "address",
          "name": "owner",
          "type": "address"
        },
        {
          "indexed": false,
          "internalType": "uint256",
          "name": "fee",
          "type": "uint256"
        }
      ],
      "name": "SetJoinFee",
      "type": "event"
    },
    {
      "anonymous": false,
      "inputs": [
        {
          "indexed": true,
          "internalType": "address",
          "name": "owner",
          "type": "address"
        },
        {
          "indexed": true,
          "internalType": "bool",
          "name": "open",
          "type": "bool"
        }
      ],
      "name": "SetOpen",
      "type": "event"
    },
    {
      "anonymous": false,
      "inputs": [
        {
          "indexed": true,
          "internalType": "address",
          "name": "owner",
          "type": "address"
        },
        {
          "indexed": true,
          "internalType": "uint32",
          "name": "season",
          "type": "uint32"
        }
      ],
      "name": "SetSeason",
      "type": "event"
    },
    {
      "anonymous": false,
      "inputs": [
        {
          "indexed": true,
          "internalType": "address",
          "name": "owner",
          "type": "address"
        },
        {
          "indexed": true,
          "internalType": "uint32",
          "name": "team",
          "type": "uint32"
        }
      ],
      "name": "TeamAdded",
      "type": "event"
    },
    {
      "anonymous": false,
      "inputs": [
        {
          "indexed": true,
          "internalType": "address",
          "name": "requester",
          "type": "address"
        },
        {
          "indexed": true,
          "internalType": "uint32",
          "name": "team",
          "type": "uint32"
        },
        {
          "indexed": false,
          "internalType": "uint256",
          "name": "randomness",
          "type": "uint256"
        }
      ],
      "name": "TeamAssigned",
      "type": "event"
    },
    {
      "anonymous": false,
      "inputs": [
        {
          "indexed": true,
          "internalType": "address",
          "name": "owner",
          "type": "address"
        },
        {
          "indexed": false,
          "internalType": "uint256",
          "name": "grade1",
          "type": "uint256"
        },
        {
          "indexed": false,
          "internalType": "uint256",
          "name": "grade2",
          "type": "uint256"
        },
        {
          "indexed": false,
          "internalType": "uint256",
          "name": "grade3",
          "type": "uint256"
        },
        {
          "indexed": false,
          "internalType": "uint256",
          "name": "grade4",
          "type": "uint256"
        }
      ],
      "name": "ThresholdsSet",
      "type": "event"
    },
    {
      "anonymous": false,
      "inputs": [
        {
          "indexed": true,
          "internalType": "address",
          "name": "player",
          "type": "address"
        },
        {
          "indexed": false,
          "internalType": "uint256",
          "name": "amount",
          "type": "uint256"
        },
        {
          "indexed": false,
          "internalType": "uint256",
          "name": "minAmount",
          "type": "uint256"
        },
        {
          "indexed": false,
          "internalType": "uint256",
          "name": "BNBSent",
          "type": "uint256"
        }
      ],
      "name": "TokensPurchased",
      "type": "event"
    },
    {
      "anonymous": false,
      "inputs": [
        {
          "indexed": true,
          "internalType": "address",
          "name": "player",
          "type": "address"
        },
        {
          "indexed": false,
          "internalType": "uint256",
          "name": "amount",
          "type": "uint256"
        }
      ],
      "name": "Withdrawal",
      "type": "event"
    },
    {
      "anonymous": false,
      "inputs": [
        {
          "indexed": true,
          "internalType": "address",
          "name": "operator",
          "type": "address"
        },
        {
          "indexed": true,
          "internalType": "address",
          "name": "router",
          "type": "address"
        },
        {
          "indexed": true,
          "internalType": "address",
          "name": "pair",
          "type": "address"
        }
      ],
      "name": "pancakeSwapRouterUpdated",
      "type": "event"
    },
    {
      "inputs": [
        {
          "internalType": "uint256",
          "name": "",
          "type": "uint256"
        }
      ],
      "name": "activeTeams",
      "outputs": [
        {
          "internalType": "uint32",
          "name": "",
          "type": "uint32"
        }
      ],
      "stateMutability": "view",
      "type": "function",
      "constant": true
    },
    {
      "inputs": [
        {
          "internalType": "address",
          "name": "",
          "type": "address"
        }
      ],
      "name": "balances",
      "outputs": [
        {
          "internalType": "uint256",
          "name": "",
          "type": "uint256"
        }
      ],
      "stateMutability": "view",
      "type": "function",
      "constant": true
    },
    {
      "inputs": [],
      "name": "joinFee",
      "outputs": [
        {
          "internalType": "uint256",
          "name": "",
          "type": "uint256"
        }
      ],
      "stateMutability": "view",
      "type": "function",
      "constant": true
    },
    {
      "inputs": [],
      "name": "latestTeam",
      "outputs": [
        {
          "internalType": "uint32",
          "name": "",
          "type": "uint32"
        }
      ],
      "stateMutability": "view",
      "type": "function",
      "constant": true
    },
    {
      "inputs": [],
      "name": "open",
      "outputs": [
        {
          "internalType": "bool",
          "name": "",
          "type": "bool"
        }
      ],
      "stateMutability": "view",
      "type": "function",
      "constant": true
    },
    {
      "inputs": [],
      "name": "owner",
      "outputs": [
        {
          "internalType": "address",
          "name": "",
          "type": "address"
        }
      ],
      "stateMutability": "view",
      "type": "function",
      "constant": true
    },
    {
      "inputs": [],
      "name": "pancakeSwapPair",
      "outputs": [
        {
          "internalType": "address",
          "name": "",
          "type": "address"
        }
      ],
      "stateMutability": "view",
      "type": "function",
      "constant": true
    },
    {
      "inputs": [],
      "name": "pancakeSwapRouter",
      "outputs": [
        {
          "internalType": "contract IUniswapV2Router02",
          "name": "",
          "type": "address"
        }
      ],
      "stateMutability": "view",
      "type": "function",
      "constant": true
    },
    {
      "inputs": [],
      "name": "piggyAddress",
      "outputs": [
        {
          "internalType": "address",
          "name": "",
          "type": "address"
        }
      ],
      "stateMutability": "view",
      "type": "function",
      "constant": true
    },
    {
      "inputs": [
        {
          "internalType": "address",
          "name": "",
          "type": "address"
        }
      ],
      "name": "players",
      "outputs": [
        {
          "internalType": "uint256",
          "name": "gamesPlayed",
          "type": "uint256"
        },
        {
          "internalType": "uint16",
          "name": "season",
          "type": "uint16"
        },
        {
          "internalType": "uint32",
          "name": "team",
          "type": "uint32"
        },
        {
          "internalType": "uint32",
          "name": "winsBeforeJoin",
          "type": "uint32"
        },
        {
          "internalType": "uint256",
          "name": "experience",
          "type": "uint256"
        }
      ],
      "stateMutability": "view",
      "type": "function",
      "constant": true
    },
    {
      "inputs": [],
      "name": "rareChance",
      "outputs": [
        {
          "internalType": "uint8",
          "name": "grade2",
          "type": "uint8"
        },
        {
          "internalType": "uint8",
          "name": "grade3",
          "type": "uint8"
        },
        {
          "internalType": "uint8",
          "name": "grade4",
          "type": "uint8"
        }
      ],
      "stateMutability": "view",
      "type": "function",
      "constant": true
    },
    {
      "inputs": [
        {
          "internalType": "bytes32",
          "name": "requestId",
          "type": "bytes32"
        },
        {
          "internalType": "uint256",
          "name": "randomness",
          "type": "uint256"
        }
      ],
      "name": "rawFulfillRandomness",
      "outputs": [],
      "stateMutability": "nonpayable",
      "type": "function"
    },
    {
      "inputs": [],
      "name": "renounceOwnership",
      "outputs": [],
      "stateMutability": "nonpayable",
      "type": "function"
    },
    {
      "inputs": [],
      "name": "rewardNFT",
      "outputs": [
        {
          "internalType": "contract IRewardNFT",
          "name": "",
          "type": "address"
        }
      ],
      "stateMutability": "view",
      "type": "function",
      "constant": true
    },
    {
      "inputs": [],
      "name": "season",
      "outputs": [
        {
          "internalType": "uint16",
          "name": "",
          "type": "uint16"
        }
      ],
      "stateMutability": "view",
      "type": "function",
      "constant": true
    },
    {
      "inputs": [
        {
          "internalType": "uint32",
          "name": "",
          "type": "uint32"
        }
      ],
      "name": "teams",
      "outputs": [
        {
          "internalType": "bool",
          "name": "enabled",
          "type": "bool"
        },
        {
          "internalType": "uint32",
          "name": "wins",
          "type": "uint32"
        },
        {
          "internalType": "uint256",
          "name": "damagePoints",
          "type": "uint256"
        }
      ],
      "stateMutability": "view",
      "type": "function",
      "constant": true
    },
    {
      "inputs": [],
      "name": "thresholds",
      "outputs": [
        {
          "internalType": "uint256",
          "name": "grade1",
          "type": "uint256"
        },
        {
          "internalType": "uint256",
          "name": "grade2",
          "type": "uint256"
        },
        {
          "internalType": "uint256",
          "name": "grade3",
          "type": "uint256"
        },
        {
          "internalType": "uint256",
          "name": "grade4",
          "type": "uint256"
        }
      ],
      "stateMutability": "view",
      "type": "function",
      "constant": true
    },
    {
      "inputs": [
        {
          "internalType": "address",
          "name": "newOwner",
          "type": "address"
        }
      ],
      "name": "transferOwnership",
      "outputs": [],
      "stateMutability": "nonpayable",
      "type": "function"
    },
    {
      "stateMutability": "payable",
      "type": "receive",
      "payable": true
    },
    {
      "inputs": [],
      "name": "totalBalance",
      "outputs": [
        {
          "internalType": "uint256",
          "name": "",
          "type": "uint256"
        }
      ],
      "stateMutability": "view",
      "type": "function",
      "constant": true
    },
    {
      "inputs": [],
      "name": "getJoinFee",
      "outputs": [
        {
          "internalType": "uint256",
          "name": "",
          "type": "uint256"
        }
      ],
      "stateMutability": "view",
      "type": "function",
      "constant": true
    },
    {
      "inputs": [],
      "name": "isGameOpen",
      "outputs": [
        {
          "internalType": "bool",
          "name": "",
          "type": "bool"
        }
      ],
      "stateMutability": "view",
      "type": "function",
      "constant": true
    },
    {
      "inputs": [],
      "name": "currentSeason",
      "outputs": [
        {
          "internalType": "uint16",
          "name": "",
          "type": "uint16"
        }
      ],
      "stateMutability": "view",
      "type": "function",
      "constant": true
    },
    {
      "inputs": [
        {
          "internalType": "address",
          "name": "_player",
          "type": "address"
        }
      ],
      "name": "balanceOf",
      "outputs": [
        {
          "internalType": "uint256",
          "name": "",
          "type": "uint256"
        }
      ],
      "stateMutability": "view",
      "type": "function",
      "constant": true
    },
    {
      "inputs": [
        {
          "internalType": "address",
          "name": "_player",
          "type": "address"
        }
      ],
      "name": "boosterPackBalanceOf",
      "outputs": [
        {
          "internalType": "uint256",
          "name": "",
          "type": "uint256"
        }
      ],
      "stateMutability": "view",
      "type": "function",
      "constant": true
    },
    {
      "inputs": [
        {
          "internalType": "address",
          "name": "_player",
          "type": "address"
        }
      ],
      "name": "totalGamesPlayedOf",
      "outputs": [
        {
          "internalType": "uint256",
          "name": "",
          "type": "uint256"
        }
      ],
      "stateMutability": "view",
      "type": "function",
      "constant": true
    },
    {
      "inputs": [
        {
          "internalType": "address",
          "name": "_player",
          "type": "address"
        }
      ],
      "name": "teamOf",
      "outputs": [
        {
          "internalType": "uint256",
          "name": "",
          "type": "uint256"
        }
      ],
      "stateMutability": "view",
      "type": "function",
      "constant": true
    },
    {
      "inputs": [],
      "name": "getThresholds",
      "outputs": [
        {
          "internalType": "uint256",
          "name": "",
          "type": "uint256"
        },
        {
          "internalType": "uint256",
          "name": "",
          "type": "uint256"
        },
        {
          "internalType": "uint256",
          "name": "",
          "type": "uint256"
        },
        {
          "internalType": "uint256",
          "name": "",
          "type": "uint256"
        }
      ],
      "stateMutability": "view",
      "type": "function",
      "constant": true
    },
    {
      "inputs": [
        {
          "internalType": "address",
          "name": "_player",
          "type": "address"
        }
      ],
      "name": "hasPlayerJoined",
      "outputs": [
        {
          "internalType": "bool",
          "name": "",
          "type": "bool"
        }
      ],
      "stateMutability": "view",
      "type": "function",
      "constant": true
    },
    {
      "inputs": [],
      "name": "getRareChances",
      "outputs": [
        {
          "internalType": "uint8",
          "name": "",
          "type": "uint8"
        },
        {
          "internalType": "uint8",
          "name": "",
          "type": "uint8"
        },
        {
          "internalType": "uint8",
          "name": "",
          "type": "uint8"
        }
      ],
      "stateMutability": "view",
      "type": "function",
      "constant": true
    },
    {
      "inputs": [
        {
          "internalType": "uint32",
          "name": "teamId",
          "type": "uint32"
        }
      ],
      "name": "teamDamageOf",
      "outputs": [
        {
          "internalType": "uint256",
          "name": "",
          "type": "uint256"
        }
      ],
      "stateMutability": "view",
      "type": "function",
      "constant": true
    },
    {
      "inputs": [
        {
          "internalType": "uint32",
          "name": "teamId",
          "type": "uint32"
        }
      ],
      "name": "teamWinsOf",
      "outputs": [
        {
          "internalType": "uint32",
          "name": "",
          "type": "uint32"
        }
      ],
      "stateMutability": "view",
      "type": "function",
      "constant": true
    },
    {
      "inputs": [],
      "name": "getActiveTeams",
      "outputs": [
        {
          "internalType": "uint32[]",
          "name": "",
          "type": "uint32[]"
        }
      ],
      "stateMutability": "view",
      "type": "function",
      "constant": true
    },
    {
      "inputs": [
        {
          "internalType": "address",
          "name": "_player",
          "type": "address"
        }
      ],
      "name": "playerWins",
      "outputs": [
        {
          "internalType": "uint32",
          "name": "",
          "type": "uint32"
        }
      ],
      "stateMutability": "view",
      "type": "function",
      "constant": true
    },
    {
      "inputs": [
        {
          "internalType": "bool",
          "name": "isOpen",
          "type": "bool"
        }
      ],
      "name": "setOpen",
      "outputs": [],
      "stateMutability": "nonpayable",
      "type": "function"
    },
    {
      "inputs": [
        {
          "internalType": "uint16",
          "name": "_season",
          "type": "uint16"
        }
      ],
      "name": "setSeason",
      "outputs": [],
      "stateMutability": "nonpayable",
      "type": "function"
    },
    {
      "inputs": [],
      "name": "openSeason",
      "outputs": [],
      "stateMutability": "nonpayable",
      "type": "function"
    },
    {
      "inputs": [],
      "name": "closeSeason",
      "outputs": [],
      "stateMutability": "nonpayable",
      "type": "function"
    },
    {
      "inputs": [],
      "name": "addTeam",
      "outputs": [],
      "stateMutability": "nonpayable",
      "type": "function"
    },
    {
      "inputs": [
        {
          "internalType": "uint256",
          "name": "amount",
          "type": "uint256"
        },
        {
          "internalType": "address payable",
          "name": "_to",
          "type": "address"
        }
      ],
      "name": "withdrawETH",
      "outputs": [],
      "stateMutability": "nonpayable",
      "type": "function"
    },
    {
      "inputs": [
        {
          "internalType": "address payable",
          "name": "_to",
          "type": "address"
        }
      ],
      "name": "withdrawAllETH",
      "outputs": [],
      "stateMutability": "nonpayable",
      "type": "function"
    },
    {
      "inputs": [
        {
          "internalType": "uint256",
          "name": "_fee",
          "type": "uint256"
        }
      ],
      "name": "setJoinFee",
      "outputs": [],
      "stateMutability": "nonpayable",
      "type": "function"
    },
    {
      "inputs": [
        {
          "internalType": "address",
          "name": "_router",
          "type": "address"
        },
        {
          "internalType": "address",
          "name": "_piggyAddress",
          "type": "address"
        }
      ],
      "name": "updatePancakeSwapRouter",
      "outputs": [],
      "stateMutability": "nonpayable",
      "type": "function"
    },
    {
      "inputs": [
        {
          "internalType": "contract IRewardNFT",
          "name": "_rewardNFTAddress",
          "type": "address"
        }
      ],
      "name": "updateNFTAddress",
      "outputs": [],
      "stateMutability": "nonpayable",
      "type": "function"
    },
    {
      "inputs": [],
      "name": "join",
      "outputs": [],
      "stateMutability": "payable",
      "type": "function",
      "payable": true
    },
    {
      "inputs": [
        {
          "internalType": "uint256",
          "name": "minTokens",
          "type": "uint256"
        }
      ],
      "name": "buyTokens",
      "outputs": [],
      "stateMutability": "payable",
      "type": "function",
      "payable": true
    },
    {
      "inputs": [
        {
          "internalType": "uint256",
          "name": "amount",
          "type": "uint256"
        }
      ],
      "name": "deposit",
      "outputs": [],
      "stateMutability": "nonpayable",
      "type": "function"
    },
    {
      "inputs": [
        {
          "internalType": "uint256",
          "name": "amount",
          "type": "uint256"
        }
      ],
      "name": "withdraw",
      "outputs": [],
      "stateMutability": "nonpayable",
      "type": "function"
    },
    {
      "inputs": [
        {
          "internalType": "uint256",
          "name": "amount",
          "type": "uint256"
        },
        {
          "internalType": "uint32",
          "name": "team",
          "type": "uint32"
        }
      ],
      "name": "attack",
      "outputs": [],
      "stateMutability": "nonpayable",
      "type": "function"
    },
    {
      "inputs": [],
      "name": "unpackBoosterPack",
      "outputs": [],
      "stateMutability": "nonpayable",
      "type": "function"
    },
    {
      "inputs": [
        {
          "internalType": "uint256",
          "name": "seed",
          "type": "uint256"
        },
        {
          "internalType": "uint8",
          "name": "grade",
          "type": "uint8"
        },
        {
          "internalType": "uint8",
          "name": "grade2RareChance",
          "type": "uint8"
        },
        {
          "internalType": "uint8",
          "name": "grade3RareChance",
          "type": "uint8"
        },
        {
          "internalType": "uint8",
          "name": "grade4RareChance",
          "type": "uint8"
        }
      ],
      "name": "getNumRewards",
      "outputs": [
        {
          "internalType": "uint8",
          "name": "",
          "type": "uint8"
        },
        {
          "internalType": "bool",
          "name": "",
          "type": "bool"
        }
      ],
      "stateMutability": "pure",
      "type": "function",
      "constant": true
    },
    {
      "inputs": [
        {
          "internalType": "uint256[]",
          "name": "ids",
          "type": "uint256[]"
        }
      ],
      "name": "forgeLegendary",
      "outputs": [],
      "stateMutability": "nonpayable",
      "type": "function"
    },
    {
      "inputs": [
        {
          "internalType": "uint256",
          "name": "grade1",
          "type": "uint256"
        },
        {
          "internalType": "uint256",
          "name": "grade2",
          "type": "uint256"
        },
        {
          "internalType": "uint256",
          "name": "grade3",
          "type": "uint256"
        },
        {
          "internalType": "uint256",
          "name": "grade4",
          "type": "uint256"
        }
      ],
      "name": "setThresholds",
      "outputs": [],
      "stateMutability": "nonpayable",
      "type": "function"
    },
    {
      "inputs": [
        {
          "internalType": "uint8",
          "name": "grade2",
          "type": "uint8"
        },
        {
          "internalType": "uint8",
          "name": "grade3",
          "type": "uint8"
        },
        {
          "internalType": "uint8",
          "name": "grade4",
          "type": "uint8"
        }
      ],
      "name": "setRareChance",
      "outputs": [],
      "stateMutability": "nonpayable",
      "type": "function"
    },
    {
      "inputs": [
        {
          "internalType": "address",
          "name": "to",
          "type": "address"
        },
        {
          "internalType": "uint16",
          "name": "set",
          "type": "uint16"
        },
        {
          "internalType": "uint8",
          "name": "number",
          "type": "uint8"
        }
      ],
      "name": "mintNFT",
      "outputs": [],
      "stateMutability": "nonpayable",
      "type": "function"
    }
  ],
  "bytecode": "0x600a805463ffffffff19168155670de0b6b3a764000060c081905260e08190526729a2241af62c0000610100819052674563918244f40000610120819052600d839055600e92909255600f556010556101a0604052601e61014052610160526005610180526011805462050a1e62ffffff19918216179091556000601255601380549091169055662386f26fc100006014553480156200009e57600080fd5b506040516200546138038062005461833981016040819052620000c191620003c7565b8383620000ce3362000350565b6001600160601b0319606092831b811660a052911b1660805260158290556016819055600580546001600160a01b038881166001600160a01b031992831681179093556006805483169093179092556003805492881692909116821790556040805163c45a015560e01b8152905163c45a015591600480820192602092909190829003018186803b1580156200016357600080fd5b505afa15801562000178573d6000803e3d6000fd5b505050506040513d601f19601f820116820180604052508101906200019e9190620003a0565b600554600354604080516315ab88c960e31b815290516001600160a01b039485169463e6a4390594811693169163ad5c4648916004808301926020929190829003018186803b158015620001f157600080fd5b505afa15801562000206573d6000803e3d6000fd5b505050506040513d601f19601f820116820180604052508101906200022c9190620003a0565b6040516001600160e01b031960e085901b1681526001600160a01b0392831660048201529116602482015260440160206040518083038186803b1580156200027357600080fd5b505afa15801562000288573d6000803e3d6000fd5b505050506040513d601f19601f82011682018060405250810190620002ae9190620003a0565b600480546001600160a01b0319166001600160a01b03929092169182179055620003445760405162461bcd60e51b815260206004820152603460248201527f544553543a3a75706461746570616e63616b6553776170526f757465723a204960448201527f6e76616c6964207061697220616464726573732e000000000000000000000000606482015260840160405180910390fd5b5050505050506200045c565b600080546001600160a01b038381166001600160a01b0319831681178455604051919092169283917f8be0079c531659141344cd1fd0a4f28419497f9722a3daafe3b4186f6b6457e09190a35050565b600060208284031215620003b357600080fd5b8151620003c08162000443565b9392505050565b60008060008060008060c08789031215620003e157600080fd5b8651620003ee8162000443565b6020880151909650620004018162000443565b6040880151909550620004148162000443565b6060880151909450620004278162000443565b809350506080870151915060a087015190509295509295509295565b6001600160a01b03811681146200045957600080fd5b50565b60805160601c60a05160601c614fcb6200049660003960008181611afe01526144b201526000818161438f01526144830152614fcb6000f3fe6080604052600436106102695760003560e01c806301485a86146102755780630284a8d0146102b3578063144b6ae1146102ca5780631fb04b1014610326578063245589951461036a57806327e235e3146103975780632b1335e2146103c45780632e1a7d4d146103d957806330a18b06146103f957806332bed7661461046057806334513d4f146104805780633610724e146104b657806336118b52146104c957806338bca748146104e95780633b4ba03a14610509578063429494f2146105295780635cc8edeb146105495780635d7484091461055e5780636fdca5e01461057e57806370a082311461059e578063715018a6146105d4578063839d22b9146105e9578063874b79911461060957806387e4be4c1461063e5780638833c9891461065e57806389be06651461067b5780638b31fb89146106b45780638da5cb5b146106d457806394985ddd146106e95780639c3977b5146107095780639ebd911514610733578063a382da0c14610753578063a8c737b01461078f578063ad7a672f146107b1578063ada1b8b4146107c6578063b3f72662146107e6578063b688a3631461082b578063b6b55f2514610833578063b7194d7c14610853578063bbc673951461086b578063bcb3962114610880578063c360d55d146108ad578063c50b0fb0146108cd578063c8ea4dd6146108ed578063cda43b3a1461090d578063ceeb706614610930578063de5a5de414610950578063e2eb41ff1461097b578063e638f2d314610a07578063e6de41ec14610a1c578063f2fde38b14610a57578063f691771f14610a77578063fbf7c7df14610a97578063fcfff16f14610aad57600080fd5b3661027057005b600080fd5b34801561028157600080fd5b5061029561029036600461497c565b610ac7565b6040805160ff90931683529015156020830152015b60405180910390f35b3480156102bf57600080fd5b506102c8610c57565b005b3480156102d657600080fd5b506103166102e5366004614622565b6013546001600160a01b0390911660009081526008602052604090206001015461ffff908116610100909204161490565b60405190151581526020016102aa565b34801561033257600080fd5b5061035c610341366004614622565b6001600160a01b031660009081526008602052604090205490565b6040519081526020016102aa565b34801561037657600080fd5b5060035461038a906001600160a01b031681565b6040516102aa9190614a90565b3480156103a357600080fd5b5061035c6103b2366004614622565b600c6020526000908152604090205481565b3480156103d057600080fd5b506102c8610d66565b3480156103e557600080fd5b506102c86103f43660046148c7565b610f30565b34801561040557600080fd5b5061043e6104143660046149e4565b6009602052600090815260409020805460019091015460ff821691610100900463ffffffff169083565b60408051931515845263ffffffff9092166020840152908201526060016102aa565b34801561046c57600080fd5b506102c861047b36600461487b565b6111a3565b34801561048c57600080fd5b5061035c61049b3660046149e4565b63ffffffff1660009081526009602052604090206001015490565b6102c86104c43660046148c7565b61120f565b3480156104d557600080fd5b506102c86104e43660046148f9565b611450565b3480156104f557600080fd5b506102c8610504366004614663565b6114e8565b34801561051557600080fd5b5060065461038a906001600160a01b031681565b34801561053557600080fd5b5060045461038a906001600160a01b031681565b34801561055557600080fd5b5060145461035c565b34801561056a57600080fd5b506102c861057936600461469c565b6117a0565b34801561058a57600080fd5b506102c861059936600461481f565b61183a565b3480156105aa57600080fd5b5061035c6105b9366004614622565b6001600160a01b03166000908152600c602052604090205490565b3480156105e057600080fd5b506102c861189e565b3480156105f557600080fd5b506102c861060436600461491e565b6118d9565b34801561061557600080fd5b506106296106243660046148c7565b611980565b60405163ffffffff90911681526020016102aa565b34801561064a57600080fd5b506102c8610659366004614622565b6119ba565b34801561066a57600080fd5b50600a546106299063ffffffff1681565b34801561068757600080fd5b5061035c610696366004614622565b6001600160a01b031660009081526008602052604090206003015490565b3480156106c057600080fd5b506106296106cf366004614622565b611a0b565b3480156106e057600080fd5b5061038a611ae4565b3480156106f557600080fd5b506102c8610704366004614859565b611af3565b34801561071557600080fd5b50600d54600e54600f546010545b6040516102aa9493929190614cb6565b34801561073f57600080fd5b506102c861074e366004614622565b611b79565b34801561075f57600080fd5b506011546107809060ff808216916101008104821691620100009091041683565b6040516102aa93929190614cd1565b34801561079b57600080fd5b506107a4611c0f565b6040516102aa9190614b51565b3480156107bd57600080fd5b5061035c611c93565b3480156107d257600080fd5b506102c86107e1366004614950565b611d19565b3480156107f257600080fd5b5061035c610801366004614622565b6001600160a01b031660009081526008602052604090206001015462010000900463ffffffff1690565b6102c86126fa565b34801561083f57600080fd5b506102c861084e3660046148c7565b612898565b34801561085f57600080fd5b5060135460ff16610316565b34801561087757600080fd5b506102c8612bc7565b34801561088c57600080fd5b50601354610100900461ffff165b60405161ffff90911681526020016102aa565b3480156108b957600080fd5b506102c86108c8366004614a1c565b612e76565b3480156108d957600080fd5b5060135461089a90610100900461ffff1681565b3480156108f957600080fd5b5060025461038a906001600160a01b031681565b34801561091957600080fd5b50600d54600e54600f546010546107239392919084565b34801561093c57600080fd5b506102c861094b3660046148c7565b612f27565b34801561095c57600080fd5b5060115460ff8082169161010081048216916201000090910416610780565b34801561098757600080fd5b506109d3610996366004614622565b600860205260009081526040902080546001820154600290920154909161ffff81169163ffffffff620100008304811692600160301b9004169085565b6040805195865261ffff909416602086015263ffffffff92831693850193909352166060830152608082015260a0016102aa565b348015610a1357600080fd5b506102c8612f93565b348015610a2857600080fd5b50610629610a373660046149e4565b63ffffffff90811660009081526009602052604090205461010090041690565b348015610a6357600080fd5b506102c8610a72366004614622565b613149565b348015610a8357600080fd5b506102c8610a923660046146e7565b6131e9565b348015610aa357600080fd5b5061035c60145481565b348015610ab957600080fd5b506013546103169060ff1681565b60008060008660ff1611610b125760405162461bcd60e51b815260206004820152600d60248201526c477261646520746f6f206c6f7760981b60448201526064015b60405180910390fd5b60048660ff161115610b575760405162461bcd60e51b815260206004820152600e60248201526d08ee4c2c8ca40e8dede40d0d2ced60931b6044820152606401610b09565b8560ff1660011415610b8857610b70600288600061373d565b60ff16610b835750600190506000610c4d565b610c46565b8560ff1660021415610bcb57610ba08588600061373d565b60ff16610bb35750600090506001610c4d565b610bc0600188600161373d565b600091509150610c4d565b8560ff1660031415610c0357610be38488600061373d565b60ff16610bf65750600090506001610c4d565b610bc0600288600161373d565b8560ff1660041415610c4657610c1b8388600061373d565b60ff16610c2e5750600090506001610c4d565b610c3b600288600161373d565b610bc0906001614d4b565b5060009050805b9550959350505050565b33610c60611ae4565b6001600160a01b031614610c865760405162461bcd60e51b8152600401610b0990614c45565b600a805460019190600090610ca290849063ffffffff16614d2c565b825461010092830a63ffffffff818102199092169282160291909117909255600a80548316600090815260096020526040808220805460ff191660019081179091558354600b8054928301815584527f0175b7a638427703f0dbe7bb9bbf987a2551717b34e79f33b5b1008d1fa01db960088304018054600790931660040290960a80880219909216908716909102179093559054915191909216925033917fe1b55aea8861ee3614cc89fefd1300481f2154872e1b969bea36f1046a383c2e91a3565b3360009081526008602052604090206003015480610dc35760405162461bcd60e51b815260206004820152601a6024820152794e6f20626f6f73746572207061636b7320746f20756e7061636b60301b6044820152606401610b09565b336000908152600860205260408120600301610de0600184614d8f565b81548110610df057610df0614ea7565b60009182526020808320600290920290910154338352600890915260408220909250600301610e20600185614d8f565b81548110610e3057610e30614ea7565b600091825260208220600160029092020181015460115460ff91821694508392610e939287928792610e6492909116614dcb565b601154610e7b90600190610100900460ff16614dcb565b6011546102909060019062010000900460ff16614dcb565b91509150610ea2828286613799565b336000908152600860205260409020600301805480610ec357610ec3614e91565b600082815260208120600260001990930192830201908155600101805460ff19169055905560405160ff84169033907f5d4cc5a431d132160f228cd6d6536eba930fbac7ac9aa219f434d8964254365590610f219088815260200190565b60405180910390a35050505050565b336000908152600c6020526040902054811115610f8c5760405162461bcd60e51b815260206004820152601a602482015279496e73756666696369656e7420746f6b656e2062616c616e636560301b6044820152606401610b09565b6005546040516370a0823160e01b81526000916001600160a01b0316906370a0823190610fbd903090600401614a90565b60206040518083038186803b158015610fd557600080fd5b505afa158015610fe9573d6000803e3d6000fd5b505050506040513d601f19601f8201168201806040525081019061100d91906148e0565b60055460405163a9059cbb60e01b81529192506001600160a01b03169063a9059cbb906110409033908690600401614acc565b602060405180830381600087803b15801561105a57600080fd5b505af115801561106e573d6000803e3d6000fd5b505050506040513d601f19601f82011682018060405250810190611092919061483c565b50336000908152600c60205260409020546110ae908390614d8f565b336000908152600c6020526040908190209190915560055490516370a0823160e01b815283916001600160a01b0316906370a08231906110f2903090600401614a90565b60206040518083038186803b15801561110a57600080fd5b505afa15801561111e573d6000803e3d6000fd5b505050506040513d601f19601f8201168201806040525081019061114291906148e0565b61114c9083614d8f565b111561116a5760405162461bcd60e51b8152600401610b0990614bd0565b60405182815233907f7fcf532c15f0a6db0bd6d0e038bea71d30d808c7d98cb3bf7268a95bf5081b659060200160405180910390a25050565b336111ac611ae4565b6001600160a01b0316146111d25760405162461bcd60e51b8152600401610b0990614c45565b6013805462ffff00191661010061ffff84811682029290921792839055604051920416903390600080516020614f1683398151915290600090a350565b60135460ff166112315760405162461bcd60e51b8152600401610b0990614c1d565b600034116112735760405162461bcd60e51b815260206004820152600f60248201526e139bc8109390881c1c9bdd9a591959608a1b6044820152606401610b09565b6005546040516370a0823160e01b81526000916001600160a01b0316906370a08231906112a4903090600401614a90565b60206040518083038186803b1580156112bc57600080fd5b505afa1580156112d0573d6000803e3d6000fd5b505050506040513d601f19601f820116820180604052508101906112f491906148e0565b905061130034836139c9565b6005546040516370a0823160e01b81526000916001600160a01b0316906370a0823190611331903090600401614a90565b60206040518083038186803b15801561134957600080fd5b505afa15801561135d573d6000803e3d6000fd5b505050506040513d601f19601f8201168201806040525081019061138191906148e0565b90508181116113c75760405162461bcd60e51b8152602060048201526012602482015271139bc8151bdad95b9cc81c1c9bdd9a59195960721b6044820152606401610b09565b336000908152600c602052604090205482906113e4908390614d14565b6113ee9190614d8f565b336000818152600c60205260409020919091557f0d1a0d5e3d583a0e92588799dd06e50fd78c07daf05f0cc06d7b848b1ca445f161142c8484614d8f565b604080519182526020820187905234908201526060015b60405180910390a2505050565b33611459611ae4565b6001600160a01b03161461147f5760405162461bcd60e51b8152600401610b0990614c45565b6040516001600160a01b0382169083156108fc029084906000818181858888f193505050501580156114b5573d6000803e3d6000fd5b506040518281526001600160a01b038216903390600080516020614f768339815191529060200160405180910390a35050565b336114f1611ae4565b6001600160a01b0316146115175760405162461bcd60e51b8152600401610b0990614c45565b600680546001600160a01b038084166001600160a01b031992831681179093556005805483169093179092556003805492851692909116821790556040805163c45a015560e01b8152905163c45a015591600480820192602092909190829003018186803b15801561158857600080fd5b505afa15801561159c573d6000803e3d6000fd5b505050506040513d601f19601f820116820180604052508101906115c09190614646565b6001600160a01b031663e6a4390582600360009054906101000a90046001600160a01b03166001600160a01b031663ad5c46486040518163ffffffff1660e01b815260040160206040518083038186803b15801561161d57600080fd5b505afa158015611631573d6000803e3d6000fd5b505050506040513d601f19601f820116820180604052508101906116559190614646565b6040516001600160e01b031960e085901b1681526001600160a01b0392831660048201529116602482015260440160206040518083038186803b15801561169b57600080fd5b505afa1580156116af573d6000803e3d6000fd5b505050506040513d601f19601f820116820180604052508101906116d39190614646565b600480546001600160a01b0319166001600160a01b0392909216918217905561175b5760405162461bcd60e51b815260206004820152603460248201527f544553543a3a75706461746570616e63616b6553776170526f757465723a2049604482015273373b30b634b2103830b4b91030b2323932b9b99760611b6064820152608401610b09565b6004546003546040516001600160a01b03928316929091169033907f9fe3d07545e3958d796eab15a329f937659629d54f9322dc213f5625b3ddb1ce90600090a45050565b336117a9611ae4565b6001600160a01b0316146117cf5760405162461bcd60e51b8152600401610b0990614c45565b600254604051633c47200760e21b81526001600160a01b039091169063f11c801c9061180390869086908690600401614aa4565b600060405180830381600087803b15801561181d57600080fd5b505af1158015611831573d6000803e3d6000fd5b50505050505050565b33611843611ae4565b6001600160a01b0316146118695760405162461bcd60e51b8152600401610b0990614c45565b6013805460ff191682151590811790915560405160ff9091161515903390600080516020614f5683398151915290600090a350565b336118a7611ae4565b6001600160a01b0316146118cd5760405162461bcd60e51b8152600401610b0990614c45565b6118d76000613b4b565b565b336118e2611ae4565b6001600160a01b0316146119085760405162461bcd60e51b8152600401610b0990614c45565b6040805160808101825285815260208101859052808201849052606001829052600d859055600e849055600f83905560108290555133907fbec35960c6b3caa7ac07f7d546d3f533515d5876c65ea78d0eb8bbf164efd33590611972908790879087908790614cb6565b60405180910390a250505050565b600b818154811061199057600080fd5b9060005260206000209060089182820401919006600402915054906101000a900463ffffffff1681565b336119c3611ae4565b6001600160a01b0316146119e95760405162461bcd60e51b8152600401610b0990614c45565b600280546001600160a01b0319166001600160a01b0392909216919091179055565b6001600160a01b03811660009081526008602090815260408083206001015463ffffffff6201000082048116808652600990945291842054600160301b90910482169161010090910416811115611ab45760405162461bcd60e51b815260206004820152602760248201527f57696e73206265666f7265206a6f696e20686967686572207468616e20746f74604482015266616c2077696e7360c81b6064820152608401610b09565b63ffffffff808316600090815260096020526040902054611adc918391610100900416614da6565b949350505050565b6000546001600160a01b031690565b336001600160a01b037f00000000000000000000000000000000000000000000000000000000000000001614611b6b5760405162461bcd60e51b815260206004820152601f60248201527f4f6e6c7920565246436f6f7264696e61746f722063616e2066756c66696c6c006044820152606401610b09565b611b758282613b9b565b5050565b33611b82611ae4565b6001600160a01b031614611ba85760405162461bcd60e51b8152600401610b0990614c45565b6040516001600160a01b038216904780156108fc02916000818181858888f19350505050158015611bdd573d6000803e3d6000fd5b506040514781526001600160a01b038216903390600080516020614f768339815191529060200160405180910390a350565b6060600b805480602002602001604051908101604052809291908181526020018280548015611c8957602002820191906000526020600020906000905b82829054906101000a900463ffffffff1663ffffffff1681526020019060040190602082600301049283019260010382029150808411611c4c5790505b5050505050905090565b6005546040516370a0823160e01b81526000916001600160a01b0316906370a0823190611cc4903090600401614a90565b60206040518083038186803b158015611cdc57600080fd5b505afa158015611cf0573d6000803e3d6000fd5b505050506040513d601f19601f82011682018060405250810190611d1491906148e0565b905090565b60135460ff16611d3b5760405162461bcd60e51b8152600401610b0990614c1d565b601354610100900461ffff16611d845760405162461bcd60e51b815260206004820152600e60248201526d14d9585cdbdb881b9bdd081cd95d60921b6044820152606401610b09565b6013543360009081526008602052604090206001015461ffff9081166101009092041614611df45760405162461bcd60e51b815260206004820152601d60248201527f506c6179657220686173206e6f7420656e746572656420736561736f6e0000006044820152606401610b09565b3360009081526008602052604090206001015463ffffffff82811662010000909204161415611e5e5760405162461bcd60e51b815260206004820152601660248201527543616e6e6f742061747461636b206f776e207465616d60501b6044820152606401610b09565b3360009081526008602052604090206001015462010000900463ffffffff16611ec55760405162461bcd60e51b8152602060048201526019602482015278506c61796572206973206e6f74206f6e20616e79207465616d60381b6044820152606401610b09565b63ffffffff811660009081526009602052604090205460ff16611f205760405162461bcd60e51b81526020600482015260136024820152721519585b481a5cc81b9bdd08195b98589b1959606a1b6044820152606401610b09565b336000908152600c6020526040902054821115611f765760405162461bcd60e51b8152602060048201526014602482015273496e73756666696369656e742062616c616e636560601b6044820152606401610b09565b6005546040516370a0823160e01b81526000916001600160a01b0316906370a0823190611fa7903090600401614a90565b60206040518083038186803b158015611fbf57600080fd5b505afa158015611fd3573d6000803e3d6000fd5b505050506040513d601f19601f82011682018060405250810190611ff791906148e0565b90504761200384613ed9565b6005546040516370a0823160e01b81526000916001600160a01b0316906370a0823190612034903090600401614a90565b60206040518083038186803b15801561204c57600080fd5b505afa158015612060573d6000803e3d6000fd5b505050506040513d601f19601f8201168201806040525081019061208491906148e0565b90504760006120938386614d8f565b9050868111156120b55760405162461bcd60e51b8152600401610b0990614bd0565b60006120c18584614d8f565b90508483116121125760405162461bcd60e51b815260206004820181905260248201527f4e6567617469766520424e422066726f6d2073656c6c696e6720746f6b656e736044820152606401610b09565b61211b816140ca565b84471461216a5760405162461bcd60e51b815260206004820152601f60248201527f424e422042616c616e6365206f6620636f6e7472616374206368616e676564006044820152606401610b09565b6005546040516370a0823160e01b815260009186916001600160a01b03909116906370a082319061219f903090600401614a90565b60206040518083038186803b1580156121b757600080fd5b505afa1580156121cb573d6000803e3d6000fd5b505050506040513d601f19601f820116820180604052508101906121ef91906148e0565b6121f99190614d8f565b6005546040516370a0823160e01b815291925086916001600160a01b03909116906370a082319061222e903090600401614a90565b60206040518083038186803b15801561224657600080fd5b505afa15801561225a573d6000803e3d6000fd5b505050506040513d601f19601f8201168201806040525081019061227e91906148e0565b116122c55760405162461bcd60e51b8152602060048201526017602482015276546f6b656e73206c6f737420696e20707572636861736560481b6044820152606401610b09565b8881106123255760405162461bcd60e51b815260206004820152602860248201527f546f6b656e7320696e637265617365642061667465722063686172676520616e604482015267642061747461636b60c01b6064820152608401610b09565b6005546040516370a0823160e01b81526001600160a01b03909116906370a0823190612355903090600401614a90565b60206040518083038186803b15801561236d57600080fd5b505afa158015612381573d6000803e3d6000fd5b505050506040513d601f19601f820116820180604052508101906123a591906148e0565b87116123f35760405162461bcd60e51b815260206004820152601e60248201527f50696767792062616c616e636520646964206e6f7420646563726561736500006044820152606401610b09565b336000908152600c6020526040908190205460055491516370a0823160e01b815290916001600160a01b0316906370a0823190612434903090600401614a90565b60206040518083038186803b15801561244c57600080fd5b505afa158015612460573d6000803e3d6000fd5b505050506040513d601f19601f8201168201806040525081019061248491906148e0565b61248e9089614d8f565b106124ea5760405162461bcd60e51b815260206004820152602660248201527f506c617965722063616e6e6f742070617920666f722062616c616e636520646560448201526563726561736560d01b6064820152608401610b09565b6005546040516370a0823160e01b81526001600160a01b03909116906370a082319061251a903090600401614a90565b60206040518083038186803b15801561253257600080fd5b505afa158015612546573d6000803e3d6000fd5b505050506040513d601f19601f8201168201806040525081019061256a91906148e0565b6125749088614d8f565b336000908152600c602052604081208054909190612593908490614d8f565b909155506125a290508961420a565b3360009081526008602052604081208054600192906125c2908490614d14565b909155505033600090815260086020526040812060020180548b92906125e9908490614d14565b909155505063ffffffff8816600090815260096020526040812060010180548b9290612616908490614d14565b90915550506005546040516370a0823160e01b815263ffffffff8a169133917f55252bb770185d49e48a996b6d4b370a3934ad86ae2f8cfc14e14a777bc9a057918d91879187916001600160a01b03909116906370a082319061267d903090600401614a90565b60206040518083038186803b15801561269557600080fd5b505afa1580156126a9573d6000803e3d6000fd5b505050506040513d601f19601f820116820180604052508101906126cd91906148e0565b6126d7908e614d8f565b6040516126e79493929190614cb6565b60405180910390a3505050505050505050565b60135460ff1661271c5760405162461bcd60e51b8152600401610b0990614c1d565b601454341461276d5760405162461bcd60e51b815260206004820152601f60248201527f424e422070726f7669646564206d75737420657175616c2074686520666565006044820152606401610b09565b6013543360009081526008602052604090206001015461ffff9081166101009092041614156127de5760405162461bcd60e51b815260206004820181905260248201527f506c617965722068617320616c7265616479206a6f696e656420736561736f6e6044820152606401610b09565b601354336000908152600860205260409020600101805461010090920461ffff1661ffff19909216919091179081905562010000900463ffffffff1661285d57600061282861430a565b60009081526007602052604090208054600161ff0160a01b0319163360ff60a81b191617600160a91b1760ff60a01b19169055505b60135460405161010090910461ffff169033907f485fd86c2a7d2d9ca3bf02e2ba776ea24271bc62274265b0bd5f478b3b7a1ca490600090a3565b60135460ff166128ba5760405162461bcd60e51b8152600401610b0990614c1d565b6005546040516370a0823160e01b81526000916001600160a01b0316906370a08231906128eb903390600401614a90565b60206040518083038186803b15801561290357600080fd5b505afa158015612917573d6000803e3d6000fd5b505050506040513d601f19601f8201168201806040525081019061293b91906148e0565b9050818110156129825760405162461bcd60e51b8152602060048201526012602482015271496e73756666696369656e742066756e647360701b6044820152606401610b09565b6005546040516370a0823160e01b81526000916001600160a01b0316906370a08231906129b3903090600401614a90565b60206040518083038186803b1580156129cb57600080fd5b505afa1580156129df573d6000803e3d6000fd5b505050506040513d601f19601f82011682018060405250810190612a0391906148e0565b6005546040516323b872dd60e01b8152336004820152306024820152604481018690529192506001600160a01b0316906323b872dd90606401602060405180830381600087803b158015612a5657600080fd5b505af1158015612a6a573d6000803e3d6000fd5b505050506040513d601f19601f82011682018060405250810190612a8e919061483c565b506005546040516370a0823160e01b81526000916001600160a01b0316906370a0823190612ac0903090600401614a90565b60206040518083038186803b158015612ad857600080fd5b505afa158015612aec573d6000803e3d6000fd5b505050506040513d601f19601f82011682018060405250810190612b1091906148e0565b9050818111612b5d5760405162461bcd60e51b81526020600482015260196024820152784e656761746976652042616c616e636520496e63726561736560381b6044820152606401610b09565b612b678282614d8f565b336000908152600c6020526040902054612b819190614d14565b336000818152600c6020526040908190209290925590517fe1fffcc4923d04b559f4d29a8bfc6cda04eb5b0d3c460751c2402c5c5cc9109c906119729087815260200190565b33612bd0611ae4565b6001600160a01b031614612bf65760405162461bcd60e51b8152600401610b0990614c45565b6013805460ff19169055600b80546000916009918391908290612c1b57612c1b614ea7565b90600052602060002090600891828204019190066004029054906101000a900463ffffffff1663ffffffff1663ffffffff1681526020019081526020016000206001015490506000600b600081548110612c7757612c77614ea7565b60009182526020822060088204015460079091166004026101000a900463ffffffff1691505b600b5463ffffffff82161015612dc757600060096000600b8463ffffffff1681548110612ccc57612ccc614ea7565b90600052602060002090600891828204019190066004029054906101000a900463ffffffff1663ffffffff1663ffffffff16815260200190815260200160002060010154905083811015612d5f57809350600b8263ffffffff1681548110612d3657612d36614ea7565b90600052602060002090600891828204019190066004029054906101000a900463ffffffff1692505b600060096000600b8563ffffffff1681548110612d7e57612d7e614ea7565b6000918252602080832060088304015460079092166004026101000a90910463ffffffff1683528201929092526040019020600101555080612dbf81614e15565b915050612c9d565b5063ffffffff808216600090815260096020526040902080546001928391612df6918391610100900416614d2c565b825461010092830a63ffffffff81810219909216928216029190911790925560135460405192851693500461ffff169033907faed0d6345cb4c5533f56ed9c9985c76c9d9b3bf5d8f982bb41e37eb6b951c02590600090a460135460405160ff9091161515903390600080516020614f5683398151915290600090a35050565b33612e7f611ae4565b6001600160a01b031614612ea55760405162461bcd60e51b8152600401610b0990614c45565b6040805160608101825260ff858116808352858216602084018190529185169284018390526011805461ffff19169091176101009092029190911762ff00001916620100009092029190911790555133907f4ae22a5b9d78e2b0d3fb8eea9f5f2694f34cf97e80c1344298cbbb5ec02e58df9061144390869086908690614cd1565b33612f30611ae4565b6001600160a01b031614612f565760405162461bcd60e51b8152600401610b0990614c45565b601481905560405181815233907fc533115b9f93488c8c9d7347ce77d644bc8373bcf0c979e0302bfb212c4a3cdc9060200160405180910390a250565b33612f9c611ae4565b6001600160a01b031614612fc25760405162461bcd60e51b8152600401610b0990614c45565b60135460ff161561300d5760405162461bcd60e51b815260206004820152601560248201527429b2b0b9b7b71031bab93932b73a363c9037b832b760591b6044820152606401610b09565b6001601360018282829054906101000a900461ffff1661302d9190614cee565b825461ffff91821661010093840a90810290830219909116179092556013805460ff19166001179081905560025460405163f33f523360e01b8152929091049092166004820152600760248201526001600160a01b03909116915063f33f523390604401600060405180830381600087803b1580156130ab57600080fd5b505af11580156130bf573d6000803e3d6000fd5b505060135460405161010090910461ffff169250339150600080516020614f1683398151915290600090a360135460405161010090910461ffff169033907f5a50928cc9965b99c403a9f54c05589bf0acb2208356788f730a70d05df5253e90600090a360135460405160ff9091161515903390600080516020614f5683398151915290600090a3565b33613152611ae4565b6001600160a01b0316146131785760405162461bcd60e51b8152600401610b0990614c45565b6001600160a01b0381166131dd5760405162461bcd60e51b815260206004820152602660248201527f4f776e61626c653a206e6577206f776e657220697320746865207a65726f206160448201526564647265737360d01b6064820152608401610b09565b6131e681613b4b565b50565b60025460009081906001600160a01b0316630ef7cc8e8585848161320f5761320f614ea7565b905060200201356040518263ffffffff1660e01b815260040161323491815260200190565b6040805180830381600087803b15801561324d57600080fd5b505af1158015613261573d6000803e3d6000fd5b505050506040513d601f19601f820116820180604052508101906132859190614898565b915091508060ff166001146132d35760405162461bcd60e51b815260206004820152601460248201527346697273742063617264206d757374206265203160601b6044820152606401610b09565b600254604051631b24783f60e21b815261ffff841660048201526000916001600160a01b031690636c91e0fc90602401602060405180830381600087803b15801561331d57600080fd5b505af1158015613331573d6000803e3d6000fd5b505050506040513d601f19601f8201168201806040525081019061335591906149ff565b905060ff811684146133bb5760405162461bcd60e51b815260206004820152602960248201527f57726f6e6720616d6f756e74206f6620636172647320746f20636f6d706c657460448201526819481d1a19481cd95d60ba1b6064820152608401610b09565b60005b8160ff168160ff16101561369d5760025433906001600160a01b0316636352211e888860ff86168181106133f4576133f4614ea7565b905060200201356040518263ffffffff1660e01b815260040161341991815260200190565b60206040518083038186803b15801561343157600080fd5b505afa158015613445573d6000803e3d6000fd5b505050506040513d601f19601f820116820180604052508101906134699190614646565b6001600160a01b0316146134bd5760405162461bcd60e51b815260206004820152601b60248201527a14d95b99195c88191bd95cc81b9bdd081bdddb881d1a1948139195602a1b6044820152606401610b09565b60025460009081906001600160a01b0316630ef7cc8e898960ff87168181106134e8576134e8614ea7565b905060200201356040518263ffffffff1660e01b815260040161350d91815260200190565b6040805180830381600087803b15801561352657600080fd5b505af115801561353a573d6000803e3d6000fd5b505050506040513d601f19601f8201168201806040525081019061355e9190614898565b915091508561ffff168261ffff16146135af5760405162461bcd60e51b815260206004820152601360248201527210d85c9908199c9bdb481ddc9bdb99c81cd95d606a1b6044820152606401610b09565b6135ba836001614d4b565b60ff168160ff161461360b5760405162461bcd60e51b815260206004820152601a6024820152792bb937b7339031b0b93210373ab6b132b91037b91037b93232b960311b6044820152606401610b09565b6002546001600160a01b031663bbfb2ac3898960ff871681811061363157613631614ea7565b905060200201356040518263ffffffff1660e01b815260040161365691815260200190565b600060405180830381600087803b15801561367057600080fd5b505af1158015613684573d6000803e3d6000fd5b505050505050808061369590614e39565b9150506133be565b50600254604051633c47200760e21b81526001600160a01b039091169063f11c801c906136d39033908790600090600401614aa4565b600060405180830381600087803b1580156136ed57600080fd5b505af1158015613701573d6000803e3d6000fd5b505060405161ffff861692503391507f054d4834ab43b4965f47bab5adcf41a1afde5d2fb732d0cb6de1b2a1fd48492090600090a35050505050565b600061374a846001614d4b565b60ff16838360405160200161377692919091825260f81b6001600160f81b031916602082015260210190565b6040516020818303038152906040528051906020012060001c611adc9190614e59565b600a600360ff851611156137ef5760405162461bcd60e51b815260206004820152601e60248201527f546f6f206d616e7920636f6d6d6f6e204e4654732067656e65726174656400006044820152606401610b09565b82156138cd57613800600182614d4b565b905060006138106002848461373d565b61381b906005614d4b565b600254601354604051633c47200760e21b81529293506001600160a01b039091169163f11c801c9161385d913391610100900461ffff16908690600401614aa4565b600060405180830381600087803b15801561387757600080fd5b505af115801561388b573d6000803e3d6000fd5b50506013546040516001815260ff8516935061010090910461ffff1691503390600080516020614f368339815191529060200160405180910390a45050505050565b60005b8460ff168160ff1610156139c2576138e9600183614d4b565b915060006138f96003858561373d565b613904906001614d4b565b600254601354604051633c47200760e21b81529293506001600160a01b039091169163f11c801c91613946913391610100900461ffff16908690600401614aa4565b600060405180830381600087803b15801561396057600080fd5b505af1158015613974573d6000803e3d6000fd5b50506013546040516000815260ff8516935061010090910461ffff1691503390600080516020614f368339815191529060200160405180910390a450806139ba81614e39565b9150506138d0565b5050505050565b6040805160028082526060820183526000926020830190803683375050600354604080516315ab88c960e31b815290519394506001600160a01b039091169263ad5c464892506004808301926020929190829003018186803b158015613a2e57600080fd5b505afa158015613a42573d6000803e3d6000fd5b505050506040513d601f19601f82011682018060405250810190613a669190614646565b81600081518110613a7957613a79614ea7565b6001600160a01b039283166020918202929092010152600654825191169082906001908110613aaa57613aaa614ea7565b6001600160a01b03928316602091820292909201015260035460405163fb3bdb4160e01b815291169063fb3bdb41908590613aef908690869030904290600401614b9b565b6000604051808303818588803b158015613b0857600080fd5b505af1158015613b1c573d6000803e3d6000fd5b50505050506040513d6000823e601f3d908101601f19168201604052613b45919081019061475b565b50505050565b600080546001600160a01b038381166001600160a01b0319831681178455604051919092169283917f8be0079c531659141344cd1fd0a4f28419497f9722a3daafe3b4186f6b6457e09190a35050565b600082815260076020526040902054600160a01b900460ff1615613bbd575050565b600082815260076020908152604091829020548251858152918201849052600160a81b810460ff16926001600160a01b03909116917f20d1ca5dbbb2f39cc7b0251ad053a1a5d809af19a2b84b36a55eb4c0f67f0bfd910160405180910390a36000828152600760205260409020805460ff60a01b1916600160a01b1790819055600160a81b900460ff1660011415613d1257600082815260076020818152604080842080546001600160a01b0380821687526008855283872084518086018652898152878752600160b01b9384900460ff9081168289019081526003909301805460018082018355918c52898c2093516002909102909301928355925191909201805460ff19169183169190911790559689905294845290549151868152908204909416939216917f5fa1b5be9f75ea850e0d61199cfdafe2939b7b9d42ac27d2c65997a155b79e05910160405180910390a35b600082815260076020526040902054600160a81b900460ff1660021415611b7557600b54600090613d439083614e59565b9050600b8163ffffffff1681548110613d5e57613d5e614ea7565b6000918252602080832060088084049091015487855260078084526040808720546001600160a01b0316875292909352908420600101805465ffffffff00001916929093166004026101000a900463ffffffff908116620100000291909117909155600b8054600993928516908110613dd957613dd9614ea7565b60009182526020808320600880840490910154600793841660040261010090810a90910463ffffffff90811687528684019790975260409586018520548a8652938352858520546001600160a01b03168552915292909120600101805463ffffffff60301b1916929091048316600160301b02919091179055600b805490918316908110613e6957613e69614ea7565b60009182526020808320600883040154868452600780835260409485902054945187815293166004026101000a900463ffffffff16926001600160a01b0316917f69a36584af49fb418c5b7fd9413e047845ca787e479381d9e192879e37dcafe1910160405180910390a3505050565b604080516002808252606082018352600092602083019080368337505060065482519293506001600160a01b031691839150600090613f1a57613f1a614ea7565b6001600160a01b03928316602091820292909201810191909152600354604080516315ab88c960e31b81529051919093169263ad5c4648926004808301939192829003018186803b158015613f6e57600080fd5b505afa158015613f82573d6000803e3d6000fd5b505050506040513d601f19601f82011682018060405250810190613fa69190614646565b81600181518110613fb957613fb9614ea7565b6001600160a01b0392831660209182029290920101526005546003549082169163095ea7b39116613feb856002614d70565b6040518363ffffffff1660e01b8152600401614008929190614acc565b602060405180830381600087803b15801561402257600080fd5b505af1158015614036573d6000803e3d6000fd5b505050506040513d601f19601f8201168201806040525081019061405a919061483c565b5060035460405163791ac94760e01b81526001600160a01b039091169063791ac94790614094908590600090869030904290600401614c7a565b600060405180830381600087803b1580156140ae57600080fd5b505af11580156140c2573d6000803e3d6000fd5b505050505050565b6040805160028082526060820183526000926020830190803683375050600354604080516315ab88c960e31b815290519394506001600160a01b039091169263ad5c464892506004808301926020929190829003018186803b15801561412f57600080fd5b505afa158015614143573d6000803e3d6000fd5b505050506040513d601f19601f820116820180604052508101906141679190614646565b8160008151811061417a5761417a614ea7565b6001600160a01b0392831660209182029290920101526006548251911690829060019081106141ab576141ab614ea7565b6001600160a01b03928316602091820292909201015260035460405163b6f9de9560e01b815291169063b6f9de959084906141f190600090869030904290600401614b9b565b6000604051808303818588803b15801561181d57600080fd5b600d548110156142175750565b600061422161430a565b60008181526007602052604090208054600160a81b600161ff0160a01b03199091163360ff60a81b1916171760ff60a01b19169055600e54909150821015614286576000818152600760205260409020805460ff60b01b1916600160b01b1790555050565b600f548210156142b2576000908152600760205260409020805460ff60b01b1916600160b11b17905550565b6010548210156142de576000908152600760205260409020805460ff60b01b1916600360b01b17905550565b601054821115611b75576000908152600760205260409020805460ff60b01b1916600160b21b17905550565b6000336001600160a01b03167f6a3ed4873a42ec1cb81e59f48d49acba7a232cc500451fd7f664e8d6f8d77c0c60125460405160200161434c91815260200190565b60405160208183030381529060405261436490614dee565b60405190815260200160405180910390a26016546040516370a0823160e01b81526001600160a01b037f000000000000000000000000000000000000000000000000000000000000000016906370a08231906143c4903090600401614a90565b60206040518083038186803b1580156143dc57600080fd5b505afa1580156143f0573d6000803e3d6000fd5b505050506040513d601f19601f8201168201806040525081019061441491906148e0565b10156144765760405162461bcd60e51b815260206004820152602b60248201527f4e6f7420656e6f756768204c494e4b202d2066696c6c20636f6e74726163742060448201526a1dda5d1a0819985d58d95d60aa1b6064820152608401610b09565b611d1460155460165460007f00000000000000000000000000000000000000000000000000000000000000006001600160a01b0316634000aea07f0000000000000000000000000000000000000000000000000000000000000000848660006040516020016144ef929190918252602082015260400190565b6040516020818303038152906040526040518463ffffffff1660e01b815260040161451c93929190614ae5565b602060405180830381600087803b15801561453657600080fd5b505af115801561454a573d6000803e3d6000fd5b505050506040513d601f19601f8201168201806040525081019061456e919061483c565b50600083815260016020818152604080842054815180840189905280830186905230606082015260808082018390528351808303909101815260a090910190925281519183019190912093879052908290526145c991614d14565b600085815260016020526040902055611adc8482604080516020808201949094528082019290925280518083038201815260609092019052805191012090565b803563ffffffff8116811461461d57600080fd5b919050565b60006020828403121561463457600080fd5b813561463f81614ed3565b9392505050565b60006020828403121561465857600080fd5b815161463f81614ed3565b6000806040838503121561467657600080fd5b823561468181614ed3565b9150602083013561469181614ed3565b809150509250929050565b6000806000606084860312156146b157600080fd5b83356146bc81614ed3565b925060208401356146cc81614ef6565b915060408401356146dc81614f06565b809150509250925092565b600080602083850312156146fa57600080fd5b82356001600160401b038082111561471157600080fd5b818501915085601f83011261472557600080fd5b81358181111561473457600080fd5b8660208260051b850101111561474957600080fd5b60209290920196919550909350505050565b6000602080838503121561476e57600080fd5b82516001600160401b038082111561478557600080fd5b818501915085601f83011261479957600080fd5b8151818111156147ab576147ab614ebd565b8060051b604051601f19603f830116810181811085821117156147d0576147d0614ebd565b604052828152858101935084860182860187018a10156147ef57600080fd5b600095505b838610156148125780518552600195909501949386019386016147f4565b5098975050505050505050565b60006020828403121561483157600080fd5b813561463f81614ee8565b60006020828403121561484e57600080fd5b815161463f81614ee8565b6000806040838503121561486c57600080fd5b50508035926020909101359150565b60006020828403121561488d57600080fd5b813561463f81614ef6565b600080604083850312156148ab57600080fd5b82516148b681614ef6565b602084015190925061469181614f06565b6000602082840312156148d957600080fd5b5035919050565b6000602082840312156148f257600080fd5b5051919050565b6000806040838503121561490c57600080fd5b82359150602083013561469181614ed3565b6000806000806080858703121561493457600080fd5b5050823594602084013594506040840135936060013592509050565b6000806040838503121561496357600080fd5b8235915061497360208401614609565b90509250929050565b600080600080600060a0868803121561499457600080fd5b8535945060208601356149a681614f06565b935060408601356149b681614f06565b925060608601356149c681614f06565b915060808601356149d681614f06565b809150509295509295909350565b6000602082840312156149f657600080fd5b61463f82614609565b600060208284031215614a1157600080fd5b815161463f81614f06565b600080600060608486031215614a3157600080fd5b8335614a3c81614f06565b925060208401356146cc81614f06565b600081518084526020808501945080840160005b83811015614a855781516001600160a01b031687529582019590820190600101614a60565b509495945050505050565b6001600160a01b0391909116815260200190565b6001600160a01b0393909316835261ffff91909116602083015260ff16604082015260600190565b6001600160a01b03929092168252602082015260400190565b60018060a01b038416815260006020848184015260606040840152835180606085015260005b81811015614b2757858101830151858201608001528201614b0b565b81811115614b39576000608083870101525b50601f01601f19169290920160800195945050505050565b6020808252825182820181905260009190848201906040850190845b81811015614b8f57835163ffffffff1683529284019291840191600101614b6d565b50909695505050505050565b848152608060208201526000614bb46080830186614a4c565b6001600160a01b03949094166040830152506060015292915050565b6020808252602d908201527f436f6e74726163742062616c616e63652064656372656173652067726561746560408201526c1c881d1a185b88185b5bdd5b9d609a1b606082015260800190565b6020808252600e908201526d11d85b59481a5cc818db1bdcd95960921b604082015260600190565b6020808252818101527f4f776e61626c653a2063616c6c6572206973206e6f7420746865206f776e6572604082015260600190565b85815284602082015260a060408201526000614c9960a0830186614a4c565b6001600160a01b0394909416606083015250608001529392505050565b93845260208401929092526040830152606082015260800190565b60ff93841681529183166020830152909116604082015260600190565b600061ffff808316818516808303821115614d0b57614d0b614e7b565b01949350505050565b60008219821115614d2757614d27614e7b565b500190565b600063ffffffff808316818516808303821115614d0b57614d0b614e7b565b600060ff821660ff84168060ff03821115614d6857614d68614e7b565b019392505050565b6000816000190483118215151615614d8a57614d8a614e7b565b500290565b600082821015614da157614da1614e7b565b500390565b600063ffffffff83811690831681811015614dc357614dc3614e7b565b039392505050565b600060ff821660ff841680821015614de557614de5614e7b565b90039392505050565b80516020808301519190811015614e0f576000198160200360031b1b821691505b50919050565b600063ffffffff80831681811415614e2f57614e2f614e7b565b6001019392505050565b600060ff821660ff811415614e5057614e50614e7b565b60010192915050565b600082614e7657634e487b7160e01b600052601260045260246000fd5b500690565b634e487b7160e01b600052601160045260246000fd5b634e487b7160e01b600052603160045260246000fd5b634e487b7160e01b600052603260045260246000fd5b634e487b7160e01b600052604160045260246000fd5b6001600160a01b03811681146131e657600080fd5b80151581146131e657600080fd5b61ffff811681146131e657600080fd5b60ff811681146131e657600080fdfe7a172277b094c4acc15853b0cd975c02bc34d94d7eeff554414443e73c50d18bae2aeeb4e80ee6199a75aa22a8a5023976e2e0e225f2eb79c0e81a3bca20ef4176c44eafd40df56df5a86a7681438428d3a62e0d19e9c73ee5600e486a908aed81bb8ab873c357dc0a1bc0671f71a0184e75a780388618f11b67a9504bf766f8a26469706673582212206c03a0213afb66df2754ec5a259808dddb5542d3e9eb916bd9842d222f6160e464736f6c63430008060033",
  "immutableReferences": {
    "73": [
      {
        "length": 32,
        "start": 17295
      },
      {
        "length": 32,
        "start": 17539
      }
    ],
    "75": [
      {
        "length": 32,
        "start": 6910
      },
      {
        "length": 32,
        "start": 17586
      }
    ]
  },
  "source": "// SPDX-License-Identifier: MIT\npragma solidity ^0.8.0;\n\nimport \"@uniswap/v2-core/contracts/interfaces/IUniswapV2Pair.sol\";\nimport \"@uniswap/v2-core/contracts/interfaces/IUniswapV2Factory.sol\";\nimport \"@uniswap/v2-periphery/contracts/interfaces/IUniswapV2Router01.sol\";\nimport \"@uniswap/v2-periphery/contracts/interfaces/IUniswapV2Router02.sol\";\nimport \"@openzeppelin/contracts/utils/Address.sol\";\nimport \"@openzeppelin/contracts/access/Ownable.sol\";\nimport \"@openzeppelin/contracts/token/ERC721/presets/ERC721PresetMinterPauserAutoId.sol\";\nimport \"@chainlink/contracts/src/v0.8/VRFConsumerBase.sol\";\n\nimport \"./IBEP20.sol\";\n\ninterface IRewardNFT is IERC721 {\n    function mint(address to, uint16 set, uint8 number) external;\n    function metadataOf(uint256 id) external returns (uint16, uint8);\n    function totalCardsOf(uint16 id) external returns (uint8);\n    function forgeBurn(uint256 id) external;\n    function addSet(uint16 set, uint8 number) external;\n}\n\ncontract piggyGame is Ownable, VRFConsumerBase  {\n    using Address for address;\n\n    // Reward NFT address\n    IRewardNFT public rewardNFT;\n    \n    // The swap router, modifiable.\n    IUniswapV2Router02 public pancakeSwapRouter;\n    \n    // The trading pair\n    address public pancakeSwapPair;\n    \n    //piggy token interface\n    IBEP20 private piggyToken;\n    address public piggyAddress;\n\n    // Chainlink randomness requests\n    struct ChainlinkRequest {\n        address requester;\n        bool fulfilled;\n        uint8 rtype;\n        uint8 grade;\n    }\n\n    mapping(bytes32 => ChainlinkRequest) requests;\n\n    struct BoosterPack {\n        uint256 seed;\n        uint8 grade;\n    }\n\n    struct Player {\n        uint256 gamesPlayed;\n        uint16 season;\n        uint32 team;\n        uint32 winsBeforeJoin;\n        uint256 experience;\n        BoosterPack[] boosterPacks;\n    }\n    // Players\n    mapping(address => Player) public players;\n\n    struct Team {\n        bool enabled;\n        uint32 wins;\n        uint256 damagePoints;\n    }\n\n    // Teams\n    mapping(uint32 => Team) public teams;\n\n    uint32 public latestTeam = 0;\n\n    uint32[] public activeTeams;\n\n    // User Piggy Balance\n    mapping(address => uint256) public balances;\n    \n    // Thresholds for different booster pack grades\n    struct Thresholds {\n        uint256 grade1;\n        uint256 grade2;\n        uint256 grade3;\n        uint256 grade4;\n    }\n\n    Thresholds public thresholds = Thresholds({\n        grade1: 10   * 10**8 * 10**9,\n        grade2: 1   * 10**9 * 10**9,\n        grade3: 3  * 10**9 * 10**9,\n        grade4: 5  * 10**9 * 10**9\n    });\n    struct RareChance {\n        uint8 grade2;\n        uint8 grade3;\n        uint8 grade4;\n    }\n    RareChance public rareChance = RareChance({\n        grade2: 30, // 1 in 30 Chance\n        grade3: 10, // 1 in 10 Chance\n        grade4: 5   // 1 in 5 Chance\n    });\n\n    uint256 latestRID = 0;\n    \n    bool public open = false;\n\n    uint16 public season = 0;\n\n    uint256 public joinFee = 10000000000000000; // 0.01 BNB\n\n    // Chainlink\n    bytes32 internal keyHash;\n    uint256 internal fee;\n\n    constructor(IBEP20 _piggyToken, address _router, address _coordinator, address _linkToken, bytes32 _hash, uint256 _fee)\n        VRFConsumerBase(\n            _coordinator,\n            _linkToken\n        )\n     {\n        keyHash = _hash;\n        fee = _fee;\n        piggyToken = _piggyToken;\n        piggyAddress = address(piggyToken);\n        pancakeSwapRouter = IUniswapV2Router02(_router);\n        pancakeSwapPair = IUniswapV2Factory(pancakeSwapRouter.factory()).getPair(address(piggyToken), pancakeSwapRouter.WETH());\n        require(pancakeSwapPair != address(0), \"TEST::updatepancakeSwapRouter: Invalid pair address.\");\n    }\n\n    event pancakeSwapRouterUpdated(address indexed operator, address indexed router, address indexed pair);\n    event SetOpen(address indexed owner, bool indexed open);\n    event SetSeason(address indexed owner, uint32 indexed season);\n    event SetJoinFee(address indexed owner, uint256 fee);\n    event SeasonClose(address indexed owner, uint32 indexed season, uint32 indexed winner);\n    event SeasonOpen(address indexed owner, uint32 indexed season);\n    event TeamAdded(address indexed owner, uint32 indexed team);\n    event OwnerWithdrawal(address indexed owner, address indexed to, uint256 amount);\n    event JoinedGame(address indexed player, uint256 indexed season);\n    event TokensPurchased(address indexed player, uint256 amount, uint256 minAmount, uint256 BNBSent);\n    event Deposit(address indexed player, uint256 amount);\n    event Withdrawal(address indexed player, uint256 amount);\n    event Attack(address indexed player, uint32 indexed team, uint256 amount, uint256 ethAmount, uint256 tokensReturned, uint256 BalanceChange);\n    event RandomNumberRequest(address indexed requester, bytes32 id);\n    event RandomNumberFulfilled(address indexed requester, uint8 indexed rtype, bytes32 id, uint256 randomness);\n    event ReceivedBoosterBack(address indexed requester, uint8 indexed grade, uint256 randomness);\n    event TeamAssigned(address indexed requester, uint32 indexed team, uint256 randomness);\n    event BoosterPackOpened(address indexed player, uint8 indexed grade, uint256 seed);\n    event NFTAwarded(address indexed player, uint16 indexed set, uint8 indexed number, bool rare);\n    event LegendaryForged(address indexed player, uint16 indexed set);\n    event ThresholdsSet(address indexed owner, uint256 grade1, uint256 grade2, uint256 grade3, uint256 grade4);\n    event RareChanceSet(address indexed owner, uint256 grade2, uint256 grade3, uint256 grade4);\n\n    // To receive BNB from pancakeSwapRouter when swapping\n    receive() external payable {}\n\n    /**\n    * @dev Returns the address of the current operator.\n    */\n    function totalBalance() public view returns (uint256) {\n        return piggyToken.balanceOf(address(this));\n    }\n    function getJoinFee() public view returns (uint256) {\n        return joinFee;\n    }\n    function isGameOpen() public view returns (bool) {\n        return open;\n    }\n    function currentSeason() public view returns (uint16) {\n        return season;\n    }\n    function balanceOf(address _player) public view returns (uint256) {\n        return balances[_player];\n    }\n    function boosterPackBalanceOf(address _player) public view returns(uint256){\n        return players[_player].boosterPacks.length;\n    }\n    function totalGamesPlayedOf(address _player) public view returns(uint256){\n        return players[_player].gamesPlayed;\n    }\n    function teamOf(address _player) public view returns(uint256){\n        return players[_player].team;\n    }\n    function getThresholds() public view returns(uint256, uint256, uint256, uint256) {\n        return (thresholds.grade1, thresholds.grade2, thresholds.grade3, thresholds.grade4);\n    }\n    function hasPlayerJoined(address _player) public view returns(bool) {\n        return players[_player].season == season;\n    }\n    function getRareChances() public view returns(uint8, uint8, uint8) {\n        return (rareChance.grade2, rareChance.grade3, rareChance.grade4);\n    }\n    function teamDamageOf(uint32 teamId) public view returns(uint256) {\n        return teams[teamId].damagePoints;\n    }\n    function teamWinsOf(uint32 teamId) public view returns(uint32) {\n        return teams[teamId].wins;\n    }\n    function getActiveTeams() public view returns(uint32[] memory) {\n        return activeTeams;\n    }\n    function playerWins(address _player) public view returns(uint32){\n        uint32 team = players[_player].team;\n        uint32 winsBeforeJoin = players[_player].winsBeforeJoin;\n        require(teams[team].wins >= winsBeforeJoin, \"Wins before join higher than total wins\");\n        return teams[team].wins - winsBeforeJoin;\n    }\n    function setOpen(bool isOpen) public onlyOwner {\n        open = isOpen;\n        emit SetOpen(msg.sender, open);\n    }\n    function setSeason(uint16 _season) public onlyOwner {\n        season = _season;\n        emit SetSeason(msg.sender, season);\n    }\n    function openSeason() public onlyOwner {\n        require(open == false, \"Season currently open\");\n        season += 1;\n        open = true;\n        rewardNFT.addSet(season, 7);\n        emit SetSeason(msg.sender, season);\n        emit SeasonOpen(msg.sender, season);\n        emit SetOpen(msg.sender, open);\n    }\n    function closeSeason() public onlyOwner {\n        open = false;\n        uint256 lowestDamagePoints = teams[activeTeams[0]].damagePoints;\n        uint32 winningTeam = activeTeams[0];\n        for (uint32 i = 0; i < activeTeams.length; i++) {\n            uint256 teamDamagePoints = teams[activeTeams[i]].damagePoints;\n            if (teamDamagePoints < lowestDamagePoints){\n                lowestDamagePoints = teamDamagePoints;\n                winningTeam = activeTeams[i];\n            }\n            teams[activeTeams[i]].damagePoints = 0;\n        }\n        teams[winningTeam].wins += 1;\n        emit SeasonClose(msg.sender, season, winningTeam);\n        emit SetOpen(msg.sender, open);\n    }\n\n    function addTeam() public onlyOwner {\n        latestTeam += 1;\n        teams[latestTeam].enabled = true;\n        activeTeams.push(latestTeam);\n        emit TeamAdded(msg.sender, latestTeam);\n    }\n    function withdrawETH(uint256 amount, address payable _to) public onlyOwner {\n        _to.transfer(amount);\n        emit OwnerWithdrawal(msg.sender, _to, amount);\n    }\n    function withdrawAllETH(address payable _to) public onlyOwner {\n        _to.transfer(address(this).balance);\n        emit OwnerWithdrawal(msg.sender, _to, address(this).balance);\n    }\n    function setJoinFee(uint256 _fee) public onlyOwner {\n        joinFee = _fee;\n        emit SetJoinFee(msg.sender, _fee);\n    }\n    /**\n     * @dev Update the swap router.\n     * Can only be called by the current operator.\n     */\n    function updatePancakeSwapRouter(address _router, address _piggyAddress) public onlyOwner {\n        piggyAddress = _piggyAddress;\n        piggyToken = IBEP20(_piggyAddress);\n        pancakeSwapRouter = IUniswapV2Router02(_router);\n        pancakeSwapPair = IUniswapV2Factory(pancakeSwapRouter.factory()).getPair(_piggyAddress , pancakeSwapRouter.WETH());\n        require(pancakeSwapPair != address(0), \"TEST::updatepancakeSwapRouter: Invalid pair address.\");\n        emit pancakeSwapRouterUpdated(msg.sender, address(pancakeSwapRouter), pancakeSwapPair);\n    }\n    function updateNFTAddress(IRewardNFT _rewardNFTAddress) public onlyOwner {\n        rewardNFT = _rewardNFTAddress;\n    }\n\n    function join() public payable {\n        require(open, \"Game is closed\");\n        require(msg.value == joinFee, \"BNB provided must equal the fee\");\n        require(players[msg.sender].season != season, \"Player has already joined season\");\n        players[msg.sender].season = season;\n        if (players[msg.sender].team == 0) {\n            bytes32 requestId = getRandomNumber();\n            requests[requestId].requester = msg.sender;\n            requests[requestId].rtype = 2;\n            requests[requestId].fulfilled = false;\n        }\n        emit JoinedGame(msg.sender, season);\n    }\n    function buyTokens(uint256 minTokens) public payable {\n        require(open, \"Game is closed\");\n        require(msg.value > 0, \"No BNB provided\");\n        uint256 initialTokenBalance = piggyToken.balanceOf(address(this));\n        swapEthForExactTokens(msg.value, minTokens);\n        uint256 finalTokenBalance = piggyToken.balanceOf(address(this));\n        require(finalTokenBalance > initialTokenBalance, \"No Tokens provided\");\n        balances[msg.sender] = balances[msg.sender] + finalTokenBalance - initialTokenBalance;\n        emit TokensPurchased(msg.sender, finalTokenBalance - initialTokenBalance, minTokens, msg.value);\n    }\n    function deposit(uint256 amount) public {\n        require(open, \"Game is closed\");\n        uint256 tokenbalance = piggyToken.balanceOf(msg.sender);\n        require(tokenbalance >= amount, \"Insufficient funds\");\n        uint256 previousBalance = piggyToken.balanceOf(address(this));\n        // Transfer tokens to the game contract\n        piggyToken.transferFrom(msg.sender, address(this), amount);\n        uint256 currentBalance = piggyToken.balanceOf(address(this));\n        require(currentBalance > previousBalance, \"Negative Balance Increase\");\n        balances[msg.sender] = balances[msg.sender] + (currentBalance - previousBalance);\n        emit Deposit(msg.sender, amount);\n    }\n\n    function withdraw(uint256 amount) public {\n        require(balances[msg.sender] >= amount, \"Insufficient token balance\");\n        uint256 previousBalance = piggyToken.balanceOf(address(this));\n        piggyToken.transfer(msg.sender, amount);\n        balances[msg.sender] = balances[msg.sender] - amount;\n        require((previousBalance - piggyToken.balanceOf(address(this))) <= amount, \"Contract balance decrease greater than amount\");\n        emit Withdrawal(msg.sender, amount);\n    }\n\n    function attack(uint256 amount, uint32 team) public {\n        require(open, \"Game is closed\");\n        require(season > 0, \"Season not set\");\n        require(players[msg.sender].season == season, \"Player has not entered season\");\n        require(players[msg.sender].team != team, \"Cannot attack own team\");\n        require(players[msg.sender].team != 0, \"Player is not on any team\");\n        require(teams[team].enabled, \"Team is not enabled\");\n        require(balances[msg.sender] >= amount, \"Insufficient balance\");\n\n        uint256 initialBalance = piggyToken.balanceOf(address(this));\n        uint256 initialETHBalance = address(this).balance;\n\n        swapTokensForEth(amount); // Sell tokens for ETH\n\n        uint256 afterBalance = piggyToken.balanceOf(address(this));\n        uint256 afterETHBalance = address(this).balance;\n\n        uint256 tokensSold = initialBalance - afterBalance; // Tokens sold in the first swap\n        require(tokensSold <= amount, \"Contract balance decrease greater than amount\"); // Fails on ==, why?\n\n        uint256 ETHReceived = afterETHBalance - initialETHBalance; // ETH Received from token sale\n        require(afterETHBalance > initialETHBalance, \"Negative BNB from selling tokens\");\n\n        swapEthForTokens(ETHReceived); // Buy tokens for ETH\n\n        require(address(this).balance == initialETHBalance, \"BNB Balance of contract changed\");\n\n        uint256 tokensReceived = piggyToken.balanceOf(address(this)) - afterBalance;\n        require(piggyToken.balanceOf(address(this)) > afterBalance, \"Tokens lost in purchase\");\n        require(tokensReceived < amount, \"Tokens increased after charge and attack\");\n        require(initialBalance > piggyToken.balanceOf(address(this)), \"Piggy balance did not decrease\");\n        require((initialBalance - piggyToken.balanceOf(address(this))) < balances[msg.sender], \"Player cannot pay for balance decrease\");\n\n        // Change in piggy balance is charged to the player\n        balances[msg.sender] -= initialBalance - piggyToken.balanceOf(address(this));\n\n        requestReward(amount);\n        players[msg.sender].gamesPlayed += 1;\n        players[msg.sender].experience += amount;\n        teams[team].damagePoints += amount;\n        emit Attack(\n        msg.sender, \n        team,\n        amount, \n        ETHReceived,\n        tokensReceived,\n        initialBalance - piggyToken.balanceOf(address(this)));\n    }\n\n    function getRandomNumber() private returns (bytes32 requestId) {\n        emit RandomNumberRequest(msg.sender, bytes32(abi.encodePacked(latestRID)));\n        require(LINK.balanceOf(address(this)) >= fee, \"Not enough LINK - fill contract with faucet\");\n        return requestRandomness(keyHash, fee);\n    }\n\n    function requestReward(uint256 amount) private {\n        if (amount < thresholds.grade1) {\n            return;\n        }\n        bytes32 requestId = getRandomNumber();\n        requests[requestId].requester = msg.sender;\n        requests[requestId].rtype = 1;\n        requests[requestId].fulfilled = false;\n\n        if (amount < thresholds.grade2) {\n            requests[requestId].grade = 1;\n        } else if (amount < thresholds.grade3) {\n            requests[requestId].grade = 2;\n        } else if (amount < thresholds.grade4) {\n            requests[requestId].grade = 3;\n        } else if (amount > thresholds.grade4) {\n            requests[requestId].grade = 4;\n        }\n    }\n\n    function fulfillRandomness(bytes32 requestId, uint256 randomness) internal override {\n        if (requests[requestId].fulfilled) {\n            return;\n        }\n        emit RandomNumberFulfilled(requests[requestId].requester, requests[requestId].rtype, requestId, randomness);\n        requests[requestId].fulfilled = true;\n\n        // rtype 1: Booster pack\n        if (requests[requestId].rtype == 1) {\n            players[requests[requestId].requester].boosterPacks.push(BoosterPack({\n                grade: requests[requestId].grade,\n                seed: randomness\n            }));\n            emit ReceivedBoosterBack(requests[requestId].requester, requests[requestId].grade, randomness);\n        }\n        // rtype 1: Team Assignment\n        if (requests[requestId].rtype == 2) {\n            uint32 teamIndex = uint32(randomness % activeTeams.length);\n            players[requests[requestId].requester].team = activeTeams[teamIndex];\n            players[requests[requestId].requester].winsBeforeJoin = teams[activeTeams[teamIndex]].wins;\n            emit TeamAssigned(requests[requestId].requester, activeTeams[teamIndex], randomness);\n        }\n    }\n\n    function unpackBoosterPack() public {\n        uint numPacks = players[msg.sender].boosterPacks.length;\n        require(numPacks > 0, \"No booster packs to unpack\");\n        uint256 seed = players[msg.sender].boosterPacks[numPacks-1].seed;\n        uint8 grade = players[msg.sender].boosterPacks[numPacks-1].grade;\n        (uint8 numCommon, bool getRare) = getNumRewards(seed, grade, rareChance.grade2-1, rareChance.grade3-1, rareChance.grade4-1);\n        assignNFTs(numCommon, getRare, seed);\n        players[msg.sender].boosterPacks.pop();\n        emit BoosterPackOpened(msg.sender, grade, seed);\n    }\n    function getNumRewards(uint256 seed, uint8 grade, uint8 grade2RareChance, uint8 grade3RareChance, uint8 grade4RareChance) public pure returns(uint8, bool) { // Common, Rare\n        require(grade > 0, \"Grade too low\");\n        require(grade <= 4, \"Grade too high\");\n        if (grade == 1) { // Grade 1: 1 in 3 chance of Common NFT, No Rare\n            // Common, 1 in 3 chance\n            if (getRandomInt(2, seed, 0) == 0) {\n                return (1, false);\n            }\n        } else if (grade == 2) { // Grade 2: 0 to 1 Common NFTs, 1 in grade2RareChance Chance of Rare\n            // Rare\n            if (getRandomInt(grade2RareChance, seed, 0) == 0) {\n                return (0, true);\n            }\n            // Common\n            return (getRandomInt(1, seed, 1), false);\n        } else if (grade == 3) { // Grade 2: 0 to 2 Common NFTs, 1 in grade3RareChance Chance of Rare\n            // Rare\n            if (getRandomInt(grade3RareChance, seed, 0) == 0) {\n                return (0, true);\n            }\n            // Common\n            return (getRandomInt(2, seed, 1), false);\n\n        } else if (grade == 4) { // Grade 2: 1 to 3 Common NFTs, 1 in grade4RareChance Chance of Rare\n            // Rare\n            if (getRandomInt(grade4RareChance, seed, 0) == 0) {\n                return (0, true);\n            }\n            // Common\n            return (getRandomInt(2, seed, 1) + 1, false);\n        }\n        return (0, false);\n    }\n\n    function assignNFTs(uint8 numCommon, bool getRare, uint256 seed) private {\n        uint8 nonce = 10;\n        require(numCommon <= 3, \"Too many common NFTs generated\");\n        if (getRare) {\n            nonce +=1;\n            // Mint Rare NFT\n            uint8 number = getRandomInt(2, seed, nonce) + 5; // 0-2 + 5 = 5-7\n            rewardNFT.mint(msg.sender, season, number);\n            emit NFTAwarded(msg.sender, season, number, true);\n            return;\n        }\n        for (uint8 i = 0 ; i < numCommon; i++) {\n            nonce += 1;\n            // Mint Common NFT\n            uint8 number = getRandomInt(3, seed, nonce) + 1; // 0-3 + 1 = 1-4\n            rewardNFT.mint(msg.sender, season, number);\n            emit NFTAwarded(msg.sender, season, number, false);\n        }\n    }\n\n    function getRandomInt(uint8 max, uint256 seed, uint8 nonce) pure private returns(uint8) {\n        return uint8(uint256(keccak256(abi.encodePacked(seed, nonce))) % (max+1));\n    }\n\n    function forgeLegendary(uint256[] calldata ids) public {\n        (uint16 cardSet, uint8 _number) = rewardNFT.metadataOf(ids[0]);\n        require(_number == 1, \"First card must be 1\");\n        uint8 totalCards = rewardNFT.totalCardsOf(cardSet);\n        require(totalCards == ids.length, \"Wrong amount of cards to complete the set\");\n\n        for (uint8 i = 0 ; i < totalCards; i++) {\n            require(rewardNFT.ownerOf(ids[i]) == msg.sender, \"Sender does not own the NFT\");\n            (uint16 set, uint8 number) = rewardNFT.metadataOf(ids[i]);\n            require(set == cardSet, \"Card from wrong set\");\n            require(number == (i+1), \"Wrong card number or order\"); // Cards are from 1 to totalCards, i is from 0 to totalCards - 1\n            rewardNFT.forgeBurn(ids[i]); // Burn NFT\n        }\n        rewardNFT.mint(msg.sender, cardSet, 0); // Card 0 of set is Legendary\n        emit LegendaryForged(msg.sender, cardSet);\n    }\n    \n    function setThresholds(uint256 grade1, uint256 grade2, uint256 grade3, uint256 grade4) public onlyOwner {\n        thresholds = Thresholds({\n            grade1: grade1, \n            grade2: grade2,\n            grade3: grade3,\n            grade4: grade4\n        });\n        emit ThresholdsSet(msg.sender, grade1, grade2, grade3, grade4);\n    }\n\n    function setRareChance(uint8 grade2, uint8 grade3, uint8 grade4) public onlyOwner {\n        rareChance = RareChance({\n            grade2: grade2,\n            grade3: grade3,\n            grade4: grade4\n        });\n        emit RareChanceSet(msg.sender, grade2, grade3, grade4);\n    }\n\n    /// @dev Swap tokens for eth\n    function swapTokensForEth(uint256 tokenAmount) private {\n        // generate the testSwap pair path of token -> weth\n        address[] memory path = new address[](2);\n        path[0] = piggyAddress;\n        path[1] = pancakeSwapRouter.WETH();\n\n        piggyToken.approve(address(pancakeSwapRouter), tokenAmount*2);\n        \n        // make the swap\n        pancakeSwapRouter.swapExactTokensForETHSupportingFeeOnTransferTokens(\n           tokenAmount,\n            0, // get anything we can\n            path,\n            address(this),\n            block.timestamp\n        );\n    }\n    \n    // @dev Swap tokens for eth\n    function swapEthForTokens(uint256 EthAmount ) private {\n        // generate the testSwap pair path of token -> weth\n        address[] memory path = new address[](2);\n        path[0] = pancakeSwapRouter.WETH();\n        path[1] = piggyAddress;\n\n        // make the swap\n        pancakeSwapRouter.swapExactETHForTokensSupportingFeeOnTransferTokens{value: EthAmount}(\n           0 ,// get anything we can\n            path,\n             address(this),\n            block.timestamp\n        );\n    }\n    // @dev Swap tokens for eth\n    function swapEthForExactTokens(uint256 EthAmount, uint256 minTokens) private {\n        // generate the testSwap pair path of token -> weth\n        address[] memory path = new address[](2);\n        path[0] = pancakeSwapRouter.WETH();\n        path[1] = piggyAddress;\n\n        // Make the swap\n        pancakeSwapRouter.swapETHForExactTokens{value: EthAmount}(\n            minTokens,// get anything we can\n            path,\n            address(this),\n            block.timestamp\n        );\n    }\n\n    function inRange(uint256 lowerLimit, uint256 upperLimit, uint256 value) internal pure returns(bool){\n        if(value >= lowerLimit && value <= upperLimit) {\n            return true;\n        }\n        return false;\n    }\n    function mintNFT(address to, uint16 set, uint8 number) public onlyOwner {\n        rewardNFT.mint(to, set, number);\n    }\n}",
  "sourcePath": "/home/moot/projects/vw/contracts/piggyGame.sol",
  "compiler": {
    "name": "solc",
    "version": "0.8.6+commit.11564f7e.Emscripten.clang"
  },
  "schemaVersion": "3.4.1",
  "updatedAt": "2021-08-02T20:24:52.273Z",
  "networkType": "ethereum",
  "devdoc": {
    "kind": "dev",
    "methods": {
      "owner()": {
        "details": "Returns the address of the current owner."
      },
      "renounceOwnership()": {
        "details": "Leaves the contract without owner. It will not be possible to call `onlyOwner` functions anymore. Can only be called by the current owner. NOTE: Renouncing ownership will leave the contract without an owner, thereby removing any functionality that is only available to the owner."
      },
      "totalBalance()": {
        "details": "Returns the address of the current operator."
      },
      "transferOwnership(address)": {
        "details": "Transfers ownership of the contract to a new account (`newOwner`). Can only be called by the current owner."
      },
      "updatePancakeSwapRouter(address,address)": {
        "details": "Update the swap router. Can only be called by the current operator."
      }
    },
    "version": 1
  },
  "userdoc": {
    "kind": "user",
    "methods": {},
    "version": 1
  }
}